:020000040000fa
:080000000002040000000000f2
:020000040000fa
:1000080090020000900200009002000090020000a0
:100018009002000090020000900200009002000090
:100028009002000090020000900200004a3c00008c
:100038009002000090020000900200009002000070
:10004800900200009002000090020000b437000007
:100058002c3900009002000090020000900200007d
:100068009002000090020000900200009002000040
:100078009002000090020000900200009002000030
:100088009002000090020000900200009002000020
:100098009002000090020000900200009002000010
:1000a8009002000090020000900200009002000000
:1000b80090020000900200009002000090020000f0
:1000c80090020000900200009002000090020000e0
:1000d80090020000900200009002000090020000d0
:1000e80090020000900200009002000090020000c0
:1000f80090020000900200009002000090020000b0
:10010800900200009002000090020000900200009f
:10011800900200009002000090020000900200008f
:10012800900200009002000090020000900200007f
:10013800900200009002000090020000900200006f
:10014800900200009002000090020000900200005f
:10015800900200009002000090020000900200004f
:10016800900200009002000090020000900200003f
:10017800900200009002000090020000900200002f
:10018800900200009002000090020000900200001f
:10019800900200009002000090020000900200000f
:1001a80090020000900200009002000090020000ff
:1001b80090020000900200009002000090020000ef
:1001c80090020000900200009002000090020000df
:1001d80090020000900200009002000090020000cf
:1001e80090020000900200009002000090020000bf
:0801f8009002000090020000db
:020000040000fa
:10020800900200009002000090020000900200009e
:10021800900200009002000090020000900200008e
:100228009002000090020000900200004a3c00008a
:10023800900200009002000090020000900200006e
:10024800900200009002000090020000b437000005
:100258002c3900009002000090020000900200007b
:10026800900200009002000090020000900200003e
:10027800900200009002000090020000900200002e
:10028800900200009002000090020000900200001e
:10029800900200009002000090020000900200000e
:1002a80090020000900200009002000090020000fe
:1002b80090020000900200009002000090020000ee
:1002c80090020000900200009002000090020000de
:1002d80090020000900200009002000090020000ce
:1002e80090020000900200009002000090020000be
:1002f80090020000900200009002000090020000ae
:10030800900200009002000090020000900200009d
:10031800900200009002000090020000900200008d
:10032800900200009002000090020000900200007d
:10033800900200009002000090020000900200006d
:10034800900200009002000090020000900200005d
:10035800900200009002000090020000900200004d
:10036800900200009002000090020000900200003d
:10037800900200009002000090020000900200002d
:10038800900200009002000090020000900200001d
:10039800900200009002000090020000900200000d
:1003a80090020000900200009002000090020000fd
:1003b80090020000900200009002000090020000ed
:1003c80090020000900200009002000090020000dd
:1003d80090020000900200009002000090020000cd
:1003e80090020000900200009002000090020000bd
:0803f8009002000090020000d9
:020000040000fa
:10040000ef9d20000e7f22000e01880000000000fa
:100410000c000700c0d223000100200011000700db
:10042000000020000000e000020032000000020096
:1004300000000000f6080200000000000040da00a2
:100440000000fe004440a900206320000000e000fe
:100450000300320000002000a00188004440a800f2
:100460000000060091018800800078000000eb0089
:1004700015003700e280400032a0b4009101ba00bc
:10048000e280400032a0b4009102ba00e280400055
:1004900032a0b4000002eb00472bde00f507b200eb
:1004a000602ce10004003a000059eb008301e900f0
:1004b000fdff3e00040037006128e100010032002a
:1004c0000082eb00040007001101ba000200e00006
:1004d000e8ff3a00000006003159ba008301e90044
:1004e0000c0032002159ba008301e90008003200f3
:1004f0000400e00003003a00e280400032a0b400b3
:10050000f5ff370011d9ba008301e900faff3a007c
:100510008100e800e180400032a0b4000000060045
:100520000040da000000fe00800078000041eb008f
:10053000b14f1100fdff3a000080ea00008040004a
:100540000000060080017800060037000201e90083
:100550001142780084597800e04f520006003200c2
:100560008100e800e00f5100f8ff3a000200370078
:100570008059eb00010178008200e900e00f510092
:08058000fbff3a000000060039
:020000040000fa
:10058800ff000000e7000000c30000009900000021
:1005980099000000990000009900000099000000ef
:1005a80099000000990000009900000099000000df
:1005b80099000000c3000000e7000000ff000000f1
:1005c800ff000000e7000000e3000000e100000079
:1005d800e7000000e7000000e7000000e700000077
:1005e800e7000000e7000000e7000000e700000067
:1005f800e70000008100000081000000ff0000000b
:10060800ff000000c3000000810000009d00000002
:100618009f0000009f0000009f000000cf00000026
:10062800e7000000f3000000f9000000f9000000f6
:10063800f90000008100000081000000ff000000b8
:10064800ff000000c3000000810000009f000000c0
:100658009f0000009f0000009f000000c3000000f2
:10066800c30000009f0000009f0000009f000000e2
:100678009f00000081000000c3000000ff00000090
:10068800ff000000cf000000c7000000c30000000a
:10069800c9000000c9000000c9000000c90000002e
:1006a8008100000081000000cf000000cf000000a2
:1006b800cf000000cf000000cf000000ff000000c6
:1006c800ff0000008100000081000000f900000028
:1006d800f9000000f9000000f9000000c100000066
:1006e800810000009f0000009f0000009f000000a4
:1006f8009d00000081000000c3000000ff00000012
:10070800ff0000008300000081000000b900000025
:10071800f9000000f9000000f9000000f9000000ed
:10072800c10000008100000099000000990000004d
:100738009900000081000000c3000000ff000000d5
:10074800ff00000081000000810000009f00000001
:100758009f0000009f0000009f0000009f00000015
:10076800cf000000e7000000e7000000e7000000fd
:10077800e7000000e7000000e7000000ff000000bd
:10078800ff000000c3000000810000009900000085
:10079800990000009900000099000000c3000000c3
:1007a800c3000000990000009900000099000000b3
:1007b8009900000081000000c3000000ff00000055
:1007c800ff000000c3000000810000009900000045
:1007d80099000000990000008100000083000000db
:1007e8009f0000009f0000009f0000009f00000085
:1007f8009d00000081000000c3000000ff00000011
:10080800ff000000e7000000db0000009900000086
:10081800990000009900000099000000990000006c
:100828008100000099000000990000009900000074
:10083800990000009900000099000000ff000000e6
:10084800ff000000e1000000c10000009900000066
:10085800990000009900000099000000c100000004
:10086800c1000000990000009900000099000000f4
:1008780099000000c1000000e1000000ff00000036
:10088800ff000000c300000081000000f900000024
:10089800f9000000f9000000f9000000f90000006c
:1008a800f9000000f9000000f9000000f90000005c
:1008b800f900000081000000c3000000ff000000f4
:1008c800ff000000e1000000c100000099000000e6
:1008d80099000000990000009900000099000000ac
:1008e800990000009900000099000000990000009c
:1008f80099000000c1000000e1000000ff000000b6
:10090800ff0000008300000081000000f9000000e3
:10091800f9000000f9000000f9000000c100000023
:10092800c1000000f9000000f9000000f900000013
:10093800f90000008100000083000000ff000000b3
:10094800ff0000008300000081000000f9000000a3
:10095800f9000000f9000000f9000000c1000000e3
:10096800c1000000f9000000f9000000f9000000d3
:10097800f9000000f9000000f9000000ff00000085
:10098800ff0000008300000081000000f900000063
:10099800f9000000f9000000f9000000f90000006b
:1009a800f9000000f90000000900000099000000ab
:1009b800990000008100000083000000ff00000093
:1009c800ff00000099000000990000009900000055
:1009d80099000000990000009900000081000000c3
:1009e800990000009900000099000000990000009b
:1009f800990000009900000099000000ff00000025
:100a0800ff0000008100000081000000e7000000f6
:100a1800e7000000e7000000e7000000e700000032
:100a2800e7000000e7000000e7000000e700000022
:100a3800e70000008100000081000000ff000000c6
:100a4800ff0000009f0000009f0000009f000000c2
:100a58009f0000009f0000009f0000009f00000012
:100a68009f0000009f00000099000000990000000e
:100a7800990000008100000081000000ff000000d4
:100a8800ff000000fc000000bc0000009c0000000b
:100a9800cc000000e4000000f0000000f8000000b6
:100aa800f8000000f0000000e4000000cc000000a6
:100ab8009c000000bc000000fc000000ff000000db
:100ac800ff000000f9000000f9000000f900000034
:100ad800f9000000f9000000f9000000f90000002a
:100ae800f9000000f9000000f9000000b90000005a
:100af800b90000008100000081000000ff00000034
:100b0800ff000000990000002400000024000000fd
:100b1800240000002400000024000000240000003d
:100b28003c0000003c0000003c0000003c000000cd
:100b38003c0000003c0000003c000000ff000000fa
:100b4800ff000000b9000000b9000000b900000073
:100b5800b9000000b1000000b1000000a5000000cd
:100b6800a5000000ad0000008d0000008d00000011
:100b78009d0000009d0000009d000000ff00000097
:100b8800ff000000810000008100000099000000c3
:100b980099000000990000009900000099000000e9
:100ba80099000000990000009900000099000000d9
:100bb800990000008100000081000000ff00000093
:100bc800ff00000083000000810000009900000081
:100bd80099000000990000008100000081000000d9
:100be800f9000000f9000000f9000000f900000019
:100bf800f9000000f9000000f9000000ff00000003
:100c0800ff000000c3000000810000009900000000
:100c18009900000099000000990000009900000068
:100c2800990000009900000089000000c100000040
:100c380093000000bf000000ff000000ff0000005c
:100c4800ff000000c30000008100000099000000c0
:100c58009900000099000000c9000000e1000000b0
:100c6800f1000000c10000008900000099000000a8
:100c7800990000009900000099000000ff000000a2
:100c8800ff0000008300000081000000b9000000a0
:100c9800f9000000f9000000f9000000c1000000a0
:100ca800830000009f0000009f0000009d000000de
:100cb8009d00000081000000c1000000ff0000004e
:100cc800ff0000008100000081000000e700000034
:100cd800e7000000e7000000e7000000e700000070
:100ce800e7000000e7000000e7000000e700000060
:100cf800e7000000e7000000e7000000ff00000038
:100d0800ff00000099000000990000009900000011
:100d18009900000099000000990000009900000067
:100d28009900000099000000990000009900000057
:100d38009900000081000000c3000000ff000000cf
:100d4800ff000000990000009900000099000000d1
:100d58009900000099000000990000009900000027
:100d68009900000099000000990000009900000017
:100d7800db000000e7000000e7000000ff000000c3
:100d8800ff0000003c0000003c0000003c000000a8
:100d98003c0000003c0000003c0000003c0000005b
:100da8003c00000024000000240000002400000093
:100db800240000000000000099000000ff0000006f
:100dc800ff00000099000000990000009900000051
:100dd8009900000099000000db000000e30000001b
:100de800e7000000cb000000990000009900000017
:100df800990000009900000099000000ff00000021
:100e0800ff00000099000000990000009900000010
:100e1800990000009900000099000000810000007e
:100e2800c3000000e7000000e7000000e700000042
:100e3800e7000000e7000000e7000000ff000000f6
:100e4800ff00000081000000810000009f000000fa
:100e58009f000000cf000000e7000000f300000042
:100e6800f9000000f9000000f9000000f900000096
:100e78008100000081000000ff000000ff0000006a
:100e8800ff000000ff000000ff000000ff0000005e
:100e9800ff000000ff000000ff000000ff0000004e
:100ea800ff000000ff000000ff000000ff0000003e
:100eb800ff000000ff000000ff000000ff0000002e
:100ec800ff000000ff000000ff000000ff0000001e
:100ed800ff000000ef000000cf00000081000000cc
:100ee80081000000cf000000ef000000ff000000bc
:100ef800ff000000ff000000ff000000ff000000ee
:100f080000000000000000000000000000000000d9
:100f180000000000000000000000000000000000c9
:100f280000000000000000000000000000000000b9
:100f380000000000000000000000000000000000a9
:100f4800fe000000ff000000ff000000ff0000009e
:100f5800ff000000ff000000ff000000ff0000008d
:100f6800ff000000ff000000ff000000ff0000007d
:100f7800ff000000ff000000ff000000ff0000006d
:100f8800576500006c6300006f6d0000650d000080
:100f980000000000544500005354000020200000c9
:100fa8002000000050520000474d000020200000a3
:100fb800200000004e520000474d00002020000095
:100fc800200000004e5700005420000020200000a0
:100fd800200000004e57000046200000202000009e
:100fe800200000004d530000545200002020000053
:100ff80020000000534c0000415600002020000053
:10100800200000004d5500004c5400002020000036
:1010180020000000534900004e4700002020000037
:101028002000000044490000473300002020000051
:101038002000000044490000473200002020000042
:1010480020000000424500004c5400002020000011
:1010580020000000424500004c460000202000000f
:1010680020000000505200004d53000020200000d6
:1010780020000000534100005645000020200000d9
:1010880020000000434100004e53000020200000d3
:10109800200000004f55000054200000004e0000c2
:1010a8004554000057000000414c00004f4e00001e
:1010b800005300004c410000560000004d55000050
:1010c8004c54000000530000494e00004700000047
:1010d800444900004733000000440000494700002d
:1010e80032000000424f00004e2000000042000085
:1010f8004f460000460000004f55000054200000f5
:1011080020200000200000004e4500005457000039
:101118004f5200004b0000004d41000053540000a6
:1011280045520000200000004d5500004c540000be
:10113800495000004c000000534900004e47000091
:101148004c45000020000000202000002020000066
:101158002020000020000000424500004c4c000008
:10116800204f00004e000000424500004c200000c7
:101178004f46000046000000536c000061760000f6
:10118800652000004d6f0000646500000d0a000036
:1011980000530000544e0000440000005354000067
:1011a800414e0000444100004c4f00004e450000f5
:1011b8000a0000004d6100007374000065720000b1
:1011c8000d00000058580000585800002e58000024
:1011d8005800000053450000522000005341000011
:0411e80056000000ad
:020000040000fa
:1011ec000601fa00889fbe0010079900210799009c
:1011fc000000eb00000f78000000eb0020079800c7
:10120c000000eb0060079800671b0700113a800094
:10121c00f08f2f0080806000003020000080700074
:10122c00103a880000000000113a800000022000f3
:10123c0000806000e00f5000fbff3200c002a900ec
:10124c00c9c2a90070002000801688000080eb0045
:10125c00601988001a1b070010c4b300604f980077
:10126c000000eb00000f7800100037002016800003
:10127c00004078006140600000c0ea0061406000fe
:10128c000080fb006100600022168000e1ff2f004f
:10129c008100610000807000201688000068290021
:1012ac0081092000501b07001e0fe8001e0078006b
:1012bc00e40f5000edff3600301b0700c402a900fc
:1012cc00c882a900fe1a070057190700c0160700ac
:1012dc008a1a0700f113070000902000d1032000a8
:1012ec00411b07004a1a0700e21707000090200074
:1012fc00d10320003c1b0700407c2800fb16070094
:10130c00e07c2800b714070000a02500212620004f
:10131c00351b07006000b8000418070000d79900bf
:10132c0010002000010020000018070010d79900c1
:10133c002000200001002000fc17070020d7990096
:10134c003000200001002000f817070030d799006a
:10135c00000d20000e004000ef0f50003b003a0043
:10136c0010002000a04e880010002000f0488800db
:10137c0010002000b04e88000000eb0030079800f1
:10138c00a090200042c0b300be009000811807005e
:10139c0000c3b3000ce9b70000c3b3000de9b700fc
:1013ac00100020004007980010c4b300604f980054
:1013bc001000200050079800a04e8000000178001b
:1013cc006000b80027180700f04880000001780082
:1013dc00100020000100200022180700b04e8000f1
:1013ec000001780020002000010020001d180700db
:1013fc000cc9bf0000417800300020000100200023
:10140c00a31707000dc9bf00004178004000200061
:10141c00010020009e1707004e0190005000200094
:10142c00010020000f1807006e499000600020009a
:10143c0001002000961707005e019000700020004c
:10144c0001002000071807000b0037001ed0910088
:10145c0078180700f0488800f0488000e00f500032
:10146c000300320010c0b3001ce9b70002003700c3
:10147c000040eb001ce9b7000000eb00000f780007
:10148c00f0488000e00f50001b0032000b003700ca
:10149c000040eb003e15070000802400811e200058
:1014ac00d11a070010c0b3003915070000802400c2
:1014bc00811e2000cc1a07001e0fe8001e007800c9
:1014cc00e20f5000f2ff36000e0037000040eb0038
:1014dc00f714070000802400811e2000c21a0700a8
:1014ec0010c0b300f214070000802400811e2000fd
:1014fc00bd1a07001e0fe8001e007800e20f500016
:10150c00f2ff36000000eb00000f78006000b8001e
:10151c00200f9800310f9800901680000040780042
:10152c00614060000080fb0061006000e00f500033
:10153c0009003a0010c0b3001ce9b70010002000ed
:10154c006007980010002000400f9800607d280074
:10155c002414070006003700e07d28002114070042
:10156c000000eb00600798000000eb00400f9800b3
:10157c0000402b00414c20009b1a070070002000fb
:10158c00500f98000000eb0010079800d4013700b2
:10159c00504d8000e00f5000d10132001e00900031
:1015ac00301798004f1a0700100798003e10900053
:1015bc00e00f5000c8013a001e009000e00f5000f0
:1015cc00c50132000090200042c0b3009e00900084
:1015dc00f017070000902000021407001e00900076
:1015ec00e20f500088003200e40f50003601320048
:1015fc00e10f5000b8013a005e0890000000e800ce
:10160c00500f98005e089000e70f50000200360063
:10161c000000eb00500f9800f0488000e00f5000e5
:10162c0009003200b04e8000e00f5000060032007e
:10163c005e089000e40f500003003a005e08900032
:10164c000000e800500f9800f0488000e00f5000b8
:10165c00060032005e089000e50f500003003a00cf
:10166c005e0890000000e800500f9800a04e80002b
:10167c00e00f500008003a005e089000e20f5000a6
:10168c0005003a005e0890000000e800500f98003a
:10169c0010002000b04e88005e0890000100200071
:1016ac007200200003002000820f5000838f58002e
:1016bc0084013e0000600100070037000f00370076
:1016cc00170037001f0037002e0037003600370098
:1016dc004000370048003700a04e8000e00f50005b
:1016ec0003003200607e2800be13070002003700a2
:1016fc00e07e2800bb13070042003700f048800052
:10170c00e00f500003003200607f2800b513070083
:10171c0002003700e07f2800b213070039003700c1
:10172c00b04e8000e00f50000300320060802800b3
:10173c00ac13070002003700e0802800a913070053
:10174c0030003700f0488000e00f500002003200fb
:10175c000000eb00300798000090200042c0b3005e
:10176c00be0090008b17070090c4b30000e9b700cf
:10177c0040c4b30001e9b7000090200099130700a2
:10178c00200037004e009000e00f500003003200a4
:10179c00608128009313070002003700e0812800c5
:1017ac00901307001700370030c5b30000e9b700ed
:1017bc0050c5b30001e9b70060c4b30002e9b7003b
:1017cc006e48900003e9b7000090200085130700d5
:1017dc000c0037005e009000e00f50000300320058
:1017ec00608228007f13070002003700e082280087
:1017fc007c1307000300370060832800791307006f
:10180c0000000000340137005e0890000100200049
:10181c007200200003002000820f5000838f5800bc
:10182c002a013e0000600100070037000b00370062
:10183c00170037001b0037003e003700420037000e
:10184c006500370069003700607e280065130700cb
:10185c0010002000a04e88009a003700a04e800097
:10186c00e00f500005003200607f28005d13070078
:10187c0010002000f048880004003700e07f2800aa
:10188c00581307000000eb00f04888008d0037006b
:10189c00608028005313070010002000b04e880011
:1018ac0088003700f0488000e00f50000d00320037
:1018bc000000eb00300798000090200042c0b300fd
:1018cc00be0090003317070090c4b30000e9b700c6
:1018dc0040c4b30001e9b700009020004113070099
:1018ec00130037003e0090000000e800300798001d
:1018fc00be00900000022000808f500002003600d5
:10190c0010002000300798000090200042c0b30067
:10191c00be0090001f17070090c4b30000e9b70089
:10192c0040c4b30001e9b700009020002d1307005c
:10193c0064003700e08128002a1307000000eb0048
:10194c00400798005f003700b04e8000e00f500059
:10195c00140032006e4890000040e800604f980080
:10196c00ee489000a0c5b30080cf500002003600b6
:10197c0010c4b300604f980030c5b30000e9b70045
:10198c0050c5b30001e9b70060c4b30002e9b70069
:10199c006e48900003e9b700009020001113070077
:1019ac000c00370000c3b300604f980030c5b30083
:1019bc0000e9b70050c5b30001e9b70060c4b3003b
:1019cc0002e9b7006e48900003e9b70000902000d0
:1019dc00041307003b003700608228000113070046
:1019ec00100020005007980036003700e0832800d4
:1019fc00fc12070000a02500212620007a19070000
:101a0c0000a02500212620007719070000a0250042
:101a1c002126200074190700a090200042c0b300ba
:101a2c00be009000db160700a04e8000000178007d
:101a3c006000b8008b160700f048800000017800a9
:101a4c00100020000100200086160700b04e800018
:101a5c000001780020002000010020008116070002
:101a6c000cc9bf00004178003000200001002000ac
:101a7c00071607000dc9bf00004178004000200088
:101a8c0001002000021607004e01900050002000bb
:101a9c0001002000731607006e49900060002000c2
:101aac0001002000fa1507005e0190007000200074
:101abc00010020006b1607000000eb006007980087
:101acc0000000000840037005e0890000100200038
:101adc007200200003002000820f5000838f5800fa
:101aec007c003e0000600100070037000b0037004f
:101afc000f0037001b0037003e0037004200370054
:101b0c006500370069003700e07e2800b512070039
:101b1c000000eb00a04e880069003700e07f280031
:101b2c00b01207000000eb00f0488800640037009a
:101b3c00a04e8000e00f500005003200e08028002d
:101b4c00a81207000000eb00b04e8800040037001c
:101b5c0060802800a312070010002000b04e8800ff
:101b6c0057003700f0488000e00f50000d003200a5
:101b7c000000eb00300798000090200042c0b3003a
:101b8c00be0090008316070090c4b30000e9b700b4
:101b9c0040c4b30001e9b700009020009112070087
:101bac00130037003e009000e10f500003003a0094
:101bbc000002200030079800030037003e00900020
:101bcc000000e900300798000090200042c0b300ec
:101bdc00be0090006f16070090c4b30000e9b70078
:101bec0040c4b30001e9b700009020007d1207004b
:101bfc0033003700608128007a12070010002000a3
:101c0c00400798002e003700b04e8000e00f5000c7
:101c1c00140032006e4890000040e900604f9800bc
:101c2c00ee48900000c4b30080cf500002003e008c
:101c3c00a0c5b300604f980030c5b30000e9b700f1
:101c4c0050c5b30001e9b70060c4b30002e9b700a6
:101c5c006e48900003e9b700009020006112070065
:101c6c000c00370000c3b300604f980030c5b300c0
:101c7c0000e9b70050c5b30001e9b70060c4b30078
:101c8c0002e9b7006e48900003e9b700009020000d
:101c9c00541207000a003700e08228005112070096
:101cac000000eb0050079800050037006084280006
:101cbc004c1207000000eb006007980000000000c9
:101ccc000500370000000000030037000000000092
:101cdc0001003700000000000000eb00504d8800b0
:101cec006e009000e00f500029fe3a00f048800092
:101cfc00e00f5000b8003a000040eb001ce9b700c0
:101d0c00e0842800b411070000a025002126200043
:101d1c00b5180700e0c4b30000d7990050c4b30055
:101d2c0010d7990040c5b30020d799006000b800c7
:101d3c007e15070030d799003ed091003d16070064
:101d4c00a04e8800a04e8000e00f5000030032002f
:101d5c0030852800a011070002003700808528007c
:101d6c009d11070000a02500212620009e180700c9
:101d7c0000a02500212620009b180700f0488000b9
:101d8c00e00f500006003a00a04e8000e00f50001b
:101d9c0003003200d08528008f11070002003700a5
:101dac00808528008c11070000a02500212620002a
:101dbc008d18070000a02500212620008a18070096
:101dcc0020002000010020005815070030d7990092
:101ddc003ed0910017160700b04e8800b04e800020
:101dec00e00f500003003200208628007a11070013
:101dfc0002003700708628007711070000a025002c
:101e0c00212620007818070000a02500212620009c
:101e1c007518070090c4b30000d7990040c4b300f4
:101e2c0010d7990030002000010020003f1507005a
:101e3c0020d7990030002000010020003b1507003e
:101e4c000ce9b70040002000010020003715070006
:101e5c0030d7990040002000010020003315070006
:101e6c000de9b700000d20000e0040005a110700cc
:101e7c002ed09100ef150700c400dd00f00f2000fc
:101e8c0000806000300798003ed09100e9150700f3
:101e9c006f006000be00900000807000300798005a
:101eac0000a02500212620004f18070000a02500c7
:101ebc00212620004c18070040c4b30000d799001d
:101ecc0090c4b30010d7990070c4b30020d7990008
:101edc0050002000010020001415070030d7990095
:101eec003ed09100d3150700400798004e0090009b
:101efc00e00f500003003200c086280036110700a6
:101f0c0002003700108728003311070000a02500bd
:101f1c00212620003418070000a0250021262000cf
:101f2c003118070030c5b30000d7990050c5b30075
:101f3c0010d7990060c4b30020d79900600020002e
:101f4c0001002000f914070030d799006000200030
:101f5c0001002000f5140700604f9800000d2000d0
:101f6c000e0040001c11070000a0250021262000b7
:101f7c001d18070000a02500212620001a180700b4
:101f8c0020c4b30000d7990050c4b30010d79900f7
:101f9c00c0c4b30020d799007000200001002000bd
:101fac00e214070030d799003ed09100a11507002c
:101fbc00500798005e009000e00f500003003200c4
:101fcc00608728000411070095003700b0872800af
:101fdc00011107009200370010c0b3001ce9b700d4
:101fec00008828007f11070000a025002126200072
:101ffc00fd170700e0c4b30000d7990050c4b3002c
:10200c0010d7990040c5b30020d799006000b800e4
:10201c00c614070030d799003ed0910085150700f3
:10202c00a04e8800808828006e11070000a02500b3
:10203c0021262000ec17070000a0250021262000f7
:10204c00e9170700d0c4b30000d7990010c4b3003f
:10205c0010d7990030c5b30020d79900100020008c
:10206c0001002000b114070030d799003ed0910038
:10207c0070150700f04888000089280059110700e6
:10208c0000a0250021262000d717070000a025005e
:10209c0021262000d417070020002000010020007a
:1020ac00a214070030d799003ed0910061150700ab
:1020bc00b04e8800b04e8000e00f5000030032009c
:1020cc00808928004711070002003700008a280089
:1020dc004411070000a0250021262000c21707008c
:1020ec0000a0250021262000bf170700808a2800a9
:1020fc003c11070090c4b30000d7990040c4b30052
:10210c0010d7990030002000010020008714070030
:10211c0020d7990030002000010020008314070014
:10212c000ce9b70040002000010020007f140700dc
:10213c0030d7990040002000010020007b140700dc
:10214c000de9b700000d20000e004000251107001e
:10215c002ed0910037150700c400dd00f00f2000d1
:10216c0000806000300798003ed0910031150700c8
:10217c006f006000be009000008070003007980077
:10218c0000a02500212620009717070000a025009d
:10219c00212620009417070040c4b30000d79900f3
:1021ac0090c4b30010d7990070c4b30020d7990025
:1021bc0050002000010020005c14070030d799006b
:1021cc003ed091001b1507004007980020c4b300b7
:1021dc0000d7990050c4b30010d79900c0c4b30005
:1021ec0020d7990070002000010020004f14070038
:1021fc0030d799003ed091000e150700500798007b
:10220c005e009000e00f500003003200008b2800ad
:10221c00f410070002003700808b2800f110070033
:10222c0000a02500212620006f170700a04e80007b
:10223c00e00f5000e1003200f0488000e00f500049
:10224c0024023a00008c280028130700d0852800af
:10225c006110070000402b00414c20006217070062
:10226c000040eb001ce9b7004e089000e00f500056
:10227c003e003a0080002000010020002b140700d3
:10228c0000e9b7009000200001002000271407008f
:10229c0001e9b700a0002000010020002314070072
:1022ac0002e9b700b0002000010020001f14070055
:1022bc0003e9b70001902000914078006e4890002f
:1022cc0080cf500025003a000090200042100700fb
:1022dc004e009000e00f50001400320001c9bf0006
:1022ec00d4140700200798002e0090004800dd0051
:1022fc002007980002c9bf00ce140700ae00900062
:10230c0000807000200798002e0090004800dd002f
:10231c002007980003c9bf00c6140700ae00900048
:10232c0000807000200798001000370002c9bf0021
:10233c00c0140700200798002e0090004800dd0014
:10234c002007980003c9bf00ba140700ae00900024
:10235c000080700020079800040037000000eb009c
:10236c002007980001003700000000000040eb003f
:10237c00ace9b7009fc9bf00e04f5000faff320034
:10238c000000eb00000f78000b00370000922000db
:10239c001e00400010407800d19a20009e80400022
:1023ac0080487800009220009e0040000040eb0026
:1023bc00804878001e0fe8001e007800ed0f5000da
:1023cc00f2ff36000040eb009fe9b700d09a2000e6
:1023dc00000f98000000eb00000f78000e08900032
:1023ec000000e800000f98000e0890000000e800c4
:1023fc00000f9800090037000e089000104078007c
:10240c00e19020009e804000804878001e0fe8007c
:10241c000e0890000000e800000f98000e089000d5
:10242c009040780000c2b30080cf5000f2ff3a0019
:10243c000040eb0011e9b7000000eb00000f780042
:10244c000e0890000000e800000f9800090037000b
:10245c000e08900010407800719120009e80400082
:10246c00804878001e0fe8000e0890000000e8007d
:10247c00000f98000e0890009040780000c2b30046
:10248c0080cf5000f2ff3a000040eb001ae9b70091
:10249c000000eb00000f78000e0890000000e80030
:1024ac00000f9800090037000e08900010407800cb
:1024bc00219120009e804000804878001e0fe8008b
:1024cc000e0890000000e800000f98000e08900025
:1024dc009040780000c2b30080cf5000f2ff3a0069
:1024ec0021912000914078006e48900080cf5000e0
:1024fc0026003a00e1902000914078000cc9bf0002
:10250c0080cf500021003a00f190200091407800db
:10251c000dc9bf0080cf50001c003a000000eb003a
:10252c00000f780007003700209120001e004000ab
:10253c0010407800019020009e8040008048780078
:10254c001e0fe8001e007800e30f5000f6ff360067
:10255c005e009000e00f500001003200871607006b
:10256c00f04880008000780000902000b81107002f
:10257c0000902000980f07004300200002902000dc
:10258c008000200001002000c91307000000eb00b0
:10259c00000f780005003700d09a20009e00400004
:1025ac000040eb00804878001e0fe8001e00780009
:1025bc00ec0f5000f8ff36006cff370000000000f5
:1025cc000040eb001ce9b700d08c2800820f0700fc
:1025dc00208d28004512070000a025002126200090
:1025ec00811607004e009000e00f500009003200e9
:1025fc000090200042c0b300ae009000e51307002d
:10260c006e48900000e9b70000902000720f0700a0
:10261c000a0037000090200042c0b300ae009000ca
:10262c00dc1307006e48900000e9b70000c2b3004d
:10263c0001e9b70000902000670f07004e089000da
:10264c00e00f50003e003a00800020000100200006
:10265c003613070000e9b7009000200001002000ad
:10266c003213070001e9b700a00020000100200090
:10267c002e13070002e9b700b00020000100200073
:10268c002a13070003e9b70001902000914078005d
:10269c006e48900080cf500025003a00009020003a
:1026ac004d0f07004e009000e00f50001400320058
:1026bc0001c9bf00df130700200798002e0090000f
:1026cc004800dd002007980002c9bf00d91307009d
:1026dc00ae00900000807000200798002e00900043
:1026ec004800dd002007980003c9bf00d113070084
:1026fc00ae0090000080700020079800100037009a
:10270c0002c9bf00cb130700200798002e009000d1
:10271c004800dd002007980003c9bf00c51307005f
:10272c00ae00900000807000200798000400370075
:10273c000000eb00200798000100370000000000ab
:10274c009fc9bf00e04f5000fcff32000000eb00bf
:10275c00000f78000b003700009220001e00400094
:10276c0010407800d19a20009e804000804878006c
:10277c00009220009e0040000040eb008048780052
:10278c001e0fe8001e007800e90f5000f2ff360023
:10279c000040eb009fe9b7000000eb00000f780051
:1027ac00360037001e007800e10f500005003a009b
:1027bc00d09a20001e004000104078000ee9b700af
:1027cc001f0037001e007800e20f500005003a0091
:1027dc00d09a20001e004000104078000fe9b7008e
:1027ec00170037001e007800e30f500005003a0078
:1027fc00d09a20001e0040001040780017e9b70066
:10280c000f0037001e007800e40f500005003a005e
:10281c00d09a20001e0040001040780018e9b70044
:10282c00070037001e007800e80f500004003a0043
:10283c00d09a20001e004000104078001be9b70021
:10284c001e007800e90f50000b003a000000eb006e
:10285c00000f780005003700d09a20009e00400041
:10286c000040eb00804878001e0fe8001e00780046
:10287c00e90f5000f8ff36001e0fe8001e0078002c
:10288c00e90f5000c7ff36001bc9bf000080fb00da
:10289c00e1042000810f50000700320001052000e8
:1028ac00810f50003b00320031042000810f50009a
:1028bc006f003200810037004e009000e00f500096
:1028cc00190032002e0090000000e800200798004c
:1028dc00ae009000703e2000808f50000200360049
:1028ec000000eb00200798000090200042c0b300cd
:1028fc00ae009000271307006e48900000e9b70067
:10290c005e009000e00f5000010032009b150700a4
:10291c008000eb0000902000cd10070000902000fc
:10292c00ad0e0700650037002e0090000000e80097
:10293c0020079800ae00900030062000808f5000d9
:10294c00020036000000eb002007980000902000e9
:10295c0042c0b300ae0090000e1307006e4890000a
:10296c0000e9b70000c2b30001e9b7005e009000b7
:10297c00e00f500001003200801507008000eb00d2
:10298c0000902000b210070000902000920e07006b
:10299c004a0037004e009000e00f50001900320042
:1029ac002e009000e00f500003003a00703e200013
:1029bc0020079800030037002e0090000000e9006b
:1029cc00200798000090200042c0b300ae00900099
:1029dc00f01207006e48900000e9b7005e0090000e
:1029ec00e00f500001003200641507008000eb007e
:1029fc00009020009610070000902000760e070033
:102a0c002e0037002e009000e00f500003003a001b
:102a1c003006200020079800030037002e0090009d
:102a2c000000e900200798000090200042c0b3008d
:102a3c00ae009000d71207006e48900000e9b70076
:102a4c0000c2b30001e9b7005e009000e00f500037
:102a5c0001003200491507008000eb0000902000b7
:102a6c007b100700009020005b0e0700130037005e
:102a7c000000eb00200798000090200042c0b3003b
:102a8c00ae009000c31207006e48900000e9b7003a
:102a9c004e009000e00f500002003a0000c2b3005c
:102aac0001e9b7008000eb000090200068100700df
:102abc0000902000480e070000000000430020009a
:102acc0002902000800020000100200078120700f6
:102adc001bff37000000000000a02500212620006d
:102aec00411507000000eb00600f98000000eb00a0
:102afc00700f98000000eb000017980010c0b30096
:102b0c001ce9b70000892800b60e0700e08d2800ec
:102b1c00f610070000a02500212620003215070022
:102b2c0080002000010020000012070000d799004f
:102b3c00b04e8000e00f500003003a0000c3b30019
:102b4c00604f980004003700800020000100200036
:102b5c00f6110700604f98004e089000e00f5000ef
:102b6c0000013a00b04e8000e00f5000920032009d
:102b7c000001200001002000ec1107001057990003
:102b8c001001200001002000e811070020579900d7
:102b9c00100920000e00400021002000da1207006e
:102bac0010179800100920000e00400022c0b3003e
:102bbc009e109000771207000000eb0000179800a1
:102bcc00240037000000eb00000f78000f003700e6
:102bdc000e1090004200dd001e0040000002b0000c
:102bec0001002000d1110700004178000e10900068
:102bfc006500b90000007800000047001e0040008e
:102c0c00d002b000024878001e0fe8001e007800c9
:102c1c00e30f5000eeff36000e1090006500b90077
:102c2c0000007800000047001e004000d102200088
:102c3c00808040000040eb008048780000d82800dd
:102c4c00b1052000e81407000e1090000000e80009
:102c5c00001798001e1090000000400080007800c3
:102c6c000e109000808f5000d6ff3e00808a280006
:102c7c005c0e070000a0250021262000da140700b6
:102c8c000000eb00001798000000eb00000f78002c
:102c9c002a0037009e00780061806000e00f500031
:102cac000f003a00d20220000e0141001e007800f5
:102cbc006500b900000078000000410041002000d0
:102ccc00bc120700800078000e109000000040003d
:102cdc00000047004009b0000108780016003700da
:102cec001e0078006100600000407800e04f50004a
:102cfc0011003200d20220000e0141001e007800ab
:102d0c006500b9000000780000004100410020007f
:102d1c00a8120700800078000e1090000000400000
:102d2c0000004700c00bb000010878000e109000a6
:102d3c000000e800001798001e0fe8001e1090001d
:102d4c00000040000000e8009e0f5000d1ff3e0044
:102d5c000000eb00000f7800130037001e00780015
:102d6c000000400000004700208890008000e9002f
:102d7c001e0078000000400000004700800ab000f0
:102d8c00010878001e007800000040000000470099
:102d9c00c0909000c00f20000e00400042c0b30055
:102dac00fc1107001e0fe8001e1090009e0078001a
:102dbc00808f5000e9ff3900b04e8000e00f5000ca
:102dcc0028003a008000200001002000200f98000d
:102ddc00310f9800100037002e089000be089000ac
:102dec0068045000e08458002e089000be08900043
:102dfc004e110700b19c20008100440080487800ef
:102e0c002e089000be08900061004000e080480051
:102e1c00200f9800310f98002e099000be099000e9
:102e2c00e000200001002000800f5100818f59002c
:102e3c00e9ff3600b19c2000c00f20000e004000be
:102e4c0042002000bcf50700c00f20000e0040001f
:102e5c000112070020079800b09c2000e10d07002c
:102e6c00420037000000eb00000f78000000eb0080
:102e7c0000179800360037000007200001002000e2
:102e8c00200f9800310f9800120037000e109000a0
:102e9c004300dd006101b8002e089000be089000d0
:102eac00020040008380480020110700b19c2000e4
:102ebc009e804000804878001e0fe8002e0890008d
:102ecc00be08900061004000e0804800200f980090
:102edc00310f98002e099000be0990007007200059
:102eec0001002000800f5100818f5900e7ff360050
:102efc000000eb00000f7800b19c2000c00f2000f8
:102f0c000e004000420020008bf50700c00f20008f
:102f1c000e004000d0110700800078000e109000c9
:102f2c000000400000004700800ab0000108780053
:102f3c00b09c2000ab0d070000a02500212620002e
:102f4c00291407000e1090000000e80000179800ec
:102f5c008e1090001e109000808f5000c6ff39001c
:102f6c0002003700608e28009e0d070010c0b300d1
:102f7c00ace9b7000100370000000000a0c9bf0099
:102f8c00e04f5000dd0032000000eb00001798000d
:102f9c000000eb00000f7800f0922000100f98005a
:102fac001e0890000000e800100f98001e0890000a
:102fbc000000e800100f98000a0037001e0890006f
:102fcc0010407800110920008e8040009e80400047
:102fdc00804878001e0fe8001e0890000000e800f2
:102fec00100f98001e0890009040780000c2b300ab
:102ffc0080cf5000f1ff3a000040eb0040579900a1
:10300c00100920000e00400021002000be11070016
:10301c0010179800100920000e00400022c0b300c9
:10302c009e1090005b1107001e509100004178002b
:10303c000001200001002000951007002e50910087
:10304c0000417800100120000100200090100700c2
:10305c000000eb00000f78001e0890000000e80054
:10306c00100f98000000eb000017980025003700a7
:10307c001e089000104178000e1090006500b900f9
:10308c0000007800000047001e004000d002b00095
:10309c00024878001e0fe8001e0890000000e800af
:1030ac00100f980001003700000000001e0890006f
:1030bc009040780000c2b30080cf5000ecff3a0083
:1030cc000e1090006500b900000078000000470069
:1030dc001e004000d1022000808040000040eb0028
:1030ec00804878000000eb00000f78001e0890006c
:1030fc000000e800100f98000e1090000000e8008f
:10310c00001798001e109000000040008000e8009e
:10311c000e109000808f5000e3ff3e000000eb008b
:10312c000017980012003700d20220000e01410057
:10313c000e1090006500b9000000780000014100fd
:10314c000e109000680040004200dd0001002000dd
:10315c0043002000d610070000202100a10720000a
:10316c00a11307000e1090000000e8000017980053
:10317c001e109000000040008000e8000e1090002f
:10318c00808f5000e8ff3e000000eb000017980015
:10319c000000eb00000f78002a0037009e0078003a
:1031ac0061806000e00f50000f003a00d202200056
:1031bc000e0141001e0078006500b9000000780087
:1031cc0000004100410020007a11070080007800c7
:1031dc000e10900000004000000047004009b000b5
:1031ec0001087800160037001e00780061006000ae
:1031fc0000407800e04f500011003200d202200055
:10320c000e0141001e0078006500b9000000780036
:10321c00000041004100200066110700800078008a
:10322c000e1090000000400000004700c00bb000e2
:10323c00010878000e1090000000e80000179800bc
:10324c001e0fe8001e109000000040009e0f500062
:10325c00d2ff3e000000eb00000f78000b0037009f
:10326c001e007800000040000000470020889000fd
:10327c008000e9001e0078000000400000004700bc
:10328c00800ab000010878001e0fe8001e109000a4
:10329c009e007800808f5000f1ff3900e08e2800ee
:1032ac00d00c0700e08e2800100f070000a02500ae
:1032bc00212620004c1307000000eb00000f7800c3
:1032cc0005003700f09220009e0040000040eb000b
:1032dc00804878001e0fe800d00620009e00780081
:1032ec00808f5000f7ff36000040eb00a0e9b700dc
:1032fc0010c0b300ace9b70020ff37009fc9bf0076
:10330c00e04f50001cff32000000eb00000f780073
:10331c000e003700009220001e0040001040780084
:10332c00d19a20009e8040008048780000fa20004e
:10333c00010020002c130700009220009e0040008a
:10334c000040eb00804878001e0fe8001e0078005b
:10335c00ee0f5000efff36000040eb009fe9b70086
:10336c00d09a2000000f98000000eb00000f7800ae
:10337c00090037000e08900010407800e190200002
:10338c009e804000804878001e0fe8000e089000d8
:10339c000000e800000f98000e08900090407800a4
:1033ac0000c2b30080cf5000f2ff3a000040eb00a7
:1033bc0011e9b700e0902000a71007004017980013
:1033cc000000eb00000f78000e0890000000e800f1
:1033dc00000f9800090037000e089000104078008c
:1033ec00719120009e804000804878001e0fe800fc
:1033fc000e0890000000e800000f98000e089000e6
:10340c009040780000c2b30080cf5000f2ff3a0029
:10341c000040eb001ae9b7000000eb00000f780049
:10342c00709120008c100700501798000e08900027
:10343c000000e800000f9800090037000e0890000b
:10344c0010407800219120009e8040008048780038
:10345c001e0fe8000e0890000000e800000f980016
:10346c000e0890009040780000c2b30080cf50004e
:10347c00f2ff3a0012c9bf00604f98000e0890008e
:10348c000000e800000f9800060037000e089000be
:10349c00104078001be9b7000e0890000000e8000f
:1034ac00000f98000e0890009040780000c2b30006
:1034bc0080cf5000f5ff3a0010c0b300ace9b70064
:1034cc00b04e8000e00f500005003a002191200022
:1034dc009140780000c3b30080cf5000320b3a000b
:1034ec0010c0b300406f9800b04e8000e00f500049
:1034fc00270032000000eb00000f78000000eb000a
:10350c00001798000000eb00001798001a00370015
:10351c000e10900061006000e00f500013003a00a4
:10352c000e1090006500b900000078000000470004
:10353c00d068900012c9bf0080cf50000b003a0039
:10354c000e109000e00f5000030032000e1090009f
:10355c000000d100406798000e109000e00f500062
:10356c0002003a000e109000406798000e10900078
:10357c000000e800001798001e10900000004000aa
:10358c00800078000e109000808f5000e0ff3e000d
:10359c005e109000e00f5000030b3200de10900024
:1035ac0000022000808f5000ff0a3e004e10900059
:1035bc00e00f5000fc0a3200ce10900000022000f8
:1035cc00808f5000f80a3e00b04e8000e00f500093
:1035dc0003003200e10f50008a0032008f0a3700de
:1035ec001bc9bf000080fb006101b900d0fb2f009c
:1035fc00f1ff2f000200400083804800f200200001
:10360c0003002000820f5000838f58007e0a3e007a
:10361c000060010077003700640037006700370056
:10362c007b0a37007a0a3700790a3700780a3700a4
:10363c00770a3700760a3700750a3700740a3700a4
:10364c0004003700720a37002d003700700a37006b
:10365c00620037004e009000e00f50001400320062
:10366c002e0090000000e80020079800ae009000ab
:10367c00703e2000808f5000020036000000eb00ee
:10368c0020079800ae0090007e089000808f5000bc
:10369c001a003a002e009000e00f50001700320084
:1036ac002e0090000000e80020079800130037005f
:1036bc002e0090000000e80020079800ae0090005b
:1036cc0030062000808f5000020036000000eb0016
:1036dc0020079800ae0090007e089000808f50006c
:1036ec0006003a002e009000e00f5000030032005c
:1036fc002e0090000000e8002007980040003700e2
:10370c004e009000e00f5000140032002e0090008c
:10371c00e00f500003003a00703e20002007980094
:10372c00030037002e0090000000e90020079800ed
:10373c00ae0090007e089000808f50001a003a0076
:10374c002e009000e00f5000170032002e00900069
:10375c000000e90020079800130037002e009000ad
:10376c00e00f500003003a003006200020079800bc
:10377c00030037002e0090000000e900200798009d
:10378c00ae0090007e089000808f500006003a003a
:10379c002e009000e00f5000030032002e0090002d
:1037ac000000e90020079800150037002091200048
:1037bc00a90f070020079800110037002e00900079
:1037cc00600f980020912000a30f0700200798009d
:1037dc00ae009000710f9800090037002e00900089
:1037ec00600f9800209120009b0f07002007980085
:1037fc00030037000000eb002007980000000000d9
:10380c00060a37004e6090000080fb00cf80de007f
:10381c009200200003002000820f5000838f58007c
:10382c00fd093e0000600100090037000701370068
:10383c000402370001033700fe033700fb04370096
:10384c00f8053700f5063700f2073700ef083700a8
:10385c001bc9bf000080fb006101b900d0fb2f0029
:10386c00f1ff2f000200400083804800f20020008e
:10387c0003002000820f5000838f5800f2003e009e
:10388c0000600100e3003700a5003700ae003700f0
:10389c00ed003700ec003700eb003700ea00370092
:1038ac00e9003700e8003700e7003700e600370092
:1038bc0004003700e400370054003700e200370002
:1038cc00c00037004e6090000080fb0000004000fc
:1038dc0000004700c09090004e6090000080fb00fc
:1038ec00000040000000470060989000808f50005e
:1038fc00180031004e6090000080fb00000040007a
:10390c0000004700c09090004e6090000080fb00cb
:10391c000000400000004700208890000000e900f3
:10392c00808f50000b0039004e6090000080fb002f
:10393c008000400081004700c19090008100e800a9
:10394c000000400000004700800ab0000108780029
:10395c00170037004e6090000080fb000000400014
:10396c0000004700c09090004e6090000080fb006b
:10397c00000040000000470060989000808f5000cd
:10398c000b003a004e6090008080fb004e6090006f
:10399c000080fb00000040000000470020899000e0
:1039ac000180400000004700800ab0000208780047
:1039bc004e6090000080fb000000400000004700bb
:1039cc00c09090004e6090000080fb000000400012
:1039dc000000470040b09000808f50000a003a0071
:1039ec004e6090000080fb0080004000810047008a
:1039fc00c19090008100e8000000400000004700ea
:103a0c00800ab000010878008f0037004e609000eb
:103a1c000080fb000000400000004700c0909000b8
:103a2c004e6090000080fb0000004000000047004a
:103a3c0020889000808f50000c003e004e6090005b
:103a4c008080fb004e6090000080fb000000400076
:103a5c000000470060999000018040000000470082
:103a6c00800ab00002087800160037004e60900003
:103a7c000080fb000000400000004700c090900058
:103a8c004e6090000080fb000000400000004700ea
:103a9c0020889000808f50000a0036004e60900005
:103aac000080fb008000400081004700c190900026
:103abc008100e9000000400000004700800ab000cf
:103acc00010878004e6090000080fb000000400070
:103adc0000004700c09090004e6090000080fb00fa
:103aec00000040000000470040b09000808f500064
:103afc000a003a004e6090000080fb0080004000fd
:103b0c0081004700c19090008100e9000000400056
:103b1c0000004700800ab000010878004a00370016
:103b2c004e6090000084fb0020912000410020009a
:103b3c00f50e07008800440081004700810ab000a0
:103b4c0080087800400037004e6090008080fb00b9
:103b5c004e6090000080fb00000040000000470019
:103b6c00409190000180400000004700400db000e3
:103b7c00020878004e6090000084fb002091200029
:103b8c00b50e07008800440081004700810ab00090
:103b9c00800878004e6090008080fb004e609000a2
:103bac000080fb00000040000000470040919000a6
:103bbc000180400000004700800eb0000208780031
:103bcc00210037004e6090008080fb004e6090001a
:103bdc000080fb0000004000000047004091900076
:103bec000180400000004700400db0000208780042
:103bfc004e6090000084fb0020912000960e070080
:103c0c008800440081004700810ab00080087800d9
:103c1c000d0037004e6090008080fb004e609000dd
:103c2c000080fb000000400000004700208890004e
:103c3c000001e9000180400000004700800ab0004c
:103c4c000208780000000000ee0837001bc9bf0016
:103c5c000080fb006101b900d0fb2f00f1ff2f00a9
:103c6c000200400083804800f20020000300200086
:103c7c00820f5000838f5800f1003e00006001005d
:103c8c00e2003700a5003700ad003700ec0037002c
:103c9c00eb003700ea003700e9003700e800370096
:103cac00e7003700e6003700e50037000400370076
:103cbc00e300370054003700e1003700bf00370045
:103ccc004e6090000080fb000000400000004700a8
:103cdc00c09090004e6090000080fb0000004000ff
:103cec000000470060989000808f50001800310051
:103cfc004e6090000080fb00000040000000470078
:103d0c00c09090004e6090000080fb0000004000ce
:103d1c0000004700208890000000e900808f5000d0
:103d2c000b0039004e6090000080fb0080004000ca
:103d3c0081004700c19090008100e8000000400025
:103d4c0000004700800ab000010878001700370017
:103d5c004e6090000080fb00000040000000470017
:103d6c00c09090004e6090000080fb00000040006e
:103d7c000000470060989000808f50000b003a00c4
:103d8c004e6090008080fb004e6090000080fb0035
:103d9c000000400000004700208990000180400096
:103dac0000004700800ab000020878004e609000c6
:103dbc000080fb000000400000004700c090900015
:103dcc004e6090000080fb000000400000004700a7
:103ddc0040b09000808f50000a003a004e60900076
:103dec000080fb008000400081004700c1909000e3
:103dfc008100e8000000400000004700800ab0008d
:103e0c00010878008e0037004e6090000080fb00a7
:103e1c000000400000004700c09090004e609000f1
:103e2c000080fb000000400000004700208890004c
:103e3c00808f50000c003e004e6090008080fb0094
:103e4c004e6090000080fb00000040000000470026
:103e5c00609990000180400000004700800ab0008b
:103e6c0002087800160037004e6090000080fb00be
:103e7c000000400000004700c09090004e60900091
:103e8c000080fb00000040000000470020889000ec
:103e9c00808f50000a0036004e6090000080fb00be
:103eac008000400081004700c19090008100e90033
:103ebc000000400000004700800ab00001087800b4
:103ecc004e6090000080fb000000400000004700a6
:103edc00c09090004e6090000080fb0000004000fd
:103eec000000470040b09000808f50000a003a005c
:103efc004e6090000080fb00800040008100470075
:103f0c00c19090008100e9000000400000004700d3
:103f1c00800ab00001087800490037004e6090001c
:103f2c000084fb0020912000cb0d0700880044008a
:103f3c0081004700810ab0008008780040003700fb
:103f4c004e6090008080fb004e6090000080fb0073
:103f5c0000004000000047004091900001804000ac
:103f6c0000004700400db000020878004e60900041
:103f7c000084fb0020912000b70d0700880044004e
:103f8c0081004700810ab000800878004e609000e4
:103f9c008080fb004e6090000080fb000000400021
:103fac000000470040919000018040000000470055
:103fbc00800eb00002087800210037004e6090009f
:103fcc008080fb004e6090000080fb0000004000f1
:103fdc000000470040919000018040000000470025
:103fec00400db000020878004e6090000084fb0089
:103ffc0020912000980d07008800440081004700a4
:10400c00810ab000800878000d0037004e609000e7
:10401c008080fb004e6090000080fb0000004000a0
:10402c0000004700208890000001e900018040005a
:10403c0000004700800ab000020878000000000071
:10404c00f00737001bc9bf000080fb006101b900fd
:10405c00d0fb2f00f1ff2f000200400083804800ae
:10406c00f200200003002000820f5000838f5800c4
:10407c00f1003e0000600100e2003700a5003700af
:10408c00ad003700ec003700eb003700ea003700da
:10409c00e9003700e8003700e7003700e60037009a
:1040ac00e500370004003700e30037005400370008
:1040bc00e1003700bf0037004e6090000080fb002d
:1040cc000000400000004700c09090004e6090003f
:1040dc000080fb000000400000004700609890004a
:1040ec00808f5000180031004e6090000080fb0063
:1040fc000000400000004700c09090004e6090000f
:10410c000080fb0000004000000047002088900069
:10411c000000e900808f50000b0039004e609000c9
:10412c000080fb008000400081004700c19090009f
:10413c008100e8000000400000004700800ab00049
:10414c0001087800170037004e6090000080fb00db
:10415c000000400000004700c09090004e609000ae
:10416c000080fb00000040000000470060989000b9
:10417c00808f50000b003a004e6090008080fb0056
:10418c004e6090000080fb000000400000004700e3
:10419c00208990000180400000004700800ab00098
:1041ac00020878004e6090000080fb000000400088
:1041bc0000004700c09090004e6090000080fb0013
:1041cc00000040000000470040b09000808f50007d
:1041dc000a003a004e6090000080fb008000400016
:1041ec0081004700c19090008100e8000000400071
:1041fc0000004700800ab000010878008e003700ec
:10420c004e6090000080fb00000040000000470062
:10421c00c09090004e6090000080fb0000004000b9
:10422c000000470020889000808f50000c003e005a
:10423c004e6090008080fb004e6090000080fb0080
:10424c000000400000004700609990000180400091
:10425c0000004700800ab000020878001600370002
:10426c004e6090000080fb00000040000000470002
:10427c00c09090004e6090000080fb000000400059
:10428c000000470020889000808f50000a00360004
:10429c004e6090000080fb008000400081004700d1
:1042ac00c19090008100e900000040000000470030
:1042bc00800ab000010878004e6090000080fb007e
:1042cc000000400000004700c09090004e6090003d
:1042dc000080fb00000040000000470040b0900050
:1042ec00808f50000a003a004e6090000080fb0066
:1042fc008000400081004700c19090008100e900df
:10430c000000400000004700800ab000010878005f
:10431c00490037004e6090000084fb002091200083
:10432c00cd0c07008800440081004700810ab000d2
:10433c0080087800400037004e6090008080fb00c1
:10434c004e6090000080fb00000040000000470021
:10435c00409190000180400000004700400db000eb
:10436c00020878004e6090000084fb002091200031
:10437c00b90c07008800440081004700810ab00096
:10438c00800878004e6090008080fb004e609000aa
:10439c000080fb00000040000000470040919000ae
:1043ac000180400000004700800eb0000208780039
:1043bc00210037004e6090008080fb004e60900022
:1043cc000080fb000000400000004700409190007e
:1043dc000180400000004700400db000020878004a
:1043ec004e6090000084fb00209120009a0c070086
:1043fc008800440081004700810ab00080087800e2
:10440c000d0037004e6090008080fb004e609000e5
:10441c000080fb0000004000000047002088900056
:10442c000001e9000180400000004700800ab00054
:10443c000208780000000000f20637001bc9bf001c
:10444c000080fb006101b900d0fb2f00f1ff2f00b1
:10445c000200400083804800f2002000030020008e
:10446c00820f5000838f5800f1003e000060010065
:10447c00e2003700a5003700ad003700ec00370034
:10448c00eb003700ea003700e9003700e80037009e
:10449c00e7003700e6003700e5003700040037007e
:1044ac00e300370054003700e1003700bf0037004d
:1044bc004e6090000080fb000000400000004700b0
:1044cc00c09090004e6090000080fb000000400007
:1044dc000000470060989000808f50001800310059
:1044ec004e6090000080fb00000040000000470080
:1044fc00c09090004e6090000080fb0000004000d7
:10450c0000004700208890000000e900808f5000d8
:10451c000b0039004e6090000080fb0080004000d2
:10452c0081004700c19090008100e800000040002d
:10453c0000004700800ab00001087800170037001f
:10454c004e6090000080fb0000004000000047001f
:10455c00c09090004e6090000080fb000000400076
:10456c000000470060989000808f50000b003a00cc
:10457c004e6090008080fb004e6090000080fb003d
:10458c00000040000000470020899000018040009e
:10459c0000004700800ab000020878004e609000ce
:1045ac000080fb000000400000004700c09090001d
:1045bc004e6090000080fb000000400000004700af
:1045cc0040b09000808f50000a003a004e6090007e
:1045dc000080fb008000400081004700c1909000eb
:1045ec008100e8000000400000004700800ab00095
:1045fc00010878008e0037004e6090000080fb00b0
:10460c000000400000004700c09090004e609000f9
:10461c000080fb0000004000000047002088900054
:10462c00808f50000c003e004e6090008080fb009c
:10463c004e6090000080fb0000004000000047002e
:10464c00609990000180400000004700800ab00093
:10465c0002087800160037004e6090000080fb00c6
:10466c000000400000004700c09090004e60900099
:10467c000080fb00000040000000470020889000f4
:10468c00808f50000a0036004e6090000080fb00c6
:10469c008000400081004700c19090008100e9003b
:1046ac000000400000004700800ab00001087800bc
:1046bc004e6090000080fb000000400000004700ae
:1046cc00c09090004e6090000080fb000000400005
:1046dc000000470040b09000808f50000a003a0064
:1046ec004e6090000080fb0080004000810047007d
:1046fc00c19090008100e9000000400000004700dc
:10470c00800ab00001087800490037004e60900024
:10471c000084fb0020912000cf0b07008800440090
:10472c0081004700810ab000800878004000370003
:10473c004e6090008080fb004e6090000080fb007b
:10474c0000004000000047004091900001804000b4
:10475c0000004700400db000020878004e60900049
:10476c000084fb0020912000bb0b07008800440054
:10477c0081004700810ab000800878004e609000ec
:10478c008080fb004e6090000080fb000000400029
:10479c00000047004091900001804000000047005d
:1047ac00800eb00002087800210037004e609000a7
:1047bc008080fb004e6090000080fb0000004000f9
:1047cc00000047004091900001804000000047002d
:1047dc00400db000020878004e6090000084fb0091
:1047ec00209120009c0b07008800440081004700aa
:1047fc00810ab000800878000d0037004e609000f0
:10480c008080fb004e6090000080fb0000004000a8
:10481c0000004700208890000001e9000180400062
:10482c0000004700800ab000020878000000000079
:10483c00f40537001bc9bf000080fb006101b90003
:10484c00d0fb2f00f1ff2f000200400083804800b6
:10485c00f200200003002000820f5000838f5800cc
:10486c00f1003e0000600100e2003700a5003700b7
:10487c00ad003700ec003700eb003700ea003700e2
:10488c00e9003700e8003700e7003700e6003700a2
:10489c00e500370004003700e30037005400370010
:1048ac00e1003700bf0037004e6090000080fb0035
:1048bc000000400000004700c09090004e60900047
:1048cc000080fb0000004000000047006098900052
:1048dc00808f5000180031004e6090000080fb006b
:1048ec000000400000004700c09090004e60900017
:1048fc000080fb0000004000000047002088900072
:10490c000000e900808f50000b0039004e609000d1
:10491c000080fb008000400081004700c1909000a7
:10492c008100e8000000400000004700800ab00051
:10493c0001087800170037004e6090000080fb00e3
:10494c000000400000004700c09090004e609000b6
:10495c000080fb00000040000000470060989000c1
:10496c00808f50000b003a004e6090008080fb005e
:10497c004e6090000080fb000000400000004700eb
:10498c00208990000180400000004700800ab000a0
:10499c00020878004e6090000080fb000000400090
:1049ac0000004700c09090004e6090000080fb001b
:1049bc00000040000000470040b09000808f500085
:1049cc000a003a004e6090000080fb00800040001e
:1049dc0081004700c19090008100e8000000400079
:1049ec0000004700800ab000010878008e003700f4
:1049fc004e6090000080fb0000004000000047006b
:104a0c00c09090004e6090000080fb0000004000c1
:104a1c000000470020889000808f50000c003e0062
:104a2c004e6090008080fb004e6090000080fb0088
:104a3c000000400000004700609990000180400099
:104a4c0000004700800ab00002087800160037000a
:104a5c004e6090000080fb0000004000000047000a
:104a6c00c09090004e6090000080fb000000400061
:104a7c000000470020889000808f50000a0036000c
:104a8c004e6090000080fb008000400081004700d9
:104a9c00c19090008100e900000040000000470038
:104aac00800ab000010878004e6090000080fb0086
:104abc000000400000004700c09090004e60900045
:104acc000080fb00000040000000470040b0900058
:104adc00808f50000a003a004e6090000080fb006e
:104aec008000400081004700c19090008100e900e7
:104afc000000400000004700800ab0000108780068
:104b0c00490037004e6090000084fb00209120008b
:104b1c00d10a07008800440081004700810ab000d8
:104b2c0080087800400037004e6090008080fb00c9
:104b3c004e6090000080fb00000040000000470029
:104b4c00409190000180400000004700400db000f3
:104b5c00020878004e6090000084fb002091200039
:104b6c00bd0a07008800440081004700810ab0009c
:104b7c00800878004e6090008080fb004e609000b2
:104b8c000080fb00000040000000470040919000b6
:104b9c000180400000004700800eb0000208780041
:104bac00210037004e6090008080fb004e6090002a
:104bbc000080fb0000004000000047004091900086
:104bcc000180400000004700400db0000208780052
:104bdc004e6090000084fb00209120009e0a07008c
:104bec008800440081004700810ab00080087800ea
:104bfc000d0037004e6090008080fb004e609000ee
:104c0c000080fb000000400000004700208890005e
:104c1c000001e9000180400000004700800ab0005c
:104c2c000208780000000000f60437001bc9bf0022
:104c3c000080fb006101b900d0fb2f00f1ff2f00b9
:104c4c000200400083804800f20020000300200096
:104c5c00820f5000838f5800f1003e00006001006d
:104c6c00e2003700a5003700ad003700ec0037003c
:104c7c00eb003700ea003700e9003700e8003700a6
:104c8c00e7003700e6003700e50037000400370086
:104c9c00e300370054003700e1003700bf00370055
:104cac004e6090000080fb000000400000004700b8
:104cbc00c09090004e6090000080fb00000040000f
:104ccc000000470060989000808f50001800310061
:104cdc004e6090000080fb00000040000000470088
:104cec00c09090004e6090000080fb0000004000df
:104cfc0000004700208890000000e900808f5000e1
:104d0c000b0039004e6090000080fb0080004000da
:104d1c0081004700c19090008100e8000000400035
:104d2c0000004700800ab000010878001700370027
:104d3c004e6090000080fb00000040000000470027
:104d4c00c09090004e6090000080fb00000040007e
:104d5c000000470060989000808f50000b003a00d4
:104d6c004e6090008080fb004e6090000080fb0045
:104d7c0000004000000047002089900001804000a6
:104d8c0000004700800ab000020878004e609000d6
:104d9c000080fb000000400000004700c090900025
:104dac004e6090000080fb000000400000004700b7
:104dbc0040b09000808f50000a003a004e60900086
:104dcc000080fb008000400081004700c1909000f3
:104ddc008100e8000000400000004700800ab0009d
:104dec00010878008e0037004e6090000080fb00b8
:104dfc000000400000004700c09090004e60900002
:104e0c000080fb000000400000004700208890005c
:104e1c00808f50000c003e004e6090008080fb00a4
:104e2c004e6090000080fb00000040000000470036
:104e3c00609990000180400000004700800ab0009b
:104e4c0002087800160037004e6090000080fb00ce
:104e5c000000400000004700c09090004e609000a1
:104e6c000080fb00000040000000470020889000fc
:104e7c00808f50000a0036004e6090000080fb00ce
:104e8c008000400081004700c19090008100e90043
:104e9c000000400000004700800ab00001087800c4
:104eac004e6090000080fb000000400000004700b6
:104ebc00c09090004e6090000080fb00000040000d
:104ecc000000470040b09000808f50000a003a006c
:104edc004e6090000080fb00800040008100470085
:104eec00c19090008100e9000000400000004700e4
:104efc00800ab00001087800490037004e6090002d
:104f0c000084fb0020912000d30907008800440096
:104f1c0081004700810ab00080087800400037000b
:104f2c004e6090008080fb004e6090000080fb0083
:104f3c0000004000000047004091900001804000bc
:104f4c0000004700400db000020878004e60900051
:104f5c000084fb0020912000bf090700880044005a
:104f6c0081004700810ab000800878004e609000f4
:104f7c008080fb004e6090000080fb000000400031
:104f8c000000470040919000018040000000470065
:104f9c00800eb00002087800210037004e609000af
:104fac008080fb004e6090000080fb000000400001
:104fbc000000470040919000018040000000470035
:104fcc00400db000020878004e6090000084fb0099
:104fdc0020912000a00907008800440081004700b0
:104fec00810ab000800878000d0037004e609000f8
:104ffc008080fb004e6090000080fb0000004000b1
:10500c0000004700208890000001e900018040006a
:10501c0000004700800ab000020878000000000081
:10502c00f80337001bc9bf000080fb006101b90009
:10503c00d0fb2f00f1ff2f000200400083804800be
:10504c00f200200003002000820f5000838f5800d4
:10505c00f1003e0000600100e2003700a5003700bf
:10506c00ad003700ec003700eb003700ea003700ea
:10507c00e9003700e8003700e7003700e6003700aa
:10508c00e500370004003700e30037005400370018
:10509c00e1003700bf0037004e6090000080fb003d
:1050ac000000400000004700c09090004e6090004f
:1050bc000080fb000000400000004700609890005a
:1050cc00808f5000180031004e6090000080fb0073
:1050dc000000400000004700c09090004e6090001f
:1050ec000080fb000000400000004700208890007a
:1050fc000000e900808f50000b0039004e609000da
:10510c000080fb008000400081004700c1909000af
:10511c008100e8000000400000004700800ab00059
:10512c0001087800170037004e6090000080fb00eb
:10513c000000400000004700c09090004e609000be
:10514c000080fb00000040000000470060989000c9
:10515c00808f50000b003a004e6090008080fb0066
:10516c004e6090000080fb000000400000004700f3
:10517c00208990000180400000004700800ab000a8
:10518c00020878004e6090000080fb000000400098
:10519c0000004700c09090004e6090000080fb0023
:1051ac00000040000000470040b09000808f50008d
:1051bc000a003a004e6090000080fb008000400026
:1051cc0081004700c19090008100e8000000400081
:1051dc0000004700800ab000010878008e003700fc
:1051ec004e6090000080fb00000040000000470073
:1051fc00c09090004e6090000080fb0000004000ca
:10520c000000470020889000808f50000c003e006a
:10521c004e6090008080fb004e6090000080fb0090
:10522c0000004000000047006099900001804000a1
:10523c0000004700800ab000020878001600370012
:10524c004e6090000080fb00000040000000470012
:10525c00c09090004e6090000080fb000000400069
:10526c000000470020889000808f50000a00360014
:10527c004e6090000080fb008000400081004700e1
:10528c00c19090008100e900000040000000470040
:10529c00800ab000010878004e6090000080fb008e
:1052ac000000400000004700c09090004e6090004d
:1052bc000080fb00000040000000470040b0900060
:1052cc00808f50000a003a004e6090000080fb0076
:1052dc008000400081004700c19090008100e900ef
:1052ec000000400000004700800ab0000108780070
:1052fc00490037004e6090000084fb002091200094
:10530c00d50807008800440081004700810ab000de
:10531c0080087800400037004e6090008080fb00d1
:10532c004e6090000080fb00000040000000470031
:10533c00409190000180400000004700400db000fb
:10534c00020878004e6090000084fb002091200041
:10535c00c10807008800440081004700810ab000a2
:10536c00800878004e6090008080fb004e609000ba
:10537c000080fb00000040000000470040919000be
:10538c000180400000004700800eb0000208780049
:10539c00210037004e6090008080fb004e60900032
:1053ac000080fb000000400000004700409190008e
:1053bc000180400000004700400db000020878005a
:1053cc004e6090000084fb0020912000a208070092
:1053dc008800440081004700810ab00080087800f2
:1053ec000d0037004e6090008080fb004e609000f6
:1053fc000080fb0000004000000047002088900067
:10540c000001e9000180400000004700800ab00064
:10541c000208780000000000fa0237001bc9bf0028
:10542c000080fb006101b900d0fb2f00f1ff2f00c1
:10543c000200400083804800f2002000030020009e
:10544c00820f5000838f5800f1003e000060010075
:10545c00e2003700a5003700ad003700ec00370044
:10546c00eb003700ea003700e9003700e8003700ae
:10547c00e7003700e6003700e5003700040037008e
:10548c00e300370054003700e1003700bf0037005d
:10549c004e6090000080fb000000400000004700c0
:1054ac00c09090004e6090000080fb000000400017
:1054bc000000470060989000808f50001800310069
:1054cc004e6090000080fb00000040000000470090
:1054dc00c09090004e6090000080fb0000004000e7
:1054ec0000004700208890000000e900808f5000e9
:1054fc000b0039004e6090000080fb0080004000e3
:10550c0081004700c19090008100e800000040003d
:10551c0000004700800ab00001087800170037002f
:10552c004e6090000080fb0000004000000047002f
:10553c00c09090004e6090000080fb000000400086
:10554c000000470060989000808f50000b003a00dc
:10555c004e6090008080fb004e6090000080fb004d
:10556c0000004000000047002089900001804000ae
:10557c0000004700800ab000020878004e609000de
:10558c000080fb000000400000004700c09090002d
:10559c004e6090000080fb000000400000004700bf
:1055ac0040b09000808f50000a003a004e6090008e
:1055bc000080fb008000400081004700c1909000fb
:1055cc008100e8000000400000004700800ab000a5
:1055dc00010878008e0037004e6090000080fb00c0
:1055ec000000400000004700c09090004e6090000a
:1055fc000080fb0000004000000047002088900065
:10560c00808f50000c003e004e6090008080fb00ac
:10561c004e6090000080fb0000004000000047003e
:10562c00609990000180400000004700800ab000a3
:10563c0002087800160037004e6090000080fb00d6
:10564c000000400000004700c09090004e609000a9
:10565c000080fb0000004000000047002088900004
:10566c00808f50000a0036004e6090000080fb00d6
:10567c008000400081004700c19090008100e9004b
:10568c000000400000004700800ab00001087800cc
:10569c004e6090000080fb000000400000004700be
:1056ac00c09090004e6090000080fb000000400015
:1056bc000000470040b09000808f50000a003a0074
:1056cc004e6090000080fb0080004000810047008d
:1056dc00c19090008100e9000000400000004700ec
:1056ec00800ab00001087800490037004e60900035
:1056fc000084fb0020912000d7070700880044009d
:10570c0081004700810ab000800878004000370013
:10571c004e6090008080fb004e6090000080fb008b
:10572c0000004000000047004091900001804000c4
:10573c0000004700400db000020878004e60900059
:10574c000084fb0020912000c30707008800440060
:10575c0081004700810ab000800878004e609000fc
:10576c008080fb004e6090000080fb000000400039
:10577c00000047004091900001804000000047006d
:10578c00800eb00002087800210037004e609000b7
:10579c008080fb004e6090000080fb000000400009
:1057ac00000047004091900001804000000047003d
:1057bc00400db000020878004e6090000084fb00a1
:1057cc0020912000a40707008800440081004700b6
:1057dc00810ab000800878000d0037004e60900000
:1057ec008080fb004e6090000080fb0000004000b9
:1057fc0000004700208890000001e9000180400073
:10580c0000004700800ab000020878000000000089
:10581c00fc0137001bc9bf000080fb006101b9000f
:10582c00d0fb2f00f1ff2f000200400083804800c6
:10583c00f200200003002000820f5000838f5800dc
:10584c00f1003e0000600100e2003700a5003700c7
:10585c00ad003700ec003700eb003700ea003700f2
:10586c00e9003700e8003700e7003700e6003700b2
:10587c00e500370004003700e30037005400370020
:10588c00e1003700bf0037004e6090000080fb0045
:10589c000000400000004700c09090004e60900057
:1058ac000080fb0000004000000047006098900062
:1058bc00808f5000180031004e6090000080fb007b
:1058cc000000400000004700c09090004e60900027
:1058dc000080fb0000004000000047002088900082
:1058ec000000e900808f50000b0039004e609000e2
:1058fc000080fb008000400081004700c1909000b8
:10590c008100e8000000400000004700800ab00061
:10591c0001087800170037004e6090000080fb00f3
:10592c000000400000004700c09090004e609000c6
:10593c000080fb00000040000000470060989000d1
:10594c00808f50000b003a004e6090008080fb006e
:10595c004e6090000080fb000000400000004700fb
:10596c00208990000180400000004700800ab000b0
:10597c00020878004e6090000080fb0000004000a0
:10598c0000004700c09090004e6090000080fb002b
:10599c00000040000000470040b09000808f500095
:1059ac000a003a004e6090000080fb00800040002e
:1059bc0081004700c19090008100e8000000400089
:1059cc0000004700800ab000010878008e00370004
:1059dc004e6090000080fb0000004000000047007b
:1059ec00c09090004e6090000080fb0000004000d2
:1059fc000000470020889000808f50000c003e0073
:105a0c004e6090008080fb004e6090000080fb0098
:105a1c0000004000000047006099900001804000a9
:105a2c0000004700800ab00002087800160037001a
:105a3c004e6090000080fb0000004000000047001a
:105a4c00c09090004e6090000080fb000000400071
:105a5c000000470020889000808f50000a0036001c
:105a6c004e6090000080fb008000400081004700e9
:105a7c00c19090008100e900000040000000470048
:105a8c00800ab000010878004e6090000080fb0096
:105a9c000000400000004700c09090004e60900055
:105aac000080fb00000040000000470040b0900068
