:020000040000fa
:080000000002040000000000f2
:020000040000fa
:1000080090020000900200009002000090020000a0
:100018009002000090020000900200009002000090
:10002800900200009002000090020000744200005c
:100038009002000090020000900200009002000070
:10004800900200009002000090020000ac3c00000a
:10005800223e000090020000900200009002000082
:100068009002000090020000900200009002000040
:100078009002000090020000900200009002000030
:100088009002000090020000900200009002000020
:100098009002000090020000900200009002000010
:1000a8009002000090020000900200009002000000
:1000b80090020000900200009002000090020000f0
:1000c80090020000900200009002000090020000e0
:1000d80090020000900200009002000090020000d0
:1000e80090020000900200009002000090020000c0
:1000f80090020000900200009002000090020000b0
:10010800900200009002000090020000900200009f
:10011800900200009002000090020000900200008f
:10012800900200009002000090020000900200007f
:10013800900200009002000090020000900200006f
:10014800900200009002000090020000900200005f
:10015800900200009002000090020000900200004f
:10016800900200009002000090020000900200003f
:10017800900200009002000090020000900200002f
:10018800900200009002000090020000900200001f
:10019800900200009002000090020000900200000f
:1001a80090020000900200009002000090020000ff
:1001b80090020000900200009002000090020000ef
:1001c80090020000900200009002000090020000df
:1001d80090020000900200009002000090020000cf
:1001e80090020000900200009002000090020000bf
:0801f8009002000090020000db
:020000040000fa
:10020800900200009002000090020000900200009e
:10021800900200009002000090020000900200008e
:10022800900200009002000090020000744200005a
:10023800900200009002000090020000900200006e
:10024800900200009002000090020000ac3c000008
:10025800223e000090020000900200009002000080
:10026800900200009002000090020000900200003e
:10027800900200009002000090020000900200002e
:10028800900200009002000090020000900200001e
:10029800900200009002000090020000900200000e
:1002a80090020000900200009002000090020000fe
:1002b80090020000900200009002000090020000ee
:1002c80090020000900200009002000090020000de
:1002d80090020000900200009002000090020000ce
:1002e80090020000900200009002000090020000be
:1002f80090020000900200009002000090020000ae
:10030800900200009002000090020000900200009d
:10031800900200009002000090020000900200008d
:10032800900200009002000090020000900200007d
:10033800900200009002000090020000900200006d
:10034800900200009002000090020000900200005d
:10035800900200009002000090020000900200004d
:10036800900200009002000090020000900200003d
:10037800900200009002000090020000900200002d
:10038800900200009002000090020000900200001d
:10039800900200009002000090020000900200000d
:1003a80090020000900200009002000090020000fd
:1003b80090020000900200009002000090020000ed
:1003c80090020000900200009002000090020000dd
:1003d80090020000900200009002000090020000cd
:1003e80090020000900200009002000090020000bd
:0803f8009002000090020000d9
:020000040000fa
:100400004fb920000e7f22000e018800000000007e
:100410000c0007002011240001002000110007003b
:10042000000020000000e000020032000000020096
:1004300000000000340b0200000000000040da0061
:100440000000fe004440a900e06520000000e0003c
:100450000300320000002000a00188004440a800f2
:100460000000060091018800800078000000eb0089
:1004700015003700e280400032a0b4009101ba00bc
:10048000e280400032a0b4009102ba00e280400055
:1004900032a0b4000002eb00472bde00f507b200eb
:1004a000602ce10004003a000059eb008301e900f0
:1004b000fdff3e00040037006128e100010032002a
:1004c0000082eb00040007001101ba000200e00006
:1004d000e8ff3a00000006003159ba008301e90044
:1004e0000c0032002159ba008301e90008003200f3
:1004f0000400e00003003a00e280400032a0b400b3
:10050000f5ff370011d9ba008301e900faff3a007c
:100510008100e800e180400032a0b4000000060045
:100520000040da000000fe00e4874700889fbe001c
:100530008a9fbe008c9fbe008e1f780061a52000a0
:10054000b2528000e00f51000b003a00648140007d
:10055000b252880002538800a1009800f15288002e
:10056000214190000204a000a24098006141900047
:100570000204a000e2409800670440004244de000c
:100580004244dd00f15280000002eb008ea6200004
:1005900049b920008e8454006400440080bf9f004d
:1005a000614eb900010037008b00780021409000b7
:1005b00061006000020032000a00370093087800f2
:1005c000910178002340900061006000fbff320041
:1005d00008814000828f510002003900e00f540072
:1005e00054003d0091057800818f5500eeff3e00dc
:1005f0008e8f55000300390060a52000808f5500c4
:10060000e9ff390000538000808f50005a003a0003
:1006100060a52000808f550057003a000402e800d2
:10062000e10f5200e0ff360022002000811f780019
:10063000110009008204d800cf007800800f540018
:1006400005003600890f5400030031000885e800da
:100650000a054500140037006142b800b2ff2f00c0
:10066000030020000c0151008d815900820f5200bf
:10067000838f5a000b003d0072b920000e0151001b
:1006800008014100809fbe00110009000981d800c7
:10069000000178004f00be000991b9000205780002
:1006a00001003700080578000a0078009d00070067
:1006b000e10f400005003a000fbd97000a007800e6
:1006c00098000700e10f40002b003200015380002a
:1006d0008008780001538000e481400021419000af
:1006e000830f5000020032000204a0000100370016
:1006f0000204a100a2409800640555000a054000cc
:100700000a0878000a53880061a52000010d7800ce
:1007100002538000a24090000104a00021419800f3
:10072000a04090000104a100214098000002eb00cd
:100730009dff3700f2528800828f5100070036007b
:100740001202be0014538800255388001109780056
:100750000040eb00f252800020419800f5528000ea
:1007600085087800214090000004a000a040980077
:1007700064804000010037000000eb004f07780064
:100780004f06be004f05be004f04be004f00b10033
:100790000000060064005000f0528800a040900065
:1007a0000104a1002140980000000600889fbe00bf
:1007b0008a9fbe00800478000104780064815400a0
:1007c0009205780069f9970061016100020032002a
:1007d00009007800efff07000800780052ff0700cb
:1007e00000047800e00f54001b003200890f540011
:1007f0001900320068bd97000805550042d5de009b
:10080000098055004280de000a017800800f550003
:1008100001003600000178004211dd000800be0032
:1008200011000700890f54000b0031004255dd0014
:100830000a054400890f5500070036008904550059
:10084000c2ccde00c24cdd0089044400105380009d
:1008500021538000808cbe00080078004f05be0048
:100860004f04be000000060080017800020037003f
:10087000b1597800040178000202e900e00f51004c
:10088000fbff3a000000060010417800814f510044
:1008900005003200e04f5100020032000000e80085
:1008a000f9ff37000000eb0000000600800178002f
:1008b0003141780082597800e04f5100fcff3a0046
:1008c00000000600800078000041eb00b14f1100ed
:1008d000fdff3a000080ea000080400000000600b2
:1008e00080017800060037000201e900114278001b
:1008f00084597800e04f5200060032008100e80081
:10090000e00f5100f8ff3a00020037008059eb0079
:10091000010178008200e900e00f5100fbff3a007e
:1009200000000600889fbe008004780030538000dd
:10093000e00f500004003a000e0007000084eb00b6
:10094000e00f50000800350038538000e08f54005d
:10095000050032000900440006000700e00f5000c7
:1009600001003d000084eb00080078004f04be0049
:1009700000000600e00f500004003a0081a62000ad
:100980003153880080007800060037008080eb003b
:1009900042b92000820f500002003e003053880010
:0c09a0008000eb00010078000000060061
:020000040000fa
:1009ac00ff000000e7000000c300000099000000f9
:1009bc0099000000990000009900000099000000c7
:1009cc0099000000990000009900000099000000b7
:1009dc0099000000c3000000e7000000ff000000c9
:1009ec00ff000000e7000000e3000000e100000051
:1009fc00e7000000e7000000e7000000e70000004f
:100a0c00e7000000e7000000e7000000e70000003e
:100a1c00e70000008100000081000000ff000000e2
:100a2c00ff000000c3000000810000009d000000da
:100a3c009f0000009f0000009f000000cf000000fe
:100a4c00e7000000f3000000f9000000f9000000ce
:100a5c00f90000008100000081000000ff00000090
:100a6c00ff000000c3000000810000009f00000098
:100a7c009f0000009f0000009f000000c3000000ca
:100a8c00c30000009f0000009f0000009f000000ba
:100a9c009f00000081000000c3000000ff00000068
:100aac00ff000000cf000000c7000000c3000000e2
:100abc00c9000000c9000000c9000000c900000006
:100acc008100000081000000cf000000cf0000007a
:100adc00cf000000cf000000cf000000ff0000009e
:100aec00ff0000008100000081000000f900000000
:100afc00f9000000f9000000f9000000c10000003e
:100b0c00810000009f0000009f0000009f0000007b
:100b1c009d00000081000000c3000000ff000000e9
:100b2c00ff0000008300000081000000b9000000fd
:100b3c00f9000000f9000000f9000000f9000000c5
:100b4c00c100000081000000990000009900000025
:100b5c009900000081000000c3000000ff000000ad
:100b6c00ff00000081000000810000009f000000d9
:100b7c009f0000009f0000009f0000009f000000ed
:100b8c00cf000000e7000000e7000000e7000000d5
:100b9c00e7000000e7000000e7000000ff00000095
:100bac00ff000000c300000081000000990000005d
:100bbc00990000009900000099000000c30000009b
:100bcc00c30000009900000099000000990000008b
:100bdc009900000081000000c3000000ff0000002d
:100bec00ff000000c300000081000000990000001d
:100bfc0099000000990000008100000083000000b3
:100c0c009f0000009f0000009f0000009f0000005c
:100c1c009d00000081000000c3000000ff000000e8
:100c2c00ff000000e7000000db000000990000005e
:100c3c009900000099000000990000009900000044
:100c4c00810000009900000099000000990000004c
:100c5c00990000009900000099000000ff000000be
:100c6c00ff000000e1000000c1000000990000003e
:100c7c00990000009900000099000000c1000000dc
:100c8c00c1000000990000009900000099000000cc
:100c9c0099000000c1000000e1000000ff0000000e
:100cac00ff000000c300000081000000f9000000fc
:100cbc00f9000000f9000000f9000000f900000044
:100ccc00f9000000f9000000f9000000f900000034
:100cdc00f900000081000000c3000000ff000000cc
:100cec00ff000000e1000000c100000099000000be
:100cfc009900000099000000990000009900000084
:100d0c009900000099000000990000009900000073
:100d1c0099000000c1000000e1000000ff0000008d
:100d2c00ff0000008300000081000000f9000000bb
:100d3c00f9000000f9000000f9000000c1000000fb
:100d4c00c1000000f9000000f9000000f9000000eb
:100d5c00f90000008100000083000000ff0000008b
:100d6c00ff0000008300000081000000f90000007b
:100d7c00f9000000f9000000f9000000c1000000bb
:100d8c00c1000000f9000000f9000000f9000000ab
:100d9c00f9000000f9000000f9000000ff0000005d
:100dac00ff0000008300000081000000f90000003b
:100dbc00f9000000f9000000f9000000f900000043
:100dcc00f9000000f9000000090000009900000083
:100ddc00990000008100000083000000ff0000006b
:100dec00ff0000009900000099000000990000002d
:100dfc00990000009900000099000000810000009b
:100e0c009900000099000000990000009900000072
:100e1c00990000009900000099000000ff000000fc
:100e2c00ff0000008100000081000000e7000000ce
:100e3c00e7000000e7000000e7000000e70000000a
:100e4c00e7000000e7000000e7000000e7000000fa
:100e5c00e70000008100000081000000ff0000009e
:100e6c00ff0000009f0000009f0000009f0000009a
:100e7c009f0000009f0000009f0000009f000000ea
:100e8c009f0000009f0000009900000099000000e6
:100e9c00990000008100000081000000ff000000ac
:100eac00ff000000fc000000bc0000009c000000e3
:100ebc00cc000000e4000000f0000000f80000008e
:100ecc00f8000000f0000000e4000000cc0000007e
:100edc009c000000bc000000fc000000ff000000b3
:100eec00ff000000f9000000f9000000f90000000c
:100efc00f9000000f9000000f9000000f900000002
:100f0c00f9000000f9000000f9000000b900000031
:100f1c00b90000008100000081000000ff0000000b
:100f2c00ff000000990000002400000024000000d5
:100f3c002400000024000000240000002400000015
:100f4c003c0000003c0000003c0000003c000000a5
:100f5c003c0000003c0000003c000000ff000000d2
:100f6c00ff000000b9000000b9000000b90000004b
:100f7c00b9000000b1000000b1000000a5000000a5
:100f8c00a5000000ad0000008d0000008d000000e9
:100f9c009d0000009d0000009d000000ff0000006f
:100fac00ff0000008100000081000000990000009b
:100fbc0099000000990000009900000099000000c1
:100fcc0099000000990000009900000099000000b1
:100fdc00990000008100000081000000ff0000006b
:100fec00ff00000083000000810000009900000059
:100ffc0099000000990000008100000081000000b1
:10100c00f9000000f9000000f9000000f9000000f0
:10101c00f9000000f9000000f9000000ff000000da
:10102c00ff000000c30000008100000099000000d8
:10103c009900000099000000990000009900000040
:10104c00990000009900000089000000c100000018
:10105c0093000000bf000000ff000000ff00000034
:10106c00ff000000c3000000810000009900000098
:10107c009900000099000000c9000000e100000088
:10108c00f1000000c1000000890000009900000080
:10109c00990000009900000099000000ff0000007a
:1010ac00ff0000008300000081000000b900000078
:1010bc00f9000000f9000000f9000000c100000078
:1010cc00830000009f0000009f0000009d000000b6
:1010dc009d00000081000000c1000000ff00000026
:1010ec00ff0000008100000081000000e70000000c
:1010fc00e7000000e7000000e7000000e700000048
:10110c00e7000000e7000000e7000000e700000037
:10111c00e7000000e7000000e7000000ff0000000f
:10112c00ff000000990000009900000099000000e9
:10113c00990000009900000099000000990000003f
:10114c00990000009900000099000000990000002f
:10115c009900000081000000c3000000ff000000a7
:10116c00ff000000990000009900000099000000a9
:10117c0099000000990000009900000099000000ff
:10118c0099000000990000009900000099000000ef
:10119c00db000000e7000000e7000000ff0000009b
:1011ac00ff0000003c0000003c0000003c00000080
:1011bc003c0000003c0000003c0000003c00000033
:1011cc003c0000002400000024000000240000006b
:1011dc00240000000000000099000000ff00000047
:1011ec00ff00000099000000990000009900000029
:1011fc009900000099000000db000000e3000000f3
:10120c00e7000000cb0000009900000099000000ee
:10121c00990000009900000099000000ff000000f8
:10122c00ff000000990000009900000099000000e8
:10123c009900000099000000990000008100000056
:10124c00c3000000e7000000e7000000e70000001a
:10125c00e7000000e7000000e7000000ff000000ce
:10126c00ff00000081000000810000009f000000d2
:10127c009f000000cf000000e7000000f30000001a
:10128c00f9000000f9000000f9000000f90000006e
:10129c008100000081000000ff000000ff00000042
:1012ac00ff000000ff000000ff000000ff00000036
:1012bc00ff000000ff000000ff000000ff00000026
:1012cc00ff000000ff000000ff000000ff00000016
:1012dc00ff000000ff000000ff000000ff00000006
:1012ec00ff000000ff000000ff000000ff000000f6
:1012fc00ff000000ef000000cf00000081000000a4
:10130c0081000000cf000000ef000000ff00000093
:10131c00ff000000ff000000ff000000ff000000c5
:10132c0000000000000000000000000000000000b1
:10133c0000000000000000000000000000000000a1
:10134c000000000000000000000000000000000091
:10135c000000000000000000000000000000000081
:10136c00fe000000ff000000ff000000ff00000076
:10137c00ff000000ff000000ff000000ff00000065
:10138c00ff000000ff000000ff000000ff00000055
:10139c00ff000000ff000000ff000000ff00000045
:1013ac00576500006c6300006f6d00006500000065
:1013bc005445000053540000202000002000000081
:1013cc0050520000474d000020200000200000007b
:1013dc004e520000474d000020200000200000006d
:1013ec004e57000054200000202000002000000078
:1013fc004e57000046200000202000002000000076
:10140c004d5300005452000020200000200000002a
:10141c00534c00004156000020200000200000002a
:10142c00535400004441000020200000004d0000f7
:10143c00554c0000542000002020000000530000f8
:10144c00494e00004720000020200000004400000e
:10145c004947000033200000202000000044000019
:10146c00494700003220000020200000004200000c
:10147c00454c0000542000002020000000420000d9
:10148c00454c0000462000002020000000500000c9
:10149c00524d00005320000020200000005300009b
:1014ac0054440000412000002020000000530000a4
:1014bc0041560000452000002020000000430000a1
:1014cc00414e00005320000020200000004f00007f
:1014dc005554000020000000534c00004156000001
:1014ec000053000054440000410000004d55000022
:1014fc004c54000000530000494e0000470000000f
:10150c00494400003a200000004400004947000014
:10151c003300000044490000473200000042000044
:10152c004f4e000020000000424f000046460000d5
:10153c00004f000055540000202000002020000027
:10154c00004d0000415300005445000052200000a3
:10155c00004d0000554c000054490000504c000058
:10156c0000530000494e0000474c0000452000008d
:10157c00002000002020000020200000202000007f
:10158c0000420000454c00004c2000004f4e000073
:10159c0000420000454c0000204f00004646000071
:1015ac00005300006c61000076650000204d0000c7
:1015bc006f640000650d00000a0000005354000029
:1015cc00414e0000444100004c4f00004e450000cd
:1015dc000a0000004552000052200000004d00009f
:1015ec006173000074650000720000005858000020
:1015fc00585800002e5800005800000044450000c8
:10160c0046410000554c0000540000004c490000bd
:10161c005354000053450000540000005345000093
:10162c00524c000049530000540000004c4f000085
:10163c0041440000454400002000000053450000d8
:10164c0052200000534100005600000020450000cd
:0c165c00525200004f520000200000001d
:020000040000fa
:101668001001fa00889fbe00600799007107990071
:101678000000eb00000f78000000eb002007980046
:101688000000eb0060079800ff1c0700113a80007b
:10169800f08f2f00808060000030200000807000f4
:1016a800103a880000000000113a80000002200073
:1016b80000806000e00f5000fbff3200c002a9006c
:1016c800c9c2a90070002000801688000080eb00c5
:1016d80060198800b21c070010c4b300604f98005e
:1016e8000000eb00000f7800100037002016800083
:1016f800004078006140600000c0ea00614060007e
:101708000080fb006100600022168000e1ff2f00ce
:1017180081006100008070002016880000682900a0
:1017280081092000e81c07001e0fe8001e00780051
:10173800e40f5000edff3600c81c0700c402a900e2
:10174800c882a900961c07004d1b07003418070023
:101758000f1c07001415070000902000d10320007b
:10176800d91c0700cf1b07003e1907000090200076
:10177800d1032000d41c070082002000619d2800ae
:1017880020a2200036fc070020a2200063180700d2
:1017980082002000e19d280020a2200030fc0700e4
:1017a80020a220000316070000a025002126200003
:1017b800c51c07006000b80058190700006f9800a2
:1017c8006000b8005519070020df990010002000bc
:1017d800010020005119070030df99002000200087
:1017e800010020004d19070040df9900300020005b
:1017f800010020004919070050df99000e68900089
:10180800e14f400035003a00100020006052880087
:101818001000200000498800100020007052880045
:101828000000eb003007980042c0b300be009000f3
:10183800c0902000d419070000c3b3000ee9b70018
:1018480000c3b3000fe9b70010002000400798005c
:1018580010002000500798006052800000017800b6
:101868006000b8007b19070000498000000178007b
:101878001000200001002000761907007052800037
:1018880000017800200020000100200071190700e5
:101898000ec9bf0000417800300020000100200080
:1018a800f71807000fc9bf0000417800400020006a
:1018b80001002000f21807004e019000500020009f
:1018c80001002000631907005e01900070002000ed
:1018d800010020005f1907000b0037003ed8910077
:1018e800d11907000049880000498000e00f500026
:1018f8000300320010c0b3001ee9b7000200370031
:101908000040eb001ee9b7000000eb00000f780074
:1019180000498000e00f50001b0032000b00370028
:101928000040eb009016070000802400811e200074
:10193800651c070010c0b3008b1607000080240048
:10194800811e2000601c07001e0fe8001e007800a2
:10195800e20f5000f2ff36000e0037000040eb00a7
:101968004916070000802400811e2000561c07002d
:1019780010c0b3004416070000802400811e200018
:10198800511c07001e0fe8001e007800e20f5000ef
:10199800f2ff36000000eb00000f78006000b8008e
:1019a800200f9800310f98009016800000407800b2
:1019b800614060000080fb0061006000e00f5000a3
:1019c8000d003a0010c0b3001ee9b7001000200057
:1019d8006007980010002000400f98008200200047
:1019e800619e280020a220009dfb070020a2200065
:1019f800701507000a00370082002000e19e2800c9
:101a080020a2200096fb070020a2200069150700ed
:101a18000000eb00600798000000eb00400f980002
:101a280000402b00414c2000271c070070002000bc
:101a3800500f98000000eb0010079800af02370025
:101a480080508000e00f5000ac0232001e00900071
:101a580050179800db1b0700100798005e109000d5
:101a6800e00f5000a3023a001e009000e00f500063
:101a7800a00232001e009000e20f5000dc0032008d
:101a8800e40f5000cd013200e10f500099023a00f6
:101a98005e0890000000e800500f98005e08900073
:101aa800e70f5000020036000000eb00500f9800ce
:101ab80000498000e00f5000090032007052800099
:101ac800e00f5000060032005e089000e40f50005e
:101ad80003003a005e0890000000e800500f9800ec
:101ae80000498000e00f5000060032005e089000b8
:101af800e50f500003003a005e0890000000e8007f
:101b0800500f980060528000e00f500006003a0025
:101b18005e089000e50f500003003a005e08900050
:101b28000000e800500f980060528000e00f50005d
:101b380008003a005e089000e20f500005003a00e5
:101b48005e0890000000e800500f98000000eb00cd
:101b5800705288005e08900001002000720020008a
:101b680003002000820f5000838f58005c023e0063
:101b78000060010007003700170037003400370005
:101b8800440037005c0037006c0037007f003700e6
:101b98008f00370060528000e00f500007003200cd
:101ba80082002000619f280020a220002cfb070053
:101bb80020a22000ff140700060037008200200042
:101bc800e19f280020a2200025fb070020a220007a
:101bd800f81407008500370000498000e00f500026
:101be800070032008200200061a0280020a2200007
:101bf8001bfb070020a22000ee140700130037008b
:101c080060528000e00f50000a0032000049800056
:101c1800e00f500007003a0082002000e1a02800f1
:101c280020a220000efb070020a22000e1140700dc
:101c3800060037007200200061a1280020a22000c1
:101c480007fb070020a22000da140700670037000e
:101c580070528000e00f5000070032008200200020
:101c6800d1a1280020a22000fdfa070020a2200010
:101c7800d0140700060037008200200051a2280077
:101c880020a22000f6fa070020a22000c9140700ad
:101c98005600370000498000e00f50000200320073
:101ca8000000eb003007980042c0b300be0090006f
:101cb80020902000b418070090c4b30002e9b700d0
:101cc80040c4b30003e9b7002190200020a22000ff
:101cd800f4fa070000c2b30026eab70000c2b30056
:101ce80027eab70000c2b30028eab70020a2200004
:101cf800b01407003d0037004e009000e00f500080
:101d08000700320082002000d1a2280020a2200073
:101d1800d3fa070020a22000a61407000600370007
:101d28008200200051a3280020a22000ccfa07003e
:101d380020a220009f1407002c00370030c5b300f4
:101d480002e9b70050c5b30003e9b70060c4b300a7
:101d580004e9b7006e48900005e9b700219020001b
:101d680020a22000cffa070000c2b30026eab7007d
:101d780000c2b30027eab70000c2b30028eab700e0
:101d880020a220008b140700180037005e00900086
:101d9800e00f50000700320082002000d1a3280085
:101da80020a22000aefa070020a22000811407001c
:101db800060037008200200051a4280020a220003d
:101dc800a7fa070020a220007a14070007003700ae
:101dd80082002000d1a4280020a22000a0fa070039
:101de80020a220007314070000000000c101370082
:101df8005e0890000100200072002000030020000f
:101e0800820f5000838f5800b7013e000060010028
:101e1800070037000f003700230037002b0037007a
:101e280060003700680037009d003700a5003700c4
:101e380082002000619f280020a2200088fa070065
:101e480020a220005b1407001000200060528800c8
:101e5800d900370060528000e00f500009003200be
:101e68008200200061a0280020a220007cfa070040
:101e780020a220004f14070010002000004988000d
:101e8800080037008200200051a5280020a2200069
:101e980073fa070020a22000461407000000eb0098
:101ea80000498800c400370082002000d1a1280022
:101eb80020a220006afa070020a220003d14070093
:101ec8001000200070528800bb00370000498000d5
:101ed800e00f5000160032000000eb0030079800b9
:101ee80042c0b300be0090002090200026180700d2
:101ef80090c4b30002e9b70040c4b30003e9b700d7
:101f08002190200020a2200066fa070000c2b3003a
:101f180026eab70000c2b30027eab70000c2b30040
:101f280028eab70020a22000221407001c0037006e
:101f38003e0090000000e80030079800be009000c6
:101f480000022000808f50000200360010002000a0
:101f58003007980042c0b300be00900020902000d7
:101f68000918070090c4b30002e9b70040c4b300e1
:101f780003e9b7002190200020a2200049fa0700b9
:101f880000c2b30026eab70000c2b30027eab700d0
:101f980000c2b30028eab70020a2200005140700f9
:101fa800850037008200200051a3280020a22000cd
:101fb8002bfa070020a22000fe1307000000eb0008
:101fc800400798007c00370070528000e00f5000f6
:101fd8001d0032006e4890000040e800604f9800f5
:101fe800ee489000a0c5b30080cf50000200340036
:101ff80010c4b300604f980030c5b30002e9b700c1
:1020080050c5b30003e9b70060c4b30004e9b700e2
:102018006e48900005e9b7002190200020a220001a
:1020280020fa070000c2b30026eab70000c2b300d6
:1020380027eab70000c2b30028eab70020a22000b0
:10204800dc1307001500370000c3b300604f980089
:1020580030c5b30002e9b70050c5b30003e9b700c3
:1020680060c4b30004e9b7006e48900005e9b70002
:102078002190200020a220000afa070000c2b30025
:1020880026eab70000c2b30027eab70000c2b300cf
:1020980028eab70020a22000c61307004600370030
:1020a80082002000d1a3280020a22000ecf907001c
:1020b80020a22000bf13070010002000500798003e
:1020c8003d00370082002000d1a5280020a2200072
:1020d800e3f9070020a22000b613070000a025009e
:1020e80021262000781a070000a0250021262000bc
:1020f800751a070060528000e00f500002003a0095
:10210800f0c0b300604f980042c0b300be0090001a
:10211800c09020009c1707006052800000017800e2
:102128006000b8004b1707000049800000017800e4
:1021380010002000010020004617070070528000a0
:10214800000178002000200001002000411707004e
:102158000ec9bf00004178003000200001002000b7
:10216800c71607000fc9bf000041780040002000d3
:1021780001002000c21607004e0190005000200008
:1021880001002000331707006e48900000417800d6
:102198006000200001002000b91607005e019000d1
:1021a80070002000010020002a1707000000eb0043
:1021b8006007980000000000ce0037005e0890001d
:1021c800010020007200200003002000820f500050
:1021d800838f5800c6003e000060010007003700ea
:1021e8000f00370021003700350037006a0037003c
:1021f80072003700a7003700af00370082002000c8
:10220800e19f280020a2200095f9070020a22000c5
:10221800681307000000eb0060528800af00370029
:1022280060528000e00f500007003200820020005a
:10223800e1a0280020a2200089f9070020a22000a0
:102248005c130700060037007200200061a1280017
:1022580020a2200082f9070020a2200055130700c1
:102268000000eb00004988009c00370060528000a5
:10227800e00f5000090032008200200051a228001f
:1022880020a2200076f9070020a2200049130700a9
:102298000000eb0070528800080037008200200020
:1022a800d1a1280020a220006df9070020a220005b
:1022b8004013070010002000705288008700370084
:1022c80000498000e00f5000160032000000eb00cb
:1022d8003007980042c0b300be0090002090200054
:1022e8002917070090c4b30002e9b70040c4b3003f
:1022f80003e9b7002190200020a2200069f9070017
:1023080000c2b30027eab70000c2b30028eab7004a
:1023180000c2b30029eab70020a220002513070055
:102328001c0037003e009000e10f500003003a0007
:102338000002200030079800030037003e0090009c
:102348000000e9003007980042c0b300be009000ca
:10235800209020000c17070090c4b30002e9b700d2
:1023680040c4b30003e9b7002190200020a2200058
:102378004cf9070000c2b30027eab70000c2b30057
:1023880028eab70000c2b30029eab700209020006d
:10239800081307005100370082002000d1a228004e
:1023a80020a220002ef9070020a220000113070018
:1023b8001000200040079800480037007052800045
:1023c800e00f50001d0032006e4890000040e90008
:1023d800604f9800ee48900000c4b30080cf5000d2
:1023e80002003c00a0c5b300604f980030c5b300a0
:1023f80002e9b70050c5b30003e9b70060c4b300f1
:1024080004e9b7006e48900005e9b7002190200064
:1024180020a2200023f9070000c2b30027eab70072
:1024280000c2b30028eab70000c2b30029eab70027
:1024380020a22000df1207001500370000c3b300f8
:10244800604f980030c5b30002e9b70050c5b3002b
:1024580003e9b70060c4b30004e9b7006e48900010
:1024680005e9b7002190200020a220000df90700ff
:1024780000c2b30027eab70000c2b30028eab700d9
:1024880000c2b30029eab70020a22000c912070041
:10249800120037008200200051a4280020a220004a
:1024a800eff8070020a22000c21207000000eb008e
:1024b80050079800090037008200200051a6280024
:1024c80020a22000e6f8070020a22000b912070089
:1024d8000000eb00600798000000000005003700ce
:1024e8000000000003003700000000000100370072
:1024f800000000000000eb00805088006e00900093
:10250800e00f50004efd3a0000498000e00f5000f7
:10251800a5003a000040eb001ee9b700d0a628004d
:10252800f011070000a025002126200066190700e9
:10253800e0c4b30020df990050c4b30030df990035
:1025480040c5b30040df99006000b800f3150700ec
:1025580050df99005ed89100b316070060528800da
:1025680000498000e00f500006003a0060528000e9
:10257800e00f50000300320020a72800d9110700ff
:102588000200370070a72800d611070000a0250018
:10259800212620004c19070060528000e00f5000ef
:1025a800280032002000200001002000db15070071
:1025b80050df99005ed891009b1607007052880082
:1025c80070528000e00f500017003200c0a72800aa
:1025d800c411070000a02500212620003a19070091
:1025e80030c5b30020df990050c5b30030df990033
:1025f80060c4b30040df99006000200001002000a3
:10260800c615070050df9900600020000100200077
:10261800c2150700604f9800a00d20000e00400072
:10262800b01107000400370000c3b300604f9800e2
:1026380010a82800ab11070000a0250021262000c3
:102648002119070090c4b30020df990040c4b300eb
:1026580030df99003000200001002000af1507008e
:1026680040df99003000200001002000ab15070072
:102678000ee9b7004000200001002000a715070060
:1026880050df99004000200001002000a31507003a
:102698000fe9b700a00d20000e00400091110700bf
:1026a80060a828009d140700a00d20000e0040001f
:1026b8009a1407004ed891005b160700c400dd008d
:1026c800f00f200000806000300798005ed891006d
:1026d800551607006f006000be0090000080700073
:1026e8003007980000a0250021262000f6180700d2
:1026f80040c4b30020df990090c4b30030df9900d4
:1027080070c4b30040df9900500020000100200091
:102718008215070050df99005ed891004216070025
:10272800400798004e009000e00f50000300320070
:10273800b0a828006b1107000200370000a9280084
:102748006811070000a0250021262000de180700d8
:1027580020c4b30020df990050c4b30030df9900d3
:10276800c0c4b30040df99007000200001002000c1
:102778006a15070050df99005ed891002a160700f5
:10278800500798005e009000e00f500003003200f0
:1027980050a92800531107008d003700a0a9280070
:1027a800501107008a00370010c0b3001ee9b700b7
:1027b800f0a92800ff11070000a02500212620000d
:1027c800c1180700e0c4b30020df990050c4b3006b
:1027d80030df990040c5b30040df99006000b800c1
:1027e8004e15070050df99005ed891000e160700bd
:1027f80060528800d0c4b30020df990010c4b30031
:1028080030df990030c5b30040df99001000200088
:10281800010020004115070050df99005ed89100a3
:10282800011607000049880070aa2800e111070076
:1028380000a0250021262000a318070000a02500dd
:1028480021262000a01807002000200001002000f9
:102858003215070050df99005ed89100f215070085
:102868007052880070528000e00f50000300320060
:10287800f0aa2800cf1107000200370070ab28002b
:10288800cc11070000a02500212620008e18070083
:1028980000a02500212620008b180700f0ab280097
:1028a800c411070090c4b30020df990040c4b300ee
:1028b80030df9900300020000100200017150700c4
:1028c80040df9900300020000100200013150700a8
:1028d8000ee9b70040002000010020000f15070096
:1028e80050df990040002000010020000b15070070
:1028f8000fe9b700a00d20000e004000ad11070041
:102908004ed89100c8150700c400dd00f00f200064
:1029180000806000300798005ed89100c21507005b
:102928006f006000be0090000080700030079800c3
:1029380000a02500212620006318070000a025001c
:10294800212620006018070040c4b30020df99004a
:1029580090c4b30030df990070c4b30040df990021
:102968005000200001002000ec14070050df9900ff
:102978005ed89100ac1507004007980020c4b3004a
:1029880020df990050c4b30030df9900c0c4b30001
:1029980040df99007000200001002000df140700cc
:1029a80050df99005ed891009f15070050079800e6
:1029b8005e009000e00f50000300320070ac280069
:1029c8007c11070002003700f0ac280079110700dd
:1029d80000a02500212620003b1807006052800037
:1029e800e00f5000cb00320000498000e00f50009b
:1029f800f4013a0070ad2800c813070020a728008a
:102a0800b810070000402b00414c20002e1807008a
:102a18000040eb001ee9b7004e089000e00f5000a0
:102a280028003a008000200001002000bb140700a5
:102a380002e9b7009000200001002000b714070049
:102a480003e9b700a000200001002000b31407002c
:102a580004e9b700b000200001002000af1407000f
:102a680005e9b70021902000914078006e48900059
:102a780080cf50000f003a002090200099100700e6
:102a88004e009000e00f5000050032004100200089
:102a980020902000c415070020079800090037007f
:102aa8003100200020902000bf1507002007980063
:102ab800040037000000eb002007980001003700f1
:102ac800000000000040eb0012eab70005cabf0092
:102ad800e04f5000faff32000000eb00000f7800d2
:102ae8000b003700609820001e004000104078005e
:102af80031a120009e804000804878006098200026
:102b08009e0040000040eb00804878001e0fe8005f
:102b18001e007800ed0f5000f2ff36000040eb0079
:102b280005eab70030a12000000f98000000eb0074
:102b3800000f78000e0890000000e800000f9800d1
:102b48000e0890000000e800000f98000900370008
:102b58000e08900010407800019120009e804000ef
:102b6800804878001e0fe8000e0890000000e8007a
:102b7800000f98000e0890009040780000c2b30043
:102b880080cf5000f2ff3a000040eb0013e9b70095
:102b98000000eb00000f78000e0890000000e8002d
:102ba800000f9800090037000e08900010407800c8
:102bb800919120009e804000804878001e0fe80018
:102bc8000e0890000000e800000f98000e08900022
:102bd8009040780000c2b30080cf5000f2ff3a0066
:102be8000040eb001ce9b7000000eb00000f780084
:102bf8000e0890000000e800000f98000900370058
:102c08000e08900010407800419120009e804000fe
:102c1800804878001e0fe8000e0890000000e800c9
:102c2800000f98000e0890009040780000c2b30092
:102c380080cf5000f2ff3a00419120009140780087
:102c48006e48900080cf500026003a000191200085
:102c5800914078000ec9bf0080cf500021003a0093
:102c680011912000914078000fc9bf0080cf50001b
:102c78001c003a000000eb00000f78000700370046
:102c8800409120001e004000104078002190200054
:102c98009e804000804878001e0fe8001e007800e3
:102ca800e30f5000f6ff36005e009000e00f500082
:102cb8000100320069170700004980008000780091
:102cc80020902000581207002090200005100700cf
:102cd80043002000229020008000200001002000f6
:102ce8006f1407000000eb00000f780005003700a4
:102cf80030a120009e0040000040eb008048780092
:102d08001e0fe8001e007800ec0f5000f8ff360098
:102d18006cff3700000000000040eb001ee9b70020
:102d280070a72800ef0f070040ae2800fb1207002d
:102d380000a0250021262000631707004e089000f8
:102d4800e00f500027003a0090002000010020000a
:102d5800f213070003e9b700a000200001002000db
:102d6800ee13070004e9b700b000200001002000be
:102d7800ea13070005e9b7004e01900071902000a2
:102d8800209020005c10070070902000d50f0700ed
:102d9800410020002090200003150700200798001c
:102da8004e009000e00f500007003200ae00900087
:102db800703e2000808f5000160036000000eb00a7
:102dc8002007980013003700ae009000300620005e
:102dd800808f50000f0036000000eb00200798009d
:102de8000c0037000000eb002007980042c0b30039
:102df800ae00900020902000631407004e01900060
:102e080071902000209020003b1007007090200057
:102e1800b40f070010c0b30012eab7000100370072
:102e28000000000005cabf00e04f5000fcff320060
:102e38000000eb00000f78000b00370060982000be
:102e48001e0040001040780031a120009e80400004
:102e580080487800609820009e0040000040eb0009
:102e6800804878001e0fe8001e007800ee0f500022
:102e7800f2ff36000040eb0005eab7000000eb0067
:102e8800000f780030a12000000f98000000eb0030
:102e9800000f7800090037000e08900010407800f5
:102ea800019120009e804000804878001e0fe800b5
:102eb8000e0890000000e800000f98000e0890002f
:102ec8009040780000c2b30080cf5000f2ff3a0073
:102ed80000912000911207000000eb00000f78001d
:102ee8000e0890000000e800000f98000900370065
:102ef8000e08900010407800919120009e804000bc
:102f0800804878001e0fe8000e0890000000e800d6
:102f1800000f98000e0890009040780000c2b3009f
:102f280080cf5000f2ff3a000040eb001ce9b700e8
:102f38000000eb00000f78000e0890000000e80089
:102f4800000f9800090037000e0890001040780024
:102f5800419120009e804000804878001e0fe800c4
:102f68000e0890000000e800000f98000e0890007e
:102f78009040780000c2b30080cf5000f2ff3a00c2
:102f88000e0890000000e800000f980006003700c7
:102f98000e089000104078001de9b7000e08900058
:102fa8000000e800000f98000e089000904078009c
:102fb80000c2b30080cf5000f5ff3a0010c0b30044
:102fc80012eab7001dc9bf000000fb00e1042000a1
:102fd800810f50000700320001052000810f5000ca
:102fe8002300320031042000810f50003f003200de
:102ff8004d0037004e009000e00f50000e003200e8
:103008002e0090000000e80020079800ae00900015
:10301800703e2000808f5000020036000000eb0058
:103028002007980042c0b300ae0090002090200016
:10303800d51307003f0037002e0090000000e8007d
:1030480020079800ae00900030062000808f5000c6
:10305800020036000000eb002007980042c0b300d1
:10306800ae00900020902000c71307003100370001
:103078004e009000e00f50000e0032002e0090002d
:10308800e00f500003003a00703e2000200798002f
:10309800030037002e0090000000e9002007980088
:1030a80042c0b300ae00900020902000b613070085
:1030b800200037002e009000e00f500003003a0077
:1030c8003006200020079800030037002e009000eb
:1030d8000000e9002007980042c0b300ae0090004d
:1030e80020902000a8130700120037000000eb0012
:1030f800200798004e009000e00f500005003200b5
:1031080042c0b300ae009000209020009e1307003c
:103118000800370042c0b300ae00900020902000a5
:10312800991307000300370000af2800ed0e0700d1
:10313800000000004e0190007190200020902000b7
:103148006d0f07002290200091912000009120002f
:10315800bc15070040a32000f01107005e00900096
:10316800e00f5000010032003c1607008000eb0021
:10317800709020002c11070070902000d90e0700d5
:103188004300200022902000800020000100200041
:10319800431307000000eb00000f7800050037001c
:1031a80030a120009e0040000040eb0080487800dd
:1031b8001e0fe8001e007800ee0f5000f8ff3600e2
:1031c80018ff37000000000000a02500212620007d
:1031d8003d1607000000eb00600f98000000eb00b0
:1031e800700f98000000eb000017980010c0b300a3
:1031f8001ee9b70070aa28006e0f070050af28001c
:10320800c611070000a02500212620002e16070061
:1032180070528000e00f500002003a0000c3b30073
:10322800604f98004e089000e00f50001c013a00d3
:1032380070528000e00f50008f0032000001200023
:1032480001002000b5120700405f9900100120001e
:1032580001002000b1120700505f9900c00920004a
:103268000e00400021002000a4130700101798004a
:10327800c00920000e00400022c0b3009e1090003c
:10328800411307001e109000a5f4070020179800ae
:103298000000eb0000179800560037000000eb0014
:1032a800000f7800150037000e1090004200dd0076
:1032b8001e0040000002b000010020009712070025
:1032c800219020009e8040008048780082032000e2
:1032d8000e0141000e1090006500b9000000780052
:1032e8001e00400080004100209020001e00400089
:1032f80010407800804878001e0fe8001e00780013
:10330800e30f5000e8ff36000e10900061006000e7
:10331800e00f50000f003a004100200020902000ec
:10332800a1130700800078000e10900000004000f4
:1033380000004700e009b00001087800ae109000d6
:103348000e1090008080400002c9bf0080487800bd
:103358000e0037000e1090006100600000407800f9
:10336800e04f50000900320041002000209020006a
:103378008d130700800078000e10900000004000b8
:1033880000004700600cb000010878002090200081
:103398009e0040000040eb00804878008203200037
:1033a8000e0141000e1090006500b9000000780081
:1033b8001e00400080004100209020001e004000b8
:1033c80010407800804878002190200070902000fc
:1033d800f510070070902000f60e070000a02500e9
:1033e80021262000b81507000e1090000000e80004
:1033f800001798001e109000000040008000780020
:103408000e109000808f5000a4ff3e000000eb00db
:10341800000f7800140037001e00780000004000fc
:1034280000004700708890000000e90080007800e4
:103438001e0078000000400000004700200bb0008c
:10344800010878001e0078000000400000004700d6
:1034580090989000601020000e00400042c0b30019
:10346800c91207001e0fe8001e1090009e00780089
:10347800808f5000e8ff390070528000e00f500044
:1034880028003a008000200001002000200f98004a
:10349800310f9800100037002e089000be089000e9
:1034a80068045000e08458002e089000be08900080
:1034b8001a12070031a420008100440080487800d7
:1034c8002e089000be08900061004000e08048008f
:1034d800200f9800310f98002e099000be09900027
:1034e800e000200001002000800f5100818f59006a
:1034f800e9ff3600601020000e0040004200200066
:1035080031a42000f4f40700601020000e004000f1
:10351800ce1207002007980030a42000a50e07004f
:10352800b40137000000eb00000f78000000eb004a
:103538000017980055003700000720000100200000
:10354800200f9800310f9800120037000e109000dd
:103558004300dd006101b8002e089000be0890000d
:103568000200400083804800ec11070031a42000cd
:103578009e804000804878001e0fe8002e089000ca
:10358800be08900061004000e0804800200f9800cd
:10359800310f98002e099000be0990007007200096
:1035a80001002000800f5100818f5900e7ff36008d
:1035b8000000eb00000f7800601020000e004000b3
:1035c8004200200031a42000c3f40700601020004e
:1035d8000e0040009d120700800078000e10900039
:1035e8000000400000004700200bb00001087800f0
:1035f8000e109000000040000000470090989000d6
:103608000e109000000040000000470070889000f5
:10361800808f50000a0039000e1090000000400012
:1036280000004700909890000e10900000004000a5
:103638000000470030a09000808f50000b0036003b
:103648000e109000000040000000470070889000b5
:103658000000e900800078000e1090000000400093
:1036680000004700200bb0000108780030a42000bb
:10367800500e070000a02500212620001215070083
:103688000e1090000000e800001798008e109000bf
:103698001e109000808f5000a7ff39005501370099
:1036a800c0af2800430e070000a0250021262000f7
:1036b800051507000002200001002000601798008f
:1036c8007117980070528000e00f500049013200d5
:1036d8006e109000fe10900090110700007798007f
:1036e80000c8bf008e70900080cf500072003a0072
:1036f800f0ab28002f0e070010c3b300405f9900fd
:1037080000c3b300505f99004e5891000041780003
:103718000001200001002000591107005e589100a7
:10372800004178001001200001002000541107001a
:10373800c00920000e004000210020006f12070081
:10374800101798009e1090002e10900015f4070096
:10375800201798000000eb00000f780047003700a2
:103768000000eb00001798000f003700229220009d
:103778001e0078006500b900800078000e109000e7
:103788000080400000004100104078000e119000b9
:103798002190200081004100804878000e109000a0
:1037a8000000e800001798000e109000e40f500089
:1037b800eeff36009e00780061806000e00f500048
:1037c8000e003a00410020002090200076120700e9
:1037d800800078001e0078000000400000004700cc
:1037e800e009b000010878002e1090009e0040000b
:1037f80002c9bf00804878000e0037001e0078001c
:103808006100600000407800e04f5000090032007d
:1038180041002000209020006312070080007800fb
:103828001e0078000000400000004700600cb00057
:10383800010878009e007800688040004200dd00a2
:10384800010020004300200022902000941107006e
:103858000040eb0006e9b70021902000d0a220002c
:10386800d10f0700d0a22000d20d070000a025002c
:1038780021262000941407001e0fe8001e10900057
:10388800000040009e0f5000b5ff3e0040b02800e9
:10389800c80d070000a02500212620008a14070073
:1038a800c0b02800c30d070000a025002126200075
:1038b80085140700cf003700f0ab2800bd0d0700c6
:1038c800000120000100200014110700405f99004a
:1038d800100120000100200010110700505f99001e
:1038e800c00920000e00400021002000031207003c
:1038f800101798009e1090002e109000a9f3070052
:1039080020179800c00920000e00400022c0b30014
:103918009e1090009c1107000000eb000017980013
:103928004b0037000000eb00000f7800150037004f
:103938000e1090004200dd001e0040000002b000a2
:1039480001002000f5100700219020009e80400013
:1039580080487800820320000e0141000e1090007c
:103968006500b900000078001e004000800041009a
:10397800209020001e004000104078008048780009
:103988001e0fe8001e007800e30f5000e8ff360025
:103998000e10900061006000e00f50000f003a0028
:1039a8004100200020902000ff11070080007800cf
:1039b8000e1090000000400000004700e009b00031
:1039c80001087800ae1090000e1090008080400032
:1039d80002c9bf00804878000e0037000e10900022
:1039e8006100600000407800e04f5000090032009c
:1039f8004100200020902000eb1107008000780093
:103a08000e1090000000400000004700600cb0005d
:103a180001087800209020009e0040000040eb0044
:103a28008048780021902000d0a220005e0f070077
:103a3800d0a220005f0d070000a02500212620004d
:103a4800211407000e1090000000e80000179800ed
:103a58001e10900000004000800078000e109000ba
:103a6800808f5000afff3e0040b12800510d070085
:103a780000a025002126200013140700c0b128004b
:103a88004c0d070000a02500212620000e14070079
:103a98000000eb00000f78000000eb000017980012
:103aa800500037000007200001002000200f980078
:103ab800310f9800120037000e1090004300dd000f
:103ac8006101b8002e089000be0890000200400076
:103ad800838048009110070031a420009e80400098
:103ae800804878001e0fe8002e089000be0890005d
:103af80061004000e0804800200f9800310f9800d6
:103b08002e099000be0990007007200001002000d7
:103b1800800f5100818f5900e7ff36000000eb004d
:103b2800000f7800601020000e00400042002000c6
:103b380031a4200068f30700601020000e00400048
:103b480042110700800078000e109000000040002d
:103b580000004700200bb000010878000e1090000c
:103b68000000400000004700909890000e10900060
:103b7800000040000000470070889000808f5000cf
:103b88000a0039000e1090000000400000004700b5
:103b9800909890000e109000000040000000470030
:103ba80030a09000808f50000b0036000e1090005f
:103bb8000000400000004700708890000000e90005
:103bc800800078000e1090000000400000004700c0
:103bd800200bb000010878000e1090000000e800eb
:103be800001798008e1090001e109000808f5000d3
:103bf800acff390010c0b30012eab700010037006b
:103c08000000000006cabf00e04f5000bc003200b0
:103c18000000eb00001798000000eb00000f780090
:103c280050992000100f98001e0890000000e8002e
:103c3800100f98001e0890000000e800100f980070
:103c48000a0037001e08900010407800c1092000c3
:103c58008e8040009e804000804878001e0fe8005b
:103c68001e0890000000e800100f98001e08900041
:103c78009040780000c2b30080cf5000f1ff3a00b6
:103c88000040eb00705f9900c00920000e00400062
:103c9800210020001911070010179800c009200002
:103ca8000e00400022c0b3009e109000b61007001e
:103cb8009e1090002e109000baf20700201798006e
:103cc800c00920000e0040002300200000017800f9
:103cd8000001200001002000711007000000eb0027
:103ce800000f78000000eb00001798005300370021
:103cf8001e0890000000e800100f98001d00370013
:103d08001e08900010407800219020009e804000fe
:103d1800804878001e0890000000e800100f980006
:103d2800820320000e0141000e1090006500b900ca
:103d3800000078001e004000800041002090200014
:103d48001e00400010407800804878008203200060
:103d58000e0141000e1090006500b90000007800c7
:103d68001e00400000004100104078001e0fe800cf
:103d7800de0e07001e0890009040780000c2b300d5
:103d880080cf5000deff3a000e1090006100600006
:103d9800e00f50000f003a00410020002090200062
:103da80001110700800078000e109000000040000c
:103db80000004700e009b00001087800ae1090004c
:103dc8000e1090008080400002c9bf008048780033
:103dd8000e0037000e10900061006000004078006f
:103de800e04f5000090032004100200020902000e0
:103df800ed100700800078000e10900000004000d1
:103e080000004700600cb000010878000e10900018
:103e1800680040004200dd0001002000430020004f
:103e2800229020001e1007000000eb00000f780011
:103e38000e1090000000e800001798001e10900077
:103e480000004000800078000e109000808f500025
:103e5800a7ff3e000000eb00000f78000c003700c1
:103e68001e007800000040000000470070889000a5
:103e78000000e900800078001e0078000000400083
:103e880000004700200bb000010878001e0fe80072
:103e98001e1090009e007800808f5000f0ff3900bf
:103ea80040b22800430c070040b228009b0e0700d0
:103eb80000a0250021262000031307000000eb00c6
:103ec800000f780005003700509920009e00400040
:103ed8000040eb00804878001e0fe800d006200064
:103ee8009e007800808f5000f7ff36000040eb00fe
:103ef80006eab70010c0b30012eab70041ff370066
:103f080005cabf00e04f50003dff32000000eb0043
:103f1800000f78000e003700609820001e00400057
:103f28001040780031a120009e8040008048780031
:103f380000fa200001002000e3120700609820002a
:103f48009e0040000040eb00804878001e0fe8000b
:103f58001e007800ee0f5000efff36000040eb0027
:103f680005eab70030a12000000f98000000eb0020
:103f7800000f7800090037000e0890001040780004
:103f8800019120009e804000804878001e0fe800c4
:103f98000e0890000000e800000f98000e0890003e
:103fa8009040780000c2b30080cf5000f2ff3a0082
:103fb8000040eb0013e9b700009120002310070030
:103fc800101f98000000eb00000f78000e0890000a
:103fd8000000e800000f9800090037000e08900064
:103fe80010407800919120009e8040008048780021
:103ff8001e0fe8000e0890000000e800000f98006f
:104008000e0890009040780000c2b30080cf5000a6
:10401800f2ff3a000040eb001ce9b7000000eb009b
:10402800000f78009091200008100700201f9800ca
:104038000e0890000000e800000f98000900370003
:104048000e08900010407800419120009e804000aa
:10405800804878001e0fe8000e0890000000e80075
:10406800000f98000e0890009040780000c2b3003e
:1040780080cf5000f2ff3a0014c9bf00604f98008b
:104088000e0890000000e800000f980006003700b6
:104098000e089000104078001de9b7000e08900047
:1040a8000000e800000f98000e089000904078008b
:1040b80000c2b30080cf5000f5ff3a0010c0b30033
:1040c80012eab70070528000e00f500005003a0075
:1040d800419120009140780000c3b30080cf500088
:1040e800720a3a0010c0b3006077980070528000de
:1040f800e00f5000270032000000eb00000f7800ae
:104108000000eb00001798000000eb000017980073
:104118001a0037000e10900061006000e00f500098
:1041280013003a000e1090006500b90000007800f6
:10413800000047008078900014c9bf0080cf50006d
:104148000b003a000e109000e00f50000300320000
:104158000e1090000000d100301798000e1090004b
:10416800e00f500002003a000e109000301798003f
:104178000e1090000000e800001798001e10900034
:1041880000004000800078000e109000808f5000e2
:10419800e0ff3e0014c9bf000000fb00800078006b
:1041a8002e109000b6f10700707798002e18900036
:1041b800e00f50003b0a3200ae18900000022000c9
:1041c800808f5000370a3e001e189000e00f500004
:1041d800340a32009e18900000022000808f5000a0
:1041e800300a3e007e709000e04f50002d0a3200e9
:1041f80070528000e00f500003003200e10f5000c1
:104208008a0032009e0937001dc9bf000000fb006c
:104218006101b900d0fb2f00f1ff2f000200400020
:1042280083804800f200200003002000820f500025
:10423800838f58008d093e00006001007700370029
:1042480064003700670037008a093700890937009a
:10425800880937008709370086093700850937003c
:1042680084093700830937000400370081093700c3
:104278002d0037007f093700620037004e0090009c
:10428800e00f5000140032002e0090000000e800fb
:1042980020079800ae009000703e2000808f5000ec
:1042a800020036000000eb0020079800ae009000e6
:1042b8007e089000808f50001a003a002e0090006f
:1042c800e00f5000170032002e0090000000e800b8
:1042d80020079800130037002e0090000000e80027
:1042e80020079800ae00900030062000808f500014
:1042f800020036000000eb0020079800ae00900096
:104308007e089000808f500006003a002e00900032
:10431800e00f5000030032002e0090000000e8007b
:1043280020079800400037004e009000e00f500032
:10433800140032002e009000e00f500003003a00f5
:10434800703e200020079800030037002e009000e0
:104358000000e90020079800ae0090007e08900059
:10436800808f50001a003a002e009000e00f500095
:10437800170032002e0090000000e9002007980086
:10438800130037002e009000e00f500003003a00a1
:104398003006200020079800030037002e00900008
:1043a8000000e90020079800ae0090007e08900009
:1043b800808f500006003a002e009000e00f500059
:1043c800030032002e0090000000e900200798004a
:1043d80015003700409120001c0f070020079800a7
:1043e80011003700ae009000610f98004091200046
:1043f800160f0700200798002e009000700f9800f5
:1044080009003700ae009000610f9800409120002d
:104418000e0f070020079800030037000000eb008c
:104428002007980000000000150937003e10900092
:10443800cf80de009200200003002000820f500091
:10444800838f58000d093e00006001000900370005
:10445800ef003700d4013700b90237009e03370058
:1044680083043700680537004d06370032073700e8
:10447800170837001dc9bf000000fb006101b90023
:10448800d0fb2f00f1ff2f0002004000838048007e
:10449800f200200003002000820f5000838f580094
:1044a800da003e0000600100cc00370094003700bd
:1044b8009d003700d5003700d4003700d3003700ff
:1044c800d2003700d1003700d0003700cf003700c6
:1044d800ce00370004003700cc0037004b0037000f
:1044e800ca003700ab0037003e10900000004000c3
:1044f80000004700909890003e1090000000400097
:104508000000470030a09000808f50001600310056
:104518003e10900000004000000047009098900076
:104528003e10900000004000000047007088900096
:104538000000e900808f50000b0039003e10900009
:104548000000400000004700109890008000e8003c
:104558003e1090000000400000004700200bb00013
:1045680001087800140037003e1090000000400059
:1045780000004700909890003e1090000000400016
:104588000000470030a09000808f50000a003a00d9
:104598003e10900000004000000047007088900026
:1045a800800078003e1090000000400000004700a6
:1045b800200bb000010878003e1090000000400079
:1045c80000004700909890003e10900000004000c6
:1045d8000000470010b89000808f50000a003a0091
:1045e8003e10900000004000000047001098900026
:1045f8008000e8003e1090000000400000004700e6
:10460800200bb00001087800800037003e109000b1
:104618000000400000004700909890003e10900075
:10462800000040000000470070889000808f500014
:104638000a003e003e1090000000400000004700c5
:10464800b0a090003e10900000004000000047001d
:10465800200bb00001087800140037003e109000cd
:104668000000400000004700909890003e10900025
:10467800000040000000470070889000808f5000c4
:104688000a0036003e10900000004000000047007d
:10469800109890008000e9003e1090000000400053
:1046a80000004700200bb000010878003e10900081
:1046b8000000400000004700909890003e109000d5
:1046c800000040000000470010b89000808f5000a4
:1046d8000a003a003e109000000040000000470029
:1046e800109890008000e9003e1090000000400003
:1046f80000004700200bb000010878004300370095
:1047080041002000409120007c0e070080007800c6
:104718003e1090000000400000004700200bb00051
:1047280001087800390037003e1090000000400072
:1047380000004700909890003e1090000000400054
:1047480000004700e00db00001087800409120000b
:104758003e0e0700800078003e10900000004000e8
:1047680000004700200bb000010878003e109000c0
:104778000000400000004700909890003e10900014
:104788000000400000004700200fb000010878003a
:104798001e0037003e109000000040000000470057
:1047a800909890003e1090000000400000004700e4
:1047b800e00db0000108780040912000230e0700aa
:1047c800800078003e109000000040000000470084
:1047d800200bb000010878000c0037003e10900054
:1047e8000000400000004700708890000000e900c9
:1047f800800078003e109000000040000000470054
:10480800200bb000010878000000000016083700ef
:104818001dc9bf000000fb006101b900d0fb2f00db
:10482800f1ff2f000200400083804800f2002000c2
:1048380003002000820f5000838f5800d9003e00eb
:1048480000600100cb003700940037009c0037005f
:10485800d4003700d3003700d2003700d10037002a
:10486800d0003700cf003700ce003700cd0037002a
:1048780004003700cb0037004b003700c900370071
:10488800aa0037003e1090000000400000004700da
:10489800909890003e1090000000400000004700f3
:1048a80030a09000808f5000160031003e1090001c
:1048b8000000400000004700909890003e109000d3
:1048c8000000400000004700708890000000e900e8
:1048d800808f50000b0039003e109000000040000f
:1048e80000004700109890008000e8003e109000fb
:1048f8000000400000004700200bb00001087800cd
:10490800140037003e1090000000400000004700ef
:10491800909890003e109000000040000000470072
:1049280030a09000808f50000a003a003e1090009e
:104938000000400000004700708890008000780068
:104948003e1090000000400000004700200bb0001f
:10495800010878003e109000000040000000470069
:10496800909890003e109000000040000000470022
:1049780010b89000808f50000a003a003e10900056
:104988000000400000004700109890008000e800f8
:104998003e1090000000400000004700200bb000cf
:1049a800010878007f0037003e10900000004000aa
:1049b80000004700909890003e10900000004000d2
:1049c8000000470070889000808f50000a003e0069
:1049d8003e1090000000400000004700b0a090008a
:1049e8003e1090000000400000004700200bb0007f
:1049f80001087800140037003e10900000004000c5
:104a080000004700909890003e1090000000400081
:104a18000000470070889000808f50000a00360020
:104a28003e109000000040000000470010989000e1
:104a38008000e9003e1090000000400000004700a0
:104a4800200bb000010878003e10900000004000e4
:104a580000004700909890003e1090000000400031
:104a68000000470010b89000808f50000a003a00fc
:104a78003e10900000004000000047001098900091
:104a88008000e9003e109000000040000000470050
:104a9800200bb00001087800420037004091200048
:104aa8006a0d0700800078003e109000000040006a
:104ab80000004700200bb0000108780039003700db
:104ac8003e109000000040000000470090989000c1
:104ad8003e1090000000400000004700e00db000cc
:104ae8000108780040912000580d070080007800e8
:104af8003e1090000000400000004700200bb0006e
:104b0800010878003e1090000000400000004700b7
:104b1800909890003e109000000040000000470070
:104b2800200fb000010878001e0037003e109000ea
:104b38000000400000004700909890003e10900050
:104b48000000400000004700e00db00001087800b8
:104b5800409120003d0d0700800078003e10900035
:104b68000000400000004700200bb000010878005a
:104b78000c0037003e109000000040000000470085
:104b8800708890000000e900800078003e109000d6
:104b98000000400000004700200bb000010878002a
:104ba80000000000300737001dc9bf000000fb00ef
:104bb8006101b900d0fb2f00f1ff2f000200400077
:104bc80083804800f200200003002000820f50007c
:104bd800838f5800d9003e0000600100cb003700e9
:104be800940037009c003700d4003700d30037000a
:104bf800d2003700d1003700d0003700cf0037008f
:104c0800ce003700cd00370004003700cb00370056
:104c18004b003700c9003700aa0037003e1090004b
:104c28000000400000004700909890003e1090005f
:104c3800000040000000470030a09000808f500026
:104c4800160031003e1090000000400000004700b0
:104c5800909890003e10900000004000000047002f
:104c6800708890000000e900808f50000b00390028
:104c78003e1090000000400000004700109890008f
:104c88008000e8003e10900000004000000047004f
:104c9800200bb00001087800140037003e10900087
:104ca8000000400000004700909890003e109000df
:104cb800000040000000470030a09000808f5000a6
:104cc8000a003a003e109000000040000000470033
:104cd80070889000800078003e109000000040002e
:104ce80000004700200bb000010878003e1090003b
:104cf8000000400000004700909890003e1090008f
:104d0800000040000000470010b89000808f50005d
:104d18000a003a003e1090000000400000004700e2
:104d2800109890008000e8003e10900000004000bd
:104d380000004700200bb000010878007f00370012
:104d48003e1090000000400000004700909890003e
:104d58003e1090000000400000004700708890005e
:104d6800808f50000a003e003e1090000000400076
:104d780000004700b0a090003e10900000004000e6
:104d880000004700200bb00001087800140037002d
:104d98003e109000000040000000470090989000ee
:104da8003e1090000000400000004700708890000e
:104db800808f50000a0036003e109000000040002e
:104dc80000004700109890008000e9003e10900015
:104dd8000000400000004700200bb00001087800e8
:104de8003e1090000000400000004700909890009e
:104df8003e109000000040000000470010b89000ee
:104e0800808f50000a003a003e10900000004000d9
:104e180000004700109890008000e9003e109000c4
:104e28000000400000004700200bb0000108780097
:104e38004200370040912000840c07008000780071
:104e48003e1090000000400000004700200bb0001a
:104e580001087800390037003e109000000040003b
:104e680000004700909890003e109000000040001d
:104e780000004700e00db0000108780040912000d4
:104e8800720c0700800078003e109000000040007f
:104e980000004700200bb000010878003e10900089
:104ea8000000400000004700909890003e109000dd
:104eb8000000400000004700200fb0000108780003
:104ec8001e0037003e109000000040000000470020
:104ed800909890003e1090000000400000004700ad
:104ee800e00db0000108780040912000570c070041
:104ef800800078003e10900000004000000047004d
:104f0800200bb000010878000c0037003e1090001c
:104f18000000400000004700708890000000e90091
:104f2800800078003e10900000004000000047001c
:104f3800200bb00001087800000000004a06370086
:104f48001dc9bf000000fb006101b900d0fb2f00a4
:104f5800f1ff2f000200400083804800f20020008b
:104f680003002000820f5000838f5800d9003e00b4
:104f780000600100cb003700940037009c00370028
:104f8800d4003700d3003700d2003700d1003700f3
:104f9800d0003700cf003700ce003700cd003700f3
:104fa80004003700cb0037004b003700c90037003a
:104fb800aa0037003e1090000000400000004700a3
:104fc800909890003e1090000000400000004700bc
:104fd80030a09000808f5000160031003e109000e5
:104fe8000000400000004700909890003e1090009c
:104ff8000000400000004700708890000000e900b1
:10500800808f50000b0039003e10900000004000d7
:1050180000004700109890008000e8003e109000c3
:105028000000400000004700200bb0000108780095
:10503800140037003e1090000000400000004700b8
:10504800909890003e10900000004000000047003b
:1050580030a09000808f50000a003a003e10900067
:105068000000400000004700708890008000780031
:105078003e1090000000400000004700200bb000e8
:10508800010878003e109000000040000000470032
:10509800909890003e1090000000400000004700eb
:1050a80010b89000808f50000a003a003e1090001f
:1050b8000000400000004700109890008000e800c1
:1050c8003e1090000000400000004700200bb00098
:1050d800010878007f0037003e1090000000400073
:1050e80000004700909890003e109000000040009b
:1050f8000000470070889000808f50000a003e0032
:105108003e1090000000400000004700b0a0900052
:105118003e1090000000400000004700200bb00047
:1051280001087800140037003e109000000040008d
:1051380000004700909890003e109000000040004a
:105148000000470070889000808f50000a003600e9
:105158003e109000000040000000470010989000aa
:105168008000e9003e109000000040000000470069
:10517800200bb000010878003e10900000004000ad
:1051880000004700909890003e10900000004000fa
:105198000000470010b89000808f50000a003a00c5
:1051a8003e1090000000400000004700109890005a
:1051b8008000e9003e109000000040000000470019
:1051c800200bb00001087800420037004091200011
:1051d8009e0b0700800078003e1090000000400001
:1051e80000004700200bb0000108780039003700a4
:1051f8003e1090000000400000004700909890008a
:105208003e1090000000400000004700e00db00094
:1052180001087800409120008c0b0700800078007e
:105228003e1090000000400000004700200bb00036
:10523800010878003e109000000040000000470080
:10524800909890003e109000000040000000470039
:10525800200fb000010878001e0037003e109000b3
:105268000000400000004700909890003e10900019
:105278000000400000004700e00db0000108780081
:1052880040912000710b0700800078003e109000cc
:105298000000400000004700200bb0000108780023
:1052a8000c0037003e10900000004000000047004e
:1052b800708890000000e900800078003e1090009f
:1052c8000000400000004700200bb00001087800f3
:1052d80000000000640537001dc9bf000000fb0086
:1052e8006101b900d0fb2f00f1ff2f000200400040
:1052f80083804800f200200003002000820f500045
:10530800838f5800d9003e0000600100cb003700b1
:10531800940037009c003700d4003700d3003700d2
:10532800d2003700d1003700d0003700cf00370057
:10533800ce003700cd00370004003700cb0037001f
:105348004b003700c9003700aa0037003e10900014
:105358000000400000004700909890003e10900028
:10536800000040000000470030a09000808f5000ef
:10537800160031003e109000000040000000470079
:10538800909890003e1090000000400000004700f8
:10539800708890000000e900808f50000b003900f1
:1053a8003e10900000004000000047001098900058
:1053b8008000e8003e109000000040000000470018
:1053c800200bb00001087800140037003e10900050
:1053d8000000400000004700909890003e109000a8
:1053e800000040000000470030a09000808f50006f
:1053f8000a003a003e1090000000400000004700fc
:1054080070889000800078003e10900000004000f6
:1054180000004700200bb000010878003e10900003
:105428000000400000004700909890003e10900057
:10543800000040000000470010b89000808f500026
:105448000a003a003e1090000000400000004700ab
:10545800109890008000e8003e1090000000400086
:1054680000004700200bb000010878007f003700db
:105478003e10900000004000000047009098900007
:105488003e10900000004000000047007088900027
:10549800808f50000a003e003e109000000040003f
:1054a80000004700b0a090003e10900000004000af
:1054b80000004700200bb0000108780014003700f6
:1054c8003e109000000040000000470090989000b7
:1054d8003e109000000040000000470070889000d7
:1054e800808f50000a0036003e10900000004000f7
:1054f80000004700109890008000e9003e109000de
:105508000000400000004700200bb00001087800b0
:105518003e10900000004000000047009098900066
:105528003e109000000040000000470010b89000b6
:10553800808f50000a003a003e10900000004000a2
:1055480000004700109890008000e9003e1090008d
:105558000000400000004700200bb0000108780060
:105568004200370040912000b80a07008000780008
:105578003e1090000000400000004700200bb000e3
:1055880001087800390037003e1090000000400004
:1055980000004700909890003e10900000004000e6
:1055a80000004700e00db00001087800409120009d
:1055b800a60a0700800078003e1090000000400016
:1055c80000004700200bb000010878003e10900052
:1055d8000000400000004700909890003e109000a6
:1055e8000000400000004700200fb00001087800cc
:1055f8001e0037003e1090000000400000004700e9
:10560800909890003e109000000040000000470075
:10561800e00db00001087800409120008b0a0700d7
:10562800800078003e109000000040000000470015
:10563800200bb000010878000c0037003e109000e5
:105648000000400000004700708890000000e9005a
:10565800800078003e1090000000400000004700e5
:10566800200bb00001087800000000007e0437001d
:105678001dc9bf000000fb006101b900d0fb2f006d
:10568800f1ff2f000200400083804800f200200054
:1056980003002000820f5000838f5800d9003e007d
:1056a80000600100cb003700940037009c003700f1
:1056b800d4003700d3003700d2003700d1003700bc
:1056c800d0003700cf003700ce003700cd003700bc
:1056d80004003700cb0037004b003700c900370003
:1056e800aa0037003e10900000004000000047006c
:1056f800909890003e109000000040000000470085
:1057080030a09000808f5000160031003e109000ad
:105718000000400000004700909890003e10900064
:105728000000400000004700708890000000e90079
:10573800808f50000b0039003e10900000004000a0
:1057480000004700109890008000e8003e1090008c
:105758000000400000004700200bb000010878005e
:10576800140037003e109000000040000000470081
:10577800909890003e109000000040000000470004
:1057880030a09000808f50000a003a003e10900030
:1057980000004000000047007088900080007800fa
:1057a8003e1090000000400000004700200bb000b1
:1057b800010878003e1090000000400000004700fb
:1057c800909890003e1090000000400000004700b4
:1057d80010b89000808f50000a003a003e109000e8
:1057e8000000400000004700109890008000e8008a
:1057f8003e1090000000400000004700200bb00061
:10580800010878007f0037003e109000000040003b
:1058180000004700909890003e1090000000400063
:105828000000470070889000808f50000a003e00fa
:105838003e1090000000400000004700b0a090001b
:105848003e1090000000400000004700200bb00010
:1058580001087800140037003e1090000000400056
:1058680000004700909890003e1090000000400013
:105878000000470070889000808f50000a003600b2
:105888003e10900000004000000047001098900073
:105898008000e9003e109000000040000000470032
:1058a800200bb000010878003e1090000000400076
:1058b80000004700909890003e10900000004000c3
:1058c8000000470010b89000808f50000a003a008e
:1058d8003e10900000004000000047001098900023
:1058e8008000e9003e1090000000400000004700e2
:1058f800200bb000010878004200370040912000da
:10590800d2090700800078003e1090000000400097
:1059180000004700200bb00001087800390037006c
:105928003e10900000004000000047009098900052
:105938003e1090000000400000004700e00db0005d
:105948000108780040912000c00907008000780015
:105958003e1090000000400000004700200bb000ff
:10596800010878003e109000000040000000470049
:10597800909890003e109000000040000000470002
:10598800200fb000010878001e0037003e1090007c
:105998000000400000004700909890003e109000e2
:1059a8000000400000004700e00db000010878004a
:1059b80040912000a5090700800078003e10900063
:1059c8000000400000004700200bb00001087800ec
:1059d8000c0037003e109000000040000000470017
:1059e800708890000000e900800078003e10900068
:1059f8000000400000004700200bb00001087800bc
:105a080000000000980337001dc9bf000000fb001c
:105a18006101b900d0fb2f00f1ff2f000200400008
:105a280083804800f200200003002000820f50000d
:105a3800838f5800d9003e0000600100cb0037007a
:105a4800940037009c003700d4003700d30037009b
:105a5800d2003700d1003700d0003700cf00370020
:105a6800ce003700cd00370004003700cb003700e8
:105a78004b003700c9003700aa0037003e109000dd
:105a88000000400000004700909890003e109000f1
:105a9800000040000000470030a09000808f5000b8
:105aa800160031003e109000000040000000470042
