:020000040000fa
:080000000002040000000000f2
:020000040000fa
:1000080090020000900200009002000090020000a0
:100018009002000090020000900200009002000090
:100028009002000090020000900200007c42000054
:100038009002000090020000900200009002000070
:10004800900200009002000090020000b43c000002
:100058002a3e00009002000090020000900200007a
:100068009002000090020000900200009002000040
:100078009002000090020000900200009002000030
:100088009002000090020000900200009002000020
:100098009002000090020000900200009002000010
:1000a8009002000090020000900200009002000000
:1000b80090020000900200009002000090020000f0
:1000c80090020000900200009002000090020000e0
:1000d80090020000900200009002000090020000d0
:1000e80090020000900200009002000090020000c0
:1000f80090020000900200009002000090020000b0
:10010800900200009002000090020000900200009f
:10011800900200009002000090020000900200008f
:10012800900200009002000090020000900200007f
:10013800900200009002000090020000900200006f
:10014800900200009002000090020000900200005f
:10015800900200009002000090020000900200004f
:10016800900200009002000090020000900200003f
:10017800900200009002000090020000900200002f
:10018800900200009002000090020000900200001f
:10019800900200009002000090020000900200000f
:1001a80090020000900200009002000090020000ff
:1001b80090020000900200009002000090020000ef
:1001c80090020000900200009002000090020000df
:1001d80090020000900200009002000090020000cf
:1001e80090020000900200009002000090020000bf
:0801f8009002000090020000db
:020000040000fa
:10020800900200009002000090020000900200009e
:10021800900200009002000090020000900200008e
:100228009002000090020000900200007c42000052
:10023800900200009002000090020000900200006e
:10024800900200009002000090020000b43c000000
:100258002a3e000090020000900200009002000078
:10026800900200009002000090020000900200003e
:10027800900200009002000090020000900200002e
:10028800900200009002000090020000900200001e
:10029800900200009002000090020000900200000e
:1002a80090020000900200009002000090020000fe
:1002b80090020000900200009002000090020000ee
:1002c80090020000900200009002000090020000de
:1002d80090020000900200009002000090020000ce
:1002e80090020000900200009002000090020000be
:1002f80090020000900200009002000090020000ae
:10030800900200009002000090020000900200009d
:10031800900200009002000090020000900200008d
:10032800900200009002000090020000900200007d
:10033800900200009002000090020000900200006d
:10034800900200009002000090020000900200005d
:10035800900200009002000090020000900200004d
:10036800900200009002000090020000900200003d
:10037800900200009002000090020000900200002d
:10038800900200009002000090020000900200001d
:10039800900200009002000090020000900200000d
:1003a80090020000900200009002000090020000fd
:1003b80090020000900200009002000090020000ed
:1003c80090020000900200009002000090020000dd
:1003d80090020000900200009002000090020000cd
:1003e80090020000900200009002000090020000bd
:0803f8009002000090020000d9
:020000040000fa
:100400004fb920000e7f22000e018800000000007e
:100410000c000700a01124000100200011000700bb
:10042000000020000000e000020032000000020096
:1004300000000000340b0200000000000040da0061
:100440000000fe004440a900e06520000000e0003c
:100450000300320000002000a00188004440a800f2
:100460000000060091018800800078000000eb0089
:1004700015003700e280400032a0b4009101ba00bc
:10048000e280400032a0b4009102ba00e280400055
:1004900032a0b4000002eb00472bde00f507b200eb
:1004a000602ce10004003a000059eb008301e900f0
:1004b000fdff3e00040037006128e100010032002a
:1004c0000082eb00040007001101ba000200e00006
:1004d000e8ff3a00000006003159ba008301e90044
:1004e0000c0032002159ba008301e90008003200f3
:1004f0000400e00003003a00e280400032a0b400b3
:10050000f5ff370011d9ba008301e900faff3a007c
:100510008100e800e180400032a0b4000000060045
:100520000040da000000fe00e4874700889fbe001c
:100530008a9fbe008c9fbe008e1f780061a52000a0
:10054000b2528000e00f51000b003a00648140007d
:10055000b252880002538800a1009800f15288002e
:10056000214190000204a000a24098006141900047
:100570000204a000e2409800670440004244de000c
:100580004244dd00f15280000002eb008ea6200004
:1005900049b920008e8454006400440080bf9f004d
:1005a000614eb900010037008b00780021409000b7
:1005b00061006000020032000a00370093087800f2
:1005c000910178002340900061006000fbff320041
:1005d00008814000828f510002003900e00f540072
:1005e00054003d0091057800818f5500eeff3e00dc
:1005f0008e8f55000300390060a52000808f5500c4
:10060000e9ff390000538000808f50005a003a0003
:1006100060a52000808f550057003a000402e800d2
:10062000e10f5200e0ff360022002000811f780019
:10063000110009008204d800cf007800800f540018
:1006400005003600890f5400030031000885e800da
:100650000a054500140037006142b800b2ff2f00c0
:10066000030020000c0151008d815900820f5200bf
:10067000838f5a000b003d0072b920000e0151001b
:1006800008014100809fbe00110009000981d800c7
:10069000000178004f00be000991b9000205780002
:1006a00001003700080578000a0078009d00070067
:1006b000e10f400005003a000fbd97000a007800e6
:1006c00098000700e10f40002b003200015380002a
:1006d0008008780001538000e481400021419000af
:1006e000830f5000020032000204a0000100370016
:1006f0000204a100a2409800640555000a054000cc
:100700000a0878000a53880061a52000010d7800ce
:1007100002538000a24090000104a00021419800f3
:10072000a04090000104a100214098000002eb00cd
:100730009dff3700f2528800828f5100070036007b
:100740001202be0014538800255388001109780056
:100750000040eb00f252800020419800f5528000ea
:1007600085087800214090000004a000a040980077
:1007700064804000010037000000eb004f07780064
:100780004f06be004f05be004f04be004f00b10033
:100790000000060064005000f0528800a040900065
:1007a0000104a1002140980000000600889fbe00bf
:1007b0008a9fbe00800478000104780064815400a0
:1007c0009205780069f9970061016100020032002a
:1007d00009007800efff07000800780052ff0700cb
:1007e00000047800e00f54001b003200890f540011
:1007f0001900320068bd97000805550042d5de009b
:10080000098055004280de000a017800800f550003
:1008100001003600000178004211dd000800be0032
:1008200011000700890f54000b0031004255dd0014
:100830000a054400890f5500070036008904550059
:10084000c2ccde00c24cdd0089044400105380009d
:1008500021538000808cbe00080078004f05be0048
:100860004f04be000000060080017800020037003f
:10087000b1597800040178000202e900e00f51004c
:10088000fbff3a000000060010417800814f510044
:1008900005003200e04f5100020032000000e80085
:1008a000f9ff37000000eb0000000600800178002f
:1008b0003141780082597800e04f5100fcff3a0046
:1008c00000000600800078000041eb00b14f1100ed
:1008d000fdff3a000080ea000080400000000600b2
:1008e00080017800060037000201e900114278001b
:1008f00084597800e04f5200060032008100e80081
:10090000e00f5100f8ff3a00020037008059eb0079
:10091000010178008200e900e00f5100fbff3a007e
:1009200000000600889fbe008004780030538000dd
:10093000e00f500004003a000e0007000084eb00b6
:10094000e00f50000800350038538000e08f54005d
:10095000050032000900440006000700e00f5000c7
:1009600001003d000084eb00080078004f04be0049
:1009700000000600e00f500004003a0081a62000ad
:100980003153880080007800060037008080eb003b
:1009900042b92000820f500002003e003053880010
:0c09a0008000eb00010078000000060061
:020000040000fa
:1009ac00ff000000e7000000c300000099000000f9
:1009bc0099000000990000009900000099000000c7
:1009cc0099000000990000009900000099000000b7
:1009dc0099000000c3000000e7000000ff000000c9
:1009ec00ff000000e7000000e3000000e100000051
:1009fc00e7000000e7000000e7000000e70000004f
:100a0c00e7000000e7000000e7000000e70000003e
:100a1c00e70000008100000081000000ff000000e2
:100a2c00ff000000c3000000810000009d000000da
:100a3c009f0000009f0000009f000000cf000000fe
:100a4c00e7000000f3000000f9000000f9000000ce
:100a5c00f90000008100000081000000ff00000090
:100a6c00ff000000c3000000810000009f00000098
:100a7c009f0000009f0000009f000000c3000000ca
:100a8c00c30000009f0000009f0000009f000000ba
:100a9c009f00000081000000c3000000ff00000068
:100aac00ff000000cf000000c7000000c3000000e2
:100abc00c9000000c9000000c9000000c900000006
:100acc008100000081000000cf000000cf0000007a
:100adc00cf000000cf000000cf000000ff0000009e
:100aec00ff0000008100000081000000f900000000
:100afc00f9000000f9000000f9000000c10000003e
:100b0c00810000009f0000009f0000009f0000007b
:100b1c009d00000081000000c3000000ff000000e9
:100b2c00ff0000008300000081000000b9000000fd
:100b3c00f9000000f9000000f9000000f9000000c5
:100b4c00c100000081000000990000009900000025
:100b5c009900000081000000c3000000ff000000ad
:100b6c00ff00000081000000810000009f000000d9
:100b7c009f0000009f0000009f0000009f000000ed
:100b8c00cf000000e7000000e7000000e7000000d5
:100b9c00e7000000e7000000e7000000ff00000095
:100bac00ff000000c300000081000000990000005d
:100bbc00990000009900000099000000c30000009b
:100bcc00c30000009900000099000000990000008b
:100bdc009900000081000000c3000000ff0000002d
:100bec00ff000000c300000081000000990000001d
:100bfc0099000000990000008100000083000000b3
:100c0c009f0000009f0000009f0000009f0000005c
:100c1c009d00000081000000c3000000ff000000e8
:100c2c00ff000000e7000000db000000990000005e
:100c3c009900000099000000990000009900000044
:100c4c00810000009900000099000000990000004c
:100c5c00990000009900000099000000ff000000be
:100c6c00ff000000e1000000c1000000990000003e
:100c7c00990000009900000099000000c1000000dc
:100c8c00c1000000990000009900000099000000cc
:100c9c0099000000c1000000e1000000ff0000000e
:100cac00ff000000c300000081000000f9000000fc
:100cbc00f9000000f9000000f9000000f900000044
:100ccc00f9000000f9000000f9000000f900000034
:100cdc00f900000081000000c3000000ff000000cc
:100cec00ff000000e1000000c100000099000000be
:100cfc009900000099000000990000009900000084
:100d0c009900000099000000990000009900000073
:100d1c0099000000c1000000e1000000ff0000008d
:100d2c00ff0000008300000081000000f9000000bb
:100d3c00f9000000f9000000f9000000c1000000fb
:100d4c00c1000000f9000000f9000000f9000000eb
:100d5c00f90000008100000083000000ff0000008b
:100d6c00ff0000008300000081000000f90000007b
:100d7c00f9000000f9000000f9000000c1000000bb
:100d8c00c1000000f9000000f9000000f9000000ab
:100d9c00f9000000f9000000f9000000ff0000005d
:100dac00ff0000008300000081000000f90000003b
:100dbc00f9000000f9000000f9000000f900000043
:100dcc00f9000000f9000000090000009900000083
:100ddc00990000008100000083000000ff0000006b
:100dec00ff0000009900000099000000990000002d
:100dfc00990000009900000099000000810000009b
:100e0c009900000099000000990000009900000072
:100e1c00990000009900000099000000ff000000fc
:100e2c00ff0000008100000081000000e7000000ce
:100e3c00e7000000e7000000e7000000e70000000a
:100e4c00e7000000e7000000e7000000e7000000fa
:100e5c00e70000008100000081000000ff0000009e
:100e6c00ff0000009f0000009f0000009f0000009a
:100e7c009f0000009f0000009f0000009f000000ea
:100e8c009f0000009f0000009900000099000000e6
:100e9c00990000008100000081000000ff000000ac
:100eac00ff000000fc000000bc0000009c000000e3
:100ebc00cc000000e4000000f0000000f80000008e
:100ecc00f8000000f0000000e4000000cc0000007e
:100edc009c000000bc000000fc000000ff000000b3
:100eec00ff000000f9000000f9000000f90000000c
:100efc00f9000000f9000000f9000000f900000002
:100f0c00f9000000f9000000f9000000b900000031
:100f1c00b90000008100000081000000ff0000000b
:100f2c00ff000000990000002400000024000000d5
:100f3c002400000024000000240000002400000015
:100f4c003c0000003c0000003c0000003c000000a5
:100f5c003c0000003c0000003c000000ff000000d2
:100f6c00ff000000b9000000b9000000b90000004b
:100f7c00b9000000b1000000b1000000a5000000a5
:100f8c00a5000000ad0000008d0000008d000000e9
:100f9c009d0000009d0000009d000000ff0000006f
:100fac00ff0000008100000081000000990000009b
:100fbc0099000000990000009900000099000000c1
:100fcc0099000000990000009900000099000000b1
:100fdc00990000008100000081000000ff0000006b
:100fec00ff00000083000000810000009900000059
:100ffc0099000000990000008100000081000000b1
:10100c00f9000000f9000000f9000000f9000000f0
:10101c00f9000000f9000000f9000000ff000000da
:10102c00ff000000c30000008100000099000000d8
:10103c009900000099000000990000009900000040
:10104c00990000009900000089000000c100000018
:10105c0093000000bf000000ff000000ff00000034
:10106c00ff000000c3000000810000009900000098
:10107c009900000099000000c9000000e100000088
:10108c00f1000000c1000000890000009900000080
:10109c00990000009900000099000000ff0000007a
:1010ac00ff0000008300000081000000b900000078
:1010bc00f9000000f9000000f9000000c100000078
:1010cc00830000009f0000009f0000009d000000b6
:1010dc009d00000081000000c1000000ff00000026
:1010ec00ff0000008100000081000000e70000000c
:1010fc00e7000000e7000000e7000000e700000048
:10110c00e7000000e7000000e7000000e700000037
:10111c00e7000000e7000000e7000000ff0000000f
:10112c00ff000000990000009900000099000000e9
:10113c00990000009900000099000000990000003f
:10114c00990000009900000099000000990000002f
:10115c009900000081000000c3000000ff000000a7
:10116c00ff000000990000009900000099000000a9
:10117c0099000000990000009900000099000000ff
:10118c0099000000990000009900000099000000ef
:10119c00db000000e7000000e7000000ff0000009b
:1011ac00ff0000003c0000003c0000003c00000080
:1011bc003c0000003c0000003c0000003c00000033
:1011cc003c0000002400000024000000240000006b
:1011dc00240000000000000099000000ff00000047
:1011ec00ff00000099000000990000009900000029
:1011fc009900000099000000db000000e3000000f3
:10120c00e7000000cb0000009900000099000000ee
:10121c00990000009900000099000000ff000000f8
:10122c00ff000000990000009900000099000000e8
:10123c009900000099000000990000008100000056
:10124c00c3000000e7000000e7000000e70000001a
:10125c00e7000000e7000000e7000000ff000000ce
:10126c00ff00000081000000810000009f000000d2
:10127c009f000000cf000000e7000000f30000001a
:10128c00f9000000f9000000f9000000f90000006e
:10129c008100000081000000ff000000ff00000042
:1012ac00ff000000ff000000ff000000ff00000036
:1012bc00ff000000ff000000ff000000ff00000026
:1012cc00ff000000ff000000ff000000ff00000016
:1012dc00ff000000ff000000ff000000ff00000006
:1012ec00ff000000ff000000ff000000ff000000f6
:1012fc00ff000000ef000000cf00000081000000a4
:10130c0081000000cf000000ef000000ff00000093
:10131c00ff000000ff000000ff000000ff000000c5
:10132c0000000000000000000000000000000000b1
:10133c0000000000000000000000000000000000a1
:10134c000000000000000000000000000000000091
:10135c000000000000000000000000000000000081
:10136c00fe000000ff000000ff000000ff00000076
:10137c00ff000000ff000000ff000000ff00000065
:10138c00ff000000ff000000ff000000ff00000055
:10139c00ff000000ff000000ff000000ff00000045
:1013ac00576500006c6300006f6d00006500000065
:1013bc005445000053540000202000002000000081
:1013cc0050520000474d000020200000200000007b
:1013dc004e520000474d000020200000200000006d
:1013ec004e57000054200000202000002000000078
:1013fc004e57000046200000202000002000000076
:10140c004d5300005452000020200000200000002a
:10141c00534c00004156000020200000200000002a
:10142c00535400004441000020200000004d0000f7
:10143c00554c0000542000002020000000530000f8
:10144c00494e00004720000020200000004400000e
:10145c004947000033200000202000000044000019
:10146c00494700003220000020200000004200000c
:10147c00454c0000542000002020000000420000d9
:10148c00454c0000462000002020000000500000c9
:10149c00524d00005320000020200000005300009b
:1014ac0054440000412000002020000000530000a4
:1014bc0041560000452000002020000000430000a1
:1014cc00414e00005320000020200000004f00007f
:1014dc005554000020000000534c00004156000001
:1014ec000053000054440000410000004d55000022
:1014fc004c54000000530000494e0000470000000f
:10150c00494400003a200000004400004947000014
:10151c003300000044490000473200000042000044
:10152c004f4e000020000000424f000046460000d5
:10153c00004f000055540000202000002020000027
:10154c00004d0000415300005445000052200000a3
:10155c00004d0000554c000054490000504c000058
:10156c0000530000494e0000474c0000452000008d
:10157c00002000002020000020200000202000007f
:10158c0000420000454c00004c2000004f4e000073
:10159c0000420000454c0000204f00004646000071
:1015ac00005300006c61000076650000204d0000c7
:1015bc006f640000650d00000a0000005354000029
:1015cc00414e0000444100004c4f00004e450000cd
:1015dc000a0000004552000052200000004d00009f
:1015ec006173000074650000720000005858000020
:1015fc00585800002e5800005800000044450000c8
:10160c0046410000554c0000540000004c490000bd
:10161c005354000053450000540000005345000093
:10162c00524c000049530000540000004c4f000085
:10163c0041440000454400002000000053450000d8
:10164c0052200000534100005600000020450000cd
:0c165c00525200004f520000200000001d
:020000040000fa
:101668001801fa00889fbe00200f9900310f9900d9
:101678000000eb00000f78000000eb002007980046
:101688000000eb0060079800031d0700113a800076
:10169800f08f2f00808060000030200000807000f4
:1016a800103a880000000000113a80000002200073
:1016b80000806000e00f5000fbff3200c002a9006c
:1016c800c9c2a90070002000801688000080eb00c5
:1016d80060198800b61c070010c4b300604f98005a
:1016e8000000eb00000f7800100037002016800083
:1016f800004078006140600000c0ea00614060007e
:101708000080fb006100600022168000e1ff2f00ce
:1017180081006100008070002016880000682900a0
:1017280081092000ec1c07001e0fe8001e0078004d
:10173800e40f5000edff3600cc1c0700c402a900de
:10174800c882a9009a1c0700511b07003818070017
:10175800131c07001815070000902000d103200073
:10176800dd1c0700d31b070042190700009020006a
:10177800d1032000d81c070082002000619d2800aa
:1017880020a2200036fc070020a2200067180700ce
:1017980082002000e19d280020a2200030fc0700e4
:1017a80020a220000716070000a0250021262000ff
:1017b800c91c07006000b8005c1907006067980042
:1017c8006000b8005919070000df990010002000d8
:1017d800010020005519070010df990020002000a3
:1017e800010020005119070020df99003000200077
:1017f800010020004d19070030df99006e6090004d
:10180800e14f400035003a00100020006052880087
:101818001000200000498800100020007052880045
:101828000000eb003007980042c0b300be009000f3
:10183800c0902000d819070000c3b3000ee9b70014
:1018480000c3b3000fe9b70010002000400798005c
:1018580010002000500798006052800000017800b6
:101868006000b8007f190700004980000001780077
:1018780010002000010020007a1907007052800033
:1018880000017800200020000100200075190700e1
:101898000ec9bf0000417800300020000100200080
:1018a800fb1807000fc9bf00004178004000200066
:1018b80001002000f61807004e019000500020009b
:1018c80001002000671907005e01900070002000e9
:1018d80001002000631907000b0037001ed8910093
:1018e800d51907000049880000498000e00f500022
:1018f8000300320010c0b3001ee9b7000200370031
:101908000040eb001ee9b7000000eb00000f780074
:1019180000498000e00f50001b0032000b00370028
:101928000040eb009416070000802400811e200070
:10193800691c070010c0b3008f1607000080240040
:10194800811e2000641c07001e0fe8001e0078009e
:10195800e20f5000f2ff36000e0037000040eb00a7
:101968004d16070000802400811e20005a1c070025
:1019780010c0b3004816070000802400811e200014
:10198800551c07001e0fe8001e007800e20f5000eb
:10199800f2ff36000000eb00000f78006000b8008e
:1019a800200f9800310f98009016800000407800b2
:1019b800614060000080fb0061006000e00f5000a3
:1019c8000d003a0010c0b3001ee9b7001000200057
:1019d8006007980010002000400f98008200200047
:1019e800619e280020a220009dfb070020a2200065
:1019f800741507000a00370082002000e19e2800c5
:101a080020a2200096fb070020a220006d150700e9
:101a18000000eb00600798000000eb00400f980002
:101a280000402b00414c20002b1c070070002000b8
:101a3800500f98000000eb0010079800af02370025
:101a480080508000e00f5000ac0232001e00900071
:101a580040179800df1b0700100798004e109000f1
:101a6800e00f5000a3023a001e009000e00f500063
:101a7800a00232001e009000e20f5000dc0032008d
:101a8800e40f5000cd013200e10f500099023a00f6
:101a98005e0890000000e800500f98005e08900073
:101aa800e70f5000020036000000eb00500f9800ce
:101ab80000498000e00f5000090032007052800099
:101ac800e00f5000060032005e089000e40f50005e
:101ad80003003a005e0890000000e800500f9800ec
:101ae80000498000e00f5000060032005e089000b8
:101af800e50f500003003a005e0890000000e8007f
:101b0800500f980060528000e00f500006003a0025
:101b18005e089000e50f500003003a005e08900050
:101b28000000e800500f980060528000e00f50005d
:101b380008003a005e089000e20f500005003a00e5
:101b48005e0890000000e800500f98000000eb00cd
:101b5800705288005e08900001002000720020008a
:101b680003002000820f5000838f58005c023e0063
:101b78000060010007003700170037003400370005
:101b8800440037005c0037006c0037007f003700e6
:101b98008f00370060528000e00f500007003200cd
:101ba80082002000619f280020a220002cfb070053
:101bb80020a220000315070006003700820020003d
:101bc800e19f280020a2200025fb070020a220007a
:101bd800fc1407008500370000498000e00f500022
:101be800070032008200200061a0280020a2200007
:101bf8001bfb070020a22000f21407001300370087
:101c080060528000e00f50000a0032000049800056
:101c1800e00f500007003a0082002000e1a02800f1
:101c280020a220000efb070020a22000e5140700d8
:101c3800060037007200200061a1280020a22000c1
:101c480007fb070020a22000de140700670037000a
:101c580070528000e00f5000070032008200200020
:101c6800d1a1280020a22000fdfa070020a2200010
:101c7800d4140700060037008200200051a2280073
:101c880020a22000f6fa070020a22000cd140700a9
:101c98005600370000498000e00f50000200320073
:101ca8000000eb003007980042c0b300be0090006f
:101cb80020902000b818070090c4b30002e9b700cc
:101cc80040c4b30003e9b7002190200020a22000ff
:101cd800f4fa070000c2b30026eab70000c2b30056
:101ce80027eab70000c2b30028eab70020a2200004
:101cf800b41407003d0037004e009000e00f50007c
:101d08000700320082002000d1a2280020a2200073
:101d1800d3fa070020a22000aa1407000600370003
:101d28008200200051a3280020a22000ccfa07003e
:101d380020a22000a31407002c00370030c5b300f0
:101d480002e9b70050c5b30003e9b70060c4b300a7
:101d580004e9b7006e48900005e9b700219020001b
:101d680020a22000cffa070000c2b30026eab7007d
:101d780000c2b30027eab70000c2b30028eab700e0
:101d880020a220008f140700180037005e00900082
:101d9800e00f50000700320082002000d1a3280085
:101da80020a22000aefa070020a220008514070018
:101db800060037008200200051a4280020a220003d
:101dc800a7fa070020a220007e14070007003700aa
:101dd80082002000d1a4280020a22000a0fa070039
:101de80020a220007714070000000000c10137007e
:101df8005e0890000100200072002000030020000f
:101e0800820f5000838f5800b7013e000060010028
:101e1800070037000f003700230037002b0037007a
:101e280060003700680037009d003700a5003700c4
:101e380082002000619f280020a2200088fa070065
:101e480020a220005f1407001000200060528800c4
:101e5800d900370060528000e00f500009003200be
:101e68008200200061a0280020a220007cfa070040
:101e780020a2200053140700100020000049880009
:101e8800080037008200200051a5280020a2200069
:101e980073fa070020a220004a1407000000eb0094
:101ea80000498800c400370082002000d1a1280022
:101eb80020a220006afa070020a22000411407008f
:101ec8001000200070528800bb00370000498000d5
:101ed800e00f5000160032000000eb0030079800b9
:101ee80042c0b300be009000209020002a180700ce
:101ef80090c4b30002e9b70040c4b30003e9b700d7
:101f08002190200020a2200066fa070000c2b3003a
:101f180026eab70000c2b30027eab70000c2b30040
:101f280028eab70020a22000261407001c0037006a
:101f38003e0090000000e80030079800be009000c6
:101f480000022000808f50000200360010002000a0
:101f58003007980042c0b300be00900020902000d7
:101f68000d18070090c4b30002e9b70040c4b300dd
:101f780003e9b7002190200020a2200049fa0700b9
:101f880000c2b30026eab70000c2b30027eab700d0
:101f980000c2b30028eab70020a2200009140700f5
:101fa800850037008200200051a3280020a22000cd
:101fb8002bfa070020a22000021407000000eb0003
:101fc800400798007c00370070528000e00f5000f6
:101fd8001d0032006e4890000040e800604f9800f5
:101fe800ee489000a0c5b30080cf50000200340036
:101ff80010c4b300604f980030c5b30002e9b700c1
:1020080050c5b30003e9b70060c4b30004e9b700e2
:102018006e48900005e9b7002190200020a220001a
:1020280020fa070000c2b30026eab70000c2b300d6
:1020380027eab70000c2b30028eab70020a22000b0
:10204800e01307001500370000c3b300604f980085
:1020580030c5b30002e9b70050c5b30003e9b700c3
:1020680060c4b30004e9b7006e48900005e9b70002
:102078002190200020a220000afa070000c2b30025
:1020880026eab70000c2b30027eab70000c2b300cf
:1020980028eab70020a22000ca130700460037002c
:1020a80082002000d1a3280020a22000ecf907001c
:1020b80020a22000c313070010002000500798003a
:1020c8003d00370082002000d1a5280020a2200072
:1020d800e3f9070020a22000ba13070000a025009a
:1020e800212620007c1a070000a0250021262000b8
:1020f800791a070060528000e00f500002003a0091
:10210800f0c0b300604f980042c0b300be0090001a
:10211800c0902000a01707006052800000017800de
:102128006000b8004f1707000049800000017800e0
:1021380010002000010020004a170700705280009c
:10214800000178002000200001002000451707004a
:102158000ec9bf00004178003000200001002000b7
:10216800cb1607000fc9bf000041780040002000cf
:1021780001002000c61607004e0190005000200004
:1021880001002000371707006e48900000417800d2
:102198006000200001002000bd1607005e019000cd
:1021a80070002000010020002e1707000000eb003f
:1021b8006007980000000000ce0037005e0890001d
:1021c800010020007200200003002000820f500050
:1021d800838f5800c6003e000060010007003700ea
:1021e8000f00370021003700350037006a0037003c
:1021f80072003700a7003700af00370082002000c8
:10220800e19f280020a2200095f9070020a22000c5
:102218006c1307000000eb0060528800af00370025
:1022280060528000e00f500007003200820020005a
:10223800e1a0280020a2200089f9070020a22000a0
:1022480060130700060037007200200061a1280013
:1022580020a2200082f9070020a2200059130700bd
:102268000000eb00004988009c00370060528000a5
:10227800e00f5000090032008200200051a228001f
:1022880020a2200076f9070020a220004d130700a5
:102298000000eb0070528800080037008200200020
:1022a800d1a1280020a220006df9070020a220005b
:1022b8004413070010002000705288008700370080
:1022c80000498000e00f5000160032000000eb00cb
:1022d8003007980042c0b300be0090002090200054
:1022e8002d17070090c4b30002e9b70040c4b3003b
:1022f80003e9b7002190200020a2200069f9070017
:1023080000c2b30027eab70000c2b30028eab7004a
:1023180000c2b30029eab70020a220002913070051
:102328001c0037003e009000e10f500003003a0007
:102338000002200030079800030037003e0090009c
:102348000000e9003007980042c0b300be009000ca
:10235800209020001017070090c4b30002e9b700ce
:1023680040c4b30003e9b7002190200020a2200058
:102378004cf9070000c2b30027eab70000c2b30057
:1023880028eab70000c2b30029eab700209020006d
:102398000c1307005100370082002000d1a228004a
:1023a80020a220002ef9070020a220000513070014
:1023b8001000200040079800480037007052800045
:1023c800e00f50001d0032006e4890000040e90008
:1023d800604f9800ee48900000c4b30080cf5000d2
:1023e80002003c00a0c5b300604f980030c5b300a0
:1023f80002e9b70050c5b30003e9b70060c4b300f1
:1024080004e9b7006e48900005e9b7002190200064
:1024180020a2200023f9070000c2b30027eab70072
:1024280000c2b30028eab70000c2b30029eab70027
:1024380020a22000e31207001500370000c3b300f4
:10244800604f980030c5b30002e9b70050c5b3002b
:1024580003e9b70060c4b30004e9b7006e48900010
:1024680005e9b7002190200020a220000df90700ff
:1024780000c2b30027eab70000c2b30028eab700d9
:1024880000c2b30029eab70020a22000cd1207003d
:10249800120037008200200051a4280020a220004a
:1024a800eff8070020a22000c61207000000eb008a
:1024b80050079800090037008200200051a6280024
:1024c80020a22000e6f8070020a22000bd12070085
:1024d8000000eb00600798000000000005003700ce
:1024e8000000000003003700000000000100370072
:1024f800000000000000eb00805088006e00900093
:10250800e00f50004efd3a0000498000e00f5000f7
:10251800a5003a000040eb001ee9b700d0a628004d
:10252800f411070000a02500212620006a190700e1
:10253800e0c4b30000df990050c4b30010df990075
:1025480040c5b30020df99006000b800f715070008
:1025580030df99003ed89100b71607006052880016
:1025680000498000e00f500006003a0060528000e9
:10257800e00f50000300320020a72800dd110700fb
:102588000200370070a72800da11070000a0250014
:10259800212620005019070060528000e00f5000eb
:1025a800280032002000200001002000df1507006d
:1025b80030df99003ed891009f16070070528800be
:1025c80070528000e00f500017003200c0a72800aa
:1025d800c811070000a02500212620003e19070089
:1025e80030c5b30000df990050c5b30010df990073
:1025f80060c4b30020df99006000200001002000c3
:10260800ca15070030df9900600020000100200093
:10261800c6150700604f9800800d20000e0040008e
:10262800b41107000400370000c3b300604f9800de
:1026380010a82800af11070000a0250021262000bf
:102648002519070090c4b30000df990040c4b30007
:1026580010df99003000200001002000b3150700aa
:1026680020df99003000200001002000af1507008e
:102678000ee9b7004000200001002000ab1507005c
:1026880030df99004000200001002000a715070056
:102698000fe9b700800d20000e00400095110700db
:1026a80060a82800a1140700800d20000e0040003b
:1026b8009e1407002ed891005f160700c400dd00a5
:1026c800f00f200000806000300798003ed891008d
:1026d800591607006f006000be009000008070006f
:1026e8003007980000a0250021262000fa180700ce
:1026f80040c4b30000df990090c4b30010df990014
:1027080070c4b30020df99005000200001002000b1
:102718008615070030df99003ed89100461607005d
:10272800400798004e009000e00f50000300320070
:10273800b0a828006f1107000200370000a9280080
:102748006c11070000a0250021262000e2180700d0
:1027580020c4b30000df990050c4b30010df990013
:10276800c0c4b30020df99007000200001002000e1
:102778006e15070030df99003ed891002e1607002d
:10278800500798005e009000e00f500003003200f0
:1027980050a92800571107008d003700a0a928006c
:1027a800541107008a00370010c0b3001ee9b700b3
:1027b800f0a928000312070000a025002126200008
:1027c800c5180700e0c4b30000df990050c4b30087
:1027d80010df990040c5b30020df99006000b80001
:1027e8005215070030df99003ed8910012160700f5
:1027f80060528800d0c4b30000df990010c4b30051
:1028080010df990030c5b30020df990010002000c8
:10281800010020004515070030df99003ed89100df
:10282800051607000049880070aa2800e51107006e
:1028380000a0250021262000a718070000a02500d9
:1028480021262000a41807002000200001002000f5
:102858003615070030df99003ed89100f6150700bd
:102868007052880070528000e00f50000300320060
:10287800f0aa2800d31107000200370070ab280027
:10288800d011070000a0250021262000921807007b
:1028980000a02500212620008f180700f0ab280093
:1028a800c811070090c4b30000df990040c4b3000a
:1028b80010df990030002000010020001b150700e0
:1028c80020df9900300020000100200017150700c4
:1028d8000ee9b70040002000010020001315070092
:1028e80030df990040002000010020000f1507008c
:1028f8000fe9b700800d20000e004000b11107005d
:102908002ed89100cc150700c400dd00f00f200080
:1029180000806000300798003ed89100c615070077
:102928006f006000be0090000080700030079800c3
:1029380000a02500212620006718070000a0250018
:10294800212620006418070040c4b30000df990066
:1029580090c4b30010df990070c4b30020df990061
:102968005000200001002000f014070030df99001b
:102978003ed89100b01507004007980020c4b30066
:1029880000df990050c4b30010df9900c0c4b30041
:1029980020df99007000200001002000e3140700e8
:1029a80030df99003ed89100a31507005007980022
:1029b8005e009000e00f50000300320070ac280069
:1029c8008011070002003700f0ac28007d110700d5
:1029d80000a02500212620003f1807006052800033
:1029e800e00f5000cb00320000498000e00f50009b
:1029f800f4013a0070ad2800cc13070020a7280086
:102a0800bc10070000402b00414c20003218070082
:102a18000040eb001ee9b7004e089000e00f5000a0
:102a280028003a008000200001002000bf140700a1
:102a380002e9b7009000200001002000bb14070045
:102a480003e9b700a000200001002000b714070028
:102a580004e9b700b000200001002000b31407000b
:102a680005e9b70021902000914078006e48900059
:102a780080cf50000f003a00209020009d100700e2
:102a88004e009000e00f5000050032004100200089
:102a980020902000c815070020079800090037007b
:102aa8003100200020902000c3150700200798005f
:102ab800040037000000eb002007980001003700f1
:102ac800000000000040eb0012eab70005cabf0092
:102ad800e04f5000faff32000000eb00000f7800d2
:102ae8000b003700609820001e004000104078005e
:102af80031a120009e804000804878006098200026
:102b08009e0040000040eb00804878001e0fe8005f
:102b18001e007800ed0f5000f2ff36000040eb0079
:102b280005eab70030a12000000f98000000eb0074
:102b3800000f78000e0890000000e800000f9800d1
:102b48000e0890000000e800000f98000900370008
:102b58000e08900010407800019120009e804000ef
:102b6800804878001e0fe8000e0890000000e8007a
:102b7800000f98000e0890009040780000c2b30043
:102b880080cf5000f2ff3a000040eb0013e9b70095
:102b98000000eb00000f78000e0890000000e8002d
:102ba800000f9800090037000e08900010407800c8
:102bb800919120009e804000804878001e0fe80018
:102bc8000e0890000000e800000f98000e08900022
:102bd8009040780000c2b30080cf5000f2ff3a0066
:102be8000040eb001ce9b7000000eb00000f780084
:102bf8000e0890000000e800000f98000900370058
:102c08000e08900010407800419120009e804000fe
:102c1800804878001e0fe8000e0890000000e800c9
:102c2800000f98000e0890009040780000c2b30092
:102c380080cf5000f2ff3a00419120009140780087
:102c48006e48900080cf500026003a000191200085
:102c5800914078000ec9bf0080cf500021003a0093
:102c680011912000914078000fc9bf0080cf50001b
:102c78001c003a000000eb00000f78000700370046
:102c8800409120001e004000104078002190200054
:102c98009e804000804878001e0fe8001e007800e3
:102ca800e30f5000f6ff36005e009000e00f500082
:102cb800010032006d17070000498000800078008d
:102cc800209020005c1207002090200009100700c7
:102cd80043002000229020008000200001002000f6
:102ce800731407000000eb00000f780005003700a0
:102cf80030a120009e0040000040eb008048780092
:102d08001e0fe8001e007800ec0f5000f8ff360098
:102d18006cff3700000000000040eb001ee9b70020
:102d280070a72800f30f070040ae2800ff12070025
:102d380000a0250021262000671707004e089000f4
:102d4800e00f500027003a0090002000010020000a
:102d5800f613070003e9b700a000200001002000d7
:102d6800f213070004e9b700b000200001002000ba
:102d7800ee13070005e9b7004e019000719020009e
:102d8800209020006010070070902000d90f0700e5
:102d98004100200020902000071507002007980018
:102da8004e009000e00f500007003200ae00900087
:102db800703e2000808f5000160036000000eb00a7
:102dc8002007980013003700ae009000300620005e
:102dd800808f50000f0036000000eb00200798009d
:102de8000c0037000000eb002007980042c0b30039
:102df800ae00900020902000671407004e0190005c
:102e080071902000209020003f1007007090200053
:102e1800b80f070010c0b30012eab700010037006e
:102e28000000000005cabf00e04f5000fcff320060
:102e38000000eb00000f78000b00370060982000be
:102e48001e0040001040780031a120009e80400004
:102e580080487800609820009e0040000040eb0009
:102e6800804878001e0fe8001e007800ee0f500022
:102e7800f2ff36000040eb0005eab7000000eb0067
:102e8800000f780030a12000000f98000000eb0030
:102e9800000f7800090037000e08900010407800f5
:102ea800019120009e804000804878001e0fe800b5
:102eb8000e0890000000e800000f98000e0890002f
:102ec8009040780000c2b30080cf5000f2ff3a0073
:102ed80000912000951207000000eb00000f780019
:102ee8000e0890000000e800000f98000900370065
:102ef8000e08900010407800919120009e804000bc
:102f0800804878001e0fe8000e0890000000e800d6
:102f1800000f98000e0890009040780000c2b3009f
:102f280080cf5000f2ff3a000040eb001ce9b700e8
:102f38000000eb00000f78000e0890000000e80089
:102f4800000f9800090037000e0890001040780024
:102f5800419120009e804000804878001e0fe800c4
:102f68000e0890000000e800000f98000e0890007e
:102f78009040780000c2b30080cf5000f2ff3a00c2
:102f88000e0890000000e800000f980006003700c7
:102f98000e089000104078001de9b7000e08900058
:102fa8000000e800000f98000e089000904078009c
:102fb80000c2b30080cf5000f5ff3a0010c0b30044
:102fc80012eab7001dc9bf000000fb00e1042000a1
:102fd800810f50000700320001052000810f5000ca
:102fe8002300320031042000810f50003f003200de
:102ff8004d0037004e009000e00f50000e003200e8
:103008002e0090000000e80020079800ae00900015
:10301800703e2000808f5000020036000000eb0058
:103028002007980042c0b300ae0090002090200016
:10303800d91307003f0037002e0090000000e80079
:1030480020079800ae00900030062000808f5000c6
:10305800020036000000eb002007980042c0b300d1
:10306800ae00900020902000cb13070031003700fd
:103078004e009000e00f50000e0032002e0090002d
:10308800e00f500003003a00703e2000200798002f
:10309800030037002e0090000000e9002007980088
:1030a80042c0b300ae00900020902000ba13070081
:1030b800200037002e009000e00f500003003a0077
:1030c8003006200020079800030037002e009000eb
:1030d8000000e9002007980042c0b300ae0090004d
:1030e80020902000ac130700120037000000eb000e
:1030f800200798004e009000e00f500005003200b5
:1031080042c0b300ae00900020902000a213070038
:103118000800370042c0b300ae00900020902000a5
:103128009d1307000300370000af2800f10e0700c9
:10313800000000004e0190007190200020902000b7
:10314800710f07002290200091912000009120002b
:10315800c015070040a32000f41107005e0090008e
:10316800e00f500001003200401607008000eb001d
:10317800709020003011070070902000dd0e0700cd
:103188004300200022902000800020000100200041
:10319800471307000000eb00000f78000500370018
:1031a80030a120009e0040000040eb0080487800dd
:1031b8001e0fe8001e007800ee0f5000f8ff3600e2
:1031c80018ff37000000000000a02500212620007d
:1031d800411607000000eb00600f98000000eb00ac
:1031e800700f98000000eb000017980010c0b300a3
:1031f8001ee9b70070aa2800720f070050af280018
:10320800ca11070000a02500212620003216070059
:1032180070528000e00f500002003a0000c3b30073
:10322800604f98004e089000e00f500026013a00c9
:1032380070528000e00f5000990032000001200019
:1032480001002000b9120700205f9900100120003a
:1032580001002000b5120700305f9900a009200086
:103268000e00400021002000a81307001017980046
:10327800a00920000e00400022c0b3009e1090005c
:10328800451307000000eb000017980058003700ae
:103298000000eb00000f7800150037000e109000ba
:1032a8004200dd001e0040000002b00001002000c6
:1032b8009e120700219020009e80400080487800e0
:1032c800620320000e0141000e1090006500b90055
:1032d800000078001e00400080004100209020007f
:1032e8001e00400010407800804878001e0fe8005b
:1032f8001e007800e30f5000e8ff36000e10900023
:1033080061006000e00f500011003a004100200009
:1033180020902000a8130700800078000e1090006d
:103328000000400000004700c009b0000108780014
:103338000e1090000000d1008e1090008080500088
:1033480002c9bf008100470090489a000e0037006c
:103358000e1090006100600000407800e04f5000bf
:10336800090032004100200020902000921307003d
:10337800800078000e109000000040000000470018
:10338800400cb00001087800209020009e0040000a
:103398000040eb0080487800620320000e014100e5
:1033a8000e1090006500b900000078001e00400073
:1033b80080004100209020001e004000104078004e
:1033c800804878002190200070902000fa100700b3
:1033d80070902000fb0e070000a025002126200089
:1033e800bd1507000e1090000000e80000179800b7
:1033f8001e10900000004000800078000e10900021
:10340800808f5000a2ff3e00901020000e00400068
:103418001e11900080007800209020002ef50700f3
:1034280020902000e70e070000402b00414c2000b0
:10343800a91507000000eb00000f78001400370002
:103448001e007800000040000000470060889000df
:103458000000e900800078001e00780000004000ad
:1034680000004700000bb000010878001e0078003b
:1034780000004000000047008098900040102000a5
:103488000e00400042c0b300c31207001e0fe80040
:103498001e1090009e007800808f5000e8ff3900d1
:1034a80070528000e00f500028003a008000200091
:1034b80001002000200f9800310f980010003700fd
:1034c8002e089000be08900068045000e084580060
:1034d8002e089000be0890001412070031a42000a6
:1034e80081004400804878002e089000be089000b3
:1034f80061004000e0804800200f9800310f9800dc
:103508002e099000be099000e00020000100200074
:10351800800f5100818f5900e9ff360040102000cc
:103528000e0040004200200031a42000eaf4070009
:10353800401020000e004000c81207002007980025
:1035480030a420009f0e0700b00137000000eb00f8
:10355800000f78000000eb000017980055003700b6
:103568000007200001002000200f9800310f98006c
:10357800120037000e1090004300dd006101b80012
:103588002e089000be08900002004000838048008a
:10359800e611070031a420009e8040008048780092
:1035a8001e0fe8002e089000be0890006100400041
:1035b800e0804800200f9800310f98002e099000f5
:1035c800be0990007007200001002000800f510004
:1035d800818f5900e7ff36000000eb00000f7800ec
:1035e800401020000e0040004200200031a42000be
:1035f800b9f40700401020000e00400097120700a1
:10360800800078000e109000000040000000470085
:10361800000bb000010878000e1090000000400078
:1036280000004700809890000e10900000004000b5
:103638000000470060889000808f50000a00390021
:103648000e10900000004000000047008098900095
:103658000e109000000040000000470020a09000dd
:10366800808f50000b0036000e10900000004000c4
:1036780000004700608890000000e90080007800a2
:103688000e1090000000400000004700000bb00042
:103698000108780030a420004a0e070000a0250089
:1036a800212620000c1507000e1090000000e800ed
:1036b800001798008e1090001e109000808f500008
:1036c800a7ff390051013700c0af28003d0e0700a1
:1036d80000a0250021262000ff140700000220007a
:1036e8000100200050179800611798007052800060
:1036f800e00f5000450132005e109000ee1090007f
:103708008a110700606f980000c8bf00ee6890003b
:1037180080cf500070003a00f0ab2800290e070057
:1037280010c3b300205f990000c3b300305f990055
:103738002e5891000041780000012000010020006f
:10374800531107003e5891000041780010012000f5
:10375800010020004e110700a00920000e004000c3
:103768002100200069120700101798000000eb00e4
:10377800000f7800490037000000eb0000179800a0
:103788000f003700229220001e0078006500b90063
:10379800800078000e10900000804000000041007a
:1037a800104078000e119000219020008100410007
:1037b800804878000e1090000000e800001798007c
:1037c8000e109000e40f5000eeff36009e007800c7
:1037d80061806000e00f500010003a0041002000b6
:1037e8002090200074120700800078001e007800e6
:1037f8000000400000004700c009b0000108780040
:103808001e0078000000d1009e00100002c9bf0011
:103818008100470090489a000e0037001e0078008b
:103828006100600000407800e04f5000090032005d
:1038380041002000209020005f12070080007800df
:103848001e0078000000400000004700400cb00057
:10385800010878009e007800688040004200dd0082
:103868000100200043002000229020009011070052
:103878000040eb0006e9b70021902000d0a220000c
:10388800cd0f0700d0a22000ce0d070000a0250014
:1038980021262000901407001e0fe8001e1090003b
:1038a800000040009e0f5000b3ff3e0040b02800cb
:1038b800c40d070000a0250021262000861407005b
:1038c800c0b02800bf0d070000a025002126200059
:1038d80081140700cd003700f0ab2800b90d0700b0
:1038e800000120000100200010110700205f99004e
:1038f80010012000010020000c110700305f990022
:10390800a00920000e00400021002000ff11070040
:1039180010179800a00920000e00400022c0b30034
:103928009e1090009c1107000000eb000017980003
:103938004d0037000000eb00000f7800150037003d
:103948000e1090004200dd001e0040000002b00092
:1039580001002000f5100700219020009e80400003
:1039680080487800620320000e0141000e1090008c
:103978006500b900000078001e004000800041008a
:10398800209020001e0040001040780080487800f9
:103998001e0fe8001e007800e30f5000e8ff360015
:1039a8000e10900061006000e00f500011003a0016
:1039b8004100200020902000ff11070080007800bf
:1039c8000e1090000000400000004700c009b00041
:1039d800010878000e1090000000d1008e109000b1
:1039e8008080500002c9bf008100470090489a00bb
:1039f8000e0037000e109000610060000040780053
:103a0800e04f5000090032004100200020902000c3
:103a1800e9110700800078000e10900000004000b7
:103a280000004700400cb0000108780020902000fa
:103a38009e0040000040eb00804878002190200064
:103a4800d0a220005c0f0700d0a220005d0d070067
:103a580000a02500212620001f1407000e1090004a
:103a68000000e800001798001e10900000004000b9
:103a7800800078000e109000808f5000adff3e004f
:103a880040b128004f0d070000a025002126200086
:103a980011140700c0b128004a0d070000a0250036
:103aa800212620000c1407000000eb00000f78000e
:103ab8000000eb00001798005000370000072000b6
:103ac80001002000200f9800310f980012003700e5
:103ad8000e1090004300dd006101b8002e08900030
:103ae800be08900002004000838048008f10070045
:103af80031a420009e804000804878001e0fe80016
:103b08002e089000be08900061004000e080480048
:103b1800200f9800310f98002e099000be099000e0
:103b28007007200001002000800f5100818f59008c
:103b3800e7ff36000000eb00000f7800401020007f
:103b48000e0040004200200031a4200062f307006c
:103b5800401020000e00400040110700800078004f
:103b68000e1090000000400000004700000bb0005d
:103b7800010878000e109000000040000000470087
:103b8800809890000e109000000040000000470050
:103b980060889000808f50000a0039000e10900055
:103ba8000000400000004700809890000e10900030
:103bb800000040000000470020a09000808f5000c7
:103bc8000b0036000e109000000040000000470077
:103bd800608890000000e900800078000e109000d6
:103be8000000400000004700000bb000010878000a
:103bf8000e1090000000e800001798008e1090004a
:103c08001e109000808f5000acff390010c0b30028
:103c180012eab700010037000000000006cabf0022
:103c2800e04f5000b90032000000eb000017980088
:103c38000000eb00000f780050992000100f98004a
:103c48001e0890000000e800100f98001e08900061
:103c58000000e800100f98000a0037001e089000c6
:103c680010407800a10920008e8040009e8040000e
:103c7800804878001e0fe8001e0890000000e80049
:103c8800100f98001e0890009040780000c2b30002
:103c980080cf5000f1ff3a000040eb00505f9900e0
:103ca800a00920000e004000210020001711070085
:103cb80010179800a00920000e00400022c0b30091
:103cc8009e109000b4100700a00920000e004000cc
:103cd80023002000000178000001200001002000de
:103ce800731007000000eb00000f78000000eb00e5
:103cf80000179800540037001e0890000000e800e4
:103d0800100f98001d0037001e0890001040780022
:103d1800219020009e804000804878001e08900076
:103d28000000e800100f9800620320000e01410017
:103d38000e1090006500b900000078001e004000d9
:103d480080004100209020001e00400010407800b4
:103d580080487800620320000e0141000e10900098
:103d68006500b900000078001e0040000000410016
:103d7800104078001e0fe800e00e07001e089000b3
:103d88009040780000c2b30080cf5000deff3a00b8
:103d98000e10900061006000e00f500010003a0023
:103da80041002000209020000311070080007800c7
:103db8000e1090000000400000004700c009b0004d
:103dc8000108780002c9bf00921020000e014100ce
:103dd8008e10900081004100804878000e00370066
:103de8000e1090006100600000407800e04f500025
:103df800090032004100200020902000ee1007004a
:103e0800800078000e10900000004000000047007d
:103e1800400cb000010878000e10900068004000c7
:103e28004200dd0001002000430020002290200015
:103e38001f1007000000eb00000f78000e10900024
:103e48000000e800001798001e10900000004000d5
:103e5800800078000e109000808f5000a6ff3e0072
:103e68000000eb00000f78000c0037001e007800ff
:103e78000000400000004700608890000000e90052
:103e8800800078001e007800000040000000470015
:103e9800000bb000010878001e0fe8001e1090000b
:103ea8009e007800808f5000f0ff390040b2280053
:103eb800440c070040b228009c0e070000a0250013
:103ec80021262000041307000000eb00000f7800f3
:103ed80005003700509920009e0040000040eb008c
:103ee800804878001e0fe800d00620009e00780069
:103ef800808f5000f7ff36000040eb0006eab7005d
:103f080010c0b30012eab70044ff370005cabf006b
:103f1800e04f500040ff32000000eb00000f780037
:103f28000e003700609820001e0040001040780006
:103f380031a120009e8040008048780000fa2000cf
:103f480001002000e4120700609820009e00400055
:103f58000040eb00804878001e0fe8001e00780043
:103f6800ee0f5000efff36000040eb0005eab70007
:103f780030a12000000f98000000eb00000f78002f
:103f8800090037000e0890001040780001912000c9
:103f98009e804000804878001e0fe8000e089000c0
:103fa8000000e800000f98000e089000904078008c
:103fb80000c2b30080cf5000f2ff3a000040eb008f
:103fc80013e9b7000091200024100700001f980093
:103fd8000000eb00000f78000e0890000000e800d9
:103fe800000f9800090037000e0890001040780074
:103ff800919120009e804000804878001e0fe800c4
:104008000e0890000000e800000f98000e089000cd
:104018009040780000c2b30080cf5000f2ff3a0011
:104028000040eb001ce9b7000000eb00000f78002f
:104038009091200009100700101f98000e089000aa
:104048000000e800000f9800090037000e089000f3
:1040580010407800419120009e8040008048780000
:104068001e0fe8000e0890000000e800000f9800fe
:104078000e0890009040780000c2b30080cf500036
:10408800f2ff3a0014c9bf00604f98000e08900074
:104098000000e800000f9800060037000e089000a6
:1040a800104078001de9b7000e0890000000e800f5
:1040b800000f98000e0890009040780000c2b300ee
:1040c80080cf5000f5ff3a0010c0b30012eab700e5
:1040d80070528000e00f500005003a004191200026
:1040e8009140780000c3b30080cf5000720a3a00b4
:1040f80010c0b3004077980070528000e00f500065
:10410800270032000000eb00000f78000000eb00f1
:10411800001798000000eb00001798001a003700fd
:104128000e10900061006000e00f500013003a008c
:104138000e1090006500b9000000780000004700ec
:10414800e070900014c9bf0080cf50000b003a0007
:104158000e109000e00f5000030032000e10900087
:104168000000d100201798000e109000e00f5000ba
:1041780002003a000e109000201798000e109000d0
:104188000000e800001798001e1090000000400092
:10419800800078000e109000808f5000e0ff3e00f5
:1041a80014c9bf008000fb00901020000e004000e2
:1041b800b3f10700507798001e189000e00f5000e8
:1041c8003b0a32009e18900000022000808f5000a9
:1041d800370a3e000e189000e00f5000340a3200f3
:1041e8008e18900000022000808f5000300a3e0098
:1041f8005e709000e04f50002d0a3200705280002f
:10420800e00f500003003200e10f50008a00320036
:104218009e0937001dc9bf000000fb006101b900fd
:10422800d0fb2f00f1ff2f000200400083804800e0
:10423800f200200003002000820f5000838f5800f6
:104248008d093e00006001007700370064003700e8
:10425800670037008a09370089093700880937005d
:104268008709370086093700850937008409370030
:104278008309370004003700810937002d00370013
:104288007f093700620037004e009000e00f5000b1
:10429800140032002e0090000000e800200798006b
:1042a800ae009000703e2000808f50000200360063
:1042b8000000eb0020079800ae0090007e089000f8
:1042c800808f50001a003a002e009000e00f500036
:1042d800170032002e0090000000e8002007980028
:1042e800130037002e0090000000e8002007980017
:1042f800ae00900030062000808f5000020036008b
:104308000000eb0020079800ae0090007e089000a7
:10431800808f500006003a002e009000e00f5000f9
:10432800030032002e0090000000e80020079800eb
:10433800400037004e009000e00f5000140032009b
:104348002e009000e00f500003003a00703e20005d
:1043580020079800030037002e0090000000e900b5
:1043680020079800ae0090007e089000808f5000d3
:104378001a003a002e009000e00f5000170032009b
:104388002e0090000000e900200798001300370075
:104398002e009000e00f500003003a003006200085
:1043a80020079800030037002e0090000000e90065
:1043b80020079800ae0090007e089000808f500083
:1043c80006003a002e009000e00f50000300320073
:1043d8002e0090000000e900200798001500370023
:1043e800409120001d0f070020079800110037009a
:1043f800ae009000610f980040912000170f070051
:10440800200798002e009000700f980009003700d0
:10441800ae009000610f9800409120000f0f070038
:1044280020079800030037000000eb0020079800e1
:1044380000000000150937002e109000cf80de0024
:104448009200200003002000820f5000838f580044
:104458000d093e000060010009003700ef00370039
:10446800d4013700b90237009e03370083043700b0
:10447800680537004d063700320737001708370040
:104488001dc9bf000000fb006101b900d0fb2f006f
:10449800f1ff2f000200400083804800f200200056
:1044a80003002000820f5000838f5800da003e007e
:1044b80000600100cc003700940037009d003700f1
:1044c800d5003700d4003700d3003700d2003700ba
:1044d800d1003700d0003700cf003700ce003700ba
:1044e80004003700cc0037004b003700ca00370003
:1044f800ab0037002e10900000004000000047007d
:10450800809890002e1090000000400000004700a6
:1045180020a09000808f5000160031002e109000cf
:104528000000400000004700809890002e10900086
:104538000000400000004700608890000000e9008b
:10454800808f50000b0039002e10900000004000b2
:1045580000004700009890008000e8002e109000ae
:104568000000400000004700000bb0000108780080
:10457800140037002e109000000040000000470093
:10458800809890002e109000000040000000470026
:1045980020a09000808f50000a003a002e10900052
:1045a800000040000000470060889000800078000c
:1045b8002e1090000000400000004700000bb000e3
:1045c800010878002e10900000004000000047000d
:1045d800809890002e1090000000400000004700d6
:1045e80000b89000808f50000a003a002e1090000a
:1045f8000000400000004700009890008000e8009c
:104608002e1090000000400000004700000bb00092
:1046180001087800800037002e109000000040004c
:1046280000004700809890002e1090000000400085
:104638000000470060889000808f50000a003e000c
:104648002e1090000000400000004700a0a090003d
:104658002e1090000000400000004700000bb00042
:1046680001087800140037002e1090000000400068
:1046780000004700809890002e1090000000400035
:104688000000470060889000808f50000a003600c4
:104698002e10900000004000000047000098900095
:1046a8008000e9002e109000000040000000470044
:1046b800000bb000010878002e10900000004000a8
:1046c80000004700809890002e10900000004000e5
:1046d8000000470000b89000808f50000a003a00a0
:1046e8002e10900000004000000047000098900045
:1046f8008000e9002e1090000000400000004700f4
:10470800000bb0000108780043003700410020008a
:10471800409120007d0e0700800078002e10900048
:104728000000400000004700000bb00001087800be
:10473800390037002e1090000000400000004700ac
:10474800809890002e109000000040000000470064
:10475800c00db00001087800409120003f0e07000e
:10476800800078002e1090000000400000004700f4
:10477800000bb000010878002e10900000004000e7
:1047880000004700809890002e1090000000400024
:1047980000004700000fb000010878001e00370035
:1047a8002e10900000004000000047008098900004
:1047b8002e1090000000400000004700c00db0001f
:1047c8000108780040912000240e0700800078003e
:1047d8002e1090000000400000004700000bb000c1
:1047e800010878000c0037002e10900000004000ef
:1047f80000004700608890000000e9008000780011
:104808002e1090000000400000004700000bb00090
:104818000108780000000000160837001dc9bf0015
:104828000000fb006101b900d0fb2f00f1ff2f0051
:104838000200400083804800f200200003002000ae
:10484800820f5000838f5800d9003e00006001009d
:10485800cb003700940037009c003700d4003700a5
:10486800d3003700d2003700d1003700d00037001e
:10487800cf003700ce003700cd00370004003700e6
:10488800cb0037004b003700c9003700aa003700bb
:104898002e10900000004000000047008098900013
:1048a8002e109000000040000000470020a090005b
:1048b800808f5000160031002e109000000040003c
:1048c80000004700809890002e10900000004000e3
:1048d80000004700608890000000e900808f5000c9
:1048e8000b0039002e109000000040000000470027
:1048f800009890008000e8002e1090000000400012
:1049080000004700000bb0000108780014003700d1
:104918002e10900000004000000047008098900092
:104928002e109000000040000000470020a09000da
:10493800808f50000a003a002e10900000004000be
:104948000000470060889000800078002e109000da
:104958000000400000004700000bb000010878008c
:104968002e10900000004000000047008098900042
:104978002e109000000040000000470000b8900092
:10498800808f50000a003a002e109000000040006e
:1049980000004700009890008000e8002e1090006a
:1049a8000000400000004700000bb000010878003c
:1049b8007f0037002e1090000000400000004700e4
:1049c800809890002e1090000000400000004700e2
:1049d80060889000808f50000a003e002e109000e2
:1049e8000000400000004700a0a090002e1090009a
:1049f8000000400000004700000bb00001087800ec
:104a0800140037002e1090000000400000004700fe
:104a1800809890002e109000000040000000470091
:104a280060889000808f50000a0036002e10900099
:104a38000000400000004700009890008000e90056
:104a48002e1090000000400000004700000bb0004e
:104a5800010878002e109000000040000000470078
:104a6800809890002e109000000040000000470041
:104a780000b89000808f50000a003a002e10900075
:104a88000000400000004700009890008000e90006
:104a98002e1090000000400000004700000bb000fe
:104aa8000108780042003700409120006b0d070094
:104ab800800078002e1090000000400000004700a1
:104ac800000bb00001087800390037002e10900064
:104ad8000000400000004700809890002e109000d1
:104ae8000000400000004700c00db0000108780039
:104af80040912000590d0700800078002e1090008a
:104b08000000400000004700000bb00001087800da
:104b18002e10900000004000000047008098900090
:104b28002e1090000000400000004700000fb00069
:104b3800010878001e0037002e1090000000400089
:104b480000004700809890002e1090000000400060
:104b580000004700c00db000010878004091200017
:104b68003e0d0700800078002e10900000004000e5
:104b780000004700000bb000010878000c00370067
:104b88002e10900000004000000047006088900050
:104b98000000e900800078002e109000000040001e
:104ba80000004700000bb00001087800000000007a
:104bb800300737001dc9bf000000fb006101b900c4
:104bc800d0fb2f00f1ff2f00020040008380480037
:104bd800f200200003002000820f5000838f58004d
:104be800d9003e0000600100cb0037009400370078
:104bf8009c003700d4003700d3003700d2003700bc
:104c0800d1003700d0003700cf003700ce00370082
:104c1800cd00370004003700cb0037004b003700c9
:104c2800c9003700aa0037002e109000000040008d
:104c380000004700809890002e109000000040006f
:104c48000000470020a09000808f5000160031001f
:104c58002e1090000000400000004700809890004f
:104c68002e1090000000400000004700608890006f
:104c78000000e900808f50000b0039002e109000d2
:104c88000000400000004700009890008000e80005
:104c98002e1090000000400000004700000bb000fc
:104ca80001087800140037002e1090000000400022
:104cb80000004700809890002e10900000004000ef
:104cc8000000470020a09000808f50000a003a00a2
:104cd8002e109000000040000000470060889000ff
:104ce800800078002e10900000004000000047006f
:104cf800000bb000010878002e1090000000400062
:104d080000004700809890002e109000000040009e
:104d18000000470000b89000808f50000a003a0059
:104d28002e109000000040000000470000989000fe
:104d38008000e8002e1090000000400000004700ae
:104d4800000bb000010878007f0037002e1090009b
:104d58000000400000004700809890002e1090004e
:104d6800000040000000470060889000808f5000dd
:104d78000a003e002e10900000004000000047008e
:104d8800a0a090002e1090000000400000004700f6
:104d9800000bb00001087800140037002e109000b6
:104da8000000400000004700809890002e109000fe
:104db800000040000000470060889000808f50008d
:104dc8000a0036002e109000000040000000470046
:104dd800009890008000e9002e109000000040002c
:104de80000004700000bb000010878002e1090006a
:104df8000000400000004700809890002e109000ae
:104e0800000040000000470000b89000808f50006c
:104e18000a003a002e1090000000400000004700f1
:104e2800009890008000e9002e10900000004000db
:104e380000004700000bb00001087800420037006e
:104e480040912000850c0700800078002e1090000b
:104e58000000400000004700000bb0000108780087
:104e6800390037002e109000000040000000470075
:104e7800809890002e10900000004000000047002d
:104e8800c00db0000108780040912000730c0700a5
:104e9800800078002e1090000000400000004700bd
:104ea800000bb000010878002e10900000004000b0
:104eb80000004700809890002e10900000004000ed
:104ec80000004700000fb000010878001e003700fe
:104ed8002e109000000040000000470080989000cd
:104ee8002e1090000000400000004700c00db000e8
:104ef8000108780040912000580c070080007800d5
:104f08002e1090000000400000004700000bb00089
:104f1800010878000c0037002e10900000004000b7
:104f280000004700608890000000e90080007800d9
:104f38002e1090000000400000004700000bb00059
:104f480001087800000000004a0637001dc9bf00ac
:104f58000000fb006101b900d0fb2f00f1ff2f001a
:104f68000200400083804800f20020000300200077
:104f7800820f5000838f5800d9003e000060010066
:104f8800cb003700940037009c003700d40037006e
:104f9800d3003700d2003700d1003700d0003700e7
:104fa800cf003700ce003700cd00370004003700af
:104fb800cb0037004b003700c9003700aa00370084
:104fc8002e109000000040000000470080989000dc
:104fd8002e109000000040000000470020a0900024
:104fe800808f5000160031002e1090000000400005
:104ff80000004700809890002e10900000004000ac
:1050080000004700608890000000e900808f500091
:105018000b0039002e1090000000400000004700ef
:10502800009890008000e8002e10900000004000da
:1050380000004700000bb00001087800140037009a
:105048002e1090000000400000004700809890005b
:105058002e109000000040000000470020a09000a3
:10506800808f50000a003a002e1090000000400087
:105078000000470060889000800078002e109000a3
:105088000000400000004700000bb0000108780055
:105098002e1090000000400000004700809890000b
:1050a8002e109000000040000000470000b890005b
:1050b800808f50000a003a002e1090000000400037
:1050c80000004700009890008000e8002e10900033
:1050d8000000400000004700000bb0000108780005
:1050e8007f0037002e1090000000400000004700ad
:1050f800809890002e1090000000400000004700ab
:1051080060889000808f50000a003e002e109000aa
:105118000000400000004700a0a090002e10900062
:105128000000400000004700000bb00001087800b4
:10513800140037002e1090000000400000004700c7
:10514800809890002e10900000004000000047005a
:1051580060889000808f50000a0036002e10900062
:105168000000400000004700009890008000e9001f
:105178002e1090000000400000004700000bb00017
:10518800010878002e109000000040000000470041
:10519800809890002e10900000004000000047000a
:1051a80000b89000808f50000a003a002e1090003e
:1051b8000000400000004700009890008000e900cf
:1051c8002e1090000000400000004700000bb000c7
:1051d8000108780042003700409120009f0b07002b
:1051e800800078002e10900000004000000047006a
:1051f800000bb00001087800390037002e1090002d
:105208000000400000004700809890002e10900099
:105218000000400000004700c00db0000108780001
:10522800409120008d0b0700800078002e10900020
:105238000000400000004700000bb00001087800a3
:105248002e10900000004000000047008098900059
:105258002e1090000000400000004700000fb00032
:10526800010878001e0037002e1090000000400052
:1052780000004700809890002e1090000000400029
:1052880000004700c00db0000108780040912000e0
:10529800720b0700800078002e109000000040007c
:1052a80000004700000bb000010878000c00370030
:1052b8002e10900000004000000047006088900019
:1052c8000000e900800078002e10900000004000e7
:1052d80000004700000bb000010878000000000043
:1052e800640537001dc9bf000000fb006101b9005b
:1052f800d0fb2f00f1ff2f00020040008380480000
:10530800f200200003002000820f5000838f580015
:10531800d9003e0000600100cb0037009400370040
:105328009c003700d4003700d3003700d200370084
:10533800d1003700d0003700cf003700ce0037004b
:10534800cd00370004003700cb0037004b00370092
:10535800c9003700aa0037002e1090000000400056
:1053680000004700809890002e1090000000400038
:105378000000470020a09000808f500016003100e8
:105388002e10900000004000000047008098900018
:105398002e10900000004000000047006088900038
:1053a8000000e900808f50000b0039002e1090009b
:1053b8000000400000004700009890008000e800ce
:1053c8002e1090000000400000004700000bb000c5
:1053d80001087800140037002e10900000004000eb
:1053e80000004700809890002e10900000004000b8
:1053f8000000470020a09000808f50000a003a006b
:105408002e109000000040000000470060889000c7
:10541800800078002e109000000040000000470037
:10542800000bb000010878002e109000000040002a
:1054380000004700809890002e1090000000400067
:105448000000470000b89000808f50000a003a0022
:105458002e109000000040000000470000989000c7
:105468008000e8002e109000000040000000470077
:10547800000bb000010878007f0037002e10900064
:105488000000400000004700809890002e10900017
:10549800000040000000470060889000808f5000a6
:1054a8000a003e002e109000000040000000470057
:1054b800a0a090002e1090000000400000004700bf
:1054c800000bb00001087800140037002e1090007f
:1054d8000000400000004700809890002e109000c7
:1054e800000040000000470060889000808f500056
:1054f8000a0036002e10900000004000000047000f
:10550800009890008000e9002e10900000004000f4
:1055180000004700000bb000010878002e10900032
:105528000000400000004700809890002e10900076
:10553800000040000000470000b89000808f500035
:105548000a003a002e1090000000400000004700ba
:10555800009890008000e9002e10900000004000a4
:1055680000004700000bb000010878004200370037
:1055780040912000b90a0700800078002e109000a2
:105588000000400000004700000bb0000108780050
:10559800390037002e10900000004000000047003e
:1055a800809890002e1090000000400000004700f6
:1055b800c00db0000108780040912000a70a07003c
:1055c800800078002e109000000040000000470086
:1055d800000bb000010878002e1090000000400079
:1055e80000004700809890002e10900000004000b6
:1055f80000004700000fb000010878001e003700c7
:105608002e10900000004000000047008098900095
:105618002e1090000000400000004700c00db000b0
:1056280001087800409120008c0a0700800078006b
:105638002e1090000000400000004700000bb00052
:10564800010878000c0037002e1090000000400080
:1056580000004700608890000000e90080007800a2
:105668002e1090000000400000004700000bb00022
:1056780001087800000000007e0437001dc9bf0043
:105688000000fb006101b900d0fb2f00f1ff2f00e3
:105698000200400083804800f20020000300200040
:1056a800820f5000838f5800d9003e00006001002f
:1056b800cb003700940037009c003700d400370037
:1056c800d3003700d2003700d1003700d0003700b0
:1056d800cf003700ce003700cd0037000400370078
:1056e800cb0037004b003700c9003700aa0037004d
:1056f8002e109000000040000000470080989000a5
:105708002e109000000040000000470020a09000ec
:10571800808f5000160031002e10900000004000cd
:1057280000004700809890002e1090000000400074
:1057380000004700608890000000e900808f50005a
:105748000b0039002e1090000000400000004700b8
:10575800009890008000e8002e10900000004000a3
:1057680000004700000bb000010878001400370063
:105778002e10900000004000000047008098900024
:105788002e109000000040000000470020a090006c
:10579800808f50000a003a002e1090000000400050
:1057a8000000470060889000800078002e1090006c
:1057b8000000400000004700000bb000010878001e
:1057c8002e109000000040000000470080989000d4
:1057d8002e109000000040000000470000b8900024
:1057e800808f50000a003a002e1090000000400000
:1057f80000004700009890008000e8002e109000fc
:105808000000400000004700000bb00001087800cd
:105818007f0037002e109000000040000000470075
:10582800809890002e109000000040000000470073
:1058380060889000808f50000a003e002e10900073
:105848000000400000004700a0a090002e1090002b
:105858000000400000004700000bb000010878007d
:10586800140037002e109000000040000000470090
:10587800809890002e109000000040000000470023
:1058880060889000808f50000a0036002e1090002b
:105898000000400000004700009890008000e900e8
:1058a8002e1090000000400000004700000bb000e0
:1058b800010878002e10900000004000000047000a
:1058c800809890002e1090000000400000004700d3
:1058d80000b89000808f50000a003a002e10900007
:1058e8000000400000004700009890008000e90098
:1058f8002e1090000000400000004700000bb00090
:10590800010878004200370040912000d3090700c1
:10591800800078002e109000000040000000470032
:10592800000bb00001087800390037002e109000f5
:105938000000400000004700809890002e10900062
:105948000000400000004700c00db00001087800ca
:1059580040912000c1090700800078002e109000b7
:105968000000400000004700000bb000010878006c
:105978002e10900000004000000047008098900022
:105988002e1090000000400000004700000fb000fb
:10599800010878001e0037002e109000000040001b
:1059a80000004700809890002e10900000004000f2
:1059b80000004700c00db0000108780040912000a9
:1059c800a6090700800078002e1090000000400013
:1059d80000004700000bb000010878000c003700f9
:1059e8002e109000000040000000470060889000e2
:1059f8000000e900800078002e10900000004000b0
:105a080000004700000bb00001087800000000000b
:105a1800980337001dc9bf000000fb006101b900f1
:105a2800d0fb2f00f1ff2f000200400083804800c8
:105a3800f200200003002000820f5000838f5800de
:105a4800d9003e0000600100cb0037009400370009
:105a58009c003700d4003700d3003700d20037004d
:105a6800d1003700d0003700cf003700ce00370014
:105a7800cd00370004003700cb0037004b0037005b
:105a8800c9003700aa0037002e109000000040001f
:105a980000004700809890002e1090000000400001
:105aa8000000470020a09000808f500016003100b1
