:020000040000fa
:080000000002040000000000f2
:020000040000fa
:1000080090020000900200009002000090020000a0
:100018009002000090020000900200009002000090
:10002800900200009002000090020000bc42000014
:100038009002000090020000900200009002000070
:10004800900200009002000090020000003d0000b5
:10005800763e00009002000090020000900200002e
:100068009002000090020000900200009002000040
:100078009002000090020000900200009002000030
:100088009002000090020000900200009002000020
:100098009002000090020000900200009002000010
:1000a8009002000090020000900200009002000000
:1000b80090020000900200009002000090020000f0
:1000c80090020000900200009002000090020000e0
:1000d80090020000900200009002000090020000d0
:1000e80090020000900200009002000090020000c0
:1000f80090020000900200009002000090020000b0
:10010800900200009002000090020000900200009f
:10011800900200009002000090020000900200008f
:10012800900200009002000090020000900200007f
:10013800900200009002000090020000900200006f
:10014800900200009002000090020000900200005f
:10015800900200009002000090020000900200004f
:10016800900200009002000090020000900200003f
:10017800900200009002000090020000900200002f
:10018800900200009002000090020000900200001f
:10019800900200009002000090020000900200000f
:1001a80090020000900200009002000090020000ff
:1001b80090020000900200009002000090020000ef
:1001c80090020000900200009002000090020000df
:1001d80090020000900200009002000090020000cf
:1001e80090020000900200009002000090020000bf
:0801f8009002000090020000db
:020000040000fa
:10020800900200009002000090020000900200009e
:10021800900200009002000090020000900200008e
:10022800900200009002000090020000bc42000012
:10023800900200009002000090020000900200006e
:10024800900200009002000090020000003d0000b3
:10025800763e00009002000090020000900200002c
:10026800900200009002000090020000900200003e
:10027800900200009002000090020000900200002e
:10028800900200009002000090020000900200001e
:10029800900200009002000090020000900200000e
:1002a80090020000900200009002000090020000fe
:1002b80090020000900200009002000090020000ee
:1002c80090020000900200009002000090020000de
:1002d80090020000900200009002000090020000ce
:1002e80090020000900200009002000090020000be
:1002f80090020000900200009002000090020000ae
:10030800900200009002000090020000900200009d
:10031800900200009002000090020000900200008d
:10032800900200009002000090020000900200007d
:10033800900200009002000090020000900200006d
:10034800900200009002000090020000900200005d
:10035800900200009002000090020000900200004d
:10036800900200009002000090020000900200003d
:10037800900200009002000090020000900200002d
:10038800900200009002000090020000900200001d
:10039800900200009002000090020000900200000d
:1003a80090020000900200009002000090020000fd
:1003b80090020000900200009002000090020000ed
:1003c80090020000900200009002000090020000dd
:1003d80090020000900200009002000090020000cd
:1003e80090020000900200009002000090020000bd
:0803f8009002000090020000d9
:020000040000fa
:100400002fb820000e7f22000e018800000000009f
:100410000c000700601624000100200011000700f6
:10042000000020000000e000020032000000020096
:100430000000000050090200000000000040da0047
:100440000000fe004440a900e06520000000e0003c
:100450000300320000002000a00188004440a800f2
:100460000000060091018800800078000000eb0089
:1004700015003700e280400032a0b4009101ba00bc
:10048000e280400032a0b4009102ba00e280400055
:1004900032a0b4000002eb00472bde00f507b200eb
:1004a000602ce10004003a000059eb008301e900f0
:1004b000fdff3e00040037006128e100010032002a
:1004c0000082eb00040007001101ba000200e00006
:1004d000e8ff3a00000006003159ba008301e90044
:1004e0000c0032002159ba008301e90008003200f3
:1004f0000400e00003003a00e280400032a0b400b3
:10050000f5ff370011d9ba008301e900faff3a007c
:100510008100e800e180400032a0b4000000060045
:100520000040da000000fe00800178000200370081
:10053000b1597800040178000202e900e00f51008f
:10054000fbff3a000000060010417800814f510087
:1005500005003200e04f5100020032000000e800c8
:10056000f9ff37000000eb00000006008001780072
:100570003141780082597800e04f5100fcff3a0089
:1005800000000600800078000041eb00b14f110030
:10059000fdff3a000080ea000080400000000600f5
:1005a00080017800060037000201e900114278005e
:1005b00084597800e04f5200060032008100e800c4
:1005c000e00f5100f8ff3a00020037008059eb00bd
:1005d000010178008200e900e00f5100fbff3a00c2
:0405e0000000060011
:020000040000fa
:1005e400ff000000e7000000c300000099000000c5
:1005f4009900000099000000990000009900000093
:100604009900000099000000990000009900000082
:1006140099000000c3000000e7000000ff00000094
:10062400ff000000e7000000e3000000e10000001c
:10063400e7000000e7000000e7000000e70000001a
:10064400e7000000e7000000e7000000e70000000a
:10065400e70000008100000081000000ff000000ae
:10066400ff000000c3000000810000009d000000a6
:100674009f0000009f0000009f000000cf000000ca
:10068400e7000000f3000000f9000000f90000009a
:10069400f90000008100000081000000ff0000005c
:1006a400ff000000c3000000810000009f00000064
:1006b4009f0000009f0000009f000000c300000096
:1006c400c30000009f0000009f0000009f00000086
:1006d4009f00000081000000c3000000ff00000034
:1006e400ff000000cf000000c7000000c3000000ae
:1006f400c9000000c9000000c9000000c9000000d2
:100704008100000081000000cf000000cf00000045
:10071400cf000000cf000000cf000000ff00000069
:10072400ff0000008100000081000000f9000000cb
:10073400f9000000f9000000f9000000c100000009
:10074400810000009f0000009f0000009f00000047
:100754009d00000081000000c3000000ff000000b5
:10076400ff0000008300000081000000b9000000c9
:10077400f9000000f9000000f9000000f900000091
:10078400c1000000810000009900000099000000f1
:100794009900000081000000c3000000ff00000079
:1007a400ff00000081000000810000009f000000a5
:1007b4009f0000009f0000009f0000009f000000b9
:1007c400cf000000e7000000e7000000e7000000a1
:1007d400e7000000e7000000e7000000ff00000061
:1007e400ff000000c3000000810000009900000029
:1007f400990000009900000099000000c300000067
:10080400c300000099000000990000009900000056
:100814009900000081000000c3000000ff000000f8
:10082400ff000000c30000008100000099000000e8
:10083400990000009900000081000000830000007e
:100844009f0000009f0000009f0000009f00000028
:100854009d00000081000000c3000000ff000000b4
:10086400ff000000e7000000db000000990000002a
:100874009900000099000000990000009900000010
:100884008100000099000000990000009900000018
:10089400990000009900000099000000ff0000008a
:1008a400ff000000e1000000c1000000990000000a
:1008b400990000009900000099000000c1000000a8
:1008c400c100000099000000990000009900000098
:1008d40099000000c1000000e1000000ff000000da
:1008e400ff000000c300000081000000f9000000c8
:1008f400f9000000f9000000f9000000f900000010
:10090400f9000000f9000000f9000000f9000000ff
:10091400f900000081000000c3000000ff00000097
:10092400ff000000e1000000c10000009900000089
:10093400990000009900000099000000990000004f
:10094400990000009900000099000000990000003f
:1009540099000000c1000000e1000000ff00000059
:10096400ff0000008300000081000000f900000087
:10097400f9000000f9000000f9000000c1000000c7
:10098400c1000000f9000000f9000000f9000000b7
:10099400f90000008100000083000000ff00000057
:1009a400ff0000008300000081000000f900000047
:1009b400f9000000f9000000f9000000c100000087
:1009c400c1000000f9000000f9000000f900000077
:1009d400f9000000f9000000f9000000ff00000029
:1009e400ff0000008300000081000000f900000007
:1009f400f9000000f9000000f9000000f90000000f
:100a0400f9000000f900000009000000990000004e
:100a1400990000008100000083000000ff00000036
:100a2400ff000000990000009900000099000000f8
:100a34009900000099000000990000008100000066
:100a4400990000009900000099000000990000003e
:100a5400990000009900000099000000ff000000c8
:100a6400ff0000008100000081000000e70000009a
:100a7400e7000000e7000000e7000000e7000000d6
:100a8400e7000000e7000000e7000000e7000000c6
:100a9400e70000008100000081000000ff0000006a
:100aa400ff0000009f0000009f0000009f00000066
:100ab4009f0000009f0000009f0000009f000000b6
:100ac4009f0000009f0000009900000099000000b2
:100ad400990000008100000081000000ff00000078
:100ae400ff000000fc000000bc0000009c000000af
:100af400cc000000e4000000f0000000f80000005a
:100b0400f8000000f0000000e4000000cc00000049
:100b14009c000000bc000000fc000000ff0000007e
:100b2400ff000000f9000000f9000000f9000000d7
:100b3400f9000000f9000000f9000000f9000000cd
:100b4400f9000000f9000000f9000000b9000000fd
:100b5400b90000008100000081000000ff000000d7
:100b6400ff000000990000002400000024000000a1
:100b740024000000240000002400000024000000e1
:100b84003c0000003c0000003c0000003c00000071
:100b94003c0000003c0000003c000000ff0000009e
:100ba400ff000000b9000000b9000000b900000017
:100bb400b9000000b1000000b1000000a500000071
:100bc400a5000000ad0000008d0000008d000000b5
:100bd4009d0000009d0000009d000000ff0000003b
:100be400ff00000081000000810000009900000067
:100bf400990000009900000099000000990000008d
:100c0400990000009900000099000000990000007c
:100c1400990000008100000081000000ff00000036
:100c2400ff00000083000000810000009900000024
:100c3400990000009900000081000000810000007c
:100c4400f9000000f9000000f9000000f9000000bc
:100c5400f9000000f9000000f9000000ff000000a6
:100c6400ff000000c30000008100000099000000a4
:100c7400990000009900000099000000990000000c
:100c8400990000009900000089000000c1000000e4
:100c940093000000bf000000ff000000ff00000000
:100ca400ff000000c3000000810000009900000064
:100cb4009900000099000000c9000000e100000054
:100cc400f1000000c100000089000000990000004c
:100cd400990000009900000099000000ff00000046
:100ce400ff0000008300000081000000b900000044
:100cf400f9000000f9000000f9000000c100000044
:100d0400830000009f0000009f0000009d00000081
:100d14009d00000081000000c1000000ff000000f1
:100d2400ff0000008100000081000000e7000000d7
:100d3400e7000000e7000000e7000000e700000013
:100d4400e7000000e7000000e7000000e700000003
:100d5400e7000000e7000000e7000000ff000000db
:100d6400ff000000990000009900000099000000b5
:100d7400990000009900000099000000990000000b
:100d840099000000990000009900000099000000fb
:100d94009900000081000000c3000000ff00000073
:100da400ff00000099000000990000009900000075
:100db40099000000990000009900000099000000cb
:100dc40099000000990000009900000099000000bb
:100dd400db000000e7000000e7000000ff00000067
:100de400ff0000003c0000003c0000003c0000004c
:100df4003c0000003c0000003c0000003c000000ff
:100e04003c00000024000000240000002400000036
:100e1400240000000000000099000000ff00000012
:100e2400ff000000990000009900000099000000f4
:100e34009900000099000000db000000e3000000be
:100e4400e7000000cb0000009900000099000000ba
:100e5400990000009900000099000000ff000000c4
:100e6400ff000000990000009900000099000000b4
:100e74009900000099000000990000008100000022
:100e8400c3000000e7000000e7000000e7000000e6
:100e9400e7000000e7000000e7000000ff0000009a
:100ea400ff00000081000000810000009f0000009e
:100eb4009f000000cf000000e7000000f3000000e6
:100ec400f9000000f9000000f9000000f90000003a
:100ed4008100000081000000ff000000ff0000000e
:100ee400ff000000ff000000ff000000ff00000002
:100ef400ff000000ff000000ff000000ff000000f2
:100f0400ff000000ff000000ff000000ff000000e1
:100f1400ff000000ff000000ff000000ff000000d1
:100f2400ff000000ff000000ff000000ff000000c1
:100f3400ff000000ef000000cf000000810000006f
:100f440081000000cf000000ef000000ff0000005f
:100f5400ff000000ff000000ff000000ff00000091
:100f6400000000000000000000000000000000007d
:100f7400000000000000000000000000000000006d
:100f8400000000000000000000000000000000005d
:100f9400000000000000000000000000000000004d
:100fa400fe000000ff000000ff000000ff00000042
:100fb400ff000000ff000000ff000000ff00000031
:100fc400ff000000ff000000ff000000ff00000021
:100fd400ff000000ff000000ff000000ff00000011
:100fe400576500006c6300006f6d00006500000031
:100ff400544500005354000020200000200000004d
:1010040050520000474d0000202000002000000046
:101014004e520000474d0000202000002000000038
:101024004e57000054200000202000002000000043
:101034004e57000046200000202000002000000041
:101044004d530000545200002020000020000000f6
:10105400534c0000415600002020000020000000f6
:10106400535400004441000020200000004d0000c3
:10107400554c0000542000002020000000530000c4
:10108400494e0000472000002020000000440000da
:1010940049470000332000002020000000440000e5
:1010a40049470000322000002020000000420000d8
:1010b400454c0000542000002020000000420000a5
:1010c400454c000046200000202000000050000095
:1010d400524d000053200000202000000053000067
:1010e4005444000041200000202000000053000070
:1010f400415600004520000020200000004300006d
:10110400414e00005320000020200000004f00004a
:101114005554000020000000534c000041560000cc
:101124000053000054440000410000004d550000ed
:101134004c54000000530000494e000047000000da
:10114400494400003a2000000044000049470000e0
:101154003300000044490000473200000042000010
:101164004f4e000020000000424f000046460000a1
:10117400004f0000555400002020000020200000f3
:10118400004d00004153000054450000522000006f
:10119400004d0000554c000054490000504c000024
:1011a40000530000494e0000474c00004520000059
:1011b400002000002020000020200000202000004b
:1011c40000420000454c00004c2000004f4e00003f
:1011d40000420000454c0000204f0000464600003d
:1011e400005300006c61000076650000204d000093
:1011f4006f640000650d00000a00000053540000f5
:10120400414e0000444100004c4f00004e45000098
:101214000a0000004552000052200000004d00006a
:1012240061730000746500007200000058580000eb
:10123400585800002e580000580000004445000093
:1012440046410000554c0000540000004c49000089
:10125400535400005345000054000000534500005f
:10126400524c000049530000540000004c4f000051
:1012740041440000454400002000000053450000a4
:101284005220000053410000560000002045000099
:0c129400525200004f52000020000000e9
:020000040000fa
:1012a0001a01fa00889fbe00300f9900410f990083
:1012b0000000eb00000f78000000eb002007980012
:1012c0000000eb0060079800301e0700113a800014
:1012d000f08f2f00808060000030200000807000c0
:1012e000103a880000000000113a8000000220003f
:1012f00000806000e00f5000fbff3200c002a90038
:10130000c9c2a90070002000801688000080eb0090
:1013100060198800e31d070010c4b300604f9800f7
:101320000000eb00000f780010003700201680004e
:10133000004078006140600000c0ea006140600049
:101340000080fb006100600022168000e1ff2f009a
:10135000810061000080700020168800006829006c
:1013600081092000191e07001e0fe8001e007800ea
:10137000e40f5000edff3600f91d0700c402a9007c
:10138000c882a900c71d0700631c07005019070089
:10139000971d07003016070000902000d1032000a1
:1013a0000a1e0700571d07005a1a07000090200068
:1013b000d1032000051e070082002000217f2800a5
:1013c00020a2200058fc070020a220007f1907005f
:1013d00082002000a17f280020a2200052fc0700ec
:1013e00020a220001f17070000a0250021262000b2
:1013f000f61d07006000b800741a070060679800c7
:101400006000b800711a070020df9900100020006a
:10141000010020006d1a070030df99002000200035
:1014200001002000691a070040df99003000200009
:1014300001002000651a070050df99006e609000df
:10144000e14f400035003a00100020006052880053
:101450001000200000498800100020007052880011
:101460000000eb003007980042c0b300be009000bf
:10147000c0902000f01a070000c3b3000ee9b700c7
:1014800000c3b3000fe9b700100020004007980028
:101490001000200050079800605280000001780082
:1014a0006000b800971a070000498000000178002a
:1014b0001000200001002000921a070070528000e6
:1014c0000001780020002000010020008d1a070094
:1014d0000ec9bf000041780030002000010020004c
:1014e000131a07000fc9bf00004178004000200018
:1014f000010020000e1a07004e019000500020004d
:10150000010020007f1a07005e019000700020009b
:10151000010020007b1a07000b0037003ed8910025
:10152000ed1a07000049880000498000e00f5000d4
:101530000300320010c0b3001ee9b70002003700fc
:101540000040eb001ee9b7000000eb00000f780040
:1015500000498000e00f50001b0032000b003700f4
:101560000040eb00ac17070000802400811e200023
:10157000961d070010c0b300a717070000802400c5
:10158000811e2000911d07001e0fe8001e0078003c
:10159000e20f5000f2ff36000e0037000040eb0073
:1015a0006517070000802400811e2000871d0700aa
:1015b00010c0b3006017070000802400811e2000c7
:1015c000821d07001e0fe8001e007800e20f500089
:1015d000f2ff36000000eb00000f78006000b8005a
:1015e000200f9800310f980090168000004078007e
:1015f000614060000080fb0061006000e00f50006f
:101600000d003a0010c0b3001ee9b7001000200022
:101610006007980010002000400f98008200200012
:101620002180280020a22000bffb070020a220006c
:101630008c1607000a00370082002000a1802800d5
:1016400020a22000b8fb070020a22000851607007a
:101650000000eb00600798000000eb00400f9800ce
:1016600000402b00414c2000581d07007000200056
:10167000500f98000000eb0010079800af023700f1
:1016800080508000e00f5000ac0232001e0090003d
:10169000401798000c1d0700100798004e1090008e
:1016a000e00f5000a3023a001e009000e00f50002f
:1016b000a00232001e009000e20f5000dc00320059
:1016c000e40f5000cd013200e10f500099023a00c2
:1016d0005e0890000000e800500f98005e0890003f
:1016e000e70f5000020036000000eb00500f98009a
:1016f00000498000e00f5000090032007052800065
:10170000e00f5000060032005e089000e40f500029
:1017100003003a005e0890000000e800500f9800b7
:1017200000498000e00f5000060032005e08900083
:10173000e50f500003003a005e0890000000e8004a
:10174000500f980060528000e00f500006003a00f1
:101750005e089000e50f500003003a005e0890001c
:101760000000e800500f980060528000e00f500029
:1017700008003a005e089000e20f500005003a00b1
:101780005e0890000000e800500f98000000eb0099
:10179000705288005e089000010020007200200056
:1017a00003002000820f5000838f58005c023e002f
:1017b00000600100070037001700370034003700d1
:1017c000440037005c0037006c0037007f003700b2
:1017d0008f00370060528000e00f50000700320099
:1017e000820020002181280020a220004efb07005b
:1017f00020a220001b1607000600370082002000f0
:10180000a181280020a2200047fb070020a2200081
:10181000141607008500370000498000e00f5000d3
:1018200007003200820020002182280020a2200030
:101830003dfb070020a220000a1607001300370016
:1018400060528000e00f50000a0032000049800022
:10185000e00f500007003a0082002000a18228001b
:1018600020a2200030fb070020a22000fd15070069
:1018700006003700720020002183280020a22000eb
:1018800029fb070020a22000f6150700670037009b
:1018900070528000e00f50000700320082002000ec
:1018a0009183280020a220001ffb070020a2200017
:1018b000ec15070006003700820020001184280084
:1018c00020a2200018fb070020a22000e515070039
:1018d0005600370000498000e00f5000020032003f
:1018e0000000eb003007980042c0b300be0090003b
:1018f00020902000d019070090c4b30002e9b7007f
:1019000040c4b30003e9b7002190200020a22000ca
:1019100016fb070000c2b30026eab70000c2b300fe
:1019200027eab70000c2b30028eab70020a22000cf
:10193000cc1507003d0037004e009000e00f50002e
:1019400007003200820020009184280020a220009d
:10195000f5fa070020a22000c21507000600370094
:10196000820020001185280020a22000eefa070046
:1019700020a22000bb1507002c00370030c5b300a3
:1019800002e9b70050c5b30003e9b70060c4b30073
:1019900004e9b7006e48900005e9b70021902000e7
:1019a00020a22000f1fa070000c2b30026eab70027
:1019b00000c2b30027eab70000c2b30028eab700ac
:1019c00020a22000a7150700180037005e00900035
:1019d000e00f5000070032008200200091852800af
:1019e00020a22000d0fa070020a220009d150700a9
:1019f00006003700820020001186280020a2200067
:101a0000c9fa070020a2200096150700070037003a
:101a1000820020009186280020a22000c2fa070040
:101a200020a220008f15070000000000c101370030
:101a30005e089000010020007200200003002000da
:101a4000820f5000838f5800b7013e0000600100f4
:101a5000070037000f003700230037002b00370046
:101a600060003700680037009d003700a500370090
:101a7000820020002181280020a22000aafa07006d
:101a800020a2200077150700100020006052880077
:101a9000d900370060528000e00f5000090032008a
:101aa000820020002182280020a220009efa070048
:101ab00020a220006b1507001000200000498800bc
:101ac00008003700820020001187280020a2200093
:101ad00095fa070020a22000621507000000eb0025
:101ae00000498800c400370082002000918328004c
:101af00020a220008cfa070020a220005915070020
:101b00001000200070528800bb00370000498000a0
:101b1000e00f5000160032000000eb003007980084
:101b200042c0b300be009000209020004219070080
:101b300090c4b30002e9b70040c4b30003e9b700a2
:101b40002190200020a2200088fa070000c2b300e4
:101b500026eab70000c2b30027eab70000c2b3000c
:101b600028eab70020a220003e1507001c0037001d
:101b70003e0090000000e80030079800be00900092
:101b800000022000808f500002003600100020006c
:101b90003007980042c0b300be00900020902000a3
:101ba0002519070090c4b30002e9b70040c4b30090
:101bb00003e9b7002190200020a220006bfa070063
:101bc00000c2b30026eab70000c2b30027eab7009c
:101bd00000c2b30028eab70020a2200021150700a8
:101be00085003700820020001185280020a22000f7
:101bf0004dfa070020a220001a1507000000eb0094
:101c0000400798007c00370070528000e00f5000c1
:101c10001d0032006e4890000040e800604f9800c0
:101c2000ee489000a0c5b30080cf50000200340001
:101c300010c4b300604f980030c5b30002e9b7008c
:101c400050c5b30003e9b70060c4b30004e9b700ae
:101c50006e48900005e9b7002190200020a22000e6
:101c600042fa070000c2b30026eab70000c2b30080
:101c700027eab70000c2b30028eab70020a220007c
:101c8000f81407001500370000c3b300604f980038
:101c900030c5b30002e9b70050c5b30003e9b7008f
:101ca00060c4b30004e9b7006e48900005e9b700ce
:101cb0002190200020a220002cfa070000c2b300cf
:101cc00026eab70000c2b30027eab70000c2b3009b
:101cd00028eab70020a22000e214070046003700df
:101ce000820020009185280020a220000efa070023
:101cf00020a22000db1407001000200050079800ed
:101d00003d003700820020009187280020a220009b
:101d100005fa070020a22000d214070000a0250029
:101d200021262000a91b070000a025002126200055
:101d3000a61b070060528000e00f500002003a002e
:101d4000f0c0b300604f980042c0b300be009000e6
:101d5000c0902000b8180700605280000001780091
:101d60006000b80067180700004980000001780093
:101d7000100020000100200062180700705280004f
:101d80000001780020002000010020005d180700fd
:101d90000ec9bf0000417800300020000100200083
:101da000e31707000fc9bf00004178004000200082
:101db00001002000de1707004e01900050002000b7
:101dc000010020004f1807006e4890000041780085
:101dd0006000200001002000d51707005e01900080
:101de0007000200001002000461807000000eb00f2
:101df0006007980000000000ce0037005e089000e9
:101e0000010020007200200003002000820f50001b
:101e1000838f5800c6003e000060010007003700b5
:101e20000f00370021003700350037006a00370007
:101e300072003700a7003700af0037008200200093
:101e4000a181280020a22000b7f9070020a22000cd
:101e5000841407000000eb0060528800af003700d8
:101e600060528000e00f5000070032008200200026
:101e7000a182280020a22000abf9070020a22000a8
:101e80007814070006003700720020002183280024
:101e900020a22000a4f9070020a22000711407004e
:101ea0000000eb00004988009c0037006052800071
:101eb000e00f500009003200820020001184280049
:101ec00020a2200098f9070020a220006514070036
:101ed0000000eb00705288000800370082002000ec
:101ee0009183280020a220008ff9070020a2200063
:101ef0005c14070010002000705288008700370033
:101f000000498000e00f5000160032000000eb0096
:101f10003007980042c0b300be009000209020001f
:101f20004518070090c4b30002e9b70040c4b300ed
:101f300003e9b7002190200020a220008bf90700c0
:101f400000c2b30027eab70000c2b30028eab70016
:101f500000c2b30029eab70020a220004114070004
:101f60001c0037003e009000e10f500003003a00d3
:101f70000002200030079800030037003e00900068
:101f80000000e9003007980042c0b300be00900096
:101f9000209020002818070090c4b30002e9b70081
:101fa00040c4b30003e9b7002190200020a2200024
:101fb0006ef9070000c2b30027eab70000c2b30001
:101fc00028eab70000c2b30029eab7002090200039
:101fd000241407005100370082002000918428005b
:101fe00020a2200050f9070020a220001d140700a5
:101ff0001000200040079800480037007052800011
:10200000e00f50001d0032006e4890000040e900d3
:10201000604f9800ee48900000c4b30080cf50009d
:1020200002003c00a0c5b300604f980030c5b3006b
:1020300002e9b70050c5b30003e9b70060c4b300bc
:1020400004e9b7006e48900005e9b7002190200030
:1020500020a2200045f9070000c2b30027eab7001c
:1020600000c2b30028eab70000c2b30029eab700f3
:1020700020a22000fb1307001500370000c3b300a7
:10208000604f980030c5b30002e9b70050c5b300f7
:1020900003e9b70060c4b30004e9b7006e489000dc
:1020a00005e9b7002190200020a220002ff90700a9
:1020b00000c2b30027eab70000c2b30028eab700a5
:1020c00000c2b30029eab70020a22000e5130700f0
:1020d00012003700820020001186280020a2200074
:1020e00011f9070020a22000de1307000000eb001a
:1020f000500798000900370082002000118828004e
:1021000020a2200008f9070020a22000d513070014
:102110000000eb0060079800000000000500370099
:10212000000000000300370000000000010037003d
:10213000000000000000eb00805088006e0090005e
:10214000e00f50004efd3a0000498000e00f5000c3
:10215000a5003a000040eb001ee9b7009088280077
:102160000c13070000a0250021262000971a070065
:10217000e0c4b30020df990050c4b30030df990001
:1021800040c5b30040df99006000b8000f1707009a
:1021900050df99005ed89100cf1707006052880089
:1021a00000498000e00f500006003a0060528000b5
:1021b000e00f500003003200e0882800f51207000d
:1021c0000200370030892800f212070000a0250025
:1021d000212620007d1a070060528000e00f500089
:1021e000280032002000200001002000f716070020
:1021f00050df99005ed89100b71707007052880031
:1022000070528000e00f50001700320080892800d3
:10221000e012070000a02500212620006b1a07000d
:1022200030c5b30020df990050c5b30030df9900fe
:1022300060c4b30040df990060002000010020006e
:10224000e216070050df9900600020000100200026
:10225000de160700604f9800a00d20000e00400021
:10226000cc1207000400370000c3b300604f980091
:10227000d0892800c712070000a0250021262000d1
:10228000521a070090c4b30020df990040c4b30085
:1022900030df99003000200001002000cb1607003d
:1022a00040df99003000200001002000c716070021
:1022b0000ee9b7004000200001002000c31607000f
:1022c00050df99004000200001002000bf160700e9
:1022d0000fe9b700a00d20000e004000ad1207006e
:1022e000208a2800b9150700a00d20000e0040002c
:1022f000b61507004ed8910077170700c400dd001f
:10230000f00f200000806000300798005ed8910038
:10231000711707006f006000be0090000080700021
:102320003007980000a0250021262000271a07006a
:1023300040c4b30020df990090c4b30030df99009f
:1023400070c4b30040df990050002000010020005d
:102350009e16070050df99005ed891005e170700b7
:10236000400798004e009000e00f5000030032003c
:10237000708a28008712070002003700c08a2800f0
:102380008412070000a02500212620000f1a070054
:1023900020c4b30020df990050c4b30030df99009f
:1023a000c0c4b30040df990070002000010020008d
:1023b0008616070050df99005ed891004617070087
:1023c000500798005e009000e00f500003003200bc
:1023d000108b28006f1207008d003700608b2800db
:1023e0006c1207008a00370010c0b3001ee9b70066
:1023f000b08b28001b13070000a025002126200019
:10240000f2190700e0c4b30020df990050c4b30004
:1024100030df990040c5b30040df99006000b8008c
:102420006a16070050df99005ed891002a1707004e
:1024300060528800d0c4b30020df990010c4b300fc
:1024400030df990030c5b30040df99001000200054
:10245000010020005d16070050df99005ed8910052
:102460001d17070000498800308c2800fd12070066
:1024700000a0250021262000d419070000a0250077
:1024800021262000d1190700200020000100200093
:102490004e16070050df99005ed891000e17070016
:1024a0007052880070528000e00f5000030032002c
:1024b000b08c2800eb12070002003700308d280096
:1024c000e812070000a0250021262000bf19070000
:1024d00000a0250021262000bc190700b08d28008f
:1024e000e012070090c4b30020df990040c4b3009d
:1024f00030df990030002000010020003316070073
:1025000040df990030002000010020002f16070056
:102510000ee9b70040002000010020002b16070044
:1025200050df99004000200001002000271607001e
:102530000fe9b700a00d20000e004000c9120700ef
:102540004ed89100e4160700c400dd00f00f200013
:1025500000806000300798005ed89100de1607000a
:102560006f006000be00900000807000300798008f
:1025700000a02500212620009419070000a02500b6
:10258000212620009119070040c4b30020df9900e4
:1025900090c4b30030df990070c4b30040df9900ed
:1025a00050002000010020000816070050df9900ad
:1025b0005ed89100c81607004007980020c4b300f9
:1025c00020df990050c4b30030df9900c0c4b300cd
:1025d00040df99007000200001002000fb1507007b
:1025e00050df99005ed89100bb1607005007980095
:1025f0005e009000e00f500003003200308e280093
:102600009812070002003700b08e280095120700cc
:1026100000a02500212620006c19070060528000d0
:10262000e00f5000cb00320000498000e00f500066
:10263000f4013a00308f2800e4140700e0882800f5
:10264000d411070000402b00414c20005f19070007
:102650000040eb001ee9b7004e089000e00f50006c
:1026600028003a008000200001002000d715070054
:1026700002e9b7009000200001002000d3150700f8
:1026800003e9b700a000200001002000cf150700db
:1026900004e9b700b000200001002000cb150700be
:1026a00005e9b70021902000914078006e48900025
:1026b00080cf50000f003a0020902000b511070095
:1026c0004e009000e00f5000050032004100200055
:1026d00020902000e016070020079800090037002e
:1026e0003100200020902000db1607002007980012
:1026f000040037000000eb002007980001003700bd
:10270000000000000040eb0012eab70005cabf005d
:10271000e04f5000faff32000000eb00000f78009d
:102720000b003700609820001e0040001040780029
:1027300031a120009e8040008048780060982000f1
:102740009e0040000040eb00804878001e0fe8002b
:102750001e007800ed0f5000f2ff36000040eb0045
:1027600005eab70030a12000000f98000000eb0040
:10277000000f78000e0890000000e800000f98009d
:102780000e0890000000e800000f980009003700d4
:102790000e08900010407800019120009e804000bb
:1027a000804878001e0fe8000e0890000000e80046
:1027b000000f98000e0890009040780000c2b3000f
:1027c00080cf5000f2ff3a000040eb0013e9b70061
:1027d0000000eb00000f78000e0890000000e800f9
:1027e000000f9800090037000e0890001040780094
:1027f000919120009e804000804878001e0fe800e4
:102800000e0890000000e800000f98000e089000ed
:102810009040780000c2b30080cf5000f2ff3a0031
:102820000040eb001ce9b7000000eb00000f78004f
:102830000e0890000000e800000f98000900370023
:102840000e08900010407800419120009e804000ca
:10285000804878001e0fe8000e0890000000e80095
:10286000000f98000e0890009040780000c2b3005e
:1028700080cf5000f2ff3a00419120009140780053
:102880006e48900080cf500026003a000191200051
:10289000914078000ec9bf0080cf500021003a005f
:1028a00011912000914078000fc9bf0080cf5000e7
:1028b0001c003a000000eb00000f78000700370012
:1028c000409120001e004000104078002190200020
:1028d0009e804000804878001e0fe8001e007800af
:1028e000e30f5000f6ff36005e009000e00f50004e
:1028f000010032009a18070000498000800078002b
:102900002090200074130700209020002111070060
:1029100043002000229020008000200001002000c1
:102920008b1507000000eb00000f78000500370052
:1029300030a120009e0040000040eb00804878005d
:102940001e0fe8001e007800ec0f5000f8ff360064
:102950006cff3700000000000040eb001ee9b700ec
:10296000308928000b110700009028001714070079
:1029700000a0250021262000941807004e08900092
:10298000e00f500027003a009000200001002000d6
:102990000e15070003e9b700a00020000100200089
:1029a0000a15070004e9b700b0002000010020006c
:1029b0000615070005e9b7004e0190007190200050
:1029c000209020007811070070902000f11007007f
:1029d00041002000209020001f16070020079800cb
:1029e0004e009000e00f500007003200ae00900053
:1029f000703e2000808f5000160036000000eb0073
:102a00002007980013003700ae0090003006200029
:102a1000808f50000f0036000000eb002007980068
:102a20000c0037000000eb002007980042c0b30004
:102a3000ae009000209020007f1507004e0190000e
:102a40007190200020902000571107007090200006
:102a5000d010070010c0b30012eab7000100370021
:102a60000000000005cabf00e04f5000fcff32002c
:102a70000000eb00000f78000b003700609820008a
:102a80001e0040001040780031a120009e804000d0
:102a900080487800609820009e0040000040eb00d5
:102aa000804878001e0fe8001e007800ee0f5000ee
:102ab000f2ff36000040eb0005eab7000000eb0033
:102ac000000f780030a12000000f98000000eb00fc
:102ad000000f7800090037000e08900010407800c1
:102ae000019120009e804000804878001e0fe80081
:102af0000e0890000000e800000f98000e089000fb
:102b00009040780000c2b30080cf5000f2ff3a003e
:102b100000912000ad1307000000eb00000f7800cb
:102b20000e0890000000e800000f98000900370030
:102b30000e08900010407800919120009e80400087
:102b4000804878001e0fe8000e0890000000e800a2
:102b5000000f98000e0890009040780000c2b3006b
:102b600080cf5000f2ff3a000040eb001ce9b700b4
:102b70000000eb00000f78000e0890000000e80055
:102b8000000f9800090037000e08900010407800f0
:102b9000419120009e804000804878001e0fe80090
:102ba0000e0890000000e800000f98000e0890004a
:102bb0009040780000c2b30080cf5000f2ff3a008e
:102bc0000e0890000000e800000f98000600370093
:102bd0000e089000104078001de9b7000e08900024
:102be0000000e800000f98000e0890009040780068
:102bf00000c2b30080cf5000f5ff3a0010c0b30010
:102c000012eab7001dc9bf000000fb00e10420006c
:102c1000810f50000700320001052000810f500095
:102c20002300320031042000810f50003f003200a9
:102c30004d0037004e009000e00f50000e003200b3
:102c40002e0090000000e80020079800ae009000e1
:102c5000703e2000808f5000020036000000eb0024
:102c60002007980042c0b300ae00900020902000e2
:102c7000f11407003f0037002e0090000000e8002c
:102c800020079800ae00900030062000808f500092
:102c9000020036000000eb002007980042c0b3009d
:102ca000ae00900020902000e314070031003700b0
:102cb0004e009000e00f50000e0032002e009000f9
:102cc000e00f500003003a00703e200020079800fb
:102cd000030037002e0090000000e9002007980054
:102ce00042c0b300ae00900020902000d214070034
:102cf000200037002e009000e00f500003003a0043
:102d00003006200020079800030037002e009000b6
:102d10000000e9002007980042c0b300ae00900018
:102d200020902000c4140700120037000000eb00c0
:102d3000200798004e009000e00f50000500320080
:102d400042c0b300ae00900020902000ba140700eb
:102d50000800370042c0b300ae0090002090200071
:102d6000b514070003003700c090280009100700c1
:102d7000000000004e019000719020002090200083
:102d800089100700229020009191200000912000de
:102d90006a16070040a320000c1307005e00900095
:102da000e00f5000010032006d1707008000eb00bb
:102db000709020004812070070902000f50f070067
:102dc000430020002290200080002000010020000d
:102dd0005f1407000000eb00000f780005003700cb
:102de00030a120009e0040000040eb0080487800a9
:102df0001e0fe8001e007800ee0f5000f8ff3600ae
:102e000018ff37000000000000a025002126200048
:102e10006e1707000000eb00600f98000000eb0049
:102e2000700f98000000eb000017980010c0b3006e
:102e30001ee9b700308c28008a1007001091280086
:102e4000e212070000a02500212620005f170700de
:102e500070528000e00f500002003a0000c3b3003f
:102e6000604f98004e089000e00f500029013a0092
:102e700070528000e00f50008c00320000012000f2
:102e800001002000d1130700405f990010012000cd
:102e900001002000cd130700505f9900c0092000f9
:102ea0000e00400021002000c014070010179800f9
:102eb000c00920000e00400022c0b3009e10900008
:102ec0005d1407000000eb00001798005e0037005b
:102ed0000000eb00000f7800150037000e10900086
:102ee0004200dd001e0040000002b0000100200092
:102ef000b6130700219020009e8040008048780093
:102f0000820320000e0141000e1090006500b90000
:102f1000000078001e00400080004100209020004a
:102f20001e00400010407800804878001e0fe80026
:102f30001e007800e30f5000e8ff36000e109000ee
:102f400061006000e00f500014003a000e10900085
:102f50000000d1008e10900000845000410020003d
:102f600020902000bc140700800078000800440076
:102f700000004700e009b000010878000e10900042
:102f80000000d1008e1090008080500002c9bf0068
:102f900081004700b0489a00110037000e109000e1
:102fa0006100600000407800e04f50000c003200eb
:102fb0000e1090000000d1008e1090000080500094
:102fc0000004e9004100200020902000a214070026
:102fd0008800440081004700610cb0008008780040
:102fe000209020009e0040000040eb0080487800c8
:102ff000820320000e0141000e1090006500b90010
:10300000000078001e004000800041002090200059
:103010001e00400010407800804878002190200079
:10302000709020000c120700709020000d10070017
:1030300000a0250021262000e41607000e109000b5
:103040000000e800001798001e10900000004000eb
:10305000800078000e109000808f50009cff3e0092
:10306000b01020000e0040001e119000800078007b
:10307000209020004af50700b01020000e0040000c
:10308000800078001e1090000316070000407800b2
:10309000304f9a00b01020000e004000f10f0700e2
:1030a00000a0250021262000c816070070528000cd
:1030b000e00f50002f003a008000200001002000a7
:1030c000200f9800310f9800100037002e08900054
:1030d000be08900068045000e08458002e0890005c
:1030e000be0890003913070031a42000810044007d
:1030f000804878002e089000be08900061004000d3
:10310000e0804800200f9800310f98002e099000b1
:10311000be099000e000200001002000800f510057
:10312000818f5900e9ff36004100200030a42000c3
:103130001e1407002007980030a42000c90f0700c4
:1031400000a0250021262000a01607006e48900050
:10315000304f9a00b01020000e0040008000780030
:1031600010002000cc15070000407800304f9a0076
:10317000f20137000000eb00000f78000000eb00c8
:10318000001798005e0037000007200001002000b3
:10319000200f9800310f9800120037000e10900099
:1031a0004300dd006101b8002e089000be089000c9
:1031b00002004000838048000413070031a420006f
:1031c0009e804000804878001e0fe8002e08900086
:1031d000be08900061004000e0804800200f980089
:1031e000310f98002e099000be0990007007200052
:1031f00001002000800f5100818f5900e7ff360049
:103200000000eb00000f780043cabf008000fb0005
:10321000b01020000e004000cbf4070050179800bb
:103220005e109000e00f500032003200601020006d
:103230000e0040004200200031a42000d8f4070016
:10324000601020000e004000ac13070080007800e2
:103250000e1090000000400000004700200bb0005e
:10326000010878000e1090000000400000004700a8
:10327000909890000e109000000040000000470061
:1032800070889000808f50000a0039000e10900066
:103290000000400000004700909890000e10900041
:1032a000000040000000470030a09000808f5000d8
:1032b0000b0036000e109000000040000000470098
:1032c000708890000000e900800078000e109000e7
:1032d0000000400000004700200bb000010878000b
:1032e00030a420005f0f070000a025002126200049
:1032f000361607000e1090000000e8000017980036
:103300008e1090001e109000808f50009eff39009c
:103310008a01370080912800520f070000a0250085
:1033200021262000291607000002200001002000ad
:10333000601798007117980070528000e00f5000dd
:10334000720132006e109000fe1090009f12070074
:103350000077980000c8bf008e70900080cf5000aa
:1033600088003a00b08d28003e0f070010c3b3005c
:10337000405f990000c3b300505f99004e58910020
:1033800000417800000120000100200068120700c1
:103390005e589100004178001001200001002000db
:1033a00063120700c00920000e0040002100200029
:1033b0007e130700101798000000eb00000f780044
:1033c0005a0037000000eb00001798001c0037007f
:1033d000229220001e0078006500b900800078006d
:1033e0000e10900000804000000041001040780066
:1033f0000e1190002190200081004100804878004b
:10340000820320000e0141001e0078006500b90013
:10341000800078000e109000008040008000410085
:103420000e11900020902000000041001040780014
:10343000804878000e1090000000e8000017980007
:103440000e109000e40f5000e1ff36009e0078005f
:1034500061806000e00f500012003a001e0078000a
:103460000000d1001e041000410020002090200028
:10347000791307008000780008004400000047002e
:10348000e009b000010878001e0078000000d100bb
:103490009e00100002c9bf0081004700b0489a009a
:1034a000100037001e0078006100600000407800c6
:1034b000e04f50000b0032001e0078000000d100e9
:1034c0001e0010000004e9004100200020902000b0
:1034d000611307008800440081004700610cb000c0
:1034e000800878009e007800688040004200dd007f
:1034f00001002000430020002290200094120700c9
:103500000040eb0006e9b70021902000d0a2200087
:10351000d1100700d0a22000d20e070000a0250085
:1035200021262000a91507001e0fe8001e1090009c
:10353000000040009e0f5000a2ff3e00b01020008f
:103540000e004000800078001e109000d21407008a
:1035500000407800304f9a0000922800c10e07000a
:1035600000a0250021262000981507008092280041
:10357000bc0e070000a0250021262000931507009f
:10358000ee003700b08d2800b60e070000012000c5
:10359000010020000d120700405f9900100120007b
:1035a0000100200009120700505f9900c0092000a7
:1035b0000e00400021002000fc12070010179800a8
:1035c000c00920000e00400022c0b3009e109000f1
:1035d000991207000000eb00001798005300370015
:1035e0000000eb00000f7800150037000e1090006f
:1035f0004200dd001e0040000002b000010020007b
:10360000f2110700219020009e8040008048780041
:10361000820320000e0141000e1090006500b900e9
:10362000000078001e004000800041002090200033
:103630001e00400010407800804878001e0fe8000f
:103640001e007800e30f5000e8ff36000e109000d7
:1036500061006000e00f500014003a000e1090006e
:103660000000d1008e109000008450004100200026
:1036700020902000f8120700800078000800440025
:1036800000004700e009b000010878000e1090002b
:103690000000d1008e1090008080500002c9bf0051
:1036a00081004700b0489a00110037000e109000ca
:1036b0006100600000407800e04f50000c003200d4
:1036c0000e1090000000d1008e109000008050007d
:1036d0000004e9004100200020902000de120700d5
:1036e0008800440081004700610cb0008008780029
:1036f000209020009e0040000040eb0080487800b1
:1037000021902000d0a2200053100700d0a220005a
:10371000540e070000a02500212620002b150700cd
:103720000e1090000000e800001798001e10900096
:1037300000004000800078000e109000808f500044
:10374000a7ff3e00b01020000e004000800078006f
:103750001e1090005014070000407800304f9a006f
:10376000009328003f0e070000a02500212620001e
:1037700016150700809328003a0e070000a02500c8
:1037800021262000111507000000eb00000f780033
:103790000000eb00001798005700370000072000da
:1037a00001002000200f9800310f98001200370010
:1037b0000e1090004300dd006101b8002e0890005b
:1037c000be08900002004000838048007f1107007f
:1037d00031a420009e804000804878001e0fe80041
:1037e0002e089000be08900061004000e080480074
:1037f000200f9800310f98002e099000be0990000c
:103800007007200001002000800f5100818f5900b7
:10381000e7ff36000000eb00000f780043cabf004e
:103820008000fb00b01020000e00400046f30700af
:10383000e00f50002d003200601020000e0040000c
:103840004200200031a4200055f307006010200042
:103850000e00400029120700800078000e10900032
:103860000000400000004700200bb0000108780075
:103870000e1090000000400000004700909890005b
:103880000e1090000000400000004700708890007b
:10389000808f50000a0039000e1090000000400098
:1038a00000004700909890000e109000000040002b
:1038b0000000470030a09000808f50000b003600c1
:1038c0000e1090000000400000004700708890003b
:1038d0000000e900800078000e1090000000400019
:1038e00000004700200bb000010878000e10900087
:1038f0000000e800001798008e1090001e10900045
:10390000808f5000a5ff39000c00370070528000f6
:10391000e00f500009003a006e489000304f9a00c6
:10392000b01020000e004000800078001000200041
:10393000d913070000407800304f9a0010c0b30040
:1039400012eab700010037000000000006cabf00fd
:10395000e04f5000c20032000000eb00001798005a
:103960000000eb00000f780050992000100f980025
:103970001e0890000000e800100f98001e0890003c
:103980000000e800100f98000a0037001e089000a1
:1039900010407800c10920008e8040009e804000c9
:1039a000804878001e0fe8001e0890000000e80024
:1039b000100f98001e0890009040780000c2b300dd
:1039c00080cf5000f1ff3a000040eb00705f99009b
:1039d000c00920000e00400021002000f311070064
:1039e00010179800c00920000e004000230020009e
:1039f00000017800000120000100200054110700a0
:103a00000000eb00000f78000000eb0000179800aa
:103a10005b0037001e0890000000e800100f9800bf
:103a20001d0037001e0890001040780021902000f3
:103a30009e804000804878001e0890000000e8004a
:103a4000100f9800820320000e0141000e1090001c
:103a50006500b900000078001e00400080004100b1
:103a6000209020001e004000104078008048780020
:103a7000820320000e0141000e1090006500b90085
:103a8000000078001e004000000041001040780057
:103a90001e0fe800c10f07001e089000904078003c
:103aa00000c2b30080cf5000deff3a000e1090003d
:103ab00061006000e00f500014003a000e1090000a
:103ac0000000d1008e1090000084500041002000c2
:103ad00020902000e01107008000780008004400da
:103ae00000004700e009b000010878000e109000c7
:103af0000000d1008e1090008080500002c9bf00ed
:103b000081004700b0489a00110037000e10900065
:103b10006100600000407800e04f50000c0032006f
:103b20000e1090000000d1008e1090000080500018
:103b30000004e9004100200020902000c611070089
:103b40008800440081004700610cb00080087800c4
:103b50000e109000680040004200dd0001002000cf
:103b60004300200022902000f91007000000eb0025
:103b7000000f78000e1090000000e8000017980079
:103b80001e10900000004000800078000e10900091
:103b9000808f50009fff3e00b01020000e004000bc
:103ba000800078001e1090003b1307000040780052
:103bb000304f9a000000eb00000f78000c00370037
:103bc0001e00780000004000000047007088900050
:103bd0000000e900800078001e007800000040002e
:103be00000004700200bb000010878001e0fe8001d
:103bf0001e1090009e007800808f5000f0ff39006a
:103c000000942800170d0700009428006f0f07008c
:103c100000a0250021262000ec1307000000eb0087
:103c2000000f780005003700509920009e004000ea
:103c30000040eb00804878001e0fe800d00620000e
:103c40009e007800808f5000f7ff36000040eb00a8
:103c500006eab70010c0b30012eab7003bff370016
:103c600005cabf00e04f500037ff32000000eb00f4
:103c7000000f78000e003700609820001e00400002
:103c80001040780031a120009e80400080487800dc
:103c900000fa200001002000cc13070060982000eb
:103ca0009e0040000040eb00804878001e0fe800b6
:103cb0001e007800ee0f5000efff36000040eb00d2
:103cc00005eab70030a12000000f98000000eb00cb
:103cd000000f7800090037000e08900010407800af
:103ce000019120009e804000804878001e0fe8006f
:103cf0000e0890000000e800000f98000e089000e9
:103d00009040780000c2b30080cf5000f2ff3a002c
:103d10000040eb0013e9b70000912000f710070006
:103d2000101f98000000eb00000f78000e089000b4
:103d30000000e800000f9800090037000e0890000e
:103d400010407800919120009e80400080487800cb
:103d50001e0fe8000e0890000000e800000f980019
:103d60000e0890009040780000c2b30080cf500051
:103d7000f2ff3a000040eb001ce9b7000000eb0046
:103d8000000f780090912000dc100700201f9800a1
:103d90000e0890000000e800000f980009003700ae
:103da0000e08900010407800419120009e80400055
:103db000804878001e0fe8000e0890000000e80020
:103dc000000f98000e0890009040780000c2b300e9
:103dd00080cf5000f2ff3a0014c9bf00604f980036
:103de0000e0890000000e800000f98000600370061
:103df0000e089000104078001de9b7000e089000f2
:103e00000000e800000f98000e0890009040780035
:103e100000c2b30080cf5000f5ff3a0010c0b300dd
:103e200012eab70070528000e00f500005003a001f
:103e3000419120009140780000c3b30080cf500032
:103e4000480b3a0010c0b3006077980070528000b1
:103e5000e00f5000290032000000eb00000f780056
:103e60000000eb00001798000000eb00001798001e
:103e70001c0037000e10900061006000e00f500041
:103e800015003a00820320000e0141000e10900040
:103e90006500b90000007800000041009040780003
:103ea00014c9bf0080cf50000b003a000e109000e4
:103eb000e00f5000030032000e1090000000d1000f
:103ec000201798000e109000e00f500002003a00fa
:103ed0000e109000201798000e1090000000e800cf
:103ee000001798001e10900000004000800078002d
:103ef0000e109000808f5000deff3e0014c9bf00fe
:103f00008000fb00b01020000e0040008ef1070082
:103f1000707798002e189000e00f50000c0b3200c4
:103f2000ae18900000022000808f5000080b3e0069
:103f30001e189000e00f5000050b32009e189000f4
:103f400000022000808f5000010b3e007e70900028
:103f5000e04f5000fe0a320070528000e00f500027
:103f600003003200e10f50008a003200700a37006f
:103f70001dc9bf000000fb006101b900d0fb2f008c
:103f8000f1ff2f000200400083804800f200200073
:103f900003002000820f5000838f58005f0a3e000c
:103fa00000600100770037006400370067003700c9
:103fb0005c0a37005b0a37005a0a3700590a370093
:103fc000580a3700570a3700560a3700550a370093
:103fd00004003700530a37002d003700510a37001c
:103fe000620037004e009000e00f500014003200d5
:103ff0002e0090000000e80020079800ae0090001e
:10400000703e2000808f5000020036000000eb0060
:1040100020079800ae0090007e089000808f50002e
:104020001a003a002e009000e00f500017003200f6
:104030002e0090000000e8002007980013003700d1
:104040002e0090000000e80020079800ae009000cd
:1040500030062000808f5000020036000000eb0088
:1040600020079800ae0090007e089000808f5000de
:1040700006003a002e009000e00f500003003200ce
:104080002e0090000000e800200798004000370054
:104090004e009000e00f5000140032002e009000ff
:1040a000e00f500003003a00703e20002007980007
:1040b000030037002e0090000000e9002007980060
:1040c000ae0090007e089000808f50001a003a00e9
:1040d0002e009000e00f5000170032002e009000dc
:1040e0000000e90020079800130037002e00900020
:1040f000e00f500003003a0030062000200798002f
:10410000030037002e0090000000e900200798000f
:10411000ae0090007e089000808f500006003a00ac
:104120002e009000e00f5000030032002e0090009f
:104130000000e9002007980015003700409120009a
:10414000ee0f07002007980011003700ae00900026
:10415000610f980040912000e80f070020079800a9
:104160002e009000700f980009003700ae009000fc
:10417000610f980040912000e00f07002007980091
:10418000030037000000eb0020079800000000004b
:10419000e70937002e109000cf80de00920020004b
:1041a00003002000820f5000838f5800df093e007b
:1041b000006001000900370004013700fe013700ec
:1041c000f8023700f2033700ec043700e605370049
:1041d000e0063700da073700d40837001dc9bf00f2
:1041e0000000fb006101b900d0fb2f00f1ff2f00a0
:1041f0000200400083804800f200200003002000fd
:10420000820f5000838f5800ef003e0000600100d5
:10421000e1003700a9003700b2003700ea0037009c
:10422000e9003700e8003700e7003700e600370014
:10423000e5003700e4003700e300370004003700f2
:10424000e100370060003700df003700c0003700b2
:104250002e10900000004000000047009098900051
:104260002e109000000040000000470030a0900099
:10427000808f5000160031002e109000000040008a
:1042800000004700909890002e1090000000400021
:1042900000004700708890000000e900808f500007
:1042a0000b0039002e109000000040000000470075
:1042b000109890008000e8002e1090000000400050
:1042c00000004700200bb0000108780029003700eb
:1042d0002e109000000040000000470090989000d1
:1042e0002e109000000040000000470030a0900019
:1042f000808f50000b003a002e109000000040000c
:104300000000470070889000800078002e10900018
:104310000000400000004700200bb00001087800ba
:10432000140037002e1090000000400000004700ed
:10433000909890002e109000000040000000470070
:1043400070889000808f50000a003e002e10900070
:104350000000400000004700708890008000780056
:104360002e1090000000400000004700200bb0001d
:10437000010878002e109000000040000000470067
:10438000909890002e109000000040000000470020
:1043900010b89000808f50000a003a002e10900054
:1043a0000000400000004700109890008000e800e6
:1043b0002e1090000000400000004700200bb000cd
:1043c00001087800800037002e10900000004000a7
:1043d00000004700909890002e10900000004000d0
:1043e0000000470070889000808f50000a003e0057
:1043f0002e1090000000400000004700b0a0900088
:104400002e1090000000400000004700200bb0007c
:1044100001087800140037002e10900000004000c2
:1044200000004700909890002e109000000040007f
:104430000000470070889000808f50000a0036000e
:104440002e109000000040000000470010989000df
:104450008000e9002e10900000004000000047009e
:10446000200bb000010878002e10900000004000e2
:1044700000004700909890002e109000000040002f
:104480000000470010b89000808f50000a003a00ea
:104490002e1090000000400000004700109890008f
:1044a0008000e9002e10900000004000000047004e
:1044b000200bb000010878004300370041002000c5
:1044c00040912000390f0700800078002e109000e6
:1044d0000000400000004700200bb00001087800f9
:1044e000390037002e109000000040000000470007
:1044f000909890002e1090000000400000004700af
:10450000e00db0000108780040912000fb0e07008c
:10451000800078002e10900000004000000047004e
:10452000200bb000010878002e1090000000400021
:1045300000004700909890002e109000000040006e
:1045400000004700200fb000010878001e0037006f
:104550002e1090000000400000004700909890004e
:104560002e1090000000400000004700e00db00059
:104570000108780040912000e00e070080007800dc
:104580002e1090000000400000004700200bb000fb
:10459000010878000c0037002e1090000000400049
:1045a00000004700708890000000e900800078005b
:1045b0002e1090000000400000004700200bb000cb
:1045c0000108780000000000d30837001dc9bf00b3
:1045d0000000fb006101b900d0fb2f00f1ff2f00ac
:1045e0000200400083804800f20020000300200009
:1045f000820f5000838f5800ee003e0000600100e3
:10460000e0003700a9003700b1003700e9003700ab
:10461000e8003700e7003700e6003700e500370024
:10462000e4003700e3003700e20037000400370001
:10463000e000370060003700de003700bf003700c1
:104640002e1090000000400000004700909890005d
:104650002e109000000040000000470030a09000a5
:10466000808f5000160031002e1090000000400096
:1046700000004700909890002e109000000040002d
:1046800000004700708890000000e900808f500013
:104690000b0039002e109000000040000000470081
:1046a000109890008000e8002e109000000040005c
:1046b00000004700200bb0000108780029003700f7
:1046c0002e109000000040000000470090989000dd
:1046d0002e109000000040000000470030a0900025
:1046e000808f50000b003a002e1090000000400018
:1046f0000000470070889000800078002e10900025
:104700000000400000004700200bb00001087800c6
:10471000140037002e1090000000400000004700f9
:10472000909890002e10900000004000000047007c
:1047300070889000808f50000a003e002e1090007c
:104740000000400000004700708890008000780062
:104750002e1090000000400000004700200bb00029
:10476000010878002e109000000040000000470073
:10477000909890002e10900000004000000047002c
:1047800010b89000808f50000a003a002e10900060
:104790000000400000004700109890008000e800f2
:1047a0002e1090000000400000004700200bb000d9
:1047b000010878007f0037002e10900000004000b4
:1047c00000004700909890002e10900000004000dc
:1047d0000000470070889000808f50000a003e0063
:1047e0002e1090000000400000004700b0a0900094
:1047f0002e1090000000400000004700200bb00089
:1048000001087800140037002e10900000004000ce
:1048100000004700909890002e109000000040008b
:104820000000470070889000808f50000a0036001a
:104830002e109000000040000000470010989000eb
:104840008000e9002e1090000000400000004700aa
:10485000200bb000010878002e10900000004000ee
:1048600000004700909890002e109000000040003b
:104870000000470010b89000808f50000a003a00f6
:104880002e1090000000400000004700109890009b
:104890008000e9002e10900000004000000047005a
:1048a000200bb00001087800420037004091200042
:1048b000120e0700800078002e10900000004000cb
:1048c00000004700200bb0000108780039003700d5
:1048d0002e109000000040000000470090989000cb
:1048e0002e1090000000400000004700e00db000d6
:1048f0000108780040912000000e07008000780039
:104900002e1090000000400000004700200bb00077
:10491000010878002e1090000000400000004700c1
:10492000909890002e10900000004000000047007a
:10493000200fb000010878001e0037002e109000f4
:104940000000400000004700909890002e1090005a
:104950000000400000004700e00db00001087800b2
:1049600040912000e50d0700800078002e10900097
:104970000000400000004700200bb0000108780054
:104980000c0037002e10900000004000000047008f
:10499000708890000000e900800078002e109000e0
:1049a0000000400000004700200bb0000108780024
:1049b00000000000d80737001dc9bf000000fb0041
:1049c0006101b900d0fb2f00f1ff2f000200400071
:1049d00083804800f200200003002000820f500076
:1049e000838f5800ee003e0000600100e0003700b9
:1049f000a9003700b1003700e9003700e8003700b0
:104a0000e7003700e6003700e5003700e400370034
:104a1000e3003700e200370004003700e000370011
:104a200060003700de003700bf0037002e10900016
:104a30000000400000004700909890002e10900069
:104a4000000040000000470030a09000808f500020
:104a5000160031002e1090000000400000004700ba
:104a6000909890002e109000000040000000470039
:104a7000708890000000e900808f50000b00390022
:104a80002e10900000004000000047001098900099
:104a90008000e8002e109000000040000000470059
:104aa000200bb00001087800290037002e1090007c
:104ab0000000400000004700909890002e109000e9
:104ac000000040000000470030a09000808f5000a0
:104ad0000b003a002e10900000004000000047003c
:104ae00070889000800078002e1090000000400038
:104af00000004700200bb0000108780014003700c8
:104b00002e10900000004000000047009098900098
:104b10002e109000000040000000470070889000b8
:104b2000808f50000a003e002e10900000004000d0
:104b30000000470070889000800078002e109000e0
:104b40000000400000004700200bb0000108780082
:104b50002e10900000004000000047009098900048
:104b60002e109000000040000000470010b8900098
:104b7000808f50000a003a002e1090000000400084
:104b800000004700109890008000e8002e10900070
:104b90000000400000004700200bb0000108780032
:104ba0007f0037002e1090000000400000004700fa
:104bb000909890002e1090000000400000004700e8
:104bc00070889000808f50000a003e002e109000e8
:104bd0000000400000004700b0a090002e109000a0
:104be0000000400000004700200bb00001087800e2
:104bf000140037002e109000000040000000470015
:104c0000909890002e109000000040000000470097
:104c100070889000808f50000a0036002e1090009f
:104c20000000400000004700109890008000e9005c
:104c30002e1090000000400000004700200bb00044
:104c4000010878002e10900000004000000047008e
:104c5000909890002e109000000040000000470047
:104c600010b89000808f50000a003a002e1090007b
:104c70000000400000004700109890008000e9000c
:104c80002e1090000000400000004700200bb000f4
:104c9000010878004200370040912000170d0700fe
:104ca000800078002e1090000000400000004700b7
:104cb000200bb00001087800390037002e1090005a
:104cc0000000400000004700909890002e109000d7
:104cd0000000400000004700e00db000010878002f
:104ce00040912000050d0700800078002e109000f4
:104cf0000000400000004700200bb00001087800d1
:104d00002e10900000004000000047009098900096
:104d10002e1090000000400000004700200fb0005f
:104d2000010878001e0037002e109000000040009f
:104d300000004700909890002e1090000000400066
:104d400000004700e00db00001087800409120000d
:104d5000ea0c0700800078002e1090000000400050
:104d600000004700200bb000010878000c0037005d
:104d70002e10900000004000000047007088900056
:104d80000000e900800078002e1090000000400034
:104d900000004700200bb000010878000000000070
:104da000dd0637001dc9bf000000fb006101b9002e
:104db000d0fb2f00f1ff2f0002004000838048004d
:104dc000f200200003002000820f5000838f580063
:104dd000ee003e0000600100e0003700a90037004f
:104de000b1003700e9003700e8003700e70037007e
:104df000e6003700e5003700e4003700e300370045
:104e0000e200370004003700e000370060003700a0
:104e1000de003700bf0037002e1090000000400079
:104e200000004700909890002e1090000000400075
:104e30000000470030a09000808f50001600310025
:104e40002e10900000004000000047009098900055
:104e50002e10900000004000000047007088900075
:104e60000000e900808f50000b0039002e109000e8
:104e70000000400000004700109890008000e8000b
:104e80002e1090000000400000004700200bb000f2
:104e900001087800290037002e1090000000400023
:104ea00000004700909890002e10900000004000f5
:104eb0000000470030a09000808f50000b003a00a7
:104ec0002e10900000004000000047007088900005
:104ed000800078002e109000000040000000470085
:104ee000200bb00001087800140037002e1090004d
:104ef0000000400000004700909890002e109000a5
:104f0000000040000000470070889000808f500033
:104f10000a003e002e1090000000400000004700f4
:104f200070889000800078002e10900000004000f3
:104f300000004700200bb000010878002e10900000
:104f40000000400000004700909890002e10900054
:104f5000000040000000470010b89000808f500013
:104f60000a003a002e1090000000400000004700a8
:104f7000109890008000e8002e1090000000400083
:104f800000004700200bb000010878007f003700c8
:104f90002e10900000004000000047009098900004
:104fa0002e10900000004000000047007088900024
:104fb000808f50000a003e002e109000000040003c
:104fc00000004700b0a090002e10900000004000ac
:104fd00000004700200bb0000108780014003700e3
:104fe0002e109000000040000000470090989000b4
:104ff0002e109000000040000000470070889000d4
:10500000808f50000a0036002e10900000004000f3
:1050100000004700109890008000e9002e109000da
:105020000000400000004700200bb000010878009d
:105030002e10900000004000000047009098900063
:105040002e109000000040000000470010b89000b3
:10505000808f50000a003a002e109000000040009f
:1050600000004700109890008000e9002e1090008a
:105070000000400000004700200bb000010878004d
:1050800042003700409120001c0c0700800078008f
:105090002e1090000000400000004700200bb000e0
:1050a00001087800390037002e1090000000400001
:1050b00000004700909890002e10900000004000e3
:1050c00000004700e00db00001087800409120008a
:1050d0000a0c0700800078002e10900000004000ad
:1050e00000004700200bb000010878002e1090004f
:1050f0000000400000004700909890002e109000a3
:105100000000400000004700200fb00001087800b8
:105110001e0037002e1090000000400000004700e5
:10512000909890002e109000000040000000470072
:10513000e00db0000108780040912000ef0b07005f
:10514000800078002e109000000040000000470012
:10515000200bb000010878000c0037002e109000e2
:105160000000400000004700708890000000e90047
:10517000800078002e1090000000400000004700e2
:10518000200bb0000108780000000000e2053700a5
:105190001dc9bf000000fb006101b900d0fb2f005a
:1051a000f1ff2f000200400083804800f200200041
:1051b00003002000820f5000838f5800ee003e0055
:1051c00000600100e0003700a9003700b10037009f
:1051d000e9003700e8003700e7003700e600370055
:1051e000e5003700e4003700e3003700e200370055
:1051f00004003700e000370060003700de003700b1
:10520000bf0037002e109000000040000000470053
:10521000909890002e109000000040000000470081
:1052200030a09000808f5000160031002e109000aa
:105230000000400000004700909890002e10900061
:105240000000400000004700708890000000e90066
:10525000808f50000b0039002e109000000040009d
:1052600000004700109890008000e8002e10900089
:105270000000400000004700200bb000010878004b
:10528000290037002e109000000040000000470069
:10529000909890002e109000000040000000470001
:1052a00030a09000808f50000b003a002e1090002c
:1052b00000004000000047007088900080007800e7
:1052c0002e1090000000400000004700200bb000ae
:1052d00001087800140037002e10900000004000f4
:1052e00000004700909890002e10900000004000b1
:1052f0000000470070889000808f50000a003e0038
:105300002e109000000040000000470070889000c0
:10531000800078002e109000000040000000470040
:10532000200bb000010878002e1090000000400013
:1053300000004700909890002e1090000000400060
:105340000000470010b89000808f50000a003a001b
:105350002e109000000040000000470010989000c0
:105360008000e8002e109000000040000000470080
:10537000200bb000010878007f0037002e1090004d
:105380000000400000004700909890002e10900010
:10539000000040000000470070889000808f50009f
:1053a0000a003e002e109000000040000000470060
:1053b000b0a090002e1090000000400000004700b8
:1053c000200bb00001087800140037002e10900068
:1053d0000000400000004700909890002e109000c0
:1053e000000040000000470070889000808f50004f
:1053f0000a0036002e109000000040000000470018
:10540000109890008000e9002e10900000004000ed
:1054100000004700200bb000010878002e1090001b
:105420000000400000004700909890002e1090006f
:10543000000040000000470010b89000808f50002e
:105440000a003a002e1090000000400000004700c3
:10545000109890008000e9002e109000000040009d
:1054600000004700200bb000010878004200370020
:1054700040912000210b0700800078002e10900042
:105480000000400000004700200bb0000108780039
:10549000390037002e109000000040000000470047
:1054a000909890002e1090000000400000004700ef
:1054b000e00db00001087800409120000f0b0700bc
:1054c000800078002e10900000004000000047008f
:1054d000200bb000010878002e1090000000400062
:1054e00000004700909890002e10900000004000af
:1054f00000004700200fb000010878001e003700b0
:105500002e1090000000400000004700909890008e
:105510002e1090000000400000004700e00db00099
:105520000108780040912000f40a0700800078000c
:105530002e1090000000400000004700200bb0003b
:10554000010878000c0037002e1090000000400089
:1055500000004700708890000000e900800078009b
:105560002e1090000000400000004700200bb0000b
:105570000108780000000000e70437001dc9bf00e3
:105580000000fb006101b900d0fb2f00f1ff2f00ec
:105590000200400083804800f20020000300200049
:1055a000820f5000838f5800ee003e000060010023
:1055b000e0003700a9003700b1003700e9003700ec
:1055c000e8003700e7003700e6003700e500370065
:1055d000e4003700e3003700e20037000400370042
:1055e000e000370060003700de003700bf00370002
:1055f0002e1090000000400000004700909890009e
:105600002e109000000040000000470030a09000e5
:10561000808f5000160031002e10900000004000d6
:1056200000004700909890002e109000000040006d
:1056300000004700708890000000e900808f500053
:105640000b0039002e1090000000400000004700c1
:10565000109890008000e8002e109000000040009c
:1056600000004700200bb000010878002900370037
:105670002e1090000000400000004700909890001d
:105680002e109000000040000000470030a0900065
:10569000808f50000b003a002e1090000000400058
:1056a0000000470070889000800078002e10900065
:1056b0000000400000004700200bb0000108780007
:1056c000140037002e10900000004000000047003a
:1056d000909890002e1090000000400000004700bd
:1056e00070889000808f50000a003e002e109000bd
:1056f00000004000000047007088900080007800a3
:105700002e1090000000400000004700200bb00069
:10571000010878002e1090000000400000004700b3
:10572000909890002e10900000004000000047006c
:1057300010b89000808f50000a003a002e109000a0
:105740000000400000004700109890008000e80032
:105750002e1090000000400000004700200bb00019
:10576000010878007f0037002e10900000004000f4
:1057700000004700909890002e109000000040001c
:105780000000470070889000808f50000a003e00a3
:105790002e1090000000400000004700b0a09000d4
:1057a0002e1090000000400000004700200bb000c9
:1057b00001087800140037002e109000000040000f
:1057c00000004700909890002e10900000004000cc
:1057d0000000470070889000808f50000a0036005b
:1057e0002e1090000000400000004700109890002c
:1057f0008000e9002e1090000000400000004700eb
:10580000200bb000010878002e109000000040002e
:1058100000004700909890002e109000000040007b
:105820000000470010b89000808f50000a003a0036
:105830002e109000000040000000470010989000db
:105840008000e9002e10900000004000000047009a
:10585000200bb00001087800420037004091200082
:10586000260a0700800078002e10900000004000fb
:1058700000004700200bb000010878003900370015
:105880002e1090000000400000004700909890000b
:105890002e1090000000400000004700e00db00016
:1058a0000108780040912000140a07008000780069
:1058b0002e1090000000400000004700200bb000b8
:1058c000010878002e109000000040000000470002
:1058d000909890002e1090000000400000004700bb
:1058e000200fb000010878001e0037002e10900035
:1058f0000000400000004700909890002e1090009b
:105900000000400000004700e00db00001087800f2
:1059100040912000f9090700800078002e109000c7
:105920000000400000004700200bb0000108780094
:105930000c0037002e1090000000400000004700cf
:10594000708890000000e900800078002e10900020
:105950000000400000004700200bb0000108780064
:1059600000000000ec0337001dc9bf000000fb0071
:105970006101b900d0fb2f00f1ff2f0002004000b1
:1059800083804800f200200003002000820f5000b6
:10599000838f5800ee003e0000600100e0003700f9
:1059a000a9003700b1003700e9003700e8003700f0
:1059b000e7003700e6003700e5003700e400370075
:1059c000e3003700e200370004003700e000370052
:1059d00060003700de003700bf0037002e10900057
:1059e0000000400000004700909890002e109000aa
:1059f000000040000000470030a09000808f500061
:105a0000160031002e1090000000400000004700fa
:105a1000909890002e109000000040000000470079
:105a2000708890000000e900808f50000b00390062
:105a30002e109000000040000000470010989000d9
:105a40008000e8002e109000000040000000470099
:105a5000200bb00001087800290037002e109000bc
:105a60000000400000004700909890002e10900029
:105a7000000040000000470030a09000808f5000e0
:105a80000b003a002e10900000004000000047007c
:105a900070889000800078002e1090000000400078
:105aa00000004700200bb000010878001400370008
:105ab0002e109000000040000000470090989000d9
