:020000040000fa
:080000000002040000000000f2
:020000040000fa
:1000080090020000900200009002000090020000a0
:100018009002000090020000900200009002000090
:10002800900200009002000090020000c217000039
:100038009002000090020000900200009002000070
:10004800900200009002000090020000f4160000e8
:100058007e1700009002000090020000900200004d
:100068009002000090020000900200009002000040
:100078009002000090020000900200009002000030
:100088009002000090020000900200009002000020
:100098009002000090020000900200009002000010
:1000a8009002000090020000900200009002000000
:1000b80090020000900200009002000090020000f0
:1000c80090020000900200009002000090020000e0
:1000d80090020000900200009002000090020000d0
:1000e80090020000900200009002000090020000c0
:1000f80090020000900200009002000090020000b0
:10010800900200009002000090020000900200009f
:10011800900200009002000090020000900200008f
:10012800900200009002000090020000900200007f
:10013800900200009002000090020000900200006f
:10014800900200009002000090020000900200005f
:10015800900200009002000090020000900200004f
:10016800900200009002000090020000900200003f
:10017800900200009002000090020000900200002f
:10018800900200009002000090020000900200001f
:10019800900200009002000090020000900200000f
:1001a80090020000900200009002000090020000ff
:1001b80090020000900200009002000090020000ef
:1001c80090020000900200009002000090020000df
:1001d80090020000900200009002000090020000cf
:1001e80090020000900200009002000090020000bf
:0801f8009002000090020000db
:020000040000fa
:10020800900200009002000090020000900200009e
:10021800900200009002000090020000900200008e
:10022800900200009002000090020000c217000037
:10023800900200009002000090020000900200006e
:10024800900200009002000090020000f4160000e6
:100258007e1700009002000090020000900200004b
:10026800900200009002000090020000900200003e
:10027800900200009002000090020000900200002e
:10028800900200009002000090020000900200001e
:10029800900200009002000090020000900200000e
:1002a80090020000900200009002000090020000fe
:1002b80090020000900200009002000090020000ee
:1002c80090020000900200009002000090020000de
:1002d80090020000900200009002000090020000ce
:1002e80090020000900200009002000090020000be
:1002f80090020000900200009002000090020000ae
:10030800900200009002000090020000900200009d
:10031800900200009002000090020000900200008d
:10032800900200009002000090020000900200007d
:10033800900200009002000090020000900200006d
:10034800900200009002000090020000900200005d
:10035800900200009002000090020000900200004d
:10036800900200009002000090020000900200003d
:10037800900200009002000090020000900200002d
:10038800900200009002000090020000900200001d
:10039800900200009002000090020000900200000d
:1003a80090020000900200009002000090020000fd
:1003b80090020000900200009002000090020000ed
:1003c80090020000900200009002000090020000dd
:1003d80090020000900200009002000090020000cd
:1003e80090020000900200009002000090020000bd
:0803f8009002000090020000d9
:020000040000fa
:10040000cf9420000e7f22000e0188000000000023
:100410000c000700609d2100010020001100070072
:10042000000020000000e000020032000000020096
:1004300000000000e0070200000000000040da00b9
:100440000000fe004440a900c05420000000e0006d
:100450000300320000002000a00188004440a800f2
:100460000000060091018800800078000000eb0089
:1004700015003700e280400032a0b4009101ba00bc
:10048000e280400032a0b4009102ba00e280400055
:1004900032a0b4000002eb00472bde00f507b200eb
:1004a000602ce10004003a000059eb008301e900f0
:1004b000fdff3e00040037006128e100010032002a
:1004c0000082eb00040007001101ba000200e00006
:1004d000e8ff3a00000006003159ba008301e90044
:1004e0000c0032002159ba008301e90008003200f3
:1004f0000400e00003003a00e280400032a0b400b3
:10050000f5ff370011d9ba008301e900faff3a007c
:100510008100e800e180400032a0b4000000060045
:080520000040da000000fe00bb
:020000040000fa
:10052800ff000000e7000000c30000009900000081
:10053800990000009900000099000000990000004f
:10054800990000009900000099000000990000003f
:1005580099000000c3000000e7000000ff00000051
:10056800ff000000e7000000e3000000e1000000d9
:10057800e7000000e7000000e7000000e7000000d7
:10058800e7000000e7000000e7000000e7000000c7
:10059800e70000008100000081000000ff0000006b
:1005a800ff000000c3000000810000009d00000063
:1005b8009f0000009f0000009f000000cf00000087
:1005c800e7000000f3000000f9000000f900000057
:1005d800f90000008100000081000000ff00000019
:1005e800ff000000c3000000810000009f00000021
:1005f8009f0000009f0000009f000000c300000053
:10060800c30000009f0000009f0000009f00000042
:100618009f00000081000000c3000000ff000000f0
:10062800ff000000cf000000c7000000c30000006a
:10063800c9000000c9000000c9000000c90000008e
:100648008100000081000000cf000000cf00000002
:10065800cf000000cf000000cf000000ff00000026
:10066800ff0000008100000081000000f900000088
:10067800f9000000f9000000f9000000c1000000c6
:10068800810000009f0000009f0000009f00000004
:100698009d00000081000000c3000000ff00000072
:1006a800ff0000008300000081000000b900000086
:1006b800f9000000f9000000f9000000f90000004e
:1006c800c1000000810000009900000099000000ae
:1006d8009900000081000000c3000000ff00000036
:1006e800ff00000081000000810000009f00000062
:1006f8009f0000009f0000009f0000009f00000076
:10070800cf000000e7000000e7000000e70000005d
:10071800e7000000e7000000e7000000ff0000001d
:10072800ff000000c30000008100000099000000e5
:10073800990000009900000099000000c300000023
:10074800c300000099000000990000009900000013
:100758009900000081000000c3000000ff000000b5
:10076800ff000000c30000008100000099000000a5
:10077800990000009900000081000000830000003b
:100788009f0000009f0000009f0000009f000000e5
:100798009d00000081000000c3000000ff00000071
:1007a800ff000000e7000000db00000099000000e7
:1007b80099000000990000009900000099000000cd
:1007c80081000000990000009900000099000000d5
:1007d800990000009900000099000000ff00000047
:1007e800ff000000e1000000c100000099000000c7
:1007f800990000009900000099000000c100000065
:10080800c100000099000000990000009900000054
:1008180099000000c1000000e1000000ff00000096
:10082800ff000000c300000081000000f900000084
:10083800f9000000f9000000f9000000f9000000cc
:10084800f9000000f9000000f9000000f9000000bc
:10085800f900000081000000c3000000ff00000054
:10086800ff000000e1000000c10000009900000046
:10087800990000009900000099000000990000000c
:1008880099000000990000009900000099000000fc
:1008980099000000c1000000e1000000ff00000016
:1008a800ff0000008300000081000000f900000044
:1008b800f9000000f9000000f9000000c100000084
:1008c800c1000000f9000000f9000000f900000074
:1008d800f90000008100000083000000ff00000014
:1008e800ff0000008300000081000000f900000004
:1008f800f9000000f9000000f9000000c100000044
:10090800c1000000f9000000f9000000f900000033
:10091800f9000000f9000000f9000000ff000000e5
:10092800ff0000008300000081000000f9000000c3
:10093800f9000000f9000000f9000000f9000000cb
:10094800f9000000f900000009000000990000000b
:10095800990000008100000083000000ff000000f3
:10096800ff000000990000009900000099000000b5
:100978009900000099000000990000008100000023
:1009880099000000990000009900000099000000fb
:10099800990000009900000099000000ff00000085
:1009a800ff0000008100000081000000e700000057
:1009b800e7000000e7000000e7000000e700000093
:1009c800e7000000e7000000e7000000e700000083
:1009d800e70000008100000081000000ff00000027
:1009e800ff0000009f0000009f0000009f00000023
:1009f8009f0000009f0000009f0000009f00000073
:100a08009f0000009f00000099000000990000006e
:100a1800990000008100000081000000ff00000034
:100a2800ff000000fc000000bc0000009c0000006b
:100a3800cc000000e4000000f0000000f800000016
:100a4800f8000000f0000000e4000000cc00000006
:100a58009c000000bc000000fc000000ff0000003b
:100a6800ff000000f9000000f9000000f900000094
:100a7800f9000000f9000000f9000000f90000008a
:100a8800f9000000f9000000f9000000b9000000ba
:100a9800b90000008100000081000000ff00000094
:100aa800ff0000009900000024000000240000005e
:100ab800240000002400000024000000240000009e
:100ac8003c0000003c0000003c0000003c0000002e
:100ad8003c0000003c0000003c000000ff0000005b
:100ae800ff000000b9000000b9000000b9000000d4
:100af800b9000000b1000000b1000000a50000002e
:100b0800a5000000ad0000008d0000008d00000071
:100b18009d0000009d0000009d000000ff000000f7
:100b2800ff00000081000000810000009900000023
:100b38009900000099000000990000009900000049
:100b48009900000099000000990000009900000039
:100b5800990000008100000081000000ff000000f3
:100b6800ff000000830000008100000099000000e1
:100b78009900000099000000810000008100000039
:100b8800f9000000f9000000f9000000f900000079
:100b9800f9000000f9000000f9000000ff00000063
:100ba800ff000000c3000000810000009900000061
:100bb80099000000990000009900000099000000c9
:100bc800990000009900000089000000c1000000a1
:100bd80093000000bf000000ff000000ff000000bd
:100be800ff000000c3000000810000009900000021
:100bf8009900000099000000c9000000e100000011
:100c0800f1000000c1000000890000009900000008
:100c1800990000009900000099000000ff00000002
:100c2800ff0000008300000081000000b900000000
:100c3800f9000000f9000000f9000000c100000000
:100c4800830000009f0000009f0000009d0000003e
:100c58009d00000081000000c1000000ff000000ae
:100c6800ff0000008100000081000000e700000094
:100c7800e7000000e7000000e7000000e7000000d0
:100c8800e7000000e7000000e7000000e7000000c0
:100c9800e7000000e7000000e7000000ff00000098
:100ca800ff00000099000000990000009900000072
:100cb80099000000990000009900000099000000c8
:100cc80099000000990000009900000099000000b8
:100cd8009900000081000000c3000000ff00000030
:100ce800ff00000099000000990000009900000032
:100cf8009900000099000000990000009900000088
:100d08009900000099000000990000009900000077
:100d1800db000000e7000000e7000000ff00000023
:100d2800ff0000003c0000003c0000003c00000008
:100d38003c0000003c0000003c0000003c000000bb
:100d48003c000000240000002400000024000000f3
:100d5800240000000000000099000000ff000000cf
:100d6800ff000000990000009900000099000000b1
:100d78009900000099000000db000000e30000007b
:100d8800e7000000cb000000990000009900000077
:100d9800990000009900000099000000ff00000081
:100da800ff00000099000000990000009900000071
:100db80099000000990000009900000081000000df
:100dc800c3000000e7000000e7000000e7000000a3
:100dd800e7000000e7000000e7000000ff00000057
:100de800ff00000081000000810000009f0000005b
:100df8009f000000cf000000e7000000f3000000a3
:100e0800f9000000f9000000f9000000f9000000f6
:100e18008100000081000000ff000000ff000000ca
:100e2800ff000000ff000000ff000000ff000000be
:100e3800ff000000ff000000ff000000ff000000ae
:100e4800ff000000ff000000ff000000ff0000009e
:100e5800ff000000ff000000ff000000ff0000008e
:100e6800ff000000ff000000ff000000ff0000007e
:100e7800ff000000ef000000cf000000810000002c
:100e880081000000cf000000ef000000ff0000001c
:100e9800ff000000ff000000ff000000ff0000004e
:100ea800576500006c6300006f6d0000650a000064
:100eb8000054000045530000540000005052000048
:100ec800474d0000004e0000524700004d00000052
:100ed8004e57000054200000004e00005746000006
:100ee800200000004d4f0000444d0000004d000060
:100ef8004f440000530000004449000047330000fd
:100f0800004400004947000032000000424500004c
:100f18004c54000000420000454c00004600000010
:100f2800505200004d53000000530000415600008d
:100f380045000000434100004e530000004f0000f0
:100f480055540000200000004e4500005457000092
:100f5800004100004c4f00004e0000004d530000bf
:100f680054520000005300004c410000560000009d
:100f7800424f00004e200000004200004f46000093
:100f8800460000000a200000536c00006176000053
:100f9800652000004d6f00006465000000530000ec
:100fa800544e0000440000004d61000073740000be
:080fb80065720000000000005a
:020000040000fa
:100fc0002e00fa0050179800611798000000eb00ff
:100fd000000f78000000eb00300798000000eb00e5
:100fe000400798004034250001c5240010179800e0
:100ff000211798000000eb00600f98000040eb0004
:101000004ae9b700100a070000000000113a80000a
:101010000002200000806000e00f5000fbff320063
:10102000113a8000f08f2f00808060000030200097
:1010300000807000103a8800c002a9000080eb0018
:1010400060198800df09070010c4b30040579800fa
:101050000000eb00000f7800100037002016800021
:10106000004078006140600000c0ea00614060001c
:101070000080fb006100600022168000e1ff2f006d
:10108000810061000080700020168800006829003f
:10109000810920001c0a07001e0fe8001e007800ce
:1010a000e40f5000edff3600c402a900c882a90079
:1010b0009c070700fa060700640907008804070078
:1010c00000902000d10320000f0a07002409070028
:1010d0002708070000902000d10320000a0a07001b
:1010e000407528002c070700d0752800cb040700a6
:1010f00000a0250021262000030a07000000eb00c5
:10110000000f78000b0037000040eb00f2050700ed
:1011100000802400811e2000fb09070010c0b300de
:10112000ed05070000802400811e2000f60907005d
:101130001e0fe8001e007800e20f5000f2ff36009c
:101140000000eb00000f78006000b800400f98002e
:10115000510f9800901680000040780061406000b8
:101160000080fb0061006000e00f500005003a00c5
:1011700010002000600f980020762800a7040700c8
:101180000400370070762800a40407000000eb007c
:10119000600f980060002000700f98000000eb00c6
:1011a000100798008701370080488000e00f50004a
:1011b000840132001e009000001798008a09070081
:1011c000100798000e109000e00f50007b013a00cd
:1011d0001e009000e00f50007801320000902000c7
:1011e00042c0b3009e009000450907000090200017
:1011f0008a0407001e009000e20f500059003200e0
:10120000e40f500007013200e10f50006b013a007b
:101210007e0890000000e800700f98007e089000a3
:10122000e60f5000020036000000eb00700f98003f
:101230007e089000010020006200200003002000d2
:10124000820f5000838f580057013e00006001005c
:10125000060037000e003700160037002000370068
:1012600028003700320037003a0037006e00900047
:10127000e00f500003003200c0762800670407002a
:10128000020037001077280064040700340037009c
:101290007e009000e00f50000300320060772800cd
:1012a0005e04070002003700b07728005b040700e7
:1012b0002b0037000090200042c0b300de009000f9
:1012c0000f09070090c4b30000e9b70040c4b300a1
:1012d00001e9b7000090200050040700200037000b
:1012e0000e089000e00f5000030032000078280044
:1012f0004a0407000200370050782800470407001e
:101300001700370030c5b30000e9b70050c5b3007f
:1013100001e9b70060c4b30002e9b7004e50900085
:1013200003e9b700009020003c0407000c003700e0
:101330001e089000e00f500003003200a078280043
:101340003604070002003700f07828003304070055
:101350000300370040792800300407000000000037
:10136000160137007e089000010020006200200076
:1013700003002000820f5000838f58000c013e00b4
:1013800000600100060037000a0037000e00370039
:101390003100370035003700480037004c00370077
:1013a000c07628001d040700100020006007980088
:1013b0009b00370060772800180407001000200009
:1013c00070079800960037007e009000e00f5000f4
:1013d0000d0032000000eb00500798000090200044
:1013e00042c0b300de009000c508070090c4b300ff
:1013f00000e9b70040c4b30001e9b7000090200045
:1014000006040700130037005e0090000000e800ab
:1014100050079800de00900000022000808f5000ee
:1014200002003600100020005007980000902000b5
:1014300042c0b300de009000b108070090c4b300c2
:1014400000e9b70040c4b30001e9b70000902000f4
:10145000f20307007200370050782800ef030700fe
:101460000000eb00000f98006d0037004e50900018
:101470000040e80040579800ce509000a0c5b3004f
:1014800080cf50000200360010c4b30040579800cf
:1014900030c5b30000e9b70050c5b30001e9b7009b
:1014a00060c4b30002e9b7004e50900003e9b700f2
:1014b00000902000d903070059003700a0782800c9
:1014c000d603070010002000100f980054003700ca
:1014d00090792800d103070000a0250021262000d4
:1014e0000909070000a025002126200006090700a1
:1014f00000a02500212620000309070030912000cc
:1015000042c0b300de0090007d0807006e0190002d
:101510004e089000de089000910707004e089000ea
:10152000de08900061004000e0804800400f980015
:10153000510f98007e0190004e089000de08900048
:101540008707070052912000124178004e08900052
:10155000de08900061004000e0804800400f9800e5
:10156000510f98004e089000de0890000707070012
:1015700062912000124178004e089000de08900031
:1015800061004000e0804800400f9800510f980033
:101590004e089000de089000fc0607004e08900000
:1015a000de08900061004000e0804800400f980095
:1015b000510f98000e0990004e089000de08900030
:1015c000670707004e089000de08900061004000a9
:1015d000e0804800400f9800510f98004e51900055
:1015e0004e089000de089000e80607004e089000c4
:1015f000de08900061004000e0804800400f980045
:10160000510f98001e0990004e089000de089000cf
:10161000530707000000eb00600f98000000000077
:10162000660037007e089000010020006200200064
:1016300003002000820f5000838f58005e003e00a0
:1016400000600100060037000a0037000e00370076
:101650003100370035003700480037004c003700b4
:10166000107728006d0307000000eb00600798006a
:101670004c003700b0772800680307000000eb003b
:1016800070079800470037007e009000e00f500080
:101690000d0032000000eb00500798000090200081
:1016a00042c0b300de0090001508070090c4b300ec
:1016b00000e9b70040c4b30001e9b7000090200082
:1016c00056030700130037005e009000e10f500042
:1016d00003003a0000022000500798000300370082
:1016e0005e0090000000e900500798000090200084
:1016f00042c0b300de0090000108070090c4b300b0
:1017000000e9b70040c4b30001e9b7000090200031
:101710004203070023003700007828003f0307003a
:1017200010002000000f98001e0037004e5090005f
:101730000040e90040579800ce50900000c4b3002c
:1017400080cf500002003e00a0c5b3004057980073
:1017500030c5b30000e9b70050c5b30001e9b700d8
:1017600060c4b30002e9b7004e50900003e9b7002f
:1017700000902000290307000a003700f0782800b5
:10178000260307000000eb00100f9800050037004b
:10179000e0792800210307000000eb00600f9800ab
:1017a00000000000050037000000000003003700c3
:1017b0000000000001003700000000000000eb0006
:1017c000804888006e089000e00f500076fe3a00d6
:1017d000307a28001103070000a0250021262000f0
:1017e000490807006000b800400f9800510f9800aa
:1017f000e0c4b3006067980050c4b30070679800fd
:1018000040c5b300006f98004e089000de089000bd
:1018100085060700106f98001e689000e00707001b
:10182000600798006e009000e00f50000300320047
:10183000807a2800f902070002003700d07a2800d9
:10184000f60207006e009000e00f50002d003200fd
:1018500000a02500212620002b08070000a025005d
:10186000212620002808070000a0250021262000ae
:1018700025080700d0c4b3006067980010c4b30007
:101880007067980030c5b300006f98004e08900054
:10189000de08900061004000e0804800400f9800a2
:1018a000510f98004e089000de0890005e06070079
:1018b000106f98001e689000b90707007007980025
:1018c0007e009000e00f500003003200207b2800d3
:1018d000d202070002003700707b2800cf02070009
:1018e00000a02500212620000708070000a02500f1
:1018f000212620000408070000a025002126200042
:101900000108070090c4b3006067980040c4b300aa
:10191000706798004e089000de089000610040005b
:10192000e0804800400f9800510f98004e0890004a
:10193000de0890003c060700006f98004e089000fb
:10194000de0890003806070015e9b7004e08900041
:10195000de08900061004000e0804800400f9800e1
:10196000510f98004e089000de0890002e060700e8
:10197000106f98004e089000de0890002a060700bd
:1019800016e9b700600220000e004000a302070025
:101990000e68900082070700c400dd00f00f2000f1
:1019a00000806000500798001e6890007c070700c8
:1019b0006f006000de00900000807000500798000b
:1019c00000a0250021262000cf07070000a0250049
:1019d00021262000cc07070000a02500212620009a
:1019e000c907070040c4b3006067980090c4b30003
:1019f0007067980070c4b300006f98004e089000a4
:101a0000de08900061004000e0804800400f980030
:101a1000510f98004e089000de0890000206070063
:101a2000106f98001e6890005d070700000f980077
:101a30000e089000e00f50000300320000782800ec
:101a40007602070002003700507828007302070072
:101a500000a0250021262000ab07070000a02500dc
:101a600021262000a807070000a02500212620002d
:101a7000a50707007e009000e00f500020003a000c
:101a800030c5b3006067980050c5b3007067980018
:101a900060c4b300006f98004e089000de0890000c
:101aa00061004000e0804800400f9800510f98000e
:101ab0004e089000de089000db050700106f9800cc
:101ac0004e089000de089000d705070040579800a8
:101ad000600220000e0040005002070000a0250018
:101ae000212620008807070000a0250021262000cd
:101af0008507070000a02500212620008207070097
:101b000020c4b3006067980050c4b30070679800a9
:101b1000c0c4b300006f98004e089000de0890002b
:101b200061004000e0804800400f9800510f98008d
:101b30004e089000de089000bb050700106f98006b
:101b40001e68900016070700100f98001e089000ee
:101b5000e00f500003003200c07b28002f02070076
:101b600002003700107c28002c02070000a025008e
:101b700021262000640707006e009000e00f50004f
:101b80007f0032007e009000e00f50002b013a00f1
:101b9000607c28008004070001003700000000007e
:101ba00000a02500212620005707070010c0b30021
:101bb00012e9b70045c9bf00e04f5000f7ff3200ff
:101bc00040932000300f98000000eb00000f7800d9
:101bd000090037003e089000104078007191200005
:101be0009e804000804878001e0fe8003e0890006c
:101bf0000000e800300f98003e0890009040780008
:101c000000c2b30080cf5000f2ff3a000040eb006a
:101c10001ae9b7000000eb00000f78003e089000c2
:101c20000000e800300f9800090037003e089000df
:101c300010407800019220009e804000804878008b
:101c40001e0fe8003e0890000000e800300f9800ea
:101c50003e0890009040780000c2b30080cf500052
:101c6000f2ff3a000040eb0023e9b7000000eb0070
:101c7000000f78003e0890000000e800300f980048
:101c8000090037003e08900010407800b191200014
:101c90009e804000804878001e0fe8003e089000bb
:101ca0000000e800300f98003e0890009040780057
:101cb00000c2b30080cf5000f2ff3a00b191200083
:101cc000914078004e50900080cf50001c003a00a8
:101cd000719120009140780015c9bf0080cf50005d
:101ce00017003a00819120009140780016c9bf008a
:101cf00080cf500012003a000000eb00000f780087
:101d000007003700b09120001e004000104078000e
:101d1000019020009e804000804878001e0fe8005f
:101d20001e007800e30f5000f6ff3600fe00900022
:101d3000009020007803070000902000b701070002
:101d40000000eb00000f78000500370040932000f2
:101d50009e0040000040eb00804878001e0fe80025
:101d60001e007800ec0f5000f8ff36000040eb003a
:101d700045e9b70010c0b30012e9b70088ff37008b
:101d800000000000f2030700307d2800a3010700d7
:101d900000a0250021262000db0607000e08900089
:101da000e00f5000090032000090200042c0b30054
:101db000be009000520607004e50900000e9b700a8
:101dc00000902000950107000c00370000902000d3
:101dd00042c0b300be009000490607004e5090007c
:101de00000e9b70000c2b30001e9b700009020008d
:101df0008a010700010037000000000080488000d1
:101e0000e00f5000fcff32001e0090000017980009
:101e100075060700100798001e009000e00f5000a4
:101e200003003a000000eb0020079800070037008d
:101e30009e0090000e109000808f500003003a002a
:101e40002e0090000000e800200798000e1090007f
:101e5000e00f500003003a001e009000e00f500019
:101e600004003a00ae00900040062000808f500031
:101e70006f0036001e009000f00f50002e00320060
:101e800001022000810f500054003200e80f500082
:101e900067003a000e089000e00f50001200320078
:101ea0003e0090000000e80030079800be0090005f
:101eb000703e2000808f5000020036000000eb00d2
:101ec000300798000090200042c0b300be00900090
:101ed0000b0607004e50900000e9b700009020006c
:101ee0004e010700520037003e0090000000e8005d
:101ef00030079800be00900030062000808f500010
:101f0000020036000000eb0030079800009020002f
:101f100042c0b300be009000f90507004e5090008b
:101f200000e9b70000c2b30001e9b700009020004b
:101f30003a0107003e0037000e089000e00f500005
:101f4000120032003e009000e00f500003003a0003
:101f5000703e200030079800030037003e009000dc
:101f60000000e900300798000090200042c0b30054
:101f7000be009000e20507004e50900000e9b70057
:101f80000090200025010700290037003e00900046
:101f9000e00f500003003a003006200030079800a0
:101fa000030037003e0090000000e9003007980071
:101fb0000090200042c0b300be009000d005070092
:101fc0004e50900000e9b70000c2b30001e9b7002d
:101fd000009020001101070015003700ae009000ae
:101fe00040062000808f5000100036000000eb00fb
:101ff000300798000090200042c0b300be0090005f
:10200000bf0507004e50900000e9b7000e08900091
:10201000e00f500002003a0000c2b30001e9b7002f
:1020200000902000fd0007000100370000000000c4
:102030000000eb008048880070ff370000000000bf
:1020400010c0b3002be9b700207b28007601070001
:10205000807d28005003070010c0b30012e9b700cc
:1020600001003700000000002ac9bf00e04f500007
:102070000f0032000040eb002ae9b7004e0090004c
:102080000000e800400798004e009000ea0f500062
:1020900005003e004e0090000b0607004092200015
:1020a0003d030700020037000000eb0040079800e6
:1020b00045c9bf00e04f5000eaff32000040eb008e
:1020c00045e9b70040932000300f98000000eb0076
:1020d000000f7800090037003e089000104078009b
:1020e000719120009e804000804878001e0fe8001b
:1020f0003e0890000000e800300f98003e08900075
:102100009040780000c2b30080cf5000f2ff3a0048
:102110000040eb001ae9b7000000eb00000f780068
:102120003e0890000000e800300f980009003700da
:102130003e08900010407800019220009e804000f0
:10214000804878001e0fe8003e0890000000e8007c
:10215000300f98003e0890009040780000c2b30015
:1021600080cf5000f2ff3a000040eb0023e9b700b7
:102170000000eb00000f78003e0890000000e8002f
:10218000300f9800090037003e089000104078009a
:10219000b19120009e804000804878001e0fe8002a
:1021a0003e0890000000e800300f98003e089000c4
:1021b0009040780000c2b30080cf5000f2ff3a0098
:1021c000c292200071912000b091200016000700fb
:1021d000fe009000c09220004f020700c092200035
:1021e0001101070000a0250021262000c6050700d8
:1021f0000000eb00000f780005003700409320003e
:102200009e0040000040eb00804878001e0fe80070
:102210001e007800ec0f5000f8ff360010c0b3002d
:1022200012e9b70090ff37000800fa001007980085
:1022300021079800320798000040eb00004f78001b
:102240000b0037001e00900010407800be00900088
:10225000804878001e0090000000e80010079800f9
:102260003e0090000000e800300798001e4fe80094
:102270001e407800e34f5000f2ff3600be00900091
:10228000e0c2b300804878003e0090000000e80003
:10229000300798000040eb00004f78000b0037003b
:1022a0002e00900010407800be009000804878001a
:1022b0002e0090000000e800200798003e009000eb
:1022c0000000e800300798001e4fe8001e4078002c
:1022d000e14f5000f2ff36000080fa0000000600d7
:1022e0000000fa00c9a2a900c982a900cda2a800d5
:1022f000cd82a9000080fa00000006000200fa006a
:10230000004f78009e40780061c060000080fb00b4
:10231000610060004d00dd0062168000f1ff2d00bd
:102320008100610000807000601688000080fa0063
:10233000000006000200fa00cd82a8000040eb0079
:10234000004f7800010037001e4fe8001e40780063
:10235000f34f5000fcff3600cd82a9000080fa0048
:10236000000006000600fa00000f78001107980030
:102370002207980010c0b300e0ff07002e00900075
:102380000080ea00d00407001e0090000080ea00f0
:10239000cd0407001e007800cb040700e5ff07000e
:1023a0000040eb00d5ff07000080fa0000000600a7
:1023b0000a00fa00000f7800110798002207980021
:1023c000330798004407980010c0b300cbff070004
:1023d0004e0090000080ea00bb0407003e00900021
:1023e0000080ea00b80407002e0090000080ea0098
:1023f000b50407001e0090000080ea00b204070048
:102400001e007800b0040700caff07000040eb0080
:10241000baff07000080fa00000006004600fa003c
:10242000202798000040eb00104798004300370039
:102430002e2090009040780090c3b30080cf5000d1
:102440000b003e002e20900090407800f0c2b300b8
:1024500080cf5000060036002e209000904078007b
:1024600000cdb30000c040002047980012003700a4
:102470002e2090009040780000c4b30080cf500020
:102480000b0036002e20900090407800a0c5b300cd
:1024900080cf500006003e002e2090009040780033
:1024a00090ccb30000c040002047980002003700e5
:1024b00040c2b300204798000040eb00004f780076
:1024c000150037001e4090000081fb001e40780080
:1024d0008080fb002e4090008081fb001e4278002f
:1024e0000480fb00c419dd00008041008001400031
:1024f000402928000080410010007800004078004a
:102500004411dd000201470081004100e3804000ea
:10251000804878001e4fe8001e407800ef4f5000c2
:10252000e8ff36002e2090000000e80020279800e9
:102530001e4090000040e800104798002e209000b8
:1025400010407800e04f5000030032001e40900021
:10255000e34f5000b6ff36000040eb00004f78001c
:102560002c0037001e4078008080fb001e41780060
:102570000280fb0000004700304090000081fb001b
:102580009e4178000380fb0070004000000047007f
:10259000304090000080fb004800dd00000071002a
:1025a000000178006608b90080007800208a2000c9
:1025b00000804000020878001e4278008480fb0002
:1025c0001e4178000280fb000002b00000004700be
:1025d000304090000081fb009e4178000380fb00aa
:1025e0000003b00000004700304090000080fb0076
:1025f0004800dd0000007100000178006608b900a5
:1026000080007800408a20000080400002087800a6
:102610001e4fe8001e407800ef4f5000d1ff3600fb
:102620000080fa00000006007600fa00203f9800c3
:102630000040eb0010479800490037002e3890000a
:102640009040780090c3b30080cf50000b003e0054
:102650002e38900090407800f0c2b30080cf500038
:10266000060036002e3890009040780000cdb30070
:1026700000c0400020479800180037002e38900016
:102680009040780000c4b30080cf50000b003600ab
:102690002e38900090407800a0c5b30080cf500045
:1026a00006003e002e3890009040780090ccb30099
:1026b00000c0400020479800080037001e409000ee
:1026c000e44f500003003a0050c2b3002047980086
:1026d0000200370040c2b300204798000040eb00e2
:1026e000004f7800150037001e4090000081fb006d
:1026f0001e4078008080fb002e4090008081fb000f
:102700001e4278000480fb00c419dd0000804100f7
:10271000800140004029280000804100100078001e
:10272000004078004411dd000201470081004100b3
:10273000e3804000804878001e4fe8001e4078008b
:10274000ef4f5000e8ff36002e3890000000e80000
:10275000203f98001e4090000040e800104798007d
:102760002e38900010407800e04f500003003200f7
:102770001e409000e64f5000b0ff36000040eb00d6
:10278000004f78004f0037001e4078008080fb002b
:102790001e4178000280fb0000004700304090009e
:1027a0000081fb009e4178000380fb007000400028
:1027b00000004700304090000080fb004800dd0032
:1027c00000007100000178006a08b90080007800fc
:1027d0002080200000804000020878001e4278001f
:1027e0008480fb001e4178000280fb000002b000e4
:1027f00000004700304090000081fb009e417800bf
:102800000380fb000003b000000047003040900050
:102810000080fb004800dd0000007100000178002e
:102820006a08b900800078004080200000804000e5
:10283000020878001e4278008480fb001e41780068
:102840000280fb000004b000000047003040900010
:102850000081fb009e4178000380fb000005b00072
:1028600000004700304090000080fb004800dd0081
:1028700000007100000178006a08b900800078004b
:102880006080200000804000020878001e4278002e
:102890008480fb001e4178000280fb000006b0002f
:1028a00000004700304090000081fb006a08b9003a
:1028b00080007800808020000080400002087800be
:1028c0001e4fe8001e407800ef4f5000aeff36006c
:1028d0000080fa00000006000400fa00204798007b
:1028e0000040eb00004f78002e409000e04f500079
:1028f00018003a000040eb00004f7800110037004c
:102900009e4078000180fb006600b90080007800de
:10291000208a2000008040008000eb000108780041
:102920009e4078000180fb006600b90080007800be
:10293000408a2000008040008000eb000108780001
:102940001e4fe8001e407800ef4f5000ecff3600ad
:10295000170037000040eb00004f780011003700ef
:102960009e4078000180fb006600b900800078007e
:10297000208a2000008040008080eb000108780061
:102980009e4078000180fb006600b900800078005e
:10299000408a2000008040008080eb000108780021
:1029a0001e4fe8001e407800ef4f5000ecff36004d
:1029b0000080fa00000006000400fa00204798009a
:1029c0000040eb00004f78002e409000e04f500098
:1029d00028003a000040eb00004f7800210037004b
:1029e0009e4078000180fb006a00b90080007800fa
:1029f00020802000008040008000eb00010878006b
:102a00009e4078000180fb006a00b90080007800d9
:102a100040802000008040008000eb00010878002a
:102a20009e4078000180fb006a00b90080007800b9
:102a300060802000008040008000eb0001087800ea
:102a40009e4078000180fb006a00b9008000780099
:102a500080802000008040008000eb0001087800aa
:102a60001e4fe8001e407800ef4f5000dcff36009c
:102a7000270037000040eb00004f780021003700ae
:102a80009e4078000180fb006a00b9008000780059
:102a900020802000008040008080eb00010878004a
:102aa0009e4078000180fb006a00b9008000780039
:102ab00040802000008040008080eb00010878000a
:102ac0009e4078000180fb006a00b9008000780019
:102ad00060802000008040008080eb0001087800ca
:102ae0009e4078000180fb006a00b90080007800f9
:102af0008080200000804000f10f20000108780055
:102b00001e4fe8001e407800ef4f5000dcff3600fb
:102b10000080fa00000006000c00fa00889fbe004a
:102b200040079800510798000f0478000f007800c4
:102b3000800478005e009000e00f500003003a002f
:102b400040c0b300004f78000200370070c0b300ef
:102b5000004f78001e4078008080fb008100e90073
:102b6000210798000080fb000000e8000000e8005a
:102b70000000d100800040000f00780081874700ee
:102b80000000e8000000d10000004000300798007d
:102b90000000eb00100798000000eb001007980001
:102ba0000c0037004e009000104078003e0190006d
:102bb0009e00900081004100804878004e00900007
:102bc0000000e800400798001e0090000000e800a8
:102bd000100798001e4078008080fb001e009000c7
:102be000808f5000efff3e003e0090006a0007001b
:102bf0000000eb00100798005e009000e00f50000e
:102c00001f003a000d0037003e00900003fe070051
:102c100000802400811e20003b03070010c0b30089
:102c20002dff070000802400811e200036030700ce
:102c30001e0090000000e800100798001e009000a1
:102c4000e20f5000f0ff3600100037003e00900009
:102c500075fe070000802400811e20002a03070063
:102c600010c0b30054ff070000802400811e200024
:102c7000250307001e0090000000e80010079800e0
:102c80001e009000e20f5000f0ff36008907780028
:102c9000880778004f04be000080fa00000006009c
:102ca0000200fa00c882a900cc82a900c842a8008c
:102cb0002135800000fe2f00008060000010a00081
:102cc0002035880011368000f00f2e0080806000d3
:102cd0000030200000807000103688002002a9001b
:102ce0000111800090ff2f0000806000001188001b
:102cf00020a2a9002062a90010082000401188002d
:102d000023a2a90023e2a9000b0007000000eb00aa
:102d1000000f780002003700000000001e0fe800de
:102d2000f00321009e007800808f5000faff3600eb
:102d30000080fa00000006000000fa0021e2a8006e
:102d40002342a8009560a8000080fa000000060059
:102d50000000fa0021e2a9002342a9009560a90021
:102d60000080fa00000006000200fa00004f780020
:102d70000000000011118000002020000080600091
:102d8000e00f5000fbff3a001e00fb0020118800fe
:102d90000080fa00000006000200fa00000f780030
:102da0000b003700000000001111800000202000ff
:102db00000806000e00f5000fbff3a001e0078002a
:102dc000104078000000fb00201188001e0fe80072
:102dd0001e00780010407800e04f5000f1ff3a00ec
:102de0000080fa0000000600809fbe00821f78006d
:102df0003400f80000002000a00188000200fa0062
:102e000020168000004078006140600000c0ea00a9
:102e1000614060000080fb006100600022168000bd
:102e2000e1ff2f0081006100008070002016880003
:102e300030118000004f7800a0c2b3009e4078009f
:102e400080cf50000300320012c9bf00e04f500095
:102e5000090032000040eb0012e9b7000040eb002f
:102e600043e9b70010c0b30044e9b7000040eb00ed
:102e700045e9b7000e00370030c2b3009e4078002d
:102e800080cf50000a003a0044c9bf00e14f500013
:102e900007003a0043c9bf00e04f50000400320071
:102ea00010c0b30045e9b7000040eb0044e9b700ab
:102eb00044c9bf00e14f50000a003a0043c9bf00b7
:102ec000ec4f500007003e0043c9bf000081fb00eb
:102ed00041932000810041009e4878000040e800b6
:102ee00043e9b7008560a9000080fa003400f900ca
:102ef0004f0178004f00be00004006003400f8008b
:102f0000881f780008002000a80188004f0478007e
:102f10000000fa008580a9000080fa003400f90062
:102f2000004006000000fa0005e1a9000421a90004
:102f300004c1a90021088000f0fc2f00008060007f
:102f40000040a000200888000000eb000008880076
:102f5000803821001008880021058000f0ff28003b
:102f60008080600000002100008070002005880043
:102f70008460a9009460a80005e1a8000080fa0020
:102f8000000006003600f800809fbe00829fbe0051
:102f9000849fbe00869fbe003400f8000000200021
:102fa000a00188000000fa00704880000000e800de
:102fb000704888007148800010032000808f500006
:102fc000100036000000eb00704888001000200060
:102fd0008048880020168000004078006140600032
:102fe00000c0ea00614060000080fb0061006000fa
:102ff00022168000e1ff2f00810061000080700038
:10300000201688002bc9bf00e04f50002500320079
:10301000604880006a00b90000007800e8004000c5
:10302000008020000080400010027800604880008e
:103030006a00b90000007800e6004000008020002f
:103040000080400090017800604880006a00b9006c
:1030500000007800e4004000008020000080400074
:1030600010017800604880006a00b9000000780014
:103070008080e800008020000080400090027800fe
:10308000604880006a00b90080007800008020005d
:10309000008040001000780085007800c4fc070024
:1030a00016003700604880006600b9000000780014
:1030b000e4004000008a20000080400010017800f9
:1030c000604880006600b900000078008080e80059
:1030d000008a200000804000900178006048800055
:1030e0006600b90080007800008a2000008040005f
:1030f00010007800830078009afc07006048800088
:103100000000e8006048880060488000ef0f500031
:10311000020036000000eb00604888004ac9bf008a
:103120000040e8004ae9b7004ac9bf00e74f500035
:10313000040036000040eb004ae9b70010c0b300bd
:103140002ae9b7008460a9008038210010088800af
:103150000080fa003400f9004f03be004f02be00a9
:103160004f01be004f00be003600f90000400600cf
:103170000000fa00c8a2a900c8c2a900cca2a800f9
:10318000ccc2a8000080fa00000006000a00fa0085
:103190002007980031079800024f98004000070070
:1031a0008002200001002000d7010700cca2a90066
:1031b00020c0b30016010700004f78002e009000d9
:1031c000be0090004809dd004800de0000007100ec
:1031d000c808de00004078000d010700004f7800ad
:1031e0002e0090000040780009010700004f780091
:1031f0000e48900006010700004f7800cca2a800fe
:10320000000000000e80e800350007001e0090005e
:1032100061006000e00f5000faff3a00280007004c
:103220000080fa00000006000600fa00100798006f
:1032300021079800cca2a9008002200001002000f4
:10324000b101070030c0b300f1000700004f780063
:103250001e009000ae0090004809dd004800de002e
:1032600000007100c808de0000407800e800070098
:10327000004f78001e00900000407800e400070036
:10328000004f780000c0eb00e1000700004f78001d
:10329000cca2a8001e4078000080fa0000000600c2
:1032a0000200fa00cca2a90060c0b300d800070059
:1032b000004f7800cca2a8000080fa0000000600b1
:1032c0000200fa00cca2a90040c0b300d000070061
:1032d000004f7800cca2a8000080fa000000060091
:1032e0000200fa00881f780000047800cca2a90030
:1032f00050c0b300c6000700004f78000040eb004c
:10330000c3000700004f7800cca2a8000000eb002b
:10331000000c78001e4c7800080078004f047800fc
:103320000080fa00000006000400fa000040eb00f4
:10333000004f7800daff07000e80e800e8ff070082
:103340001e0090000000d10061406000004f780036
:10335000dbff07001e4078000080fa000000060036
:103360000800fa001007980021079800320798001b
:10337000be009000a00020000001780011000900ac
:103380008280d8008000fd000040780001c3b300b7
:10339000014f40001e4178001e009000ae009000da
:0c33a0007aff07000080fa000000060021
:020000040000fa
:1033ac000a0900002a00000000000000a00800002c
:1033bc006a000000020000000100ff007fff7f0098
:1033cc000200ff00bfffbf000400ff00dfffdf00b3
:1033dc000800ff00efffef001000ff00f7fff70001
:1033ec002000ff00fbfffb004000ff00fdfffd0085
:1033fc008000ff00fefffe0000017f00ff7fff004a
:10340c000002bf00ffbfff000004df00ffdfff0072
:10341c000008ef00ffefff000010f700fff7ff00c0
:10342c000020fb00fffbff000040fd00fffdff0044
:10343c000080fe00fffeff005445530054004e0078
:10344c004f54450000000000460900000400000035
:10345c00000000004a09000002000000000000000b
:10346c0000080000a0000000020000000100ff00a6
:10347c007fff7f00ff7f7f0000020000ffbfff0087
:10348c00bfffbf00bf00040000ffdf00ffdfff0035
:10349c00dfdf00000800ff00efffef00ffefef00a1
:1034ac0000100000fff7ff00f7fff700f700200007
:1034bc0000fffb00fffbff00fbfb00004000ff00d8
:1034cc00fdfffd00fffdfd0000800000fffeff0082
:1034dc00fefffe00fe000000017fff007fff7f006b
:1034ec00ffff00000002bf00ffbfff00bfffff0097
:1034fc0000000400dfffdf00ffdfff00ff00000023
:10350c0008efff00efffef00ffff00000010f700d7
:10351c00fff7ff00f7ffff0000002000fbfffb00a0
:10352c00fffbff00ff00000040fdff00fdfffd0062
:10353c00ffff00000080fe00fffeff00feffff000b
:10354c000000000034090000120000000000000020
:04355c00000000006b
:020000040000fa
:103560000000fa0031368000f00f2e0080806000ed
:1035700000702000008070003036880041368000e6
:1035800000fe2f00008060000030a0004036880060
:103590004135800000fe2f00008060009000b300e5
:1035a00040358800c902a900c922a800c8e2a900c4
:1035b00011128000c0ff2f00008060000010a000ea
:1035c000101288001112800030fe2f000080600071
:1035d000c000b3001012880042e2a9008540a90093
:1035e0009540a9004382a9004362a9004342a90073
:1035f00042a2a8004322a8004302a80042c2a90098
:1036000041e2a8008540a9000080fa000000060001
:103610000200fa00004f780040c2a9009e407800e6
:103620000180fb00401288000000000000128000b2
:1036300061006000e00f5000fcff3200401280008b
:10364000004078000080fa00000006000000fa0048
:103650005136800000fe2f0000806000a000b30003
:103660005036880051368000f00f2e0080806000b8
:1036700000b0200000807000503688006382a900ee
:103680006362a9006342a8006322a9006302a90043
:1036900062e2a90062c2a90062a2a8001013800021
:1036a000c001b3001013880011138000c0ff2f0069
:1036b000008060000010a0001013880061e2a800e4
:1036c0000080fa00000006000200fa00000f7800f7
:1036d00060c2a9001e0078004013880000000000ae
:1036e0000013800061006000e00f5000fcff32001a
:1036f00040138000004078000080fa0000000600bf
:103700000600fa00000f7800110798004247980061
:103710004e4090000080fb001e0f40009e0078008d
:103720000040eb0080487800110037001e0fe900d0
:103730009e009000a0002000000178001100090008
:103740008280d8008000fd00004078000043b00077
:103750009e007800804878009e009000a000200025
:1037600000017800110009008280d800100798003d
:103770004e4090000080fb000000ea004f00de0099
:1037800000407800ce4090008140e9004147980019
:10379000e04f5000e5ff3a000080fa00000006000c
:1037a0000400fa00204798002e4090000080fb00a3
:1037b0000003b100000f78001e0078000080fa00be
:1037c000000006000000fa00d002a800d022a800e5
:1037d000d042a800d062a800d082a800d0a2a80041
:1037e0000080fa00000006000800fa009016800031
:1037f0008080ea00f0032000008f6000304a8000e3
:1038000010079800404a8000200798002e00900082
:103810009e0070001e009000808060002e009000ce
:103820001e00600000807000304a88001e00780092
:10383000404a8800304a8000300798003e009000df
:103840000080fa00000006000000fa00113a800033
:10385000f0ff2800808060000000230000807000de
:10386000103a8800113a8000f08f2f0080806000ad
:103870000030200000807000103a8800213a80005b
:10388000f0ff280000806000203a8800213a800084
:1038900000fe2f0000806000203a8800213a80005e
:1038a000f0f32f0000806000203a8800313a800059
:1038b00000e02f0000806000e001b300303a880093
:1038c0000080fa00000006000200fa00000f7800f5
:1038d0004092200042c0b3009e00780088ff07009d
:1038e000a0c2b30024e9b70000c2b30025e9b700c5
:1038f00000c2b30028e9b70030c2b30029e9b7001d
:083900000080fa00000006003f
:020000040000fa
:10390800f03fb1000180b10006003500ee03090068
:1039180000000000403fb1000180b100fbff3d0006
:103928001000b000203fb000020035000080090000
:08393800000000000000060081
:020000040000fa
:0200000401f009
:04000000cf0000002d
:020000040000fa
:0200000401f009
:04000400cf00000029
:020000040000fa
:0200000401f009
:0400080007000000ed
:020000040000fa
:0200000401f009
:04000c0003000000ed
:020000040000fa
:0200000401f009
:040010008600000066
:020000040000fa
:0200000401f009
:040014005f00000089
:020000040000fa
:0200000401f009
:04001800f7000000ed
:020000040000fa
:0200000401f009
:04001c00dfff000002
:00000001FF
