:020000040000fa
:080000000002040000000000f2
:020000040000fa
:1000080090020000900200009002000090020000a0
:100018009002000090020000900200009002000090
:100028009002000090020000900200007417000087
:100038009002000090020000900200009002000070
:100048009002000090020000900200007815000065
:1000580012160000900200009002000090020000ba
:100068009002000090020000900200009002000040
:100078009002000090020000900200009002000030
:100088009002000090020000900200009002000020
:100098009002000090020000900200009002000010
:1000a8009002000090020000900200009002000000
:1000b80090020000900200009002000090020000f0
:1000c80090020000900200009002000090020000e0
:1000d80090020000900200009002000090020000d0
:1000e80090020000900200009002000090020000c0
:1000f80090020000900200009002000090020000b0
:10010800900200009002000090020000900200009f
:10011800900200009002000090020000900200008f
:10012800900200009002000090020000900200007f
:10013800900200009002000090020000900200006f
:10014800900200009002000090020000900200005f
:10015800900200009002000090020000900200004f
:10016800900200009002000090020000900200003f
:10017800900200009002000090020000900200002f
:10018800900200009002000090020000900200001f
:10019800900200009002000090020000900200000f
:1001a80090020000900200009002000090020000ff
:1001b80090020000900200009002000090020000ef
:1001c80090020000900200009002000090020000df
:1001d80090020000900200009002000090020000cf
:1001e80090020000900200009002000090020000bf
:0801f8009002000090020000db
:020000040000fa
:10020800900200009002000090020000900200009e
:10021800900200009002000090020000900200008e
:100228009002000090020000900200007417000085
:10023800900200009002000090020000900200006e
:100248009002000090020000900200007815000063
:1002580012160000900200009002000090020000b8
:10026800900200009002000090020000900200003e
:10027800900200009002000090020000900200002e
:10028800900200009002000090020000900200001e
:10029800900200009002000090020000900200000e
:1002a80090020000900200009002000090020000fe
:1002b80090020000900200009002000090020000ee
:1002c80090020000900200009002000090020000de
:1002d80090020000900200009002000090020000ce
:1002e80090020000900200009002000090020000be
:1002f80090020000900200009002000090020000ae
:10030800900200009002000090020000900200009d
:10031800900200009002000090020000900200008d
:10032800900200009002000090020000900200007d
:10033800900200009002000090020000900200006d
:10034800900200009002000090020000900200005d
:10035800900200009002000090020000900200004d
:10036800900200009002000090020000900200003d
:10037800900200009002000090020000900200002d
:10038800900200009002000090020000900200001d
:10039800900200009002000090020000900200000d
:1003a80090020000900200009002000090020000fd
:1003b80090020000900200009002000090020000ed
:1003c80090020000900200009002000090020000dd
:1003d80090020000900200009002000090020000cd
:1003e80090020000900200009002000090020000bd
:0803f8009002000090020000d9
:020000040000fa
:10040000af9420000e7f22000e0188000000000043
:100410000c0007006085210001002000110007008a
:10042000000020000000e000020032000000020096
:1004300000000000e4070200000000000040da00b5
:100440000000fe004440a900005520000000e0002c
:100450000300320000002000a00188004440a800f2
:100460000000060091018800800078000000eb0089
:1004700015003700e280400032a0b4009101ba00bc
:10048000e280400032a0b4009102ba00e280400055
:1004900032a0b4000002eb00472bde00f507b200eb
:1004a000602ce10004003a000059eb008301e900f0
:1004b000fdff3e00040037006128e100010032002a
:1004c0000082eb00040007001101ba000200e00006
:1004d000e8ff3a00000006003159ba008301e90044
:1004e0000c0032002159ba008301e90008003200f3
:1004f0000400e00003003a00e280400032a0b400b3
:10050000f5ff370011d9ba008301e900faff3a007c
:100510008100e800e180400032a0b4000000060045
:080520000040da000000fe00bb
:020000040000fa
:10052800ff000000e7000000c30000009900000081
:10053800990000009900000099000000990000004f
:10054800990000009900000099000000990000003f
:1005580099000000c3000000e7000000ff00000051
:10056800ff000000e7000000e3000000e1000000d9
:10057800e7000000e7000000e7000000e7000000d7
:10058800e7000000e7000000e7000000e7000000c7
:10059800e70000008100000081000000ff0000006b
:1005a800ff000000c3000000810000009d00000063
:1005b8009f0000009f0000009f000000cf00000087
:1005c800e7000000f3000000f9000000f900000057
:1005d800f90000008100000081000000ff00000019
:1005e800ff000000c3000000810000009f00000021
:1005f8009f0000009f0000009f000000c300000053
:10060800c30000009f0000009f0000009f00000042
:100618009f00000081000000c3000000ff000000f0
:10062800ff000000cf000000c7000000c30000006a
:10063800c9000000c9000000c9000000c90000008e
:100648008100000081000000cf000000cf00000002
:10065800cf000000cf000000cf000000ff00000026
:10066800ff0000008100000081000000f900000088
:10067800f9000000f9000000f9000000c1000000c6
:10068800810000009f0000009f0000009f00000004
:100698009d00000081000000c3000000ff00000072
:1006a800ff0000008300000081000000b900000086
:1006b800f9000000f9000000f9000000f90000004e
:1006c800c1000000810000009900000099000000ae
:1006d8009900000081000000c3000000ff00000036
:1006e800ff00000081000000810000009f00000062
:1006f8009f0000009f0000009f0000009f00000076
:10070800cf000000e7000000e7000000e70000005d
:10071800e7000000e7000000e7000000ff0000001d
:10072800ff000000c30000008100000099000000e5
:10073800990000009900000099000000c300000023
:10074800c300000099000000990000009900000013
:100758009900000081000000c3000000ff000000b5
:10076800ff000000c30000008100000099000000a5
:10077800990000009900000081000000830000003b
:100788009f0000009f0000009f0000009f000000e5
:100798009d00000081000000c3000000ff00000071
:1007a800ff000000e7000000db00000099000000e7
:1007b80099000000990000009900000099000000cd
:1007c80081000000990000009900000099000000d5
:1007d800990000009900000099000000ff00000047
:1007e800ff000000e1000000c100000099000000c7
:1007f800990000009900000099000000c100000065
:10080800c100000099000000990000009900000054
:1008180099000000c1000000e1000000ff00000096
:10082800ff000000c300000081000000f900000084
:10083800f9000000f9000000f9000000f9000000cc
:10084800f9000000f9000000f9000000f9000000bc
:10085800f900000081000000c3000000ff00000054
:10086800ff000000e1000000c10000009900000046
:10087800990000009900000099000000990000000c
:1008880099000000990000009900000099000000fc
:1008980099000000c1000000e1000000ff00000016
:1008a800ff0000008300000081000000f900000044
:1008b800f9000000f9000000f9000000c100000084
:1008c800c1000000f9000000f9000000f900000074
:1008d800f90000008100000083000000ff00000014
:1008e800ff0000008300000081000000f900000004
:1008f800f9000000f9000000f9000000c100000044
:10090800c1000000f9000000f9000000f900000033
:10091800f9000000f9000000f9000000ff000000e5
:10092800ff0000008300000081000000f9000000c3
:10093800f9000000f9000000f9000000f9000000cb
:10094800f9000000f900000009000000990000000b
:10095800990000008100000083000000ff000000f3
:10096800ff000000990000009900000099000000b5
:100978009900000099000000990000008100000023
:1009880099000000990000009900000099000000fb
:10099800990000009900000099000000ff00000085
:1009a800ff0000008100000081000000e700000057
:1009b800e7000000e7000000e7000000e700000093
:1009c800e7000000e7000000e7000000e700000083
:1009d800e70000008100000081000000ff00000027
:1009e800ff0000009f0000009f0000009f00000023
:1009f8009f0000009f0000009f0000009f00000073
:100a08009f0000009f00000099000000990000006e
:100a1800990000008100000081000000ff00000034
:100a2800ff000000fc000000bc0000009c0000006b
:100a3800cc000000e4000000f0000000f800000016
:100a4800f8000000f0000000e4000000cc00000006
:100a58009c000000bc000000fc000000ff0000003b
:100a6800ff000000f9000000f9000000f900000094
:100a7800f9000000f9000000f9000000f90000008a
:100a8800f9000000f9000000f9000000b9000000ba
:100a9800b90000008100000081000000ff00000094
:100aa800ff0000009900000024000000240000005e
:100ab800240000002400000024000000240000009e
:100ac8003c0000003c0000003c0000003c0000002e
:100ad8003c0000003c0000003c000000ff0000005b
:100ae800ff000000b9000000b9000000b9000000d4
:100af800b9000000b1000000b1000000a50000002e
:100b0800a5000000ad0000008d0000008d00000071
:100b18009d0000009d0000009d000000ff000000f7
:100b2800ff00000081000000810000009900000023
:100b38009900000099000000990000009900000049
:100b48009900000099000000990000009900000039
:100b5800990000008100000081000000ff000000f3
:100b6800ff000000830000008100000099000000e1
:100b78009900000099000000810000008100000039
:100b8800f9000000f9000000f9000000f900000079
:100b9800f9000000f9000000f9000000ff00000063
:100ba800ff000000c3000000810000009900000061
:100bb80099000000990000009900000099000000c9
:100bc800990000009900000089000000c1000000a1
:100bd80093000000bf000000ff000000ff000000bd
:100be800ff000000c3000000810000009900000021
:100bf8009900000099000000c9000000e100000011
:100c0800f1000000c1000000890000009900000008
:100c1800990000009900000099000000ff00000002
:100c2800ff0000008300000081000000b900000000
:100c3800f9000000f9000000f9000000c100000000
:100c4800830000009f0000009f0000009d0000003e
:100c58009d00000081000000c1000000ff000000ae
:100c6800ff0000008100000081000000e700000094
:100c7800e7000000e7000000e7000000e7000000d0
:100c8800e7000000e7000000e7000000e7000000c0
:100c9800e7000000e7000000e7000000ff00000098
:100ca800ff00000099000000990000009900000072
:100cb80099000000990000009900000099000000c8
:100cc80099000000990000009900000099000000b8
:100cd8009900000081000000c3000000ff00000030
:100ce800ff00000099000000990000009900000032
:100cf8009900000099000000990000009900000088
:100d08009900000099000000990000009900000077
:100d1800db000000e7000000e7000000ff00000023
:100d2800ff0000003c0000003c0000003c00000008
:100d38003c0000003c0000003c0000003c000000bb
:100d48003c000000240000002400000024000000f3
:100d5800240000000000000099000000ff000000cf
:100d6800ff000000990000009900000099000000b1
:100d78009900000099000000db000000e30000007b
:100d8800e7000000cb000000990000009900000077
:100d9800990000009900000099000000ff00000081
:100da800ff00000099000000990000009900000071
:100db80099000000990000009900000081000000df
:100dc800c3000000e7000000e7000000e7000000a3
:100dd800e7000000e7000000e7000000ff00000057
:100de800ff00000081000000810000009f0000005b
:100df8009f000000cf000000e7000000f3000000a3
:100e0800f9000000f9000000f9000000f9000000f6
:100e18008100000081000000ff000000ff000000ca
:100e2800ff000000ff000000ff000000ff000000be
:100e3800ff000000ff000000ff000000ff000000ae
:100e4800ff000000ff000000ff000000ff0000009e
:100e5800ff000000ff000000ff000000ff0000008e
:100e6800ff000000ff000000ff000000ff0000007e
:100e7800ff000000ef000000cf000000810000002c
:100e880081000000cf000000ef000000ff0000001c
:100e9800ff000000ff000000ff000000ff0000004e
:100ea800576500006c6300006f6d0000650a000064
:100eb8000054000045530000540000005052000048
:100ec800474d0000004e0000524700004d00000052
:100ed8004e57000054200000004e00005746000006
:100ee800200000004d4f0000444d0000004d000060
:100ef8004f440000530000004449000047330000fd
:100f0800004400004947000032000000424500004c
:100f18004c54000000420000454c00004600000010
:100f2800505200004d53000000530000415600008d
:100f380045000000434100004e530000004f0000f0
:100f480055540000200000004e4500005457000092
:100f580000530000544100004c0000004d530000b5
:100f680054520000005300004c410000560000009d
:100f7800424f00004e200000004200004f46000093
:100f8800460000000a200000536c00006176000053
:100f9800652000004d6f00006465000000530000ec
:100fa800544e0000440000004d61000073740000be
:100fb80065720000004d0000313100003100000072
:020000040000fa
:100fc8002e00fa0050179800611798000000eb00f7
:100fd800000f78000000eb00300798000000eb00dd
:100fe800700f98004034250001c5240010179800a0
:100ff800211798000000eb00500f98000040eb000c
:1010080048e9b7004e09070000000000113a8000c7
:101018000002200000806000e00f5000fbff32005b
:10102800113a8000f08f2f0080806000003020008f
:1010380000807000103a8800c002a9000080eb0010
:10104800601988001d09070010c4b30020579800d4
:101058000000eb00000f7800100037002016800019
:10106800004078006140600000c0ea006140600014
:101078000080fb006100600022168000e1ff2f0065
:101088008100610000807000201688000068290037
:10109800810920005a0907001e0fe8001e00780089
:1010a800e40f5000edff3600c402a900c882a90071
:1010b800730707003a060700a2080700680407003c
:1010c80000902000d10320004d09070062080700a6
:1010d800dc06070000902000d10320004809070023
:1010e800407528006c060700d0752800ab0407007f
:1010f80000a0250021262000410907000000eb0080
:10110800000f78000b0037000040eb00d205070005
:1011180000802400811e20003909070010c0b30098
:10112800cd05070000802400811e20003409070037
:101138001e0fe8001e007800e20f5000f2ff360094
:101148000000eb00000f78006000b800300f980036
:10115800410f9800901680000040780061406000c0
:101168000080fb0061006000e00f500005003a00bd
:1011780010002000500f98002076280087040700f0
:101188000400370070762800840407000000eb0094
:10119800500f980060002000600f98000000eb00de
:1011a800100798008701370080488000e00f500042
:1011b800840132001e00900000179800c80807003c
:1011c800100798000e109000e00f50007b013a00c5
:1011d8001e009000e00f50007801320000902000bf
:1011e80042c0b3009e0090008308070000902000d2
:1011f8006a0407001e009000e20f500059003200f8
:10120800e40f500007013200e10f50006b013a0073
:101218006e0890000000e800600f98006e089000cb
:10122800e60f5000020036000000eb00600f980047
:101238006e089000010020006200200003002000da
:10124800820f5000838f580057013e000060010054
:10125800060037000e003700160037002000370060
:1012680028003700320037003a0037005e0090004f
:10127800e00f500003003200c07628004704070042
:1012880002003700107728004404070034003700b4
:101298006e009000e00f50000300320060772800d5
:1012a8003e04070002003700b07728003b0407001f
:1012b8002b0037000090200042c0b300ce00900001
:1012c8004d08070090c4b30000e9b70040c4b3005c
:1012d80001e9b70000902000300407002000370023
:1012e8007e009000e00f50000300320000782800d4
:1012f8002a04070002003700507828002704070056
:101308001700370030c5b30000e9b70050c5b30077
:1013180001e9b70060c4b30002e9b7002e5090009d
:1013280003e9b700009020001c0407000c003700f8
:101338000e089000e00f500003003200a07828004b
:101348001604070002003700f0782800130407008d
:10135800030037004079280010040700000000004f
:10136800160137006e08900001002000620020007e
:1013780003002000820f5000838f58000c013e00ac
:1013880000600100060037000a0037000e00370031
:101398003100370035003700480037004c0037006f
:1013a800c0762800fd0307001000200050079800b1
:1013b8009b00370060772800f80307001000200022
:1013c80060079800960037006e009000e00f50000c
:1013d8000d0032000000eb0040079800009020004c
:1013e80042c0b300ce0090000308070090c4b300c9
:1013f80000e9b70040c4b30001e9b700009020003d
:10140800e6030700130037004e0090000000e800d4
:1014180040079800ce00900000022000808f500006
:1014280002003600100020004007980000902000bd
:1014380042c0b300ce009000ef07070090c4b3008d
:1014480000e9b70040c4b30001e9b70000902000ec
:10145800d20307007200370050782800cf03070036
:101468000000eb00700798006d0037002e509000c8
:101478000040e80020579800ae509000a0c5b30087
:1014880080cf50000200360010c4b30020579800e7
:1014980030c5b30000e9b70050c5b30001e9b70093
:1014a80060c4b30002e9b7002e50900003e9b7000a
:1014b80000902000b903070059003700a0782800e1
:1014c800b603070010002000000f980054003700f2
:1014d80090792800b103070000a0250021262000ec
:1014e8004708070000a0250021262000440807001f
:1014f80000a0250021262000410807003091200087
:1015080042c0b300ce009000bb0707005e01900008
:101518003e089000ce089000460607003e0890005e
:10152800ce08900061004000e0804800300f98002d
:10153800410f98006e0190003e089000ce08900080
:101548003c06070052912000124178003e089000a6
:10155800ce08900061004000e0804800300f9800fd
:10156800410f98003e089000ce089000bc05070087
:1015780062912000124178003e089000ce08900049
:1015880061004000e0804800300f9800410f98004b
:101598003e089000ce089000b10507003e08900074
:1015a800ce08900061004000e0804800300f9800ad
:1015b800410f98007e0190003e089000ce089000f0
:1015c8001c0607003e089000ce089000610040000d
:1015d800e0804800300f9800410f98002e5190008d
:1015e8003e089000ce0890009d0507003e08900038
:1015f800ce08900061004000e0804800300f98005d
:10160800410f98000e0990003e089000ce08900007
:10161800080607000000eb00500f980000000000cb
:10162800660037006e08900001002000620020006c
:1016380003002000820f5000838f58005e003e0098
:1016480000600100060037000a0037000e0037006e
:101658003100370035003700480037004c003700ac
:10166800107728004d0307000000eb005007980092
:101678004c003700b0772800480307000000eb0053
:1016880060079800470037006e009000e00f500098
:101698000d0032000000eb00400798000090200089
:1016a80042c0b300ce0090005307070090c4b300b7
:1016b80000e9b70040c4b30001e9b700009020007a
:1016c80036030700130037004e009000e10f50006a
:1016d80003003a000002200040079800030037008a
:1016e8004e0090000000e90040079800009020009c
:1016f80042c0b300ce0090003f07070090c4b3007b
:1017080000e9b70040c4b30001e9b7000090200029
:101718002203070023003700007828001f03070072
:1017280010002000700798001e0037002e5090000f
:101738000040e90020579800ae50900000c4b30064
:1017480080cf500002003e00a0c5b300205798008b
:1017580030c5b30000e9b70050c5b30001e9b700d0
:1017680060c4b30002e9b7002e50900003e9b70047
:1017780000902000090307000a003700f0782800cd
:10178800060307000000eb00000f98000500370073
:10179800e0792800010307000000eb00500f9800d3
:1017a80000000000050037000000000003003700bb
:1017b8000000000001003700000000000000eb00fe
:1017c800804888005e089000e00f500076fe3a00de
:1017d800307a2800f102070000a025002126200009
:1017e800870707006000b800300f9800410f980085
:1017f800e0c4b3006067980050c4b30070679800f5
:1018080040c5b300006f98003e089000ce089000d5
:101818003a050700106f98001e6890001e07070021
:10182800500798005e009000e00f5000030032005f
:10183800807a2800d902070002003700d07a2800f1
:10184800d602070000a02500212620006c0707000b
:1018580000a02500212620006907070000a0250018
:101868002126200066070700d0c4b30060679800ef
:1018780010c4b3007067980030c5b300006f9800bb
:101888003e089000ce08900061004000e0804800cb
:10189800300f9800410f98003e089000ce08900045
:1018a80016050700106f98001e689000fa060700da
:1018b800600798006e009000e00f500003003200af
:1018c800207b2800b502070002003700707b280043
:1018d800b202070000a025002126200048070700c3
:1018e80000a02500212620004507070000a02500ac
:1018f800212620004207070090c4b30060679800c3
:1019080040c4b300706798003e089000ce0890006d
:1019180061004000e0804800300f9800410f9800b7
:101928003e089000ce089000f4040700006f98006d
:101938003e089000ce089000f004070015e9b700b3
:101948003e089000ce08900061004000e08048000a
:10195800300f9800410f98003e089000ce08900084
:10196800e6040700106f98003e089000ce0890002b
:10197800e204070016e9b700600220000e004000ec
:10198800860207000e689000c3060700c400dd0049
:10199800f00f200000806000400798001e6890004b
:1019a800bd0607006f006000ce0090000080700048
:1019b8004007980000a025002126200010070700f6
:1019c80000a02500212620000d07070000a0250003
:1019d800212620000a07070040c4b300606798006a
:1019e80090c4b3007067980070c4b300006f98008b
:1019f8003e089000ce08900061004000e08048005a
:101a0800300f9800410f98003e089000ce089000d3
:101a1800ba040700106f98001e6890009e06070021
:101a2800700798007e009000e00f5000030032001d
:101a38000078280059020700020037005078280073
:101a48005602070000a0250021262000ec0607000a
:101a580000a0250021262000e906070000a0250097
:101a680021262000e606070030c5b300606798000d
:101a780050c5b3007067980060c4b300006f980049
:101a88003e089000ce08900061004000e0804800c9
:101a9800300f9800410f98003e089000ce08900043
:101aa80096040700106f98003e089000ce0890003a
:101ab8009204070020579800600220000e004000a2
:101ac8003602070000a0250021262000cc060700ca
:101ad80000a0250021262000c906070000a0250037
:101ae80021262000c606070020c4b30060679800be
:101af80050c4b30070679800c0c4b300006f98006a
:101b08003e089000ce08900061004000e080480048
:101b1800300f9800410f98003e089000ce089000c2
:101b280076040700106f98001e6890005a06070098
:101b3800000f98000e089000e00f500003003200dc
:101b4800c07b28001502070002003700107c28001f
:101b58001202070000a0250021262000a806070081
:101b68005e009000e00f50007c0032006e00900094
:101b7800e00f500028013a00607c2800c6030700e7
:101b8800010037000000000000a0250021262000e9
:101b98009b06070010c0b30012e9b70043c9bf0095
:101ba800e04f5000f7ff320020932000200f9800ec
:101bb8000000eb00000f7800090037002e089000a5
:101bc80010407800719120009e8040008048780085
:101bd8001e0fe8002e0890000000e800200f980073
:101be8002e0890009040780000c2b30080cf5000cb
:101bf800f2ff3a000040eb001ae9b7000000eb00e2
:101c0800000f78002e0890000000e800200f9800d0
:101c1800090037002e08900010407800019220003b
:101c28009e804000804878001e0fe8002e08900033
:101c38000000e800200f98002e08900090407800df
:101c480000c2b30080cf5000f2ff3a000040eb0022
:101c580023e9b7000000eb00000f78002e08900081
:101c68000000e800200f9800090037002e089000b7
:101c780010407800b19120009e8040008048780094
:101c88001e0fe8002e0890000000e800200f9800c2
:101c98002e0890009040780000c2b30080cf50001a
:101ca800f2ff3a00b1912000914078002e50900048
:101cb80080cf500019003a007191200091407800bf
:101cc80015c9bf0080cf500014003a008191200050
:101cd8009140780016c9bf0080cf50000f003a002d
:101ce8000000eb00000f780007003700b0912000db
:101cf8001e00400010407800019020009e804000a7
:101d0800804878001e0fe8001e007800e30f50009e
:101d1800f6ff360000902000a00107000000eb004d
:101d2800000f780005003700209320009e00400037
:101d38000040eb00804878001e0fe8001e00780085
:101d4800ec0f5000f8ff36000040eb0043e9b70005
:101d580010c0b30012e9b7008bff37000000000085
:101d68003b030700307d28008c01070000a02500f8
:101d780021262000220607007e009000e00f500078
:101d8800090032000090200042c0b300be0090005d
:101d9800990507002e50900000e9b7000090200038
:101da8007e0107000c0037000090200042c0b300fd
:101db800be009000900507002e50900000e9b70083
:101dc80000c2b30001e9b7000090200073010700ca
:101dd800010037000000000080488000e00f50003c
:101de800fcff32001e00900000179800bc05070099
:101df800100798001e009000e00f500003003a0002
:101e08000000eb0020079800070037009e009000b4
:101e18000e109000808f500003003a002e009000b2
:101e28000000e800200798000e109000e00f500016
:101e380003003a001e009000e00f500004003a0032
:101e4800ae00900040062000808f50006f003600e2
:101e58001e009000f00f50002e00320001022000fa
:101e6800810f500054003200e80f500067003a001c
:101e78007e009000e00f5000120032003e009000fb
:101e88000000e80030079800be009000703e200077
:101e9800808f5000020036000000eb0030079800e9
:101ea8000090200042c0b300be0090005205070019
:101eb8002e50900000e9b70000902000370107007d
:101ec800520037003e0090000000e80030079800fc
:101ed800be00900030062000808f500002003600bf
:101ee8000000eb00300798000090200042c0b300cb
:101ef800be009000400507002e50900000e9b70092
:101f080000c2b30001e9b7000090200023010700d8
:101f18003e0037007e009000e00f500012003200b3
:101f28003e009000e00f500003003a00703e200091
:101f380030079800030037003e0090000000e900d9
:101f4800300798000090200042c0b300be00900007
:101f5800290507002e50900000e9b70000902000e6
:101f68000e010700290037003e009000e00f5000e6
:101f780003003a00300620003007980003003700bd
:101f88003e0090000000e900300798000090200013
:101f980042c0b300be009000170507002e50900005
:101fa80000e9b70000c2b30001e9b70000902000c3
:101fb800fa00070015003700ae0090004006200028
:101fc800808f5000100036000000eb0030079800aa
:101fd8000090200042c0b300be0090000605070034
:101fe8002e50900000e9b7007e009000e00f5000ee
:101ff80002003a0000c2b30001e9b70000902000d7
:10200800e600070001003700000000000000eb00b8
:102018008048880070ff37000000000010c0b3003f
:102028002be9b700207b28005f010700807d28008e
:1020380099020700010037000000000010c0b3003b
:1020480012e9b70043c9bf00e04f5000faff320061
:102058000040eb0043e9b700f07d2800520107007b
:1020680000a02500212620006505070020932000f8
:102078008902070020932000200f98000000eb0041
:10208800000f7800090037002e08900010407800f3
:10209800719120009e804000804878001e0fe80063
:1020a8002e0890000000e800200f98002e089000ed
:1020b8009040780000c2b30080cf5000f2ff3a0091
:1020c8000040eb001ae9b7000000eb00000f7800b1
:1020d8002e0890000000e800200f98000900370043
:1020e8002e08900010407800019220009e80400049
:1020f800804878001e0fe8002e0890000000e800d5
:10210800200f98002e0890009040780000c2b3007d
:1021180080cf5000f2ff3a000040eb0023e9b700ff
:102128000000eb00000f78002e0890000000e80087
:10213800200f9800090037002e0890001040780002
:10214800b19120009e804000804878001e0fe80072
:102158002e0890000000e800200f98002e0890003c
:102168009040780000c2b30080cf5000f2ff3a00e0
:10217800c292200071912000b09120001000070049
:10218800c092200044020700c09220000601070008
:102198000000eb00000f78000500370020932000b6
:1021a8009e0040000040eb00804878001e0fe800c9
:1021b8001e007800ec0f5000f8ff36009fff370034
:1021c8000800fa00100798002107980032079800c5
:1021d8000040eb00004f78000b0037001e00900015
:1021e80010407800be009000804878001e009000e3
:1021f8000000e800100798003e0090000000e8008a
:10220800300798001e4fe8001e407800e34f50004a
:10221800f2ff36000040eb00004f78000b0037005b
:102228002e00900010407800be0090008048780092
:102238002e0090000000e800200798003e00900063
:102248000000e800300798001e4fe8001e407800a4
:10225800e14f5000f2ff36000080fa00000006004f
:102268000000fa00c9a2a900c982a900cda2a8004d
:10227800cd82a9000080fa00000006000200fa00e2
:10228800004f78009e40780061c060000080fb002d
:10229800610060004d00dd0062168000f1ff2d0036
:1022a8008100610000807000601688000080fa00dc
:1022b800000006000200fa00cd82a8000040eb00f2
:1022c800004f7800010037001e4fe8001e407800dc
:1022d800f34f5000fcff3600cd82a9000080fa00c1
:1022e800000006000600fa00000f780011079800a9
:1022f8002207980010c0b300e0ff07002e009000ee
:102308000080ea002e0407001e0090000080ea000a
:102318002b0407001e00780029040700e5ff0700ca
:102328000040eb00d5ff07000080fa00000006001f
:102338000a00fa00000f7800110798002207980099
:10234800330798004407980010c0b300cbff07007c
:102358004e0090000080ea00190407003e0090003b
:102368000080ea00160407002e0090000080ea00b2
:10237800130407001e0090000080ea001004070004
:102388001e0078000e040700caff07000040eb009b
:10239800baff07000080fa00000006004600fa00b5
:1023a800202798000040eb001047980043003700b2
:1023b8002e2090009040780090c3b30080cf50004a
:1023c8000b003e002e20900090407800f0c2b30031
:1023d80080cf5000060036002e20900090407800f4
:1023e80000cdb30000c0400020479800120037001d
:1023f8002e2090009040780000c4b30080cf500099
:102408000b0036002e20900090407800a0c5b30045
:1024180080cf500006003e002e20900090407800ab
:1024280090ccb30000c0400020479800020037005d
:1024380040c2b300204798000040eb00004f7800ee
:10244800150037001e4090000081fb001e407800f8
:102458008080fb002e4090008081fb001e427800a7
:102468000480fb00c419dd000080410080014000a9
:1024780040292800008041001000780000407800c2
:102488004411dd000201470081004100e380400063
:10249800804878001e4fe8001e407800ef4f50003b
:1024a800e8ff36002e2090000000e8002027980062
:1024b8001e4090000040e800104798002e20900031
:1024c80010407800e04f5000030032001e4090009a
:1024d800e34f5000b6ff36000040eb00004f780095
:1024e8002c0037001e4078008080fb001e417800d9
:1024f8000280fb0000004700304090000081fb0094
:102508009e4178000380fb007000400000004700f7
:10251800304090000080fb004800dd0000007100a2
:10252800000178006608b90080007800208a200041
:1025380000804000020878001e4278008480fb007a
:102548001e4178000280fb000002b0000000470036
:10255800304090000081fb009e4178000380fb0022
:102568000003b00000004700304090000080fb00ee
:102578004800dd0000007100000178006608b9001d
:1025880080007800408a200000804000020878001f
:102598001e4fe8001e407800ef4f5000d1ff360074
:1025a8000080fa00000006007600fa00203f98003c
:1025b8000040eb0010479800490037002e38900083
:1025c8009040780090c3b30080cf50000b003e00cd
:1025d8002e38900090407800f0c2b30080cf5000b1
:1025e800060036002e3890009040780000cdb300e9
:1025f80000c0400020479800180037002e3890008f
:102608009040780000c4b30080cf50000b00360023
:102618002e38900090407800a0c5b30080cf5000bd
:1026280006003e002e3890009040780090ccb30011
:1026380000c0400020479800080037001e40900066
:10264800e44f500003003a0050c2b30020479800fe
:102658000200370040c2b300204798000040eb005a
:10266800004f7800150037001e4090000081fb00e5
:102678001e4078008080fb002e4090008081fb0087
:102688001e4278000480fb00c419dd000080410070
:102698008001400040292800008041001000780097
:1026a800004078004411dd0002014700810041002c
:1026b800e3804000804878001e4fe8001e40780004
:1026c800ef4f5000e8ff36002e3890000000e80079
:1026d800203f98001e4090000040e80010479800f6
:1026e8002e38900010407800e04f50000300320070
:1026f8001e409000e64f5000b0ff36000040eb004f
:10270800004f78004f0037001e4078008080fb00a3
:102718001e4178000280fb00000047003040900016
:102728000081fb009e4178000380fb0070004000a0
:1027380000004700304090000080fb004800dd00aa
:1027480000007100000178006a08b9008000780074
:102758002080200000804000020878001e42780097
:102768008480fb001e4178000280fb000002b0005c
:1027780000004700304090000081fb009e41780037
:102788000380fb000003b0000000470030409000c9
:102798000080fb004800dd000000710000017800a7
:1027a8006a08b9008000780040802000008040005e
:1027b800020878001e4278008480fb001e417800e1
:1027c8000280fb000004b000000047003040900089
:1027d8000081fb009e4178000380fb000005b000eb
:1027e80000004700304090000080fb004800dd00fa
:1027f80000007100000178006a08b90080007800c4
:102808006080200000804000020878001e427800a6
:102818008480fb001e4178000280fb000006b000a7
:1028280000004700304090000081fb006a08b900b2
:102838008000780080802000008040000208780036
:102848001e4fe8001e407800ef4f5000aeff3600e4
:102858000080fa00000006000400fa0020479800f3
:102868000040eb00004f78002e409000e04f5000f1
:1028780018003a000040eb00004f780011003700c4
:102888009e4078000180fb006600b9008000780057
:10289800208a2000008040008000eb0001087800ba
:1028a8009e4078000180fb006600b9008000780037
:1028b800408a2000008040008000eb00010878007a
:1028c8001e4fe8001e407800ef4f5000ecff360026
:1028d800170037000040eb00004f78001100370068
:1028e8009e4078000180fb006600b90080007800f7
:1028f800208a2000008040008080eb0001087800da
:102908009e4078000180fb006600b90080007800d6
:10291800408a2000008040008080eb000108780099
:102928001e4fe8001e407800ef4f5000ecff3600c5
:102938000080fa00000006000400fa001007980062
:102948000000eb00000f7800100037001e00900018
:10295800104078000080fb0090fe070000802400f3
:10296800811e20002603070010c0b300baff07002d
:1029780000802400811e2000210307001e0fe800ac
:102988001e0090000000e800100798001e00780064
:10299800e20f5000edff36000080fa00000006004c
:1029a8000200fa00c882a900cc82a900c842a80087
:1029b8002135800000fe2f00008060000010a0007c
:1029c8002035880011368000f00f2e0080806000ce
:1029d8000030200000807000103688002002a90016
:1029e8000111800090ff2f00008060000011880016
:1029f80020a2a9002062a900100820004011880028
:102a080023a2a90023e2a9000b0007000000eb00a5
:102a1800000f780002003700000000001e0fe800d9
:102a2800f00321009e007800808f5000faff3600e6
:102a38000080fa00000006000000fa0021e2a80069
:102a48002342a8009560a8000080fa000000060054
:102a58000000fa0021e2a9002342a9009560a9001c
:102a68000080fa00000006000200fa00004f78001b
:102a7800000000001111800000202000008060008c
:102a8800e00f5000fbff3a001e00fb0020118800f9
:102a98000080fa00000006000200fa00000f78002b
:102aa8000b003700000000001111800000202000fa
:102ab80000806000e00f5000fbff3a001e00780025
:102ac800104078000000fb00201188001e0fe8006d
:102ad8001e00780010407800e04f5000f1ff3a00e7
:102ae8000080fa00000006003600f800809fbe0053
:102af800829fbe00849fbe00869fbe003400f800ff
:102b080000002000a00188000200fa0020168000c2
:102b1800004078006140600000c0ea006140600049
:102b28000080fb006100600022168000e1ff2f009a
:102b3800810061000080700020168800301180003c
:102b4800004f7800a0c2b3009e40780080cf5000ac
:102b58000300320012c9bf00e04f500009003200e4
:102b68000040eb0012e9b7000040eb0041e9b70074
:102b780010c0b30042e9b7000040eb0043e9b700da
:102b88000e00370030c2b3009e40780080cf50005e
:102b98000a003a0042c9bf00e14f500007003a005e
:102ba80041c9bf00e04f50000400320010c0b3001c
:102bb80043e9b7000040eb0042e9b70042c9bf0053
:102bc800e14f50000c003a0041c9bf00ec4f5000e3
:102bd80009003e0041c9bf000081fb00219320008d
:102be800810041009e4878000040e80041e9b700b4
:102bf8001e4078009cff07008560a9000080fa004d
:102c08003400f9004f03be004f02be004f01be0062
:102c18004f00be003600f900004006003400f800fe
:102c2800881f780008002000a80188004f04780059
:102c38000000fa008580a9000080fa003400f9003d
:102c4800004006000000fa00c8a2a900c8c2a900f6
:102c5800cca2a800ccc2a8000080fa0000000600a0
:102c68000a00fa002007980031079800024f9800e0
:102c780040000700800220000100200060020700d9
:102c8800cca2a90020c0b3009f010700004f780024
:102c98002e009000be0090004809dd004800de00cc
:102ca80000007100c808de000040780096010700a7
:102cb800004f78002e009000004078009201070035
:102cc800004f78000e4890008f010700004f7800f1
:102cd800cca2a800000000000e80e8003500070024
:102ce8001e00900061006000e00f5000faff3a00fb
:102cf800280007000080fa00000006000600fa001d
:102d08001007980021079800cca2a9008002200093
:102d1800010020003a02070030c0b3007a01070022
:102d2800004f78001e009000ae0090004809dd00ba
:102d38004800de0000007100c808de00004078008e
:102d480071010700004f78001e00900000407800d5
:102d58006d010700004f780000c0eb006a01070012
:102d6800004f7800cca2a8001e4078000080fa002e
:102d7800000006000200fa00cca2a90060c0b3005f
:102d880061010700004f7800cca2a8000080fa007b
:102d9800000006000200fa00cca2a90040c0b3005f
:102da80059010700004f7800cca2a8000080fa0063
:102db800000006000200fa00881f7800000478006e
:102dc800cca2a90050c0b3004f010700004f780003
:102dd8000040eb004c010700004f7800cca2a8008f
:102de8000000eb00000c78001e4c7800080078000a
:102df8004f0478000080fa00000006000400fa0082
:102e08000040eb00004f7800daff07000e80e80072
:102e1800e8ff07001e0090000000d100614060003c
:102e2800004f7800dbff07001e4078000080fa00a2
:102e3800000006000800fa00100798002107980013
:102e480032079800be009000a00020000001780022
:102e5800110009008280d8008000fd000040780041
:102e680001c3b300014f40001e4178001e009000ce
:102e7800ae0090007aff07000080fa00000006000c
:102e88000000fa0005e1a9000421a90004c1a90075
:102e980021088000f0fc2f00008060000040a000a6
:102ea800200888000000eb00000888008038210016
:102eb8001008880021058000f0ff2800808060004d
:102ec8000000210000807000200588008460a900af
:102ed8009460a80005e1a8000080fa000000060040
:102ee8003600f800809fbe00829fbe00849fbe000f
:102ef800869fbe003400f80000002000a001880072
:102f08000000fa00704880000000e800704888005f
:102f18007148800010032000808f50001000360098
:102f28000000eb00704888001000200080488800ee
:102f380020168000004078006140600000c0ea0070
:102f4800614060000080fb00610060002216800084
:102f5800e1ff2f00810061000080700020168800ca
:102f68002bc9bf00e04f50002500320060488000a8
:102f78006a00b90000007800e800400000802000e6
:102f88000080400010027800604880006a00b900a4
:102f980000007800e600400000802000008040002b
:102fa80090017800604880006a00b900000078004d
:102fb800e4004000008020000080400010017800fc
:102fc800604880006a00b900000078008080e8004e
:102fd8000080200000804000900278006048800057
:102fe8006a00b9008000780000802000008040005e
:102ff8001000780085007800cdfc07001600370027
:10300800604880006600b90000007800e4004000d5
:10301800008a20000080400010017800604880008d
:103028006600b900000078008080e800008a20006f
:103038000080400090017800604880006600b90078
:1030480080007800008a200000804000100078008e
:1030580083007800a3fc0700604880000000e800b7
:103068006048880060488000ef0f5000020036007a
:103078000000eb00604888008460a90080382100c7
:10308800100888000080fa003400f9004f03be00e1
:103098004f02be004f01be004f00be003600f900cf
:0430a80000400600de
:020000040000fa
:1030ac000a0900002800000000000000a008000031
:1030bc006a000000020000000100ff007fff7f009b
:1030cc000200ff00bfffbf000400ff00dfffdf00b6
:1030dc000800ff00efffef001000ff00f7fff70004
:1030ec002000ff00fbfffb004000ff00fdfffd0088
:1030fc008000ff00fefffe0000017f00ff7fff004d
:10310c000002bf00ffbfff000004df00ffdfff0075
:10311c000008ef00ffefff000010f700fff7ff00c3
:10312c000020fb00fffbff000040fd00fffdff0047
:10313c000080fe00fffeff005445530054004e007b
:10314c004f5445000000000044090000040000003a
:10315c000000000048090000020000000000000010
:10316c0000080000a0000000020000000100ff00a9
:10317c007fff7f00ff7f7f0000020000ffbfff008a
:10318c00bfffbf00bf00040000ffdf00ffdfff0038
:10319c00dfdf00000800ff00efffef00ffefef00a4
:1031ac0000100000fff7ff00f7fff700f70020000a
:1031bc0000fffb00fffbff00fbfb00004000ff00db
:1031cc00fdfffd00fffdfd0000800000fffeff0085
:1031dc00fefffe00fe000000017fff007fff7f006e
:1031ec00ffff00000002bf00ffbfff00bfffff009a
:1031fc0000000400dfffdf00ffdfff00ff00000026
:10320c0008efff00efffef00ffff00000010f700da
:10321c00fff7ff00f7ffff0000002000fbfffb00a3
:10322c00fffbff00ff00000040fdff00fdfffd0065
:10323c00ffff00000080fe00fffeff00feffff000e
:10324c000000000032090000120000000000000025
:04325c00000000006e
:020000040000fa
:103260000000fa0031368000f00f2e0080806000f0
:1032700000702000008070003036880041368000e9
:1032800000fe2f00008060000030a0004036880063
:103290004135800000fe2f00008060009000b300e8
:1032a00040358800c902a900c922a800c8e2a900c7
:1032b00011128000c0ff2f00008060000010a000ed
:1032c000101288001112800030fe2f000080600074
:1032d000c000b3001012880042e2a9008540a90096
:1032e0009540a9004382a9004362a9004342a90076
:1032f00042a2a8004322a8004302a80042c2a9009b
:1033000041e2a8008540a9000080fa000000060004
:103310000200fa00004f780040c2a9009e407800e9
:103320000180fb00401288000000000000128000b5
:1033300061006000e00f5000fcff3200401280008e
:10334000004078000080fa00000006000000fa004b
:103350005136800000fe2f0000806000a000b30006
:103360005036880051368000f00f2e0080806000bb
:1033700000b0200000807000503688006382a900f1
:103380006362a9006342a8006322a9006302a90046
:1033900062e2a90062c2a90062a2a8001013800024
:1033a000c001b3001013880011138000c0ff2f006c
:1033b000008060000010a0001013880061e2a800e7
:1033c0000080fa00000006000200fa00000f7800fa
:1033d00060c2a9001e0078004013880000000000b1
:1033e0000013800061006000e00f5000fcff32001d
:1033f00040138000004078000080fa0000000600c2
:103400000600fa00000f7800110798004247980064
:103410004e4090000080fb001e0f40009e00780090
:103420000040eb0080487800110037001e0fe900d3
:103430009e009000a000200000017800110009000b
:103440008280d8008000fd00004078000043b0007a
:103450009e007800804878009e009000a000200028
:1034600000017800110009008280d8001007980040
:103470004e4090000080fb000000ea004f00de009c
:1034800000407800ce4090008140e900414798001c
:10349000e04f5000e5ff3a000080fa00000006000f
:1034a0000400fa00204798002e4090000080fb00a6
:1034b0000003b100000f78001e0078000080fa00c1
:1034c000000006000000fa00d002a800d022a800e8
:1034d000d042a800d062a800d082a800d0a2a80044
:1034e0000080fa00000006000800fa009016800034
:1034f0008080ea00f0032000008f6000204a8000f6
:1035000010079800304a8000200798002e00900095
:103510009e0070001e009000808060002e009000d1
:103520001e00600000807000204a88001e007800a5
:10353000304a8800204a8000300798003e00900002
:103540000080fa00000006000000fa00113a800036
:10355000f0ff2800808060000000230000807000e1
:10356000103a8800113a8000f08f2f0080806000b0
:103570000030200000807000103a8800213a80005e
:10358000f0ff280000806000203a8800213a800087
:1035900000fe2f0000806000203a8800213a800061
:1035a000f0f32f0000806000203a8800313a80005c
:1035b00000e02f0000806000e001b300303a880096
:1035c0000080fa00000006000200fa00000f7800f8
:1035d0004092200042c0b3009e00780088ff0700a0
:1035e000a0c2b30024e9b70000c2b30025e9b700c8
:1035f00000c2b30028e9b70030c2b30029e9b70020
:083600000080fa000000060042
:020000040000fa
:10360800f03fb1000180b10006003500ee0309006b
:1036180000000000403fb1000180b100fbff3d0009
:103628001000b000203fb000020035000080090003
:08363800000000000000060084
:020000040000fa
:0200000401f009
:04000000cf0000002d
:020000040000fa
:0200000401f009
:04000400cf00000029
:020000040000fa
:0200000401f009
:0400080007000000ed
:020000040000fa
:0200000401f009
:04000c0003000000ed
:020000040000fa
:0200000401f009
:040010008600000066
:020000040000fa
:0200000401f009
:040014005f00000089
:020000040000fa
:0200000401f009
:04001800f7000000ed
:020000040000fa
:0200000401f009
:04001c00dfff000002
:00000001FF
