:020000040000fa
:080000000002040000000000f2
:020000040000fa
:1000080090020000900200009002000090020000a0
:100018009002000090020000900200009002000090
:100028009002000090020000900200001c120000e4
:100038009002000090020000900200009002000070
:10004800900200009002000090020000881000005a
:100058000a110000900200009002000090020000c7
:100068009002000090020000900200009002000040
:100078009002000090020000900200009002000030
:100088009002000090020000900200009002000020
:100098009002000090020000900200009002000010
:1000a8009002000090020000900200009002000000
:1000b80090020000900200009002000090020000f0
:1000c80090020000900200009002000090020000e0
:1000d80090020000900200009002000090020000d0
:1000e80090020000900200009002000090020000c0
:1000f80090020000900200009002000090020000b0
:10010800900200009002000090020000900200009f
:10011800900200009002000090020000900200008f
:10012800900200009002000090020000900200007f
:10013800900200009002000090020000900200006f
:10014800900200009002000090020000900200005f
:10015800900200009002000090020000900200004f
:10016800900200009002000090020000900200003f
:10017800900200009002000090020000900200002f
:10018800900200009002000090020000900200001f
:10019800900200009002000090020000900200000f
:1001a80090020000900200009002000090020000ff
:1001b80090020000900200009002000090020000ef
:1001c80090020000900200009002000090020000df
:1001d80090020000900200009002000090020000cf
:1001e80090020000900200009002000090020000bf
:0801f8009002000090020000db
:020000040000fa
:10020800900200009002000090020000900200009e
:10021800900200009002000090020000900200008e
:100228009002000090020000900200001c120000e2
:10023800900200009002000090020000900200006e
:100248009002000090020000900200008810000058
:100258000a110000900200009002000090020000c5
:10026800900200009002000090020000900200003e
:10027800900200009002000090020000900200002e
:10028800900200009002000090020000900200001e
:10029800900200009002000090020000900200000e
:1002a80090020000900200009002000090020000fe
:1002b80090020000900200009002000090020000ee
:1002c80090020000900200009002000090020000de
:1002d80090020000900200009002000090020000ce
:1002e80090020000900200009002000090020000be
:1002f80090020000900200009002000090020000ae
:10030800900200009002000090020000900200009d
:10031800900200009002000090020000900200008d
:10032800900200009002000090020000900200007d
:10033800900200009002000090020000900200006d
:10034800900200009002000090020000900200005d
:10035800900200009002000090020000900200004d
:10036800900200009002000090020000900200003d
:10037800900200009002000090020000900200002d
:10038800900200009002000090020000900200001d
:10039800900200009002000090020000900200000d
:1003a80090020000900200009002000090020000fd
:1003b80090020000900200009002000090020000ed
:1003c80090020000900200009002000090020000dd
:1003d80090020000900200009002000090020000cd
:1003e80090020000900200009002000090020000bd
:0803f8009002000090020000d9
:020000040000fa
:100400000f8920000e7f22000e01880000000000ee
:100410000c000700e02a2100010020001100070065
:10042000000020000000e000020032000000020096
:100430000000000092070200000000000040da0007
:100440000000fe004440a900e04f20000000e00052
:100450000300320000002000a00188004440a800f2
:100460000000060091018800800078000000eb0089
:1004700015003700e280400032a0b4009101ba00bc
:10048000e280400032a0b4009102ba00e280400055
:1004900032a0b4000002eb00472bde00f507b200eb
:1004a000602ce10004003a000059eb008301e900f0
:1004b000fdff3e00040037006128e100010032002a
:1004c0000082eb00040007001101ba000200e00006
:1004d000e8ff3a00000006003159ba008301e90044
:1004e0000c0032002159ba008301e90008003200f3
:1004f0000400e00003003a00e280400032a0b400b3
:10050000f5ff370011d9ba008301e900faff3a007c
:100510008100e800e180400032a0b4000000060045
:080520000040da000000fe00bb
:020000040000fa
:10052800ff000000ff000000ff000000c300000003
:10053800990000009900000099000000890000005f
:10054800910000009900000099000000810000005f
:10055800c3000000ff000000ff000000ff000000d3
:10056800ff000000ff000000ff0000008100000005
:1005780081000000e1000000e5000000e700000045
:10058800e7000000e7000000e7000000810000002d
:1005980081000000ff000000ff000000ff000000d5
:1005a800ff000000ff000000ff000000c300000083
:1005b80081000000bd000000bf00000083000000b3
:1005c800c1000000fd000000bd0000008100000027
:1005d80081000000ff000000ff000000ff00000095
:1005e800ff000000ff000000ff000000c100000045
:1005f800810000009f0000009f00000083000000b1
:10060800830000009f0000009f00000081000000a0
:10061800c1000000ff000000ff000000ff00000014
:10062800ff000000ff000000ff000000e7000000de
:10063800c3000000c9000000c9000000c900000094
:100648008100000083000000cf000000cf00000000
:10065800cf000000ff000000ff000000ff000000c6
:10066800ff000000ff000000ff0000008100000004
:1006780081000000f9000000f9000000c10000003e
:10068800810000009f0000009f0000008100000022
:10069800c1000000ff000000ff000000ff00000094
:1006a800ff000000ff000000ff00000081000000c4
:1006b80081000000b9000000f9000000f900000006
:1006c8008100000081000000990000008100000006
:1006d80081000000ff000000ff000000ff00000094
:1006e800ff000000ff000000ff0000008100000084
:1006f800810000009d0000009f0000009f00000096
:100708009f0000009f0000009f0000009f00000065
:100718009f000000ff000000ff000000ff00000035
:10072800ff000000ff000000ff000000c300000001
:10073800810000009900000099000000810000007d
:10074800810000009900000099000000810000006d
:10075800c3000000ff000000ff000000ff000000d1
:10076800ff000000ff000000ff000000c3000000c1
:100778008100000099000000810000008300000053
:100788009f0000009f0000009d0000008100000005
:10079800c3000000ff000000ff000000ff00000091
:1007a800ff000000ff000000ff000000c300000081
:1007b80081000000990000009900000099000000e5
:1007c80081000000810000009900000099000000ed
:1007d80099000000ff000000ff000000ff0000007b
:1007e800ff000000ff000000ff000000c100000043
:1007f800810000009900000099000000c10000007d
:1008080081000000990000009900000081000000ac
:10081800c1000000ff000000ff000000ff00000012
:10082800ff000000ff000000ff000000c300000000
:1008380081000000b9000000f9000000f900000084
:10084800f9000000f9000000b90000008100000074
:10085800c3000000ff000000ff000000ff000000d0
:10086800ff000000ff000000ff000000c1000000c2
:100878008100000099000000990000009900000024
:100888009900000099000000990000008100000014
:10089800c1000000ff000000ff000000ff00000092
:1008a800ff000000ff000000ff00000083000000c0
:1008b80081000000f9000000f9000000e1000000dc
:1008c800e1000000f9000000f900000081000000cc
:1008d80083000000ff000000ff000000ff00000090
:1008e800ff000000ff000000ff0000008300000080
:1008f80081000000f9000000f9000000f900000084
:10090800c1000000c1000000f9000000f90000006b
:10091800f9000000ff000000ff000000ff000000d9
:10092800ff000000ff000000ff000000830000003f
:1009380081000000b9000000f9000000f900000083
:100948008900000089000000990000008100000073
:1009580083000000ff000000ff000000ff0000000f
:10096800ff000000ff000000ff00000099000000e9
:100978009900000099000000990000008100000023
:100988008100000099000000990000009900000013
:1009980099000000ff000000ff000000ff000000b9
:1009a800ff000000ff000000ff00000081000000c1
:1009b80081000000e7000000e7000000e7000000f9
:1009c800e7000000e7000000e700000081000000e9
:1009d80081000000ff000000ff000000ff00000091
:1009e800ff000000ff000000ff0000008100000081
:1009f80081000000e7000000e7000000e7000000b9
:100a0800e7000000e5000000e5000000e10000004c
:100a1800f3000000ff000000ff000000ff000000de
:100a2800ff000000ff000000ff000000b900000008
:100a380099000000c9000000e9000000f100000072
:100a4800f1000000e9000000c90000009900000062
:100a5800b9000000ff000000ff000000ff000000d8
:100a6800ff000000ff000000ff000000f900000088
:100a7800f9000000f9000000f9000000f90000008a
:100a8800f9000000990000009900000081000000b2
:100a980081000000ff000000ff000000ff000000d0
:100aa800ff000000ff000000ff000000bd00000084
:100ab80099000000810000008100000099000000fa
:100ac80099000000990000009900000099000000ba
:100ad80099000000ff000000ff000000ff00000078
:100ae800ff000000ff000000ff0000009d00000064
:100af8009d0000009d00000099000000910000008a
:100b08008900000099000000b9000000b900000049
:100b1800b9000000ff000000ff000000ff00000017
:100b2800ff000000ff000000ff000000c3000000fd
:100b38008100000099000000990000009900000061
:100b48009900000099000000990000008100000051
:100b5800c3000000ff000000ff000000ff000000cd
:100b6800ff000000ff000000ff000000c1000000bf
:100b78008100000099000000990000008100000039
:100b8800c1000000f9000000f9000000f9000000b1
:100b9800f9000000ff000000ff000000ff00000057
:100ba800ff000000ff000000ff000000c30000007d
:100bb80081000000990000009900000099000000e1
:100bc800990000009900000089000000c1000000a1
:100bd800a3000000ff000000ff000000ff0000006d
:100be800ff000000ff000000ff000000c10000003f
:100bf80081000000990000009900000081000000b9
:100c080081000000f1000000e1000000c9000000c0
:100c180099000000ff000000ff000000ff00000036
:100c2800ff000000ff000000ff000000c3000000fc
:100c380081000000b9000000f9000000c1000000b8
:100c4800830000009f0000009d000000810000005c
:100c5800c3000000ff000000ff000000ff000000cc
:100c6800ff000000ff000000ff00000081000000fe
:100c780081000000e7000000e7000000e700000036
:100c8800e7000000e7000000e7000000e7000000c0
:100c9800e7000000ff000000ff000000ff00000068
:100ca800ff000000ff000000ff00000099000000a6
:100cb80099000000990000009900000099000000c8
:100cc80099000000990000009900000081000000d0
:100cd800c3000000ff000000ff000000ff0000004c
:100ce800ff000000ff000000ff0000009900000066
:100cf8009900000099000000990000009900000088
:100d0800990000009900000081000000c300000065
:100d1800e7000000ff000000ff000000ff000000e7
:100d2800ff000000ff000000ff0000009900000025
:100d38009900000099000000990000009900000047
:100d48009900000081000000810000009900000067
:100d5800db000000ff000000ff000000ff000000b3
:100d6800ff000000ff000000ff00000099000000e5
:100d7800c3000000e7000000e7000000e7000000f3
:100d8800e7000000e7000000e7000000c3000000e3
:100d980099000000ff000000ff000000ff000000b5
:100da800ff000000ff000000ff000000bd00000081
:100db8009900000099000000db000000c30000005b
:100dc800e7000000e7000000e7000000e70000007f
:100dd800e7000000ff000000ff000000ff00000027
:100de800ff000000ff000000ff000000810000007d
:100df800810000009f0000009f000000df0000004d
:100e0800ef000000f7000000f9000000810000007a
:100e180081000000ff000000ff000000ff0000004c
:100e2800ff000000ff000000ff000000ff000000be
:100e3800ff000000ff000000ff000000ff000000ae
:100e4800ff000000ff000000ff000000ff0000009e
:100e5800ff000000ff000000ff000000ff0000008e
:100e6800576500006c6300006f6d0000650a0000a4
:100e78000054000045530000540000005052000088
:100e8800474d0000004e0000524700004d00000092
:100e98004e57000054200000004e00005746000046
:100ea800200000004d4f0000444d0000004d0000a0
:100eb8004f4400005300000044490000473300003d
:100ec800004400004947000032000000424500008d
:100ed8004c54000000420000454c00004600000051
:100ee800505200004d5300000053000041560000ce
:100ef80045000000434100004e530000004f000031
:100f08005554000020000000535400004e440000d7
:0c0f1800004d0000535400005200000087
:020000040000fa
:100f24002000fa00600f9800710f98000000eb0099
:100f3400000f78000000eb00300798000000eb0081
:100f4400300f9800fe050700c002a9000080eb00e6
:100f540060198800d905070010c4b3002057980011
:100f6400c402a900c882a9001a05070017040700d3
:100f74009b020700ea0407005d030700000000006d
:100f8400113a80000002200000806000e00f500051
:100f9400fbff3200113a8000f08f2f008080600048
:100fa4000030200000807000103a88004073280050
:100fb40042040700d07328008103070090168000c4
:100fc40000407800614060000080fb006100600028
:100fd400e00f500005003a0010002000300f980088
:100fe400207428007603070004003700707428007a
:100ff400730307000000eb00300f9800600020002e
:10100400400f98000000eb001007980038013700eb
:1010140080438000e00f5000350132001e00900034
:10102400500f9800ae050700100798005e08900066
:10103400e00f50002c013a001e009000e00f500019
:10104400290132000086200042c0b3009e009000b7
:101054007205070000862000590307001e00900057
:10106400e20f500059003200e40f5000b800320083
:10107400e10f50001c013a004e0890000000e80007
:10108400400f98004e089000e60f50000200360012
:101094000000eb00400f98004e0890000100200073
:1010a4006200200003002000820f5000838f58004c
:1010b40008013e0000600100060037000e00370002
:1010c40016003700200037002800370032003700b0
:1010d4003a0037005e009000e00f50000300320039
:1010e400c07428003603070002003700107528007a
:1010f40033030700340037006e009000e00f500007
:1011040003003200607528002d0307000200370039
:10111400b07528002a0307002b0037000086200042
:1011240042c0b300ce0090003c05070090c4b30059
:1011340060e8b70040c4b30061e8b700008620004f
:101144001f030700200037007e009000e00f5000ce
:10115400030032000076280019030700020037005c
:1011640050762800160307001700370030c5b30077
:1011740060e8b70050c5b30061e8b70060c4b300cd
:1011840062e8b7002e50900063e8b70000862000a4
:101194000b0307000c0037000e089000e00f50000e
:1011a40003003200a0762800050307000200370080
:1011b400f076280002030700030037004077280078
:1011c400ff02070000000000c70037004e0890002f
:1011d400010020006200200003002000820f500064
:1011e400838f5800bd003e000060010006003700f8
:1011f4000a0037000e003700310037003500370091
:10120400480037004c003700c0742800ec02070087
:1012140010002000500798004c003700607528002b
:10122400e70207001000200060079800470037001d
:101234006e009000e00f50000d0032000000eb0043
:10124400400798000086200042c0b300ce00900002
:10125400f204070090c4b30060e8b70040c4b300d0
:1012640061e8b70000862000d502070013003700ac
:101274004e0090000000e80040079800ce00900067
:1012840000022000808f5000020036001000200071
:10129400400798000086200042c0b300ce009000b2
:1012a400de04070090c4b30060e8b70040c4b30094
:1012b40061e8b70000862000c10207002300370060
:1012c40050762800be0207000000eb00700798006b
:1012d4001e0037002e5090000040e8002057980070
:1012e400ae509000a0c5b30080cf5000020036007d
:1012f40010c4b3002057980030c5b30060e8b700ad
:1013040050c5b30061e8b70060c4b30062e8b70039
:101314002e50900063e8b70000862000a802070062
:101324000a003700a0762800a5020700100020005c
:10133400000f98000500370090772800a0020700ee
:101344000000eb00300f980000000000660037003a
:101354004e089000010020006200200003002000dd
:10136400820f5000838f58005e003e000060010031
:10137400060037000a0037000e003700310037003e
:1013840035003700480037004c003700107528003e
:101394008b0207000000eb00500798004c00370058
:1013a400b0752800860207000000eb006007980073
:1013b400470037006e009000e00f50000d0032002f
:1013c4000000eb00400798000086200042c0b300f4
:1013d400ce0090009104070090c4b30060e8b70009
:1013e40040c4b30061e8b70000862000740207001f
:1013f400130037004e009000e10f500003003a0044
:101404000002200040079800030037004e009000bf
:101414000000e900400798000086200042c0b300a5
:10142400ce0090007d04070090c4b30060e8b700cc
:1014340040c4b30061e8b7000086200060020700e2
:1014440023003700007628005d020700100020000a
:10145400700798001e0037002e5090000040e900ed
:1014640020579800ae50900000c4b30080cf5000c5
:1014740002003e00a0c5b3002057980030c5b30059
:1014840060e8b70050c5b30061e8b70060c4b300ba
:1014940062e8b7002e50900063e8b7000086200091
:1014a400470207000a003700f076280044020700cc
:1014b4000000eb00000f980005003700e0772800db
:1014c4003f0207000000eb00300f9800000000000e
:1014d4000500370000000000030037000000000092
:1014e40001003700000000000000eb00804388008a
:1014f4003e089000e00f5000c5fe3a003078280006
:101504002f02070000a0250021262000ac040700bc
:101514002087200042c0b300ce0090003f040700a3
:10152400208720002602070000a025002126200095
:10153400a30407005e009000e00f50005f0032003b
:101544006e009000e00f50000b013a0001003700dc
:10155400000000008ac8bf00e04f5000fcff3200ca
:10156400e0872000200f98000000eb00000f7800b7
:10157400090037002e089000104078009187200061
:101584009e804000804878001e0fe8002e089000de
:101594000000e800200f98002e089000904078008a
:1015a40000c2b30080cf5000f2ff3a000040eb00cd
:1015b4007ce8b7000000eb00000f78002e089000d4
:1015c4000000e800200f9800090037002e08900062
:1015d40010407800618720009e8040008048780099
:1015e4001e0fe8002e0890000000e800200f98006d
:1015f4002e0890009040780000c2b30080cf5000c5
:10160400f2ff3a000040eb0078e8b7009187200031
:10161400914078002e50900080cf500019003a007d
:10162400618720009140780074c8bf0080cf5000cb
:1016340014003a00718720009140780075c8bf00fb
:1016440080cf50000f003a000000eb00000f78003c
:1016540007003700908720001e00400010407800eb
:10166400018620009e804000804878001e0fe8001c
:101674001e007800e30f5000f6ff360000862000bd
:10168400cf0107000000eb00000f780005003700d1
:10169400e08720009e0040000040eb008048780076
:1016a4001e0fe8001e007800e90f5000f8ff360016
:1016b4000040eb008ae8b700a6ff370000000000f6
:1016c4006c02070080782800bd01070000a02500f7
:1016d400212620003a0407007e009000e00f50000d
:1016e400090032000086200042c0b300be00900012
:1016f400ca0307002e50900060e8b700008620005f
:10170400af0107000c0037000086200042c0b30080
:10171400be009000c10307002e50900060e8b7009f
:1017240000c2b30061e8b70000862000a4010700ee
:10173400010037000000000080438000e00f5000eb
:10174400fcff32001e009000500f9800e4030700d5
:10175400100798001e009000e00f500003003a00ac
:101764000000eb0020079800070037009e0090005f
:101774005e089000808f500003003a002e00900015
:101784000000e800200798005e089000e00f500079
:1017940003003a001e009000e00f500004003a00dd
:1017a400ae00900040062000808f50006f0036008d
:1017b4001e009000f00f50002e00320001022000a5
:1017c400810f500054003200e80f500067003a00c7
:1017d4007e009000e00f5000120032003e009000a6
:1017e4000000e80030079800be009000703e200022
:1017f400808f5000020036000000eb003007980094
:101804000086200042c0b300be009000830307009e
:101814002e50900060e8b7000086200068010700a1
:10182400520037003e0090000000e80030079800a6
:10183400be00900030062000808f50000200360069
:101844000000eb00300798000086200042c0b3007f
:10185400be009000710307002e50900060e8b700ae
:1018640000c2b30061e8b7000086200054010700fd
:101874003e0037007e009000e00f5000120032005e
:101884003e009000e00f500003003a00703e20003c
:1018940030079800030037003e0090000000e90084
:1018a400300798000086200042c0b300be009000bc
:1018b4005a0307002e50900060e8b700008620000d
:1018c4003f010700290037003e009000e00f500060
:1018d40003003a0030062000300798000300370068
:1018e4003e0090000000e9003007980000862000c8
:1018f40042c0b300be009000480307002e50900081
:1019040060e8b70000c2b30061e8b70000862000b9
:101914002b01070015003700ae00900040062000a0
:10192400808f5000100036000000eb003007980054
:101934000086200042c0b300be00900037030700b9
:101944002e50900060e8b7007e009000e00f500039
:1019540002003a0000c2b30061e8b700008620002c
:101964001701070001003700000000000000eb0031
:101974008043880070ff370000000000d078280002
:101984000f01070001003700000000008ac8bf00f3
:10199400e04f5000fcff32000040eb008ae8b70043
:1019a400d078280006010700e0872000c301070063
:1019b4000000eb00000f780005003700e0872000ee
:1019c4009e0040000040eb00804878001e0fe800b5
:1019d4001e007800e90f5000f8ff3600ebff3700d7
:1019e4000000fa00c8a2a900c8c2a900c8e2a90060
:1019f400c902a900ccc2a8000f020700cca2a8000b
:101a04000080fa00000006000a00fa00300798007f
:101a1400014f98004f000700cca2a9000000eb0082
:101a2400000f780002003700000000001e0fe800dd
:101a3400f00321009e007800808f5000faff3600ea
:101a440020c0b30028020700204798003e00900001
:101a54004800de0000407800230207002047980079
:101a64003e009000004078001f02070020479800c5
:101a74000e4890001c020700204798000000eb006d
:101a8400000f780002003700000000001e0fe8007d
:101a9400f00321009e007800808f5000faff36008a
:101aa40000a8210061002000450307000000000099
:101ab400640047005b0007002e0090006100600096
:101ac400e00f5000faff3a003c000700cca2a80047
:101ad4000080fa00000006000600fa0020079800c3
:101ae400cca2a9000000eb00000f78000200370030
:101af400000000001e0fe800f00321009e007800a3
:101b0400808f5000faff360030c0b300f6010700a2
:101b1400204798002e0090004800de000040780026
:101b2400f1010700204798002e0090000040780043
:101b3400ed010700204798000040eb00ea01070090
:101b440020479800cca2a8002e4090000080fa0004
:101b5400000006000400fa00cca2a9000000eb007b
:101b6400000f780002003700000000001e0fe8009c
:101b7400f00321009e007800808f5000faff3600a9
:101b840060c0b300d8010700204798000000eb00b4
:101b9400000f780002003700000000001e0fe8006c
:101ba400f00321009e007800808f5000faff360079
:101bb400cca2a8000080fa00000006000400fa008d
:101bc400cca2a9000000eb00000f7800020037004f
:101bd400000000001e0fe800f00321009e007800c2
:101be400808f5000faff360040c0b300be010700ea
:101bf400204798000000eb00000f78000200370037
:101c0400000000001e0fe800f00321009e00780091
:101c1400808f5000faff3600cca2a8000080fa00a2
:101c2400000006000400fa00881f78000004780011
:101c3400cca2a9000000eb00000f780002003700de
:101c4400000000001e0fe800f00321009e00780051
:101c5400808f5000faff360050c0b300a201070085
:101c6400204798000040eb009f01070020479800a0
:101c7400cca2a8000000eb00000f7800020037009f
:101c8400000000001e0fe800f00321009e00780011
:101c9400808f5000faff36000000eb00000c780043
:101ca4002e409000004c7800080078004f04780023
:101cb4000080fa00000006000400fa000040eb0077
:101cc400004f7800a3ff07000e80e800d5ff07004f
:101cd4001e0090000000d10061406000004f7800b9
:101ce400b6ff07001e4078000080fa0000000600de
:101cf4000000fa00c9a2a900c982a900cda2a800c7
:101d0400cd82a9000080fa00000006000200fa005b
:101d1400004f78009e40780061c060000080fb00a6
:101d2400610060004d00dd0062168000f1ff2d00af
:101d34008100610000807000601688000080fa0055
:101d4400000006000200fa00cd82a8000040eb006b
:101d5400004f7800010037001e4fe8001e40780055
:101d6400f34f5000fcff3600cd82a9000080fa003a
:101d7400000006000600fa00000f78001107980022
:101d84002207980010c0b300e0ff07002e00900067
:101d94000080ea00810107001e0090000080ea0034
:101da4007e0107001e0078007c010700e5ff0700a4
:101db4000040eb00d5ff07000080fa000000060099
:101dc4004600fa00202798000040eb0010479800d6
:101dd400430037002e2090009040780090c3b30059
:101de40080cf50000b003e002e20900090407800e1
:101df400f0c2b30080cf5000060036002e209000c1
:101e04009040780000cdb30000c040002047980007
:101e1400120037002e2090009040780000c4b300d8
:101e240080cf50000b0036002e20900090407800a8
:101e3400a0c5b30080cf500006003e002e209000c5
:101e44009040780090ccb30000c040002047980038
:101e54000200370040c2b300204798000040eb0066
:101e6400004f7800150037001e4090000081fb00f1
:101e74001e4078008080fb002e4090008081fb0093
:101e84001e4278000480fb00c419dd00008041007c
:101e940080014000402928000080410010007800a3
:101ea400004078004411dd00020147008100410038
:101eb400e3804000804878001e4fe8001e40780010
:101ec400ef4f5000e8ff36002e2090000000e8009d
:101ed400202798001e4090000040e800104798001a
:101ee4002e20900010407800e04f50000300320094
:101ef4001e409000e34f5000b6ff36000040eb0058
:101f0400004f78002c0037001e4078008080fb00d2
:101f14001e4178000280fb00000047003040900022
:101f24000081fb009e4178000380fb0070004000ac
:101f340000004700304090000080fb004800dd00b6
:101f440000007100000178006608b9008000780084
:101f54002080200000804000020878001e427800a3
:101f64008480fb001e4178000280fb000002b00068
:101f740000004700304090000081fb009e41780043
:101f84000380fb000003b0000000470030409000d5
:101f94000080fb004800dd000000710000017800b3
:101fa4006608b9008000780040802000008040006e
:101fb400020878001e4fe8001e407800ef4f5000e2
:101fc400d1ff36000080fa00000006000200fa008b
:101fd400c842a8002135800000fe2f000080600068
:101fe4000010a0002035880011368000f00f2e006c
:101ff400808060000030200000807000103688006f
:102004002002a9000111800090ff2f0000806000d1
:102014000011880020a2a9002062a9001008200055
:102024004011880023a2a90023e2a9000b000700a5
:102034000000eb00000f78000200370000000000f1
:102044001e0fe800f00321009e007800808f5000ee
:10205400faff36000080fa00000006000000fa00d3
:1020640021e2a8002342a8009560a8000080fa009d
:10207400000006000000fa0021e2a9002342a900a2
:102084009560a9000080fa00000006000200fa0032
:10209400004f780000000000111180000020200093
:1020a40000806000e00f5000fbff3a001e00fb00c0
:1020b400201188000080fa00000006000200fa00e7
:1020c400000f78000b0037000000000011118000a1
:1020d4000020200000806000e00f5000fbff3a0069
:1020e4001e007800104078000000fb0020118800da
:1020f4001e0fe8001e00780010407800e04f5000ea
:10210400f1ff3a000080fa0000000600809fbe0044
:10211400821f78003400f80000002000a00188002d
:102124000200fa0020168000004078006140600040
:1021340000c0ea00614060000080fb0061006000b4
:1021440022168000e1ff2f008100610000807000f2
:102154002016880030118000004f7800a0c2b30020
:102164009e40780080cf500007003a000040eb000a
:1021740088e8b70010c0b30089e8b7000040eb005e
:102184008ae8b7001c00370030c2b3009e407800d4
:1021940080cf50000b003a0089c8bf00e14f5000c7
:1021a40015003a0088c8bf00e04f5000120032000a
:1021b40010c0b3008ae8b7000040eb0089e8b7001c
:1021c4000d00370089c8bf00e14f50000a003a00f3
:1021d40088c8bf00e94f500007003e0088c8bf0010
:1021e4000081fb00e1872000810041009e487800c7
:1021f4000040e80088e8b7008560a9000080fa0084
:102204003400f9004f0178004f00be000040060082
:102214003400f800881f780008002000a801880016
:102224004f0478000000fa008580a9000080fa00bd
:102234003400f900004006000000fa003136800046
:10224400f00f2e008080600000702000008070007d
:10225400303688004136800000fe2f000080600088
:102264000030a000403688004135800000fe2f0079
:10227400008060009000b30040358800c902a900c6
:10228400c922a800c8e2a90011128000c0ff2f00d3
:10229400008060000010a00010128800111280005d
:1022a40030fe2f00008060004001b300101288004f
:1022b40042e2a9008540a9009540a9004382a900f3
:1022c4004362a9004342a90042a2a8004322a900f4
:1022d4004302a90042c2a90041e2a8008540a90026
:1022e4000080fa00000006000200fa00004f7800a7
:1022f4009e4078000180fb0040128800000000002e
:102304000012800061006000e00f5000fcff32000a
:1023140040128000004078000080fa0000000600af
:102324000000fa005136800000fe2f00008060009b
:10233400a000b3005036880051368000f00f2e0004
:102344008080600000b0200000807000503688005b
:102354006382a9006362a9006342a8006322a90002
:102364006302a90062e2a90062c2a90062a2a800f5
:1023740010138000c001b3001013880011138000f3
:10238400c0ff2f00008060000010a0001013880020
:1023940061e2a8000080fa00000006000200fa00d2
:1023a400000f780060c2a9001e0078004013880066
:1023b400000000000013800061006000e00f500086
:1023c400fcff320040138000004078000080fa00d7
:1023d400000006000000fa0005e1a9000421a9009c
:1023e40004c1a90021088000f0fc2f0000806000d7
:1023f4000040a000200888000000eb0000088800ce
:10240400803821001008880021058000f0ff280092
:10241400808060000000210000807000200588009a
:102424008460a9009460a80005e1a8000080fa0077
:10243400000006003600f800809fbe00829fbe00a8
:10244400849fbe00869fbe003400f8000000200078
:10245400a00188000000fa00704380000000e8003a
:10246400704388007143800010032000808f500067
:10247400100036000000eb007043880010002000bc
:10248400804388002016800000407800614060008e
:1024940000c0ea00614060000080fb006100600051
:1024a40022168000e1ff2f0081006100008070008f
:1024b40020168800604380006600b90000007800a0
:1024c400e4004000008020000080400010017800fb
:1024d400604380006600b900000078008080e80056
:1024e400008020000080400090017800604380005c
:1024f4006600b90080007800008020000080400061
:1025040010007800830078001afe07006043800002
:102514000000e8006043880060438000ef0f500033
:10252400020036000000eb00604388008460a900cc
:1025340080382100100888000080fa003400f90077
:102544004f03be004f02be004f01be004f00be004d
:082554003600f900004006000a
:020000040000fa
:10255c006a080000140000000000000000080000e1
:10256c006a000000020000000100ff007fff7f00f6
:10257c000200ff00bfffbf000400ff00dfffdf0011
:10258c000800ff00efffef001000ff00f7fff7005f
:10259c002000ff00fbfffb004000ff00fdfffd00e3
:1025ac008000ff00fefffe0000017f00ff7fff00a8
:1025bc000002bf00ffbfff000004df00ffdfff00d1
:1025cc000008ef00ffefff000010f700fff7ff001f
:1025dc000020fb00fffbff000040fd00fffdff00a3
:1025ec000080fe00fffeff005445530054004e00d7
:1025fc004f544500000000008c080000040000004f
:10260c00000000007e0800000e000000000000002a
:04261c0000000000ba
:020000040000fa
:102620000600fa00000f7800110798004247980052
:102630004e4090000080fb001e0f40009e0078007e
:102640000040eb0080487800110037001e0fe900c1
:102650009e009000a00020000001780011000900f9
:102660008280d8008000fd00004078000043b00068
:102670009e007800804878009e009000a000200016
:1026800000017800110009008280d800100798002e
:102690004e4090000080fb000000ea004f00de008a
:1026a00000407800ce4090008140e900414798000a
:1026b000e04f5000e5ff3a000080fa0000000600fd
:1026c0000000fa00d002a800d022a800d042a80042
:1026d000d062a800d082a800d0a2a8000080fa0092
:1026e000000006000800fa00901680008080ea00d2
:1026f000f0032000008f6000604480001007980005
:1027000070448000200798002e0090009e0070000a
:102710001e009000808060002e0090001e0060006f
:1027200000807000604488001e00780070448800bb
:1027300060448000300798003e0090000080fa005e
:10274000000006000000fa00113a8000f0ff2800a7
:10275000808060000000230000807000103a880034
:10276000113a8000f08f2f00808060000030200040
:1027700000807000103a8800213a8000f0ff2800a5
:1027800000806000203a8800213a800000fe2f007f
:1027900000806000203a8800213a8000f0f32f008a
:1027a00000806000203a8800313a800000e02f006d
:1027b00000806000e001b300303a88000080fa0039
:0427c000000006000f
:020000040000fa
:1027c400f03fb1000180b10006003500ee030900be
:1027d40000000000403fb1000180b100fbff3d005c
:1027e4001000b000203fb000020035000080090056
:0827f4000000000000000600d7
:020000040000fa
:0200000401f009
:04000000cf0000002d
:020000040000fa
:0200000401f009
:04000400cf00000029
:020000040000fa
:0200000401f009
:0400080007000000ed
:020000040000fa
:0200000401f009
:04000c0003000000ed
:020000040000fa
:0200000401f009
:040010008600000066
:020000040000fa
:0200000401f009
:040014005f00000089
:020000040000fa
:0200000401f009
:04001800f7000000ed
:020000040000fa
:0200000401f009
:04001c00dfff000002
:00000001FF
