:020000040000fa
:080000000002040000000000f2
:020000040000fa
:0400080014050000db
:020000040000fa
:04000c0014050000d7
:020000040000fa
:0400100014050000d3
:020000040000fa
:0400140014050000cf
:020000040000fa
:0400180014050000cb
:020000040000fa
:04001c0014050000c7
:020000040000fa
:0400200014050000c3
:020000040000fa
:0400240014050000bf
:020000040000fa
:0400280014050000bb
:020000040000fa
:04002c0014050000b7
:020000040000fa
:0400300014050000b3
:020000040000fa
:04003400c8020000fe
:020000040000fa
:0400380014050000ab
:020000040000fa
:04003c0014050000a7
:020000040000fa
:0400400014050000a3
:020000040000fa
:04004400140500009f
:020000040000fa
:04004800140500009b
:020000040000fa
:04004c001405000097
:020000040000fa
:040050001405000093
:020000040000fa
:04005400a403000001
:020000040000fa
:04005800000500009f
:020000040000fa
:04005c001405000087
:020000040000fa
:040060001405000083
:020000040000fa
:04006400140500007f
:020000040000fa
:04006800140500007b
:020000040000fa
:04006c001405000077
:020000040000fa
:040070001405000073
:020000040000fa
:04007400140500006f
:020000040000fa
:04007800140500006b
:020000040000fa
:04007c001405000067
:020000040000fa
:040080001405000063
:020000040000fa
:04008400140500005f
:020000040000fa
:04008800140500005b
:020000040000fa
:04008c001405000057
:020000040000fa
:040090001405000053
:020000040000fa
:04009400140500004f
:020000040000fa
:04009800140500004b
:020000040000fa
:04009c001405000047
:020000040000fa
:0400a0001405000043
:020000040000fa
:0400a400140500003f
:020000040000fa
:0400a800140500003b
:020000040000fa
:0400ac001405000037
:020000040000fa
:0400b0001405000033
:020000040000fa
:0400b400140500002f
:020000040000fa
:0400b800140500002b
:020000040000fa
:0400bc001405000027
:020000040000fa
:0400c0001405000023
:020000040000fa
:0400c400140500001f
:020000040000fa
:0400c800140500001b
:020000040000fa
:0400cc001405000017
:020000040000fa
:0400d0001405000013
:020000040000fa
:0400d400140500000f
:020000040000fa
:0400d800140500000b
:020000040000fa
:0400dc001405000007
:020000040000fa
:0400e0001405000003
:020000040000fa
:0400e40014050000ff
:020000040000fa
:0400e80014050000fb
:020000040000fa
:0400ec0014050000f7
:020000040000fa
:0400f00014050000f3
:020000040000fa
:0400f40014050000ef
:020000040000fa
:0400f80014050000eb
:020000040000fa
:0400fc0014050000e7
:020000040000fa
:0401000014050000e2
:020000040000fa
:0401040014050000de
:020000040000fa
:0401080014050000da
:020000040000fa
:04010c0014050000d6
:020000040000fa
:0401100014050000d2
:020000040000fa
:0401140014050000ce
:020000040000fa
:0401180014050000ca
:020000040000fa
:04011c0014050000c6
:020000040000fa
:0401200014050000c2
:020000040000fa
:0401240014050000be
:020000040000fa
:0401280014050000ba
:020000040000fa
:04012c0014050000b6
:020000040000fa
:0401300014050000b2
:020000040000fa
:0401340014050000ae
:020000040000fa
:0401380014050000aa
:020000040000fa
:04013c0014050000a6
:020000040000fa
:0401400014050000a2
:020000040000fa
:04014400140500009e
:020000040000fa
:04014800140500009a
:020000040000fa
:04014c001405000096
:020000040000fa
:040150001405000092
:020000040000fa
:04015400140500008e
:020000040000fa
:04015800140500008a
:020000040000fa
:04015c001405000086
:020000040000fa
:040160001405000082
:020000040000fa
:04016400140500007e
:020000040000fa
:0402080014050000d9
:020000040000fa
:04020c0014050000d5
:020000040000fa
:0402100014050000d1
:020000040000fa
:0402140014050000cd
:020000040000fa
:0402180014050000c9
:020000040000fa
:04021c0014050000c5
:020000040000fa
:0402200014050000c1
:020000040000fa
:0402240014050000bd
:020000040000fa
:0402280014050000b9
:020000040000fa
:04022c0014050000b5
:020000040000fa
:0402300014050000b1
:020000040000fa
:04023400c8020000fc
:020000040000fa
:0402380014050000a9
:020000040000fa
:04023c0014050000a5
:020000040000fa
:0402400014050000a1
:020000040000fa
:04024400140500009d
:020000040000fa
:040248001405000099
:020000040000fa
:04024c001405000095
:020000040000fa
:040250001405000091
:020000040000fa
:04025400a4030000ff
:020000040000fa
:04025800000500009d
:020000040000fa
:04025c001405000085
:020000040000fa
:040260001405000081
:020000040000fa
:04026400140500007d
:020000040000fa
:040268001405000079
:020000040000fa
:04026c001405000075
:020000040000fa
:040270001405000071
:020000040000fa
:04027400140500006d
:020000040000fa
:040278001405000069
:020000040000fa
:04027c001405000065
:020000040000fa
:040280001405000061
:020000040000fa
:04028400140500005d
:020000040000fa
:040288001405000059
:020000040000fa
:04028c001405000055
:020000040000fa
:040290001405000051
:020000040000fa
:04029400140500004d
:020000040000fa
:040298001405000049
:020000040000fa
:04029c001405000045
:020000040000fa
:0402a0001405000041
:020000040000fa
:0402a400140500003d
:020000040000fa
:0402a8001405000039
:020000040000fa
:0402ac001405000035
:020000040000fa
:0402b0001405000031
:020000040000fa
:0402b400140500002d
:020000040000fa
:0402b8001405000029
:020000040000fa
:0402bc001405000025
:020000040000fa
:0402c0001405000021
:020000040000fa
:0402c400140500001d
:020000040000fa
:0402c8001405000019
:020000040000fa
:0402cc001405000015
:020000040000fa
:0402d0001405000011
:020000040000fa
:0402d400140500000d
:020000040000fa
:0402d8001405000009
:020000040000fa
:0402dc001405000005
:020000040000fa
:0402e0001405000001
:020000040000fa
:0402e40014050000fd
:020000040000fa
:0402e80014050000f9
:020000040000fa
:0402ec0014050000f5
:020000040000fa
:0402f00014050000f1
:020000040000fa
:0402f40014050000ed
:020000040000fa
:0402f80014050000e9
:020000040000fa
:0402fc0014050000e5
:020000040000fa
:0403000014050000e0
:020000040000fa
:0403040014050000dc
:020000040000fa
:0403080014050000d8
:020000040000fa
:04030c0014050000d4
:020000040000fa
:0403100014050000d0
:020000040000fa
:0403140014050000cc
:020000040000fa
:0403180014050000c8
:020000040000fa
:04031c0014050000c4
:020000040000fa
:0403200014050000c0
:020000040000fa
:0403240014050000bc
:020000040000fa
:0403280014050000b8
:020000040000fa
:04032c0014050000b4
:020000040000fa
:0403300014050000b0
:020000040000fa
:0403340014050000ac
:020000040000fa
:0403380014050000a8
:020000040000fa
:04033c0014050000a4
:020000040000fa
:0403400014050000a0
:020000040000fa
:04034400140500009c
:020000040000fa
:040348001405000098
:020000040000fa
:04034c001405000094
:020000040000fa
:040350001405000090
:020000040000fa
:04035400140500008c
:020000040000fa
:040358001405000088
:020000040000fa
:04035c001405000084
:020000040000fa
:040360001405000080
:020000040000fa
:04036400140500007c
:020000040000fa
:100400004fb820000e7f22000e018800000000007f
:10041000000020000000e000020032000001200087
:1004200020028800140007008f0107000000e00090
:1004300003003a0000692400010020000200370098
:100440000000200001002000810f70000100320038
:1004500014000700000020000000e000020032004d
:100460000000020000000000040c02000000000078
:100470000040da000000fe004440a9002067200090
:100480000000e0000300320000002000a00188000e
:100490004440a800000006008a1f78008b1f7800e7
:1004a0000000060091018800800478000000eb0045
:1004b0001a003700e284440032a0b4009905ba0063
:1004c000e284440032a0b4009906ba00e2844400f9
:1004d00032a0b4000006eb00476fde00fd07b2005b
:1004e000636ce10003003a00ebff07000000eb0043
:1004f0000a003700606ce10004003a00005deb0088
:100500008b05e900fdff3e00040037006168e10053
:10051000010032000086eb000b00070019c7ba008b
:100520001905ba000e04e00003003a000a00e000da
:10053000e0ff3a0000000600fe07b2009e018800be
:100540008a047800f5ff3700395dba008b05e900b1
:100550000c003200295dba008b05e900080032006a
:100560000c00e00003003a00e284440032a0b40032
:10057000f5ff370019ddba008b05e900faff3a00f4
:100580008904e800e184440032a0b40000000600c1
:100590003600f800809fbe00829fbe00849fbe0090
:1005a000869fbe003400f80000002000a0018800f3
:1005b0000000fa00204080000000e8002040880091
:1005c0002140800010032000808f50000e00360074
:1005d0000428ef0010002000304088002016800022
:1005e000004078006140600000c0ea0061406000a7
:1005f0000080fb0061006000211680000100a10066
:1006000001007000201688001ac8bf000004e00036
:1006100025003200104080006a00b9000000780018
:10062000e800400020882000008040001002780090
:10063000104080006a00b90000007800e600400029
:100640002088200000804000900178001040800049
:100650006a00b90000007800e40040002088200013
:100660000080400010017800104080006a00b9004e
:10067000000078008080e800208820000080400092
:1006800090027800104080006a00b9008000780075
:10069000208820000080400010007800850078004d
:1006a0006f1d070016003700104080006600b9007b
:1006b00000007800e400400020822000008040001c
:1006c00010017800104080006600b900000078003a
:1006d0008080e800208220000080400090017800a7
:1006e000104080006600b900800078002082200061
:1006f000008040001000780083007800451d07004e
:10070000104080000000e800104088001040800089
:10071000ef0f5000010036000228ef008460a900ae
:1007200080382100100888000080fa003400f900a9
:100730004f03be004f02be004f01be004f00be007f
:100740003600f90000400600809fbe00829fbe0078
:100750003400f80000002000a00188000200fa0028
:1007600030118000004f780040c2b3009e407800f6
:1007700080cf500004003a0010c0b30010e8b7006a
:100780001468ef001568ef0060408000e10f500032
:1007900020003a0010c8bf00e14f50001d003a0091
:1007a00010c8bf000004e0000a00320030c2b300ed
:1007b0009e40780080cf500006003a0015c8bf0068
:1007c0000004e0000300320010c0b30014e8b700da
:1007d0001068ef00518120009140780090c6b3006e
:1007e00080cf500075003e0010c8bf00e14f5000a0
:1007f0006f003a0015c8bf008080fb00129b2000ec
:100800009e41780003f178000040e80015e8b70049
:100810006a003700504080000000e0003a003200db
:1008200010c8bf000004e00037003a002016800026
:10083000004078006140600000c0ea006140600054
:100840000080fb0061006000211680000100a10013
:100850000100700020168800a0c2b3009e407800fe
:1008600080cf50000300320008c8bf000004e00041
:100870000a00320040c2b3009e40780080cf500092
:10088000130032000868ef001168ef0010c0b300d9
:1008900012e8b7001368ef000d00370030c2b30054
:1008a0009e40780080cf500009003a0012c8bf0077
:1008b000e14f500006003a0011c8bf000004e000fc
:1008c0000300320010c0b30013e8b7001268ef0055
:1008d00012c8bf00e14f500038003a0011c8bf00f5
:1008e000ee4f500034003e0011c8bf008080fb0076
:1008f000229a20009e41780003f178000040e80031
:1009000011e8b7002d003700504080000000e000e3
:100910002a003a0010c8bf000004e00027003a0097
:1009200008c8bf000004e000060032000868ef00bd
:100930001168ef0010c0b30012e8b7001368ef00b1
:100940000d00370030c2b3009e40780080cf5000c9
:1009500009003a0012c8bf00e14f500006003a00fb
:1009600011c8bf000004e0000300320010c0b30053
:1009700013e8b7001268ef0012c8bf00e14f500043
:100980000e003a0011c8bf00ee4f50000b003e00b1
:1009900011c8bf008080fb00229a20009e41780091
:1009a00003f178000040e80011e8b70003003700c9
:1009b00000000000010037000000000010c8bf0068
:1009c0000004e0000800320030c2b3009e4078000e
:1009d00080cf500004003a0015c8bf000004e000ba
:1009e00001003a001068ef008560a9000080fa005d
:1009f0003400f9004f01be004f00be000040060069
:100a00003400f800881f780008002000a801880042
:100a10004f0478000000fa008580a9000080fa00e9
:100a20003400f900004006000040da000000fe003b
:100a30000003b1000b0035009000b1000800340045
:100a40008000b100070035009001b10004003400bf
:100a50007000b100030035009001b10001003c00be
:100a6000100005000000050000000500800178006e
:100a700002003700b15978000201e9000200e000ed
:100a8000fcff3a0000000600000178000200780038
:100a9000b041780081cf5100030032000304e00030
:100aa000f9ff3a000001eb000200780000000600a8
:100ab00000017800b1417800035978000304e00098
:100ac000fcff3a0000000600800078003104e000de
:100ad000feff3a000080ea000080400000000600af
:100ae00080017800060037000201e900b142780079
:100af00085597800030278000504e0000600320002
:100b0000030278000200e000f7ff3a00020037001d
:100b1000005aeb000201e9000200e000fcff3a008d
:040b200000000600cb
:020000040000fa
:100b2400ff000000e7000000c3000000990000007f
:100b3400990000009900000099000000990000004d
:100b4400990000009900000099000000990000003d
:100b540099000000c3000000e7000000ff0000004f
:100b6400ff000000e7000000e3000000e1000000d7
:100b7400e7000000e7000000e7000000e7000000d5
:100b8400e7000000e7000000e7000000e7000000c5
:100b9400e70000008100000081000000ff00000069
:100ba400ff000000c3000000810000009d00000061
:100bb4009f0000009f0000009f000000cf00000085
:100bc400e7000000f3000000f9000000f900000055
:100bd400f90000008100000081000000ff00000017
:100be400ff000000c3000000810000009f0000001f
:100bf4009f0000009f0000009f000000c300000051
:100c0400c30000009f0000009f0000009f00000040
:100c14009f00000081000000c3000000ff000000ee
:100c2400ff000000cf000000c7000000c300000068
:100c3400c9000000c9000000c9000000c90000008c
:100c44008100000081000000cf000000cf00000000
:100c5400cf000000cf000000cf000000ff00000024
:100c6400ff0000008100000081000000f900000086
:100c7400f9000000f9000000f9000000c1000000c4
:100c8400810000009f0000009f0000009f00000002
:100c94009d00000081000000c3000000ff00000070
:100ca400ff0000008300000081000000b900000084
:100cb400f9000000f9000000f9000000f90000004c
:100cc400c1000000810000009900000099000000ac
:100cd4009900000081000000c3000000ff00000034
:100ce400ff00000081000000810000009f00000060
:100cf4009f0000009f0000009f0000009f00000074
:100d0400cf000000e7000000e7000000e70000005b
:100d1400e7000000e7000000e7000000ff0000001b
:100d2400ff000000c30000008100000099000000e3
:100d3400990000009900000099000000c300000021
:100d4400c300000099000000990000009900000011
:100d54009900000081000000c3000000ff000000b3
:100d6400ff000000c30000008100000099000000a3
:100d74009900000099000000810000008300000039
:100d84009f0000009f0000009f0000009f000000e3
:100d94009d00000081000000c3000000ff0000006f
:100da400ff000000e7000000db00000099000000e5
:100db40099000000990000009900000099000000cb
:100dc40081000000990000009900000099000000d3
:100dd400990000009900000099000000ff00000045
:100de400ff000000e1000000c100000099000000c5
:100df400990000009900000099000000c100000063
:100e0400c100000099000000990000009900000052
:100e140099000000c1000000e1000000ff00000094
:100e2400ff000000c300000081000000f900000082
:100e3400f9000000f9000000f9000000f9000000ca
:100e4400f9000000f9000000f9000000f9000000ba
:100e5400f900000081000000c3000000ff00000052
:100e6400ff000000e1000000c10000009900000044
:100e7400990000009900000099000000990000000a
:100e840099000000990000009900000099000000fa
:100e940099000000c1000000e1000000ff00000014
:100ea400ff0000008300000081000000f900000042
:100eb400f9000000f9000000f9000000c100000082
:100ec400c1000000f9000000f9000000f900000072
:100ed400f90000008100000083000000ff00000012
:100ee400ff0000008300000081000000f900000002
:100ef400f9000000f9000000f9000000c100000042
:100f0400c1000000f9000000f9000000f900000031
:100f1400f9000000f9000000f9000000ff000000e3
:100f2400ff0000008300000081000000f9000000c1
:100f3400f9000000f9000000f9000000f9000000c9
:100f4400f9000000f9000000090000009900000009
:100f5400990000008100000083000000ff000000f1
:100f6400ff000000990000009900000099000000b3
:100f74009900000099000000990000008100000021
:100f840099000000990000009900000099000000f9
:100f9400990000009900000099000000ff00000083
:100fa400ff0000008100000081000000e700000055
:100fb400e7000000e7000000e7000000e700000091
:100fc400e7000000e7000000e7000000e700000081
:100fd400e70000008100000081000000ff00000025
:100fe400ff0000009f0000009f0000009f00000021
:100ff4009f0000009f0000009f0000009f00000071
:101004009f0000009f00000099000000990000006c
:10101400990000008100000081000000ff00000032
:10102400ff000000fc000000bc0000009c00000069
:10103400cc000000e4000000f0000000f800000014
:10104400f8000000f0000000e4000000cc00000004
:101054009c000000bc000000fc000000ff00000039
:10106400ff000000f9000000f9000000f900000092
:10107400f9000000f9000000f9000000f900000088
:10108400f9000000f9000000f9000000b9000000b8
:10109400b90000008100000081000000ff00000092
:1010a400ff0000009900000024000000240000005c
:1010b400240000002400000024000000240000009c
:1010c4003c0000003c0000003c0000003c0000002c
:1010d4003c0000003c0000003c000000ff00000059
:1010e400ff000000b9000000b9000000b9000000d2
:1010f400b9000000b1000000b1000000a50000002c
:10110400a5000000ad0000008d0000008d0000006f
:101114009d0000009d0000009d000000ff000000f5
:10112400ff00000081000000810000009900000021
:101134009900000099000000990000009900000047
:101144009900000099000000990000009900000037
:10115400990000008100000081000000ff000000f1
:10116400ff000000830000008100000099000000df
:101174009900000099000000810000008100000037
:10118400f9000000f9000000f9000000f900000077
:10119400f9000000f9000000f9000000ff00000061
:1011a400ff000000c300000081000000990000005f
:1011b40099000000990000009900000099000000c7
:1011c400990000009900000089000000c10000009f
:1011d40093000000bf000000ff000000ff000000bb
:1011e400ff000000c300000081000000990000001f
:1011f4009900000099000000c9000000e10000000f
:10120400f1000000c1000000890000009900000006
:10121400990000009900000099000000ff00000000
:10122400ff0000008300000081000000b9000000fe
:10123400f9000000f9000000f9000000c1000000fe
:10124400830000009f0000009f0000009d0000003c
:101254009d00000081000000c1000000ff000000ac
:10126400ff0000008100000081000000e700000092
:10127400e7000000e7000000e7000000e7000000ce
:10128400e7000000e7000000e7000000e7000000be
:10129400e7000000e7000000e7000000ff00000096
:1012a400ff00000099000000990000009900000070
:1012b40099000000990000009900000099000000c6
:1012c40099000000990000009900000099000000b6
:1012d4009900000081000000c3000000ff0000002e
:1012e400ff00000099000000990000009900000030
:1012f4009900000099000000990000009900000086
:101304009900000099000000990000009900000075
:10131400db000000e7000000e7000000ff00000021
:10132400ff0000003c0000003c0000003c00000006
:101334003c0000003c0000003c0000003c000000b9
:101344003c000000240000002400000024000000f1
:10135400240000000000000099000000ff000000cd
:10136400ff000000990000009900000099000000af
:101374009900000099000000db000000e300000079
:10138400e7000000cb000000990000009900000075
:10139400990000009900000099000000ff0000007f
:1013a400ff0000009900000099000000990000006f
:1013b40099000000990000009900000081000000dd
:1013c400c3000000e7000000e7000000e7000000a1
:1013d400e7000000e7000000e7000000ff00000055
:1013e400ff00000081000000810000009f00000059
:1013f4009f000000cf000000e7000000f3000000a1
:10140400f9000000f9000000f9000000f9000000f4
:101414008100000081000000ff000000ff000000c8
:10142400ff000000ff000000ff000000ff000000bc
:10143400ff000000ff000000ff000000ff000000ac
:10144400ff000000ff000000ff000000ff0000009c
:10145400ff000000ff000000ff000000ff0000008c
:10146400ff000000ff000000ff000000ff0000007c
:10147400ff000000ef000000cf000000810000002a
:1014840081000000cf000000ef000000ff0000001a
:10149400ff000000ff000000ff000000ff0000004c
:1014a4000000000000000000000000000000000038
:1014b4000000000000000000000000000000000028
:1014c4000000000000000000000000000000000018
:1014d4000000000000000000000000000000000008
:1014e400fe000000ff000000ff000000ff000000fd
:1014f400ff000000ff000000ff000000ff000000ec
:10150400ff000000ff000000ff000000ff000000db
:10151400ff000000ff000000ff000000ff000000cb
:101524005445000053540000202000002000000017
:10153400563300002e300000202000002000000060
:1015440050520000474d0000202000002000000001
:101554004e520000474d00002020000020000000f3
:101564004e570000542000002020000020000000fe
:101574004e570000462000002020000020000000fc
:101584004d530000545200002020000020000000b1
:1015940053450000434f00004e4400000053000038
:1015a4004c410000562000002020000000530000a1
:1015b4005444000041200000200000004d5500006c
:1015c4004c5400002020000020000000534900007b
:1015d4004e47000020200000200000004449000085
:1015e4004733000020200000200000004449000090
:1015f4004732000020200000200000004245000087
:101604004c5400002020000020000000424500004f
:101614004c46000020200000200000005052000032
:101624004d5300002020000020000000534500001e
:10163400434e00004452000059000000535400007f
:10164400444100002020000020000000534100001d
:101654005645000020200000200000004341000007
:101664004e53000020200000200000004f550000d1
:1016740054200000005300004c41000056000000bc
:101684005354000044410000004d0000554c00003c
:1016940054000000534900004e470000004400007d
:1016a400494700003300000044490000473200006d
:1016b400004200004f4e000020000000424f000096
:1016c40046460000004f0000555400002020000052
:1016d4002020000000500000524900004d4100004d
:1016e40052590000004d0000554c000054490000c0
:1016f400504c000000530000494e0000474c0000cd
:1017040045200000002000002020000020200000d0
:1017140020200000002000002020000000420000e3
:10172400454c00004c2000004f4e000000420000d9
:10173400454c0000204f00004646000000530000c6
:10174400454300004f4e00004420000000580000b4
:1017540058580000582e000058580000004500005a
:1017640052520000200000004d410000535400007c
:10177400455200002000000031310000003000001c
:10178400310000004445000046410000554c000073
:10179400540000004c49000053540000534500001d
:1017a4005400000053450000524c0000495300000f
:1017b400540000004c4f0000414400004544000028
:1017c4002000000053450000522000005341000057
:1017d4005600000020450000525200004f52000005
:1017e400200000002a2000003030000020300000db
:1017f400302000004545000045450000202300003e
:0418040000000000e0
:020000040000fa
:101808002801fa00889fbe00201799003117990017
:101818000000eb00000f78000000eb0020079800a4
:101828000000eb0060079800651f0700113a800070
:10183800f08f2f00808060000030200001007000d1
:10184800103a880000000000113a800000022000d1
:10185800008060000000e000fbff3200c002a90029
:10186800c9c2a90070002000801688000080eb0023
:1018780060198800021f070010c4b300604f980069
:101888000000eb00000f78000f00370020168000e2
:10189800004078006140600000c0ea0061406000dc
:1018a8000080fb0061006000211680000100a1009b
:1018b80001007000201688000068290081092000b6
:1018c8004f1f07001e0fe8001e007800e40f5000ad
:1018d800eeff3600191f0700c402a900c882a9003c
:1018e800e71e0700201f0700821e0700541e07007e
:1018f800a618070000902000d1032000401f070011
:10190800151e0700941b070000902000d10320003b
:101918003b1f07008200200021a92800f0a2200018
:1019280050fc0700f0a220009219070000a0250033
:1019380021262000321f070082002000a1a92800cc
:10194800f0a2200047fc0700f0a220008919070038
:1019580000a0250021262000291f07006000b800ec
:10196800ab1b0700006f98006000b800a81b0700b9
:1019780000ef99001000200001002000a41b0700c0
:1019880010ef99002000200001002000a01b070094
:1019980020ef990030002000010020009c1b070068
:1019a80030ef99000e689000e14f40003a003a008d
:1019b800100020005040880010002000e0408800ff
:1019c8000e28ef0010002000604088000000eb00a7
:1019d8003007980042c0b300be009000c0922000bb
:1019e800271c0700e092200001c3b30001487800db
:1019f800f092200001c3b3000148780010002000d5
:101a080040079800100020005007980050408000c0
:101a1800000178006000b800cb1b0700e0408000a0
:101a2800000178001000200001002000c61b0700fc
:101a380060408000000178002000200001002000a4
:101a4800c11b0700e0922000104078000041780098
:101a58003000200001002000461b0700f092200003
:101a6800104078000041780040002000010020006c
:101a7800401b07004e01900050002000010020008c
:101a8800b11b07005e0190007000200001002000db
:101a9800ad1b07001b0037001ee89100211c070042
:101aa800e0408800800c200001002000581b07003f
:101ab8001c1c070070408800e04080000000e00027
:101ac80006003200704080000000e00003003a0089
:101ad80010c0b3001ae8b7000a003700e0408000e1
:101ae8000000e00006003200704080000000e000c6
:101af8000300320020c0b3001ae8b7000100370025
:101b08001a68ef000000eb00000f7800e04080004a
:101b18000000e0001b0032000b0037000040eb0023
:101b2800f019070000802400811e2000b41e070061
:101b380010c0b300eb19070000802400811e2000ac
:101b4800af1e07001e0fe8001e007800e20f5000cd
:101b5800f2ff36000e0037000040eb00ad19070019
:101b680000802400811e2000a51e070010c0b300bd
:101b7800a819070000802400811e2000a01e07006d
:101b88001e0fe8001e007800e20f5000f2ff36003a
:101b98000000eb00000f78006000b800200f9800ec
:101ba800310f980090168000004078006140600076
:101bb8000080fb00610060000000e0000d003a00ba
:101bc80010c0b3001ae8b7001000200060079800a2
:101bd80010002000400f98008200200021aa280051
:101be800f0a220009ffb0700f0a22000e1180700e8
:101bf8000a00370082002000a1aa2800f0a22000d5
:101c080098fb0700f0a22000da1807000000eb009c
:101c1800600798000000eb00400f980000402b0080
:101c2800414c2000761e070070002000500f9800dd
:101c380020002000600f98000000eb0010079800bb
:101c480035033700304080000000e00032033200e6
:101c58009e00900051179800121e07001007980068
:101c68005e1090000000e0002a033a001e00900079
:101c78000000e000270332001e009000e20f500031
:101c880012013200e40f500041023200e10f50000f
:101c980020033a005e0890000000e800500f98000a
:101ca8005e089000e80f5000020036000000eb00cc
:101cb800500f9800e04080000000e000090032006a
:101cc800704080000000e000060032005e089000ce
:101cd800e20f500003003a005e0890000000e800a0
:101ce800500f9800e04080000000e000090032003a
:101cf800704080000000e000060032005e0890009e
:101d0800e40f500003003a005e0890000000e8006d
:101d1800500f9800e04080000000e0000900320009
:101d2800604080000000e000060032005e0890007d
:101d3800e40f500003003a005e0890000000e8003d
:101d4800500f9800e04080000000e00006003200dc
:101d58005e089000e50f500003003a005e0890000e
:101d68000000e800500f9800504080000000e0009c
:101d780006003a005e089000e50f500003003a00a4
:101d88005e0890000000e800500f98005040800066
:101d98000000e00007003a005e089000e20f5000e3
:101da80004003a005e0890000000e800500f980018
:101db8000c28ef005e089000e30f5000600032002e
:101dc800e30f500005003e00e10f50001d003200f7
:101dd800e10f500049003e0009003700e50f5000b0
:101de80086003200e50f500073003900e60f5000fe
:101df8009d003200e70f5000ac003200c5023700ea
:101e0800504080000000e0000700320082002000ff
:101e180021ab2800f0a2200012fb0700f0a220004e
:101e2800541807000600370082002000a1ab2800e4
:101e3800f0a220000bfb0700f0a220004d180700bd
:101e4800a1003700e04080000000e0000a003200f6
:101e5800704080000000e00007003a008200200087
:101e680021ac2800f0a22000fefa0700f0a2200012
:101e78004018070020003700e04080000000e00024
:101e88000a003200704080000000e00007003200c5
:101e980072002000a1ac2800f0a22000f1fa07008f
:101ea800f0a22000331807001300370050408000cc
:101eb8000000e0000a003200e04080000000e0007e
:101ec80007003a008200200011ad2800f0a220008f
:101ed800e4fa0700f0a220002618070006003700e1
:101ee8007200200091ad2800f0a22000ddfa070062
:101ef800f0a220001f180700730037006040800020
:101f08000000e000070032008200200001ae280037
:101f1800f0a22000d3fa0700f0a22000151807004d
:101f2800060037008200200081ae2800f0a22000c1
:101f3800ccfa0700f0a220000e1807006200370054
:101f4800e04080000000e000020032000000eb00ea
:101f58003007980042c0b300be00900020922000d5
:101f6800c71a07002092200091c4b30001487800e6
:101f78003092200041c4b30001487800219220002b
:101f8800f0a22000c8fa070030a3200001c2b30065
:101f98000148780040a3200001c2b300014878003e
:101fa80050a3200001c2b30001487800f0a220002d
:101fb800f0170700440037004e0090000000e000d2
:101fc800070032008200200001af2800f0a22000a4
:101fd800a4fa0700f0a22000e61707000600370061
:101fe8008200200081af2800f0a220009dfa07009f
:101ff800f0a22000df1707003300370020922000ee
:1020080031c5b300014878003092200051c5b300b3
:10201800014878004092200061c4b300014878006c
:1020280050922000ee48900001487800219220004c
:10203800f0a220009cfa070030a3200001c2b300e0
:102048000148780040a3200001c2b300014878008d
:1020580050a3200001c2b30001487800f0a220007c
:10206800c4170700180037005e0090000000e00069
:10207800070032008200200001b02800f0a22000f2
:1020880078fa0700f0a22000ba1707000600370008
:102098008200200081b02800f0a2200071fa070019
:1020a800f0a22000b31707000700370082002000c5
:1020b80001b12800f0a220006afa0700f0a220006f
:1020c800ac17070000000000120237005e089000fd
:1020d800e30f500053003200e30f500005003e00ac
:1020e800e10f500015003200e10f500044003e009f
:1020f80009003700e50f500093003200e50f50004b
:1021080088003900e60f5000d3003200e70f500076
:10211800da003200ff0137008200200021ab2800de
:10212800f0a220004ffa0700f0a220009117070044
:102138001000200050408800140137006e089000fd
:102148000000e800600f98006e089000e10f500052
:10215800020036000000eb00600f9800504080003d
:102168000000e0000d0032006e0890000000e00062
:102178000a003a008200200021ac2800f0a22000ca
:1021880038fa0700f0a220007a1707001000200094
:10219800e04088000e28ef0018003700504080000b
:1021a8000000e0000e0032006e089000e10f5000c1
:1021b8000b003a008200200081b12800f0a2200024
:1021c80028fa0700f0a220006a1707001000200074
:1021d800e0408800100020007040880007003700a9
:1021e8008200200001b22800f0a220001dfa07009a
:1021f800f0a220005f1707001c28ef00e30037005b
:102208008200200001ae2800f0a2200015fa070085
:10221800f0a2200057170700100020006040880037
:10222800da003700e04080000000e0001b003200c8
:102238000000eb003007980042c0b300be009000d9
:10224800209220000e1a07002092200091c4b300ab
:10225800014878003092200041c4b300014878005a
:1022680021922000f0a220000ffa070030a32000de
:1022780001c2b3000148780040a3200001c2b300a6
:102288000148780050a3200001c2b300014878003b
:10229800f0a2200037170700210037003e00900009
:1022a8000000e80030079800be00900000022000ff
:1022b800808f500002003600100020003007980080
:1022c80042c0b300be00900020922000ec19070025
:1022d8002092200091c4b300014878003092200079
:1022e80041c4b3000148780021922000f0a22000e8
:1022f800edf9070030a3200001c2b30001487800bf
:1023080040a3200001c2b3000148780050a3200078
:1023180001c2b30001487800f0a220001517070099
:102328009a0037008200200081af2800f0a2200028
:10233800ccf90700f0a220000e1707000000eb0000
:102348004007980091003700604080000000e000de
:10235800240032006e4890000040e800604f98006a
:10236800ee489000a0c5b30080cf500002003400b2
:1023780010c4b300604f98002092200031c5b3000c
:10238800014878003092200051c5b3000148780018
:102398004092200061c4b3000148780050922000a8
:1023a800ee4890000148780021922000f0a2200019
:1023b800bdf9070030a3200001c2b300014878002e
:1023c80040a3200001c2b3000148780050a32000b8
:1023d80001c2b30001487800f0a22000e51607000a
:1023e8001c00370000c3b300604f98002092200003
:1023f80031c5b300014878003092200051c5b300c0
:10240800014878004092200061c4b3000148780078
:1024180050922000ee489000014878002192200058
:10242800f0a22000a0f9070030a3200001c2b300e9
:102438000148780040a3200001c2b3000148780099
:1024480050a3200001c2b30001487800f0a2200088
:10245800c81607004d0037008200200001b0280090
:10246800f0a220007ff90700f0a22000c1160700a3
:102478001000200050079800440037008200200018
:1024880081b22800f0a2200076f90700f0a220000f
:10249800b816070000a0250021262000581c0700b8
:1024a80000a0250021262000551c07005040800070
:1024b8000000e00002003a00f0c0b300604f98004e
:1024c80042c0b300be009000c09220006c19070003
:1024d80050408000000178006000b8001a19070019
:1024e800e04080000001780010002000010020007a
:1024f80015190700604080000001780020002000c6
:102508000100200010190700e09220001040780018
:1025180000417800300020000100200095180700d5
:10252800f092200010407800004178004000200020
:10253800010020008f1807004e0190005000200075
:1025480001002000001907006e4890000041780043
:102558006000200001002000861807005e0190003e
:102568007000200001002000f7180700704080006c
:1025780000017800800c200001002000f2180700fc
:102588000000eb006007980000000000e100370041
:102598005e089000e30f50003e003200e30f500049
:1025a80005003e00e10f500014003200e10f50001a
:1025b80024003e0009003700e50f50007e0032007d
:1025c800e50f500073003900e60f5000be003200de
:1025d800e70f5000c5003200ce003700820020000f
:1025e800a1ab2800f0a220001ef90700f0a22000ed
:1025f800601607000a28ef00c50037005040800029
:102608000000e000070032008200200011ad280021
:10261800f0a2200013f90700f0a2200055160700c9
:10262800060037007200200091ad2800f0a22000bb
:102638000cf90700f0a220004e1607001c28ef0036
:10264800b3003700504080000000e000080032006e
:102658008200200081ae2800f0a2200001f90700c6
:10266800f0a22000431607000c28ef0008003700ee
:102678008200200001ae2800f0a22000f9f807002f
:10268800f0a220003b1607001000200060408800e0
:102698009f003700e04080000000e0001b0032008f
:1026a8000000eb003007980042c0b300be00900065
:1026b80020922000f21807002092200091c4b30055
:1026c800014878003092200041c4b30001487800e6
:1026d80021922000f0a22000f3f8070040a3200078
:1026e80001c2b3000148780050a3200001c2b30022
:1026f8000148780060a3200001c2b30001487800b7
:10270800f0a220001b160700210037003e009000b1
:10271800e10f500003003a00000220003007980043
:10272800030037003e0090000000e90030079800e1
:1027380042c0b300be00900020922000d0180700cd
:102748002092200091c4b300014878003092200004
:1027580041c4b3000148780021922000f0a2200073
:10276800d1f8070040a3200001c2b3000148780057
:1027780050a3200001c2b3000148780060a32000e4
:1027880001c2b3000148780020922000f915070023
:102798005f0037008200200001af2800f0a220006f
:1027a800b0f80700f0a22000f21507001000200082
:1027b8004007980056003700604080000000e000a5
:1027c800240032006e4890000040e900604f9800f5
:1027d800ee48900000c4b30080cf500002003c00d7
:1027e800a0c5b300604f98002092200031c5b30007
:1027f800014878003092200051c5b30001487800a4
:102808004092200061c4b300014878005092200033
:10281800ee4890000148780021922000f0a22000a4
:10282800a1f8070040a3200001c2b30001487800c6
:1028380050a3200001c2b3000148780060a3200023
:1028480001c2b30001487800f0a22000c9150700b2
:102858001c00370000c3b300604f9800209220008e
:1028680031c5b300014878003092200051c5b3004b
:10287800014878004092200061c4b3000148780004
:1028880050922000ee4890000148780021922000e4
:10289800f0a2200084f8070040a3200001c2b30082
:1028a8000148780050a3200001c2b3000148780015
:1028b80060a3200001c2b30001487800f0a2200004
:1028c800ac150700120037008200200081b02800f4
:1028d800f0a2200063f80700f0a22000a515070069
:1028e8000000eb0050079800090037008200200024
:1028f80001b32800f0a220005af80700f0a2200037
:102908009c1507000000eb0060079800000000001d
:10291800000000000628ef006e0090000000e000b4
:10292800c8fc3a00e04080000000e000a3003a0044
:102938001a68ef0080b32800e214070000a0250001
:10294800212620002e1b0700e0c4b30000ef9900e9
:1029580050c4b30010ef990040c5b30020ef9900b0
:102968006000b800aa17070030ef99003ee8910010
:102978006c18070050408800e04080000000e0002c
:1029880006003a00504080000000e00003003200da
:10299800d0b32800cb1407000200370020b4280069
:1029a800c814070000a0250021262000141b0700da
:1029b800504080000000e000280032002000200085
:1029c800010020009217070030ef99003ee89100bf
:1029d8005418070060408800604080000000e00054
:1029e8001700320070b42800b614070000a02500b4
:1029f80021262000021b070030c5b30000ef990014
:102a080050c5b30010ef990060c4b30020ef9900df
:102a180060002000010020007d17070030ef9900ba
:102a2800600020000100200079170700604f98001f
:102a3800800e20000e004000a2140700040037009a
:102a480000c3b300604f9800c0b428009d1407006d
:102a580000a0250021262000e91a070090c4b30031
:102a680000ef990040c4b30010ef99003000200037
:102a7800010020006617070020ef990030002000b1
:102a8800010020006217070080407800e0922000d3
:102a98000148780040002000010020005c17070072
:102aa80030ef99004000200001002000581707006f
:102ab80080407800f092200001487800800e2000c5
:102ac8000e0040007f1407002ee89100151807003b
:102ad800c400dd00f00f200000806000300798007f
:102ae8003ee891000f1807006f006000be009000dc
:102af800010070003007980000a025002126200062
:102b0800bf1a070040c4b30000ef990090c4b30097
:102b180010ef990070c4b30020ef99005000200016
:102b2800010020003a17070030ef99003ee89100b5
:102b3800fc170700400798004e0090000000e000d6
:102b48000300320010b528005e14070002003700a9
:102b580060b528005b14070000a02500212620008e
:102b6800a71a070020c4b30000ef990050c4b300af
:102b780010ef9900c0c4b30020ef99007000200046
:102b8800010020002217070030ef99003ee891006d
:102b9800e4170700500798005e0090000000e0006e
:102ba80003003200b0b52800461407004a01370078
:102bb80000b628004314070047013700e0408000b2
:102bc8000000e000c5003200704080000000e00016
:102bd800c2003a0010c0b3001ae8b70050b6280087
:102be800e414070000a0250021262000841a07000d
:102bf800e0c4b30000ef990050c4b30010ef99008f
:102c080040c5b30020ef99006000b8000017070026
:102c180030ef99003ee89100c21707005040880045
:102c2800d0c4b30000ef990010c4b30010ef9900ae
:102c380030c5b30020ef99001000200001002000eb
:102c4800f316070030ef99003ee89100b51707002a
:102c5800e0408800d0b62800c614070000a0250070
:102c680021262000661a070000a025002126200042
:102c7800631a07002000200001002000e416070066
:102c880030ef99003ee89100a617070060408800e1
:102c9800604080000000e0000300320050b72800c8
:102ca800b414070002003700d0b72800b114070099
:102cb80000a0250021262000511a070000a02500a9
:102cc800212620004e1a070050b82800a914070032
:102cd80090c4b30000ef990040c4b30010ef99000e
:102ce8003000200001002000c916070020ef9900dd
:102cf8003000200001002000c51607008040780041
:102d0800e0922000014878004000200001002000e7
:102d1800bf16070030ef9900400020000100200096
:102d2800bb16070080407800f09220000148780028
:102d3800800e20000e004000420020008000780035
:102d4800f0a2200064f70700f0a220005cf707005b
:102d580080007800f0a2200000804000420020009f
:102d6800d1b828003ff70700f0a22000811407001f
:102d78002ee891006b170700c400dd00f00f20005b
:102d880000806000300798003ee891006517070052
:102d98006f006000be0090000100700030079800ce
:102da80000a0250021262000151a070000a02500f4
:102db80021262000121a070040c4b30000ef990032
:102dc80090c4b30010ef990070c4b30020ef9900cd
:102dd80050002000010020008d16070030ef9900f8
:102de8003ee891004f1707004007980060408000b8
:102df8000000e00023003a00bee8910000c3b300e1
:102e080080cf500003003a0020c3b30030ef990090
:102e180006003700bee8910010c3b30080cf500011
:102e280002003a0030c3b30030ef9900800e200052
:102e38000e0040004200200080007800f0a2200030
:102e480025f70700f0a220001df707008000780092
:102e5800f0a220000080400042002000d1b82800e5
:102e680000f70700f0a220004214070000a0250088
:102e780021262000e219070000a0250021262000b5
:102e8800df19070020c4b30000ef990050c4b30055
:102e980010ef9900c0c4b30020ef99007000200023
:102ea800010020005a16070030ef99003ee8910013
:102eb8001c170700500798005e0090000000e00013
:102ec8000300320010b928002a14070082003700d6
:102ed80090b92800271407007f003700e0408000e1
:102ee8000000e0007c003200704080000000e0003c
:102ef8007900320020c0b3001ae8b70050b62800a5
:102f08001c14070000a0250021262000bc1907007a
:102f1800e0c4b30000ef990050c4b30010ef99006b
:102f280040c5b30020ef99006000b80038160700cc
:102f380030ef99003ee89100fa16070050408800eb
:102f4800d0c4b30000ef990010c4b30010ef99008b
:102f580030c5b30020ef99001000200001002000c8
:102f68002b16070030ef99003ee89100ed16070098
:102f7800e040880010ba2800fe13070000a02500d2
:102f8800212620009e19070000a0250021262000e8
:102f98009b19070050b82800f613070090c4b30027
:102fa80000ef990040c4b30010ef990030002000f2
:102fb800010020001616070020ef990030002000bd
:102fc800010020001216070080407800e0922000df
:102fd8000148780040002000010020000c1607007e
:102fe80030ef99004000200001002000081607007b
:102ff80080407800f092200001487800800e200080
:103008000e0040004200200080007800f0a220005e
:10301800b1f60700f0a22000a9f6070080007800aa
:10302800f0a220000080400042002000d1b8280013
:103038008cf60700f0a22000ce1307002ee89100be
:10304800b8160700c400dd00f00f20000080600003
:10305800300798003ee89100b21607006f00600044
:10306800be009000010070003007980000a0250005
:10307800212620006219070000a025002126200033
:103088005f19070020c4b30000ef990050c4b300d3
:1030980010ef9900c0c4b30020ef99007000200021
:1030a80001002000da15070030ef99003ee8910092
:1030b8009c160700500798005e0090000000e00092
:1030c8000300320010b92800aa13070002003700d5
:1030d80090b92800a713070000a02500212620008a
:1030e80047190700504080000000e00086013200c8
:1030f8001ac8bf00e14f5000b00232001ac8bf0022
:10310800e24f5000cf003200d0b32800ed12070084
:1031180000402b00414c2000391907001a68ef00c5
:103128004e0890000000e00030003a0080002000c7
:1031380001002000b615070080407800209220008a
:10314800014878009000200001002000b015070019
:10315800804078003092200001487800a0002000cc
:1031680001002000aa150700804078004092200046
:1031780001487800b000200001002000a4150700d5
:10318800804078005092200001487800209220006a
:10319800904078006e48900080cf50000f003a00b1
:1031a80020922000c71207004e0090000000e000a7
:1031b800050032004100200020922000b9160700c7
:1031c80020079800090037003100200020922000d5
:1031d800b416070020079800040037000000eb0031
:1031e8002007980001003700000000000868ef0081
:1031f80013c8bf000004e000fbff32000000eb0032
:10320800000f78000b003700209a20001e004000b5
:103218009040780000a220001e004000014878007d
:10322800209a20001e0040008040eb0001487800f2
:103238001e0fe8001e007800ed0f5000f2ff360068
:103248001368ef0000a22000000f98000000eb00b8
:10325800000f78000e0890000000e800000f9800aa
:103268000e0890000000e800000f980009003700e1
:103278000e08900090407800009320001e00400047
:10328800014878001e0fe8000e0890000000e800d2
:10329800000f98000e0890009040780000c2b3001c
:1032a80080cf5000f2ff3a00309320008040eb00be
:1032b800014878000000eb00000f78000e0890002d
:1032c8000000e800000f9800090037000e08900081
:1032d80090407800909320001e004000014878003c
:1032e8001e0fe8000e0890000000e800000f98008c
:1032f8000e0890009040780000c2b30080cf5000c4
:10330800f2ff3a00c09320008040eb0001487800ab
:103318000000eb00000f78000e0890000000e800a5
:10332800000f9800090037000e08900090407800c0
:10333800409320001e004000014878001e0fe8005e
:103348000e0890000000e800000f98000e0890009a
:103358009040780000c2b30080cf5000f2ff3a00de
:1033680040932000904078006e48900080cf500035
:1033780028003a000093200090407800e092200056
:103388001040780080cf500022003a0010932000af
:1033980090407800f09220001040780080cf5000d4
:1033a8001c003a000000eb00000f7800070037000f
:1033b800409320001e00400090407800209220009a
:1033c8001e004000014878001e0fe8001e0078002b
:1033d800e30f5000f6ff36005e0090000000e000aa
:1033e8000100320055180700e04080008000780096
:1033f800209220005b140700209220003112070061
:1034080043002000229220008000200001002000bc
:10341800611507000000eb00000f78000500370079
:1034280000a220001e0040008040eb000148780008
:103438001e0fe8001e007800ec0f5000f8ff360061
:103448006aff37000000000010ba2800c912070000
:1034580000402b00414c2000691807004e089000de
:103468000000e00020003a00800020000100200059
:10347800200f9800310f9800110037002e08900097
:10348800be08900068045000e08458002e089000a0
:10349800be089000de1407008040780000a52000d8
:1034a80008004000014878002e089000be089000ef
:1034b80061004000e0804800200f9800310f98001c
:1034c8002e099000be099000e000200001002000b5
:1034d800800f5100818f5900e8ff360000a52000b9
:1034e800a41207000200370090ba2800a1120700b2
:1034f80000a0250021262000411807000100370000
:10350800000000000868ef0013c8bf000004e000d6
:10351800fbff32000000eb00000f78000b003700c3
:10352800209a20001e0040009040780000a2200051
:103538001e00400001487800209a20001e0040002c
:103548008040eb00014878001e0fe8001e0078005c
:10355800ed0f5000f2ff36001368ef0000a22000c4
:10356800000f98000000eb00000f78000e08900094
:103578000000e800000f98000e0890000000e80026
:10358800000f9800090037000e089000904078005e
:10359800009320001e004000014878001e0fe8003c
:1035a8000e0890000000e800000f98000e08900038
:1035b8009040780000c2b30080cf5000f2ff3a007c
:1035c8000000eb00000f78000e0890000000e800f3
:1035d800000f9800090037000e089000904078000e
:1035e800909320001e004000014878001e0fe8005c
:1035f8000e0890000000e800000f98000e089000e8
:103608009040780000c2b30080cf5000f2ff3a002b
:103618000000eb00000f78000e0890000000e800a2
:10362800000f9800090037000e08900090407800bd
:10363800409320001e004000014878001e0fe8005b
:103648000e0890000000e800000f98000e08900097
:103658009040780000c2b30080cf5000f2ff3a00db
:1036680002a520000193200040932000fe100700cf
:103678007300200002a52000800020000100200027
:10368800c51407005e0090000000e0000100320051
:10369800aa170700e04080008000780000a52000fd
:1036a800b013070000a52000321207000000eb004d
:1036b800000f780005003700409320001e004000ee
:1036c8008040eb00014878001e0fe8001e007800db
:1036d800e40f5000f8ff36000000eb00000f780000
:1036e8000500370000a220001e0040008040eb00cb
:1036f800014878001e0fe8001e007800ec0f50000b
:10370800f8ff36007fff3700000000001a68ef005e
:1037180020b428006b11070000a0250021262000f6
:10372800b71707004e0890000000e0002d003a008f
:103738009000200001002000351407008040780028
:103748003092200001487800a000200001002000ed
:103758002f1407008040780040922000014878002c
:10376800b0002000010020002914070080407800e4
:1037780050922000014878004e019000719220007c
:1037880020922000cc110700709220004d110700f4
:1037980041002000209220004215070020079800d1
:1037a8004e0090000000e00007003200ae009000dc
:1037b800703e2000808f5000160036000000eb009d
:1037c8002007980013003700ae0090003006200054
:1037d800808f50000f0036000000eb002007980093
:1037e8000c0037000000eb002007980042c0b3002f
:1037f800ae00900020922000a11407004e01900016
:103808007192200020922000ab11070070922000d6
:103818002c11070010c0b30008e8b70001003700fa
:103828000000000013c8bf000004e000fcff3200e5
:103838000000eb00000f78000b003700209a2000f2
:103848001e0040009040780000a220001e004000aa
:1038580001487800209a20001e0040008040eb00bc
:10386800014878001e0fe8001e007800ee0f500097
:10387800f2ff36001368ef000000eb00000f78003d
:1038880000a22000000f98000000eb00000f780055
:10389800090037000e08900090407800009320003f
:1038a8001e004000014878001e0fe8000e08900036
:1038b8000000e800000f98000e0890009040780083
:1038c80000c2b30080cf5000f2ff3a000000eb00c6
:1038d800000f78000e0890000000e800000f980024
:1038e800090037000e08900090407800909320005f
:1038f8001e004000014878001e0fe8000e089000e6
:103908000000e800000f98000e0890009040780032
:1039180000c2b30080cf5000f2ff3a00c0932000ed
:103928008040eb00014878000000eb00000f7800b1
:103938000e0890000000e800000f9800090037000a
:103948000e08900090407800409320001e00400030
:10395800014878001e0fe8000e0890000000e800fb
:10396800000f98000e0890009040780000c2b30045
:1039780080cf5000f2ff3a000e0890000000e800e7
:10398800000f9800060037000e08900010407800dd
:1039980019e8b7000e0890000000e800000f980032
:1039a8000e0890009040780000c2b30080cf50000d
:1039b800f5ff3a0010c0b30008e8b70019c8bf0007
:1039c8000000fb00e1042000810f500007003200d6
:1039d80001052000810f500023003200310420002f
:1039e800810f50003f0032004d0037004e0090001c
:1039f8000000e0000e0032002e0090000000e800f9
:103a080020079800ae009000703e2000808f500084
:103a1800020036000000eb002007980042c0b30007
:103a2800ae00900020922000151407003f003700d8
:103a38002e0090000000e80020079800ae009000db
:103a480030062000808f5000020036000000eb0096
:103a58002007980042c0b300ae00900020922000da
:103a680007140700310037004e0090000000e00006
:103a78000e0032002e0090000000e00003003a0023
:103a8800703e200020079800030037002e009000a9
:103a98000000e9002007980042c0b300ae00900083
:103aa80020922000f6130700200037002e00900017
:103ab8000000e00003003a003006200020079800cc
:103ac800030037002e0090000000e900200798004e
:103ad80042c0b300ae00900020922000e813070017
:103ae800120037000000eb00200798004e009000fd
:103af8000000e0000500320042c0b300ae009000b4
:103b080020922000de1307000800370042c0b300ef
:103b1800ae00900020922000d91307000300370060
:103b280010bb280067100700000000004e0190003d
:103b38007192200020922000df10070022922000be
:103b480091932000009320000b15070010a420007b
:103b58002f1607005e0090000000e0000100320010
:103b6800761607008000eb00709220007d12070097
:103b7800709220005310070043002000229220007a
:103b88008000200001002000831307000000eb00e4
:103b9800000f78000500370000a220001e0040003a
:103ba8008040eb00014878001e0fe8001e007800f6
:103bb800ee0f5000f8ff36001aff37000000000033
:103bc80000a02500212620008d1607000000eb002c
:103bd800700f98000000eb00001798000000eb0041
:103be8001017980010c0b3001ae8b70060bb28008f
:103bf800e010070000a025002126200080160700fd
:103c0800604080000000e00002003a0000c3b300fa
:103c1800604f98004e0890000000e00094013a00c0
:103c2800604080000000e0009800320000012000a1
:103c380001002000f6120700206f990010012000f3
:103c480001002000f2120700306f9900a00a20003e
:103c58000e00400021002000e713070020179800fd
:103c6800a00a20000e00400022c0b300ae10900051
:103c7800831307000000eb0010179800700037004e
:103c88000000eb00000f7800160037001e109000af
:103c98004200dd001e0040000002b0008000eb0082
:103ca800db12070080407800209220001e004000b0
:103cb80001487800620420000e0141001e109000a7
:103cc8006500b900000078001e00400000004100b7
:103cd800219220009e8040009140780001487800a1
:103ce8001e0fe8001e007800e30f5000e7ff3600c3
:103cf8001e109000610060000000e00014003a000f
:103d08001e1090000000d1009e109000008450000a
:103d18004100200020922000e213070088004400a0
:103d280081004700c10ab000800878001e1090008a
:103d38000000d1009e1090000080500021922000c9
:103d4800914078000000470011589a001100370090
:103d58001e10900061006000004078000004e00040
:103d68000c0032001e1090000000d1009e10900040
:103d7800008050000004e90041002000209220004b
:103d8800c81307008800440081004700410db000b7
:103d980080087800209220001e0040008040eb0040
:103da80001487800620420000e0141001e109000b6
:103db8006500b900000078001e00400000004100c6
:103dc800219220009e8040009140780001487800b0
:103dd800620420000e0141001e1090006500b90029
:103de800000078001e00400000014100630420002c
:103df8008e8141001e1090006500b9000000780017
:103e08001e00400000804100104078000040e9009a
:103e1800004978002192200070922000301207009b
:103e2800709220005310070000a0250021262000d2
:103e3800f31507001e1090000000e8001017980006
:103e48002e10900000004000800078001e109000a6
:103e5800808f50008aff3e00901120000e00400025
:103e68002e11900080007800209220001af307009d
:103e7800901120000e004000800078002e10900065
:103e88009a14070000407800105f9a006040800094
:103e98000000e00030003a0080002000010020000f
:103ea800200f9800310f9800110037002e0890005d
:103eb800be08900068045000e08458002e08900066
:103ec800be089000521207008040780000a520002c
:103ed80008004000014878002e089000be089000b5
:103ee80061004000e0804800200f9800310f9800e2
:103ef8002e099000be099000e0002000010020007b
:103f0800800f5100818f5900e8ff360041002000e2
:103f180000a52000381307002007980000a52000fe
:103f28001410070000a0250021262000b415070062
:103f3800ee489000115f9a00901120000e0040009a
:103f48008000780010002000681407000040780006
:103f5800105f9a00540237000000eb00000f780051
:103f6800000c2000010020006017980071179800cd
:103f7800000d200001002000001f9800111f98006c
:103f88006e109000fe1090002112070000ef9900bb
:103f98006e109000fe10900061004000e080480024
:103fa80060179800711798006e109000fe1090002e
:103fb8001712070010ef9900800e20000e00400035
:103fc800110020000c130700201f98000e18900005
:103fd8009e1890000e12070000ef99000e1890002e
:103fe8009e18900061004000e0804800001f980083
:103ff800111f98000e1890009e18900004120700d8
:1040080010ef9900800e20000e00400011002000e3
:10401800f9120700301f98002e1890000000e000e9
:1040280074003a000000eb00101798006c0037008d
:104038000007200001002000200f9800310f980091
:10404800130037001e1090004300dd006101b80026
:104058002e089000be0890000200400083804800af
:10406800eb1107008040780000a520001e004000ea
:10407800014878001e0fe8002e089000be08900046
:1040880061004000e0804800200f9800310f980040
:104098002e099000be099000700720000100200042
:1040a800800f5100818f5900e6ff36000000eb00b9
:1040b800000f780000a52000104078008000fb0069
:1040c800901120000e0040006df20700401f98007c
:1040d8004e1890000000e0003e0032003e189000ac
:1040e8000000e0003b003a0023002000e2bb28006b
:1040f800000d2000010020002712070040112000b9
:104108000e0040004200200001a5200072f20700c6
:10411800401120000e004000810e0700e14f5000c2
:104128002c003a00401120000e00400086120700c3
:10413800800078001e10900000004000000047003a
:10414800000cb000010878001e109000000040002c
:104158000000470080a090001e1090000000400062
:104168000000470060909000808f50000a003900de
:104178001e109000000040000000470080a0900042
:104188001e109000000040000000470020a890008a
:10419800808f50000a0036001e109000000040007a
:1041a80000004700609090008000e9001e10900019
:1041b8000000400000004700000cb0000108780033
:1041c80000a520006b0f070000a025002126200075
:1041d8000b1507001e1090000000e800101798004b
:1041e8009e1090002e109000808f500090ff390094
:1041f800ad01370090ba28005e0f070000a0250027
:1042080021262000fe1407002300200012bc2800ed
:10421800000c200001002000df1107000000eb0067
:10422800101798000d0037001e1090000000400085
:1042380000004700609090008000e9001e10900088
:104248000000400000004700000cb00001087800a2
:104258001e1090000000e800101798009e109000b3
:104268002e109000808f5000efff39008e0137002c
:1042780090ba28003f0f070000a025002126200043
:10428800df1407000002200001002000501f9800e2
:10429800611f9800604080000000e0007601320055
:1042a8005e189000ee18900059110700607f980082
:1042b80018c8bf00ee78900080cf50008a003a00fe
:1042c80050b828002b0f070010c3b300206f9900c7
:1042d80000c3b300306f99002e6891000041780048
:1042e8000001200001002000221107003e68910013
:1042f8000041780010012000010020001d11070076
:10430800a00a20000e004000210020003a120700f9
:10431800201798000000eb00000f78005c003700c1
:104328000000eb00101798001d003700d293200002
:104338001e0078006500b900800078001e1090000b
:104348000080400000004100104078008040780064
:10435800229220001e1090000000410001487800c1
:10436800620420000e0141001e0078006500b900bb
:10437800800078001e10900000804000000041007e
:10438800229220009e109000810041009140780008
:10439800014878001e1090000000e80010179800ef
:1043a8001e109000e40f5000e0ff36009e007800d9
:1043b800618060000000e00012003a001e007800f2
:1043c8000000d1001e0410004100200020922000af
:1043d800341207008800440081004700c10ab00079
:1043e800800878001e0078000000d1001e00100030
:1043f80021922000914078000000470011589a004f
:10440800100037001e00780061006000004078004e
:104418000004e0000b0032001e0078000000d1000c
:104428001e0010000004e900410020002092200036
:104438001c1207008800440081004700410db000ad
:10444800800878009e007800688040004200dd0007
:104458008000eb0043002000229220004e1107004c
:10446800609220008040eb000148780021922000f3
:10447800a0a320009a100700a0a32000bd0e0700eb
:1044880000a02500212620005d1407001e0fe8006b
:104498002e109000000040009e0f5000a0ff3e002c
:1044a800901120000e004000800078002e1090002f
:1044b8000e13070000407800105f9a0040bc2800e7
:1044c800ac0e070000a02500212620004c14070090
:1044d800c0bc2800a70e070000a025002126200048
:1044e80047140700f000370050b82800a10e070055
:1044f8000001200001002000c5100700206f99006e
:104508001001200001002000c1100700306f990041
:10451800a00a20000e00400021002000b61107006c
:1045280020179800a00a20000e00400022c0b30007
:10453800ae109000521107000000eb001017980011
:10454800540037000000eb00000f78001600370019
:104558001e1090004200dd001e0040000002b00066
:104568008000eb00aa10070080407800209220000d
:104578001e00400001487800620420000e0141003e
:104588001e1090006500b900000078001e00400071
:1045980000004100219220009e8040009140780058
:1045a800014878001e0fe8001e007800e30f500055
:1045b800e7ff36001e109000610060000000e00078
:1045c80014003a001e1090000000d1009e109000c8
:1045d800008450004100200020922000b111070003
:1045e8008800440081004700c10ab00080087800b4
:1045f8001e1090000000d1009e1090000080500016
:1046080021922000914078000000470011589a003c
:10461800110037001e109000610060000040780013
:104628000004e0000c0032001e1090000000d100d1
:104638009e109000008050000004e9004100200016
:10464800209220009711070088004400810047004d
:10465800410db00080087800209220001e00400024
:104668008040eb000148780021922000a0a32000a0
:104678001b100700a0a320003e0e070000a0250085
:1046880021262000de1307001e1090000000e8001d
:10469800101798002e10900000004000800078004d
:1046a8001e109000808f5000a6ff3e009011200041
:1046b8000e004000800078002e1090008b1207003a
:1046c80000407800105f9a0040bd2800290e0700be
:1046d80000a0250021262000c9130700c0bd28001e
:1046e800240e070000a0250021262000c41307007f
:1046f8000000eb00000f78000000eb001017980096
:10470800580037000007200001002000200f980003
:10471800310f9800130037001e1090004300dd0091
:104728006101b8002e089000be0890000200400009
:1047380083804800361007008040780000a52000dc
:104748001e004000014878001e0fe8002e08900067
:10475800be08900061004000e0804800200f9800eb
:10476800310f98002e099000be09900070072000b4
:1047780001002000800f5100818f5900e6ff3600ac
:104788000000eb00000f780000a520001040780022
:104798008000fb00901120000e004000b8f00700d8
:1047a8000000e0002c003200401120000e00400004
:1047b8004200200001a52000c7f00700401120009a
:1047c8000e004000e0100700800078001e109000e6
:1047d8000000400000004700000cb000010878000d
:1047e8001e109000000040000000470080a09000cc
:1047f8001e109000000040000000470060909000ec
:10480800808f50000a0039001e1090000000400000
:104818000000470080a090001e109000000040009b
:104828000000470020a89000808f50000a00360042
:104838001e109000000040000000470060909000ab
:104848008000e9001e1090000000400000004700b2
:10485800000cb000010878001e1090000000e8006d
:10486800101798009e1090002e109000808f500016
:10487800a4ff39000c003700604080000000e00011
:1048880009003a00ee489000115f9a00901120004c
:104898000e0040008000780010002000131207006e
:1048a80000407800105f9a0010c0b30008e8b70015
:1048b800010037000000000014c8bf000004e00039
:1048c800ca0032000000eb00101798000000eb004f
:1048d800000f7800109b2000100f98001e08900011
:1048e8000000e800100f98001e0890000000e80083
:1048f800100f98000a0037001e08900090407800ba
:10490800a00a20000e0040001e0040000148780068
:104918001e0fe8001e0890000000e800100f980025
:104928001e0890009040780000c2b30080cf50006d
:10493800f1ff3a000040eb00506f9900a00a2000f8
:104948000e00400021002000ab100700201798003f
:10495800a00a20000e00400023002000000178007b
:1049680000012000010020000b1007000000eb00f0
:10497800000f78000000eb00101798005700370070
:104988001e0890000000e800100f9800140037007f
:104998001e08900090407800209220001e004000e1
:1049a800014878001e0890000000e800100f9800e9
:1049b800620420000e0141001e1090006500b9003d
:1049c800000078001e0040000000410021922000f5
:1049d8009e80400091407800014878001e0fe80052
:1049e8001e0890009040780000c2b30080cf5000ad
:1049f800e7ff3a001e109000610060000000e00030
:104a080014003a001e1090000000d1009e10900083
:104a1800008450004100200020922000a1100700cf
:104a28008800440081004700c10ab000800878006f
:104a38001e1090000000d1009e10900000805000d1
:104a480021922000914078000000470011589a00f8
:104a5800110037001e1090006100600000407800cf
:104a68000004e0000c0032001e1090000000d1008d
:104a78009e109000008050000004e90041002000d2
:104a8800209220008710070088004400810047001a
:104a9800410db000800878001e10900068004000aa
:104aa8004200dd008000eb0043002000229220003d
:104ab800b90f070023002000e2bb2800000c2000eb
:104ac80001002000b40f07000000eb00000f780081
:104ad8001e1090000000e800101798002e1090009b
:104ae80000004000800078001e109000808f500069
:104af800a3ff3e000000eb00000f78000a0037001b
:104b080018c8bf000080fb00000178009e007800f4
:104b18006e8040004300dd008000eb007300200041
:104b28009d0f07001e0fe8001e007800e90f5000d7
:104b3800f3ff3600901120000e004000800078003e
:104b48002e1090006911070000407800105f9a004d
:104b58000000eb00000f78000b0037001e00780003
:104b68000000400000004700609090008000e900cd
:104b78001e0078000000400000004700000cb00054
:104b8800010878001e0fe8002e1090009e007800a3
:104b9800808f5000f1ff390040be2800f50c070057
:104ba80000a0250021262000951207000000eb0038
:104bb800000f780005003700109b20001e00400001
:104bc8008040eb00014878001e0fe800d006200066
:104bd8009e007800808f5000f7ff36001468ef00c1
:104be80010c0b30008e8b70033ff370013c8bf0090
:104bf8000004e0002fff32000000eb00000f7800f7
:104c08000e003700209a20001e00400090407800d7
:104c180000a220001e0040000148780000fa200091
:104c28000100200076120700209a20001e00400094
:104c38008040eb00014878001e0fe8001e00780055
:104c4800ee0f5000efff36001368ef0000a22000bf
:104c5800000f98000000eb00000f780009003700f3
:104c68000e08900090407800009320001e0040003d
:104c7800014878001e0fe8000e0890000000e800c8
:104c8800000f98000e0890009040780000c2b30012
:104c980080cf5000f2ff3a00309320008040eb00b4
:104ca8000148780000932000a70f0700002798000c
:104cb8000000eb00000f78000e0890000000e800ec
:104cc800000f9800090037000e0890009040780007
:104cd800909320001e004000014878001e0fe80055
:104ce8000e0890000000e800000f98000e089000e1
:104cf8009040780000c2b30080cf5000f2ff3a0025
:104d0800c09320008040eb00014878000000eb00d1
:104d1800000f7800909320008b0f07001027980051
:104d28000e0890000000e800000f98000900370006
:104d38000e08900090407800409320001e0040002c
:104d4800014878001e0fe8000e0890000000e800f7
:104d5800000f98000e0890009040780000c2b30041
:104d680080cf5000f2ff3a00409320009040780036
:104d7800614f98000e0890000000e800000f9800ae
:104d8800060037000e0890001040780019e8b700b8
:104d98000e0890000000e800000f98000e08900030
:104da8009040780000c2b30080cf5000f5ff3a0071
:104db80010c0b30008e8b700604080000000e000c1
:104dc80005003a00409320009040780000c3b300eb
:104dd80080cf5000150b3a0010c0b30040c79800b0
:104de800604080000000e0002a0032000000eb0074
:104df800000f78000000eb00101798000000eb008f
:104e0800101798001d0037001e1090006100600008
:104e18000000e00016003a00620420000e01410084
:104e28001e1090006500b9000000780000004100e5
:104e380090407800409320001040780080cf5000c8
:104e48000b003a001e1090000000e0000300320042
:104e58001e1090000000d100301798001e1090001e
:104e68000000e00002003a009e1090003117980000
:104e78001e1090000000e800101798002e109000f7
:104e880000004000800078001e109000808f5000c5
:104e9800ddff3e0040932000104078008000fb00ba
:104ea800901120000e004000f5ee070050c7980052
:104eb8001e2090000000e000d50a32009e209000dd
:104ec80000022000808f5000d10a3e000e20900082
:104ed8000000e000ce0a32008e2090000002200080
:104ee800808f5000ca0a3e005ec090000004e000b7
:104ef800c70a3200604080000000e0000300320072
:104f0800e10f500085003200230a370019c8bf009e
:104f18000000fb0051042000810f50006d0032009a
:104f280051042000810f500007003c00310420008c
:104f3800810f50007500320041042000810f50009d
:104f480060003200140a370001052000810f50006c
:104f58003100320021052000810f50006500320029
:104f6800e1042000810f5000080a3a004e0090002a
:104f78000000e000140032002e0090000000e8005d
:104f880020079800ae009000703e2000808f5000ef
:104f9800020036000000eb0020079800ae009000e9
:104fa8000e109000808f50001a003a002e009000da
:104fb8000000e000170032002e0090000000e8001a
:104fc80020079800130037002e0090000000e8002a
:104fd80020079800ae00900030062000808f500017
:104fe800020036000000eb0020079800ae00900099
:104ff8000e109000808f500006003a002e0090009e
:105008000000e000030032002e0090000000e800dd
:1050180020079800400037004e0090000000e00094
:10502800140032002e0090000000e00003003a0057
:10503800703e200020079800030037002e009000e3
:105048000000e90020079800ae0090000e109000c4
:10505800808f50001a003a002e0090000000e000f7
:10506800170032002e0090000000e9002007980089
:10507800130037002e0090000000e00003003a0003
:105088003006200020079800030037002e0090000b
:105098000000e90020079800ae0090000e10900074
:1050a800808f500006003a002e0090000000e000bb
:1050b800030032002e0090000000e900200798004d
:1050c80015003700409320009f0e07002007980026
:1050d80011003700ae009000710f98004093200037
:1050e800990e070020079800ae009000011798005d
:1050f80009003700ae009000710f9800409320001f
:10510800910e070020079800030037000000eb000d
:1051180020079800000000009f0937003e1090000b
:10512800cf80de009200200003002000820f500094
:10513800838f580097093e0000600100090037007e
:10514800fd003700f0013700e3023700d6033700cf
:10515800c9043700bc053700af063700a20737007f
:105168009508370019c8bf000000fb005104200053
:10517800810f5000b700320051042000810f500009
:1051880007003c0031042000810f5000de0032008f
:1051980041042000810f5000a4003200e5003700d0
:1051a80001052000810f5000630032002105200016
:1051b800810f5000c2003200e1042000810f50002e
:1051c80001003200db0037003e1090000000400074
:1051d8000000470080a090003e10900000004000b2
:1051e8000000470020a89000808f50001600310072
:1051f8003e109000000040000000470080a0900092
:105208003e109000000040000000470060909000b1
:105218000000e900808f50000b0039003e1090001c
:10522800000040000000470000a090008000e80057
:105238003e1090000000400000004700000cb00045
:1052480001087800270037003e1090000000400059
:105258000000470080a090003e1090000000400031
:105268000000470020a89000808f50000a003a00f4
:105278003e1090000000400000004700e0909000c1
:105288003e1090000000400000004700000cb000f5
:1052980001087800130037003e109000000040001d
:1052a8000000470080a090003e10900000004000e1
:1052b8000000470060909000808f500009003e0079
:1052c8003e1090000000400000004700e090900071
:1052d8003e1090000000400000004700000cb000a5
:1052e800010878003e1090000000400000004700d0
:1052f80080a090003e109000000040000000470091
:1053080000009100808f50000a003a003e10900083
:10531800000040000000470000a090008000e80066
:105328003e1090000000400000004700000cb00054
:10533800010878007f0037003e1090000000400010
:105348000000470080a090003e1090000000400040
:105358000000470060909000808f50000a003e00d7
:105368003e1090000000400000004700a0a89000f8
:105378003e1090000000400000004700000cb00004
:1053880001087800140037003e109000000040002b
:105398000000470080a090003e10900000004000f0
:1053a8000000470060909000808f50000a0036008f
:1053b8003e109000000040000000470000a0900050
:1053c8008000e9003e109000000040000000470007
:1053d800000cb000010878003e109000000040006a
:1053e8000000470080a090003e10900000004000a0
:1053f8000000470000009100808f50000a003a002a
:105408003e109000000040000000470000a09000ff
:105418008000e9003e1090000000400000004700b6
:10542800000cb0000108780042003700410020005d
:1054380040932000f00d0700800078003e10900097
:105448000000400000004700000cb0000108780090
:10545800380037003e109000000040000000470070
:1054680080a090003e10900000004000000047001f
:10547800c00eb0000108780040932000b20d07006c
:10548800800078003e1090000000400000004700b7
:10549800000cb000010878003e10900000004000a9
:1054a8000000470080a090003e10900000004000df
:1054b800000047000010b000010878001d00370008
:1054c8003e109000000040000000470080a09000bf
:1054d8003e1090000000400000004700c00eb000e1
:1054e8000108780040932000970d0700800078009d
:1054f8003e1090000000400000004700000cb00083
:10550800010878000b0037003e10900000004000b2
:1055180000004700609090008000e9003e10900075
:105528000000400000004700000cb00001087800af
:10553800000000009408370019c8bf000000fb00f5
:1055480051042000810f5000b600320051042000a1
:10555800810f500007003c0031042000810f5000eb
:10556800dd00320041042000810f5000a400320009
:10557800e400370001052000810f5000630032006d
:1055880021052000810f5000c1003200e1042000f5
:10559800810f500001003200da0037003e10900001
:1055a800000040000000470080a090003e109000de
