:020000040000fa
:080000000002040000000000f2
:020000040000fa
:0400080014050000db
:020000040000fa
:04000c0014050000d7
:020000040000fa
:0400100014050000d3
:020000040000fa
:0400140014050000cf
:020000040000fa
:0400180014050000cb
:020000040000fa
:04001c0014050000c7
:020000040000fa
:0400200014050000c3
:020000040000fa
:0400240014050000bf
:020000040000fa
:0400280014050000bb
:020000040000fa
:04002c0014050000b7
:020000040000fa
:0400300014050000b3
:020000040000fa
:04003400c8020000fe
:020000040000fa
:0400380014050000ab
:020000040000fa
:04003c0014050000a7
:020000040000fa
:0400400014050000a3
:020000040000fa
:04004400140500009f
:020000040000fa
:04004800140500009b
:020000040000fa
:04004c001405000097
:020000040000fa
:040050001405000093
:020000040000fa
:04005400a403000001
:020000040000fa
:04005800000500009f
:020000040000fa
:04005c001405000087
:020000040000fa
:040060001405000083
:020000040000fa
:04006400140500007f
:020000040000fa
:04006800140500007b
:020000040000fa
:04006c001405000077
:020000040000fa
:040070001405000073
:020000040000fa
:04007400140500006f
:020000040000fa
:04007800140500006b
:020000040000fa
:04007c001405000067
:020000040000fa
:040080001405000063
:020000040000fa
:04008400140500005f
:020000040000fa
:04008800140500005b
:020000040000fa
:04008c001405000057
:020000040000fa
:040090001405000053
:020000040000fa
:04009400140500004f
:020000040000fa
:04009800140500004b
:020000040000fa
:04009c001405000047
:020000040000fa
:0400a0001405000043
:020000040000fa
:0400a400140500003f
:020000040000fa
:0400a800140500003b
:020000040000fa
:0400ac001405000037
:020000040000fa
:0400b0001405000033
:020000040000fa
:0400b400140500002f
:020000040000fa
:0400b800140500002b
:020000040000fa
:0400bc001405000027
:020000040000fa
:0400c0001405000023
:020000040000fa
:0400c400140500001f
:020000040000fa
:0400c800140500001b
:020000040000fa
:0400cc001405000017
:020000040000fa
:0400d0001405000013
:020000040000fa
:0400d400140500000f
:020000040000fa
:0400d800140500000b
:020000040000fa
:0400dc001405000007
:020000040000fa
:0400e0001405000003
:020000040000fa
:0400e40014050000ff
:020000040000fa
:0400e80014050000fb
:020000040000fa
:0400ec0014050000f7
:020000040000fa
:0400f00014050000f3
:020000040000fa
:0400f40014050000ef
:020000040000fa
:0400f80014050000eb
:020000040000fa
:0400fc0014050000e7
:020000040000fa
:0401000014050000e2
:020000040000fa
:0401040014050000de
:020000040000fa
:0401080014050000da
:020000040000fa
:04010c0014050000d6
:020000040000fa
:0401100014050000d2
:020000040000fa
:0401140014050000ce
:020000040000fa
:0401180014050000ca
:020000040000fa
:04011c0014050000c6
:020000040000fa
:0401200014050000c2
:020000040000fa
:0401240014050000be
:020000040000fa
:0401280014050000ba
:020000040000fa
:04012c0014050000b6
:020000040000fa
:0401300014050000b2
:020000040000fa
:0401340014050000ae
:020000040000fa
:0401380014050000aa
:020000040000fa
:04013c0014050000a6
:020000040000fa
:0401400014050000a2
:020000040000fa
:04014400140500009e
:020000040000fa
:04014800140500009a
:020000040000fa
:04014c001405000096
:020000040000fa
:040150001405000092
:020000040000fa
:04015400140500008e
:020000040000fa
:04015800140500008a
:020000040000fa
:04015c001405000086
:020000040000fa
:040160001405000082
:020000040000fa
:04016400140500007e
:020000040000fa
:0402080014050000d9
:020000040000fa
:04020c0014050000d5
:020000040000fa
:0402100014050000d1
:020000040000fa
:0402140014050000cd
:020000040000fa
:0402180014050000c9
:020000040000fa
:04021c0014050000c5
:020000040000fa
:0402200014050000c1
:020000040000fa
:0402240014050000bd
:020000040000fa
:0402280014050000b9
:020000040000fa
:04022c0014050000b5
:020000040000fa
:0402300014050000b1
:020000040000fa
:04023400c8020000fc
:020000040000fa
:0402380014050000a9
:020000040000fa
:04023c0014050000a5
:020000040000fa
:0402400014050000a1
:020000040000fa
:04024400140500009d
:020000040000fa
:040248001405000099
:020000040000fa
:04024c001405000095
:020000040000fa
:040250001405000091
:020000040000fa
:04025400a4030000ff
:020000040000fa
:04025800000500009d
:020000040000fa
:04025c001405000085
:020000040000fa
:040260001405000081
:020000040000fa
:04026400140500007d
:020000040000fa
:040268001405000079
:020000040000fa
:04026c001405000075
:020000040000fa
:040270001405000071
:020000040000fa
:04027400140500006d
:020000040000fa
:040278001405000069
:020000040000fa
:04027c001405000065
:020000040000fa
:040280001405000061
:020000040000fa
:04028400140500005d
:020000040000fa
:040288001405000059
:020000040000fa
:04028c001405000055
:020000040000fa
:040290001405000051
:020000040000fa
:04029400140500004d
:020000040000fa
:040298001405000049
:020000040000fa
:04029c001405000045
:020000040000fa
:0402a0001405000041
:020000040000fa
:0402a400140500003d
:020000040000fa
:0402a8001405000039
:020000040000fa
:0402ac001405000035
:020000040000fa
:0402b0001405000031
:020000040000fa
:0402b400140500002d
:020000040000fa
:0402b8001405000029
:020000040000fa
:0402bc001405000025
:020000040000fa
:0402c0001405000021
:020000040000fa
:0402c400140500001d
:020000040000fa
:0402c8001405000019
:020000040000fa
:0402cc001405000015
:020000040000fa
:0402d0001405000011
:020000040000fa
:0402d400140500000d
:020000040000fa
:0402d8001405000009
:020000040000fa
:0402dc001405000005
:020000040000fa
:0402e0001405000001
:020000040000fa
:0402e40014050000fd
:020000040000fa
:0402e80014050000f9
:020000040000fa
:0402ec0014050000f5
:020000040000fa
:0402f00014050000f1
:020000040000fa
:0402f40014050000ed
:020000040000fa
:0402f80014050000e9
:020000040000fa
:0402fc0014050000e5
:020000040000fa
:0403000014050000e0
:020000040000fa
:0403040014050000dc
:020000040000fa
:0403080014050000d8
:020000040000fa
:04030c0014050000d4
:020000040000fa
:0403100014050000d0
:020000040000fa
:0403140014050000cc
:020000040000fa
:0403180014050000c8
:020000040000fa
:04031c0014050000c4
:020000040000fa
:0403200014050000c0
:020000040000fa
:0403240014050000bc
:020000040000fa
:0403280014050000b8
:020000040000fa
:04032c0014050000b4
:020000040000fa
:0403300014050000b0
:020000040000fa
:0403340014050000ac
:020000040000fa
:0403380014050000a8
:020000040000fa
:04033c0014050000a4
:020000040000fa
:0403400014050000a0
:020000040000fa
:04034400140500009c
:020000040000fa
:040348001405000098
:020000040000fa
:04034c001405000094
:020000040000fa
:040350001405000090
:020000040000fa
:04035400140500008c
:020000040000fa
:040358001405000088
:020000040000fa
:04035c001405000084
:020000040000fa
:040360001405000080
:020000040000fa
:04036400140500007c
:020000040000fa
:100400004fb820000e7f22000e018800000000007f
:10041000000020000000e000020032000001200087
:1004200020028800140007008f0107000000e00090
:1004300003003a0040682400010020000200370059
:100440000000200001002000810f70000100320038
:1004500014000700000020000000e000020032004d
:100460000000020000000000fc0b02000000000081
:100470000040da000000fe004440a900a066200011
:100480000000e0000300320000002000a00188000e
:100490004440a800000006008a1f78008b1f7800e7
:1004a0000000060091018800800478000000eb0045
:1004b0001a003700e284440032a0b4009905ba0063
:1004c000e284440032a0b4009906ba00e2844400f9
:1004d00032a0b4000006eb00476fde00fd07b2005b
:1004e000636ce10003003a00ebff07000000eb0043
:1004f0000a003700606ce10004003a00005deb0088
:100500008b05e900fdff3e00040037006168e10053
:10051000010032000086eb000b00070019c7ba008b
:100520001905ba000e04e00003003a000a00e000da
:10053000e0ff3a0000000600fe07b2009e018800be
:100540008a047800f5ff3700395dba008b05e900b1
:100550000c003200295dba008b05e900080032006a
:100560000c00e00003003a00e284440032a0b40032
:10057000f5ff370019ddba008b05e900faff3a00f4
:100580008904e800e184440032a0b40000000600c1
:100590003600f800809fbe00829fbe00849fbe0090
:1005a000869fbe003400f80000002000a0018800f3
:1005b0000000fa00204080000000e8002040880091
:1005c0002140800010032000808f50000e00360074
:1005d0000428ef0010002000304088002016800022
:1005e000004078006140600000c0ea0061406000a7
:1005f0000080fb0061006000211680000100a10066
:1006000001007000201688001ac8bf000004e00036
:1006100025003200104080006a00b9000000780018
:10062000e800400020882000008040001002780090
:10063000104080006a00b90000007800e600400029
:100640002088200000804000900178001040800049
:100650006a00b90000007800e40040002088200013
:100660000080400010017800104080006a00b9004e
:10067000000078008080e800208820000080400092
:1006800090027800104080006a00b9008000780075
:10069000208820000080400010007800850078004d
:1006a000691d070016003700104080006600b90081
:1006b00000007800e400400020822000008040001c
:1006c00010017800104080006600b900000078003a
:1006d0008080e800208220000080400090017800a7
:1006e000104080006600b900800078002082200061
:1006f0000080400010007800830078003f1d070054
:10070000104080000000e800104088001040800089
:10071000ef0f5000010036000228ef008460a900ae
:1007200080382100100888000080fa003400f900a9
:100730004f03be004f02be004f01be004f00be007f
:100740003600f90000400600809fbe00829fbe0078
:100750003400f80000002000a00188000200fa0028
:1007600030118000004f780040c2b3009e407800f6
:1007700080cf500004003a0010c0b30010e8b7006a
:100780001468ef001568ef0060408000e10f500032
:1007900020003a0010c8bf00e14f50001d003a0091
:1007a00010c8bf000004e0000a00320030c2b300ed
:1007b0009e40780080cf500006003a0015c8bf0068
:1007c0000004e0000300320010c0b30014e8b700da
:1007d0001068ef00518120009140780090c6b3006e
:1007e00080cf500075003e0010c8bf00e14f5000a0
:1007f0006f003a0015c8bf008080fb00129b2000ec
:100800009e41780003f178000040e80015e8b70049
:100810006a003700504080000000e0003a003200db
:1008200010c8bf000004e00037003a002016800026
:10083000004078006140600000c0ea006140600054
:100840000080fb0061006000211680000100a10013
:100850000100700020168800a0c2b3009e407800fe
:1008600080cf50000300320008c8bf000004e00041
:100870000a00320040c2b3009e40780080cf500092
:10088000130032000868ef001168ef0010c0b300d9
:1008900012e8b7001368ef000d00370030c2b30054
:1008a0009e40780080cf500009003a0012c8bf0077
:1008b000e14f500006003a0011c8bf000004e000fc
:1008c0000300320010c0b30013e8b7001268ef0055
:1008d00012c8bf00e14f500038003a0011c8bf00f5
:1008e000ee4f500034003e0011c8bf008080fb0076
:1008f000229a20009e41780003f178000040e80031
:1009000011e8b7002d003700504080000000e000e3
:100910002a003a0010c8bf000004e00027003a0097
:1009200008c8bf000004e000060032000868ef00bd
:100930001168ef0010c0b30012e8b7001368ef00b1
:100940000d00370030c2b3009e40780080cf5000c9
:1009500009003a0012c8bf00e14f500006003a00fb
:1009600011c8bf000004e0000300320010c0b30053
:1009700013e8b7001268ef0012c8bf00e14f500043
:100980000e003a0011c8bf00ee4f50000b003e00b1
:1009900011c8bf008080fb00229a20009e41780091
:1009a00003f178000040e80011e8b70003003700c9
:1009b00000000000010037000000000010c8bf0068
:1009c0000004e0000800320030c2b3009e4078000e
:1009d00080cf500004003a0015c8bf000004e000ba
:1009e00001003a001068ef008560a9000080fa005d
:1009f0003400f9004f01be004f00be000040060069
:100a00003400f800881f780008002000a801880042
:100a10004f0478000000fa008580a9000080fa00e9
:100a20003400f900004006000040da000000fe003b
:100a30000003b1000b0035009000b1000800340045
:100a40008000b100070035009001b10004003400bf
:100a50007000b100030035009001b10001003c00be
:100a6000100005000000050000000500800178006e
:100a700002003700b15978000201e9000200e000ed
:100a8000fcff3a0000000600000178000200780038
:100a9000b041780081cf5100030032000304e00030
:100aa000f9ff3a000001eb000200780000000600a8
:100ab00000017800b1417800035978000304e00098
:100ac000fcff3a0000000600800078003104e000de
:100ad000feff3a000080ea000080400000000600af
:100ae00080017800060037000201e900b142780079
:100af00085597800030278000504e0000600320002
:100b0000030278000200e000f7ff3a00020037001d
:100b1000005aeb000201e9000200e000fcff3a008d
:040b200000000600cb
:020000040000fa
:100b2400ff000000e7000000c3000000990000007f
:100b3400990000009900000099000000990000004d
:100b4400990000009900000099000000990000003d
:100b540099000000c3000000e7000000ff0000004f
:100b6400ff000000e7000000e3000000e1000000d7
:100b7400e7000000e7000000e7000000e7000000d5
:100b8400e7000000e7000000e7000000e7000000c5
:100b9400e70000008100000081000000ff00000069
:100ba400ff000000c3000000810000009d00000061
:100bb4009f0000009f0000009f000000cf00000085
:100bc400e7000000f3000000f9000000f900000055
:100bd400f90000008100000081000000ff00000017
:100be400ff000000c3000000810000009f0000001f
:100bf4009f0000009f0000009f000000c300000051
:100c0400c30000009f0000009f0000009f00000040
:100c14009f00000081000000c3000000ff000000ee
:100c2400ff000000cf000000c7000000c300000068
:100c3400c9000000c9000000c9000000c90000008c
:100c44008100000081000000cf000000cf00000000
:100c5400cf000000cf000000cf000000ff00000024
:100c6400ff0000008100000081000000f900000086
:100c7400f9000000f9000000f9000000c1000000c4
:100c8400810000009f0000009f0000009f00000002
:100c94009d00000081000000c3000000ff00000070
:100ca400ff0000008300000081000000b900000084
:100cb400f9000000f9000000f9000000f90000004c
:100cc400c1000000810000009900000099000000ac
:100cd4009900000081000000c3000000ff00000034
:100ce400ff00000081000000810000009f00000060
:100cf4009f0000009f0000009f0000009f00000074
:100d0400cf000000e7000000e7000000e70000005b
:100d1400e7000000e7000000e7000000ff0000001b
:100d2400ff000000c30000008100000099000000e3
:100d3400990000009900000099000000c300000021
:100d4400c300000099000000990000009900000011
:100d54009900000081000000c3000000ff000000b3
:100d6400ff000000c30000008100000099000000a3
:100d74009900000099000000810000008300000039
:100d84009f0000009f0000009f0000009f000000e3
:100d94009d00000081000000c3000000ff0000006f
:100da400ff000000e7000000db00000099000000e5
:100db40099000000990000009900000099000000cb
:100dc40081000000990000009900000099000000d3
:100dd400990000009900000099000000ff00000045
:100de400ff000000e1000000c100000099000000c5
:100df400990000009900000099000000c100000063
:100e0400c100000099000000990000009900000052
:100e140099000000c1000000e1000000ff00000094
:100e2400ff000000c300000081000000f900000082
:100e3400f9000000f9000000f9000000f9000000ca
:100e4400f9000000f9000000f9000000f9000000ba
:100e5400f900000081000000c3000000ff00000052
:100e6400ff000000e1000000c10000009900000044
:100e7400990000009900000099000000990000000a
:100e840099000000990000009900000099000000fa
:100e940099000000c1000000e1000000ff00000014
:100ea400ff0000008300000081000000f900000042
:100eb400f9000000f9000000f9000000c100000082
:100ec400c1000000f9000000f9000000f900000072
:100ed400f90000008100000083000000ff00000012
:100ee400ff0000008300000081000000f900000002
:100ef400f9000000f9000000f9000000c100000042
:100f0400c1000000f9000000f9000000f900000031
:100f1400f9000000f9000000f9000000ff000000e3
:100f2400ff0000008300000081000000f9000000c1
:100f3400f9000000f9000000f9000000f9000000c9
:100f4400f9000000f9000000090000009900000009
:100f5400990000008100000083000000ff000000f1
:100f6400ff000000990000009900000099000000b3
:100f74009900000099000000990000008100000021
:100f840099000000990000009900000099000000f9
:100f9400990000009900000099000000ff00000083
:100fa400ff0000008100000081000000e700000055
:100fb400e7000000e7000000e7000000e700000091
:100fc400e7000000e7000000e7000000e700000081
:100fd400e70000008100000081000000ff00000025
:100fe400ff0000009f0000009f0000009f00000021
:100ff4009f0000009f0000009f0000009f00000071
:101004009f0000009f00000099000000990000006c
:10101400990000008100000081000000ff00000032
:10102400ff000000fc000000bc0000009c00000069
:10103400cc000000e4000000f0000000f800000014
:10104400f8000000f0000000e4000000cc00000004
:101054009c000000bc000000fc000000ff00000039
:10106400ff000000f9000000f9000000f900000092
:10107400f9000000f9000000f9000000f900000088
:10108400f9000000f9000000f9000000b9000000b8
:10109400b90000008100000081000000ff00000092
:1010a400ff0000009900000024000000240000005c
:1010b400240000002400000024000000240000009c
:1010c4003c0000003c0000003c0000003c0000002c
:1010d4003c0000003c0000003c000000ff00000059
:1010e400ff000000b9000000b9000000b9000000d2
:1010f400b9000000b1000000b1000000a50000002c
:10110400a5000000ad0000008d0000008d0000006f
:101114009d0000009d0000009d000000ff000000f5
:10112400ff00000081000000810000009900000021
:101134009900000099000000990000009900000047
:101144009900000099000000990000009900000037
:10115400990000008100000081000000ff000000f1
:10116400ff000000830000008100000099000000df
:101174009900000099000000810000008100000037
:10118400f9000000f9000000f9000000f900000077
:10119400f9000000f9000000f9000000ff00000061
:1011a400ff000000c300000081000000990000005f
:1011b40099000000990000009900000099000000c7
:1011c400990000009900000089000000c10000009f
:1011d40093000000bf000000ff000000ff000000bb
:1011e400ff000000c300000081000000990000001f
:1011f4009900000099000000c9000000e10000000f
:10120400f1000000c1000000890000009900000006
:10121400990000009900000099000000ff00000000
:10122400ff0000008300000081000000b9000000fe
:10123400f9000000f9000000f9000000c1000000fe
:10124400830000009f0000009f0000009d0000003c
:101254009d00000081000000c1000000ff000000ac
:10126400ff0000008100000081000000e700000092
:10127400e7000000e7000000e7000000e7000000ce
:10128400e7000000e7000000e7000000e7000000be
:10129400e7000000e7000000e7000000ff00000096
:1012a400ff00000099000000990000009900000070
:1012b40099000000990000009900000099000000c6
:1012c40099000000990000009900000099000000b6
:1012d4009900000081000000c3000000ff0000002e
:1012e400ff00000099000000990000009900000030
:1012f4009900000099000000990000009900000086
:101304009900000099000000990000009900000075
:10131400db000000e7000000e7000000ff00000021
:10132400ff0000003c0000003c0000003c00000006
:101334003c0000003c0000003c0000003c000000b9
:101344003c000000240000002400000024000000f1
:10135400240000000000000099000000ff000000cd
:10136400ff000000990000009900000099000000af
:101374009900000099000000db000000e300000079
:10138400e7000000cb000000990000009900000075
:10139400990000009900000099000000ff0000007f
:1013a400ff0000009900000099000000990000006f
:1013b40099000000990000009900000081000000dd
:1013c400c3000000e7000000e7000000e7000000a1
:1013d400e7000000e7000000e7000000ff00000055
:1013e400ff00000081000000810000009f00000059
:1013f4009f000000cf000000e7000000f3000000a1
:10140400f9000000f9000000f9000000f9000000f4
:101414008100000081000000ff000000ff000000c8
:10142400ff000000ff000000ff000000ff000000bc
:10143400ff000000ff000000ff000000ff000000ac
:10144400ff000000ff000000ff000000ff0000009c
:10145400ff000000ff000000ff000000ff0000008c
:10146400ff000000ff000000ff000000ff0000007c
:10147400ff000000ef000000cf000000810000002a
:1014840081000000cf000000ef000000ff0000001a
:10149400ff000000ff000000ff000000ff0000004c
:1014a4000000000000000000000000000000000038
:1014b4000000000000000000000000000000000028
:1014c4000000000000000000000000000000000018
:1014d4000000000000000000000000000000000008
:1014e400fe000000ff000000ff000000ff000000fd
:1014f400ff000000ff000000ff000000ff000000ec
:10150400ff000000ff000000ff000000ff000000db
:10151400ff000000ff000000ff000000ff000000cb
:101524005445000053540000202000002000000017
:10153400563400002e30000020200000200000005f
:1015440050520000474d0000202000002000000001
:101554004e520000474d00002020000020000000f3
:101564004e570000542000002020000020000000fe
:101574004e570000462000002020000020000000fc
:101584004d530000545200002020000020000000b1
:1015940053450000434f00004e4400000053000038
:1015a4004c410000562000002020000000530000a1
:1015b4005444000041200000200000004d5500006c
:1015c4004c5400002020000020000000534900007b
:1015d4004e47000020200000200000004449000085
:1015e4004733000020200000200000004449000090
:1015f4004732000020200000200000004245000087
:101604004c5400002020000020000000424500004f
:101614004c46000020200000200000005052000032
:101624004d5300002020000020000000534500001e
:10163400434e00004452000059000000535400007f
:10164400444100002020000020000000534100001d
:101654005645000020200000200000004341000007
:101664004e53000020200000200000004f550000d1
:1016740054200000005300004c41000056000000bc
:101684005354000044410000004d0000554c00003c
:1016940054000000534900004e470000004400007d
:1016a400494700003300000044490000473200006d
:1016b400004200004f4e000020000000424f000096
:1016c40046460000004f0000555400002020000052
:1016d4002020000000500000524900004d4100004d
:1016e40052590000004d0000554c000054490000c0
:1016f400504c000000530000494e0000474c0000cd
:1017040045200000002000002020000020200000d0
:1017140020200000002000002020000000420000e3
:10172400454c00004c2000004f4e000000420000d9
:10173400454c0000204f00004646000000530000c6
:10174400454300004f4e00004420000000580000b4
:1017540058580000582e000058580000004500005a
:1017640052520000200000004d410000535400007c
:10177400455200002000000031310000003000001c
:10178400310000004445000046410000554c000073
:10179400540000004c49000053540000534500001d
:1017a4005400000053450000524c0000495300000f
:1017b400540000004c4f0000414400004544000028
:1017c4002000000053450000522000005341000057
:1017d400560000002a2000003030000020300000b5
:1017e400302000004545000045450000202300004e
:0417f40000000000f1
:020000040000fa
:1017f8002801fa00889fbe00201799003117990028
:101808000000eb00000f78000000eb0020079800b4
:101818000000eb0060079800631f0700113a800082
:10182800f08f2f00808060000030200001007000e1
:10183800103a880000000000113a800000022000e1
:10184800008060000000e000fbff3200c002a90039
:10185800c9c2a90070002000801688000080eb0033
:1018680060198800001f070010c4b300604f98007b
:101878000000eb00000f78000f00370020168000f2
:10188800004078006140600000c0ea0061406000ec
:101898000080fb0061006000211680000100a100ab
:1018a80001007000201688000068290081092000c6
:1018b8004d1f07001e0fe8001e007800e40f5000bf
:1018c800eeff3600171f0700c402a900c882a9004e
:1018d800e51e07001e1f0700801e0700521e070096
:1018e800a418070000902000d10320003e1f070025
:1018f800131e0700921b070000902000d103200050
:10190800391f07008200200021a92800f0a220002a
:1019180054fc0700f0a220009019070000a0250041
:1019280021262000301f070082002000a1a92800de
:10193800f0a220004bfc0700f0a220008719070046
:1019480000a0250021262000271f07006000b800fe
:10195800a91b0700006f98006000b800a61b0700cd
:1019680000ef99001000200001002000a21b0700d2
:1019780010ef990020002000010020009e1b0700a6
:1019880020ef990030002000010020009a1b07007a
:1019980030ef99000e689000e14f40003a003a009d
:1019a800100020005040880010002000e04088000f
:1019b8000e28ef0010002000604088000000eb00b7
:1019c8003007980042c0b300be009000c0922000cb
:1019d800251c0700e092200001c3b30001487800ed
:1019e800f092200001c3b3000148780010002000e5
:1019f80040079800100020005007980050408000d1
:101a0800000178006000b800c91b0700e0408000b2
:101a1800000178001000200001002000c41b07000e
:101a280060408000000178002000200001002000b4
:101a3800bf1b0700e09220001040780000417800aa
:101a48003000200001002000441b0700f092200015
:101a5800104078000041780040002000010020007c
:101a68003e1b07004e01900050002000010020009e
:101a7800af1b07005e0190007000200001002000ed
:101a8800ab1b07001b0037001ee891001f1c070056
:101a9800e0408800800c200001002000561b070051
:101aa8001a1c070070408800e04080000000e00039
:101ab80006003200704080000000e00003003a0099
:101ac80010c0b3001ae8b7000a003700e0408000f1
:101ad8000000e00006003200704080000000e000d6
:101ae8000300320020c0b3001ae8b7000100370035
:101af8001a68ef000000eb00000f7800e04080005b
:101b08000000e0001b0032000b0037000040eb0033
:101b1800ee19070000802400811e2000b21e070075
:101b280010c0b300e919070000802400811e2000be
:101b3800ad1e07001e0fe8001e007800e20f5000df
:101b4800f2ff36000e0037000040eb00ab1907002b
:101b580000802400811e2000a31e070010c0b300cf
:101b6800a619070000802400811e20009e1e070081
:101b78001e0fe8001e007800e20f5000f2ff36004a
:101b88000000eb00000f78006000b800200f9800fc
:101b9800310f980090168000004078006140600086
:101ba8000080fb00610060000000e0000d003a00ca
:101bb80010c0b3001ae8b7001000200060079800b2
:101bc80010002000400f98008200200021aa280061
:101bd800f0a22000a3fb0700f0a22000df180700f6
:101be8000a00370082002000a1aa2800f0a22000e5
:101bf8009cfb0700f0a22000d81807000000eb00ab
:101c0800600798000000eb00400f980000402b0090
:101c1800414c2000741e070070002000500f9800ef
:101c280020002000600f98000000eb0010079800cb
:101c380035033700304080000000e00032033200f6
:101c48009e00900051179800101e0700100798007a
:101c58005e1090000000e0002a033a001e00900089
:101c68000000e000270332001e009000e20f500041
:101c780012013200e40f500041023200e10f50001f
:101c880020033a005e0890000000e800500f98001a
:101c98005e089000e80f5000020036000000eb00dc
:101ca800500f9800e04080000000e000090032007a
:101cb800704080000000e000060032005e089000de
:101cc800e20f500003003a005e0890000000e800b0
:101cd800500f9800e04080000000e000090032004a
:101ce800704080000000e000060032005e089000ae
:101cf800e40f500003003a005e0890000000e8007e
:101d0800500f9800e04080000000e0000900320019
:101d1800604080000000e000060032005e0890008d
:101d2800e40f500003003a005e0890000000e8004d
:101d3800500f9800e04080000000e00006003200ec
:101d48005e089000e50f500003003a005e0890001e
:101d58000000e800500f9800504080000000e000ac
:101d680006003a005e089000e50f500003003a00b4
:101d78005e0890000000e800500f98005040800076
:101d88000000e00007003a005e089000e20f5000f3
:101d980004003a005e0890000000e800500f980028
:101da8000c28ef005e089000e30f5000600032003e
:101db800e30f500005003e00e10f50001d00320007
:101dc800e10f500049003e0009003700e50f5000c0
:101dd80086003200e50f500073003900e60f50000e
:101de8009d003200e70f5000ac003200c5023700fa
:101df800504080000000e000070032008200200010
:101e080021ab2800f0a2200016fb0700f0a220005a
:101e1800521807000600370082002000a1ab2800f6
:101e2800f0a220000ffb0700f0a220004b180700cb
:101e3800a1003700e04080000000e0000a00320006
:101e4800704080000000e00007003a008200200097
:101e580021ac2800f0a2200002fb0700f0a220001d
:101e68003e18070020003700e04080000000e00036
:101e78000a003200704080000000e00007003200d5
:101e880072002000a1ac2800f0a22000f5fa07009b
:101e9800f0a22000311807001300370050408000de
:101ea8000000e0000a003200e04080000000e0008e
:101eb80007003a008200200011ad2800f0a220009f
:101ec800e8fa0700f0a220002418070006003700ef
:101ed8007200200091ad2800f0a22000e1fa07006e
:101ee800f0a220001d180700730037006040800032
:101ef8000000e000070032008200200001ae280048
:101f0800f0a22000d7fa0700f0a22000131807005b
:101f1800060037008200200081ae2800f0a22000d1
:101f2800d0fa0700f0a220000c1807006200370062
:101f3800e04080000000e000020032000000eb00fa
:101f48003007980042c0b300be00900020922000e5
:101f5800c51a07002092200091c4b30001487800f8
:101f68003092200041c4b30001487800219220003b
:101f7800f0a22000ccfa070030a3200001c2b30071
:101f88000148780040a3200001c2b300014878004e
:101f980050a3200001c2b30001487800f0a220003d
:101fa800ee170700440037004e0090000000e000e4
:101fb800070032008200200001af2800f0a22000b4
:101fc800a8fa0700f0a22000e4170700060037006f
:101fd8008200200081af2800f0a22000a1fa0700ab
:101fe800f0a22000dd170700330037002092200000
:101ff80031c5b300014878003092200051c5b300c4
:10200800014878004092200061c4b300014878007c
:1020180050922000ee48900001487800219220005c
:10202800f0a22000a0fa070030a3200001c2b300ec
:102038000148780040a3200001c2b300014878009d
:1020480050a3200001c2b30001487800f0a220008c
:10205800c2170700180037005e0090000000e0007b
:10206800070032008200200001b02800f0a2200002
:102078007cfa0700f0a22000b81707000600370016
:102088008200200081b02800f0a2200075fa070025
:10209800f0a22000b11707000700370082002000d7
:1020a80001b12800f0a220006efa0700f0a220007b
:1020b800aa17070000000000120237005e0890000f
:1020c800e30f500053003200e30f500005003e00bc
:1020d800e10f500015003200e10f500044003e00af
:1020e80009003700e50f500093003200e50f50005b
:1020f80088003900e60f5000d3003200e70f500087
:10210800da003200ff0137008200200021ab2800ee
:10211800f0a2200053fa0700f0a220008f17070052
:102128001000200050408800140137006e0890000d
:102138000000e800600f98006e089000e10f500062
:10214800020036000000eb00600f9800504080004d
:102158000000e0000d0032006e0890000000e00072
:102168000a003a008200200021ac2800f0a22000da
:102178003cfa0700f0a220007817070010002000a2
:10218800e04088000e28ef0018003700504080001b
:102198000000e0000e0032006e089000e10f5000d1
:1021a8000b003a008200200081b12800f0a2200034
:1021b8002cfa0700f0a22000681707001000200082
:1021c800e0408800100020007040880007003700b9
:1021d8008200200001b22800f0a2200021fa0700a6
:1021e800f0a220005d1707001c28ef00e30037006d
:1021f8008200200001ae2800f0a2200019fa070092
:10220800f0a2200055170700100020006040880049
:10221800da003700e04080000000e0001b003200d8
:102228000000eb003007980042c0b300be009000e9
:10223800209220000c1a07002092200091c4b300bd
:10224800014878003092200041c4b300014878006a
:1022580021922000f0a2200013fa070030a32000ea
:1022680001c2b3000148780040a3200001c2b300b6
:102278000148780050a3200001c2b300014878004b
:10228800f0a2200035170700210037003e0090001b
:102298000000e80030079800be009000000220000f
:1022a800808f500002003600100020003007980090
:1022b80042c0b300be00900020922000ea19070037
:1022c8002092200091c4b300014878003092200089
:1022d80041c4b3000148780021922000f0a22000f8
:1022e800f1f9070030a3200001c2b30001487800cb
:1022f80040a3200001c2b3000148780050a3200089
:1023080001c2b30001487800f0a2200013170700ab
:102318009a0037008200200081af2800f0a2200038
:10232800d0f90700f0a220000c1707000000eb000e
:102338004007980091003700604080000000e000ee
:10234800240032006e4890000040e800604f98007a
:10235800ee489000a0c5b30080cf500002003400c2
:1023680010c4b300604f98002092200031c5b3001c
:10237800014878003092200051c5b3000148780028
:102388004092200061c4b3000148780050922000b8
:10239800ee4890000148780021922000f0a2200029
:1023a800c1f9070030a3200001c2b300014878003a
:1023b80040a3200001c2b3000148780050a32000c8
:1023c80001c2b30001487800f0a22000e31607001c
:1023d8001c00370000c3b300604f98002092200013
:1023e80031c5b300014878003092200051c5b300d0
:1023f800014878004092200061c4b3000148780089
:1024080050922000ee489000014878002192200068
:10241800f0a22000a4f9070030a3200001c2b300f5
:102428000148780040a3200001c2b30001487800a9
:1024380050a3200001c2b30001487800f0a2200098
:10244800c61607004d0037008200200001b02800a2
:10245800f0a2200083f90700f0a22000bf160700b1
:102468001000200050079800440037008200200028
:1024780081b22800f0a220007af90700f0a220001b
:10248800b616070000a0250021262000561c0700cc
:1024980000a0250021262000531c07005040800082
:1024a8000000e00002003a00f0c0b300604f98005e
:1024b80042c0b300be009000c09220006a19070015
:1024c80050408000000178006000b800181907002b
:1024d800e04080000001780010002000010020008a
:1024e80013190700604080000001780020002000d8
:1024f800010020000e190700e0922000104078002b
:1025080000417800300020000100200093180700e7
:10251800f092200010407800004178004000200030
:10252800010020008d1807004e0190005000200087
:1025380001002000fe1807006e4890000041780056
:102548006000200001002000841807005e01900050
:102558007000200001002000f5180700704080007e
:1025680000017800800c200001002000f01807000e
:102578000000eb006007980000000000e100370051
:102588005e089000e30f50003e003200e30f500059
:1025980005003e00e10f500014003200e10f50002a
:1025a80024003e0009003700e50f50007e0032008d
:1025b800e50f500073003900e60f5000be003200ee
:1025c800e70f5000c5003200ce003700820020001f
:1025d800a1ab2800f0a2200022f90700f0a22000f9
:1025e8005e1607000a28ef00c5003700504080003b
:1025f8000000e000070032008200200011ad280032
:10260800f0a2200017f90700f0a2200053160700d7
:10261800060037007200200091ad2800f0a22000cb
:1026280010f90700f0a220004c1607001c28ef0044
:10263800b3003700504080000000e000080032007e
:102648008200200081ae2800f0a2200005f90700d2
:10265800f0a22000411607000c28ef000800370000
:102668008200200001ae2800f0a22000fdf807003b
:10267800f0a22000391607001000200060408800f2
:102688009f003700e04080000000e0001b0032009f
:102698000000eb003007980042c0b300be00900075
:1026a80020922000f01807002092200091c4b30067
:1026b800014878003092200041c4b30001487800f6
:1026c80021922000f0a22000f7f8070040a3200084
:1026d80001c2b3000148780050a3200001c2b30032
:1026e8000148780060a3200001c2b30001487800c7
:1026f800f0a2200019160700210037003e009000c4
:10270800e10f500003003a00000220003007980053
:10271800030037003e0090000000e90030079800f1
:1027280042c0b300be00900020922000ce180700df
:102738002092200091c4b300014878003092200014
:1027480041c4b3000148780021922000f0a2200083
:10275800d5f8070040a3200001c2b3000148780063
:1027680050a3200001c2b3000148780060a32000f4
:1027780001c2b3000148780020922000f715070035
:102788005f0037008200200001af2800f0a220007f
:10279800b4f80700f0a22000f01507001000200090
:1027a8004007980056003700604080000000e000b5
:1027b800240032006e4890000040e900604f980005
:1027c800ee48900000c4b30080cf500002003c00e7
:1027d800a0c5b300604f98002092200031c5b30017
:1027e800014878003092200051c5b30001487800b4
:1027f8004092200061c4b300014878005092200044
:10280800ee4890000148780021922000f0a22000b4
:10281800a5f8070040a3200001c2b30001487800d2
:1028280050a3200001c2b3000148780060a3200033
:1028380001c2b30001487800f0a22000c7150700c4
:102848001c00370000c3b300604f9800209220009e
:1028580031c5b300014878003092200051c5b3005b
:10286800014878004092200061c4b3000148780014
:1028780050922000ee4890000148780021922000f4
:10288800f0a2200088f8070040a3200001c2b3008e
:102898000148780050a3200001c2b3000148780025
:1028a80060a3200001c2b30001487800f0a2200014
:1028b800aa150700120037008200200081b0280006
:1028c800f0a2200067f80700f0a22000a315070077
:1028d8000000eb0050079800090037008200200034
:1028e80001b32800f0a220005ef80700f0a2200043
:1028f8009a1507000000eb00600798000000000030
:10290800000000000628ef006e0090000000e000c4
:10291800c8fc3a00e04080000000e000a3003a0054
:102928001a68ef0080b32800e014070000a0250013
:10293800212620002c1b0700e0c4b30000ef9900fb
:1029480050c4b30010ef990040c5b30020ef9900c0
:102958006000b800a817070030ef99003ee8910022
:102968006a18070050408800e04080000000e0003e
:1029780006003a00504080000000e00003003200ea
:10298800d0b32800c91407000200370020b428007b
:10299800c614070000a0250021262000121b0700ee
:1029a800504080000000e000280032002000200095
:1029b800010020009017070030ef99003ee89100d1
:1029c8005218070060408800604080000000e00066
:1029d8001700320070b42800b414070000a02500c6
:1029e80021262000001b070030c5b30000ef990026
:1029f80050c5b30010ef990060c4b30020ef9900f0
:102a080060002000010020007b17070030ef9900cc
:102a1800600020000100200077170700604f980031
:102a2800800e20000e004000a014070004003700ac
:102a380000c3b300604f9800c0b428009b1407007f
:102a480000a0250021262000e71a070090c4b30043
:102a580000ef990040c4b30010ef99003000200047
:102a6800010020006417070020ef990030002000c3
:102a7800010020006017070080407800e0922000e5
:102a88000148780040002000010020005a17070084
:102a980030ef990040002000010020005617070081
:102aa80080407800f092200001487800800e2000d5
:102ab8000e0040007d1407002ee89100131807004f
:102ac800c400dd00f00f200000806000300798008f
:102ad8003ee891000d1807006f006000be009000ee
:102ae800010070003007980000a025002126200072
:102af800bd1a070040c4b30000ef990090c4b300aa
:102b080010ef990070c4b30020ef99005000200026
:102b1800010020003817070030ef99003ee89100c7
:102b2800fa170700400798004e0090000000e000e8
:102b38000300320010b528005c14070002003700bb
:102b480060b528005914070000a0250021262000a0
:102b5800a51a070020c4b30000ef990050c4b300c1
:102b680010ef9900c0c4b30020ef99007000200056
:102b7800010020002017070030ef99003ee891007f
:102b8800e2170700500798005e0090000000e00080
:102b980003003200b0b52800441407004a0137008a
:102ba80000b628004114070047013700e0408000c4
:102bb8000000e000c5003200704080000000e00026
:102bc800c2003a0010c0b3001ae8b70050b6280097
:102bd800e214070000a0250021262000821a070021
:102be800e0c4b30000ef990050c4b30010ef99009f
:102bf80040c5b30020ef99006000b800fe1607003a
:102c080030ef99003ee89100c01707005040880057
:102c1800d0c4b30000ef990010c4b30010ef9900be
:102c280030c5b30020ef99001000200001002000fb
:102c3800f116070030ef99003ee89100b31707003e
:102c4800e0408800d0b62800c414070000a0250082
:102c580021262000641a070000a025002126200054
:102c6800611a07002000200001002000e21607007a
:102c780030ef99003ee89100a417070060408800f3
:102c8800604080000000e0000300320050b72800d8
:102c9800b214070002003700d0b72800af140700ad
:102ca80000a02500212620004f1a070000a02500bb
:102cb800212620004c1a070050b82800a714070046
:102cc80090c4b30000ef990040c4b30010ef99001e
:102cd8003000200001002000c716070020ef9900ef
:102ce8003000200001002000c31607008040780053
:102cf800e0922000014878004000200001002000f8
:102d0800bd16070030ef99004000200001002000a8
:102d1800b916070080407800f0922000014878003a
:102d2800800e20000e004000420020008000780045
:102d3800f0a2200068f70700f0a2200060f7070063
:102d480080007800f0a220000080400042002000af
:102d5800d1b8280043f70700f0a220007f1407002d
:102d68002ee8910069170700c400dd00f00f20006d
:102d780000806000300798003ee891006317070064
:102d88006f006000be0090000100700030079800de
:102d980000a0250021262000131a070000a0250006
:102da80021262000101a070040c4b30000ef990044
:102db80090c4b30010ef990070c4b30020ef9900dd
:102dc80050002000010020008b16070030ef99000a
:102dd8003ee891004d1707004007980060408000ca
:102de8000000e00023003a00bee8910000c3b300f1
:102df80080cf500003003a0020c3b30030ef9900a1
:102e080006003700bee8910010c3b30080cf500021
:102e180002003a0030c3b30030ef9900800e200062
:102e28000e0040004200200080007800f0a2200040
:102e380029f70700f0a2200021f70700800078009a
:102e4800f0a220000080400042002000d1b82800f5
:102e580004f70700f0a220004014070000a0250096
:102e680021262000e019070000a0250021262000c7
:102e7800dd19070020c4b30000ef990050c4b30067
:102e880010ef9900c0c4b30020ef99007000200033
:102e9800010020005816070030ef99003ee8910025
:102ea8001a170700500798005e0090000000e00025
:102eb8000300320010b928002814070082003700e8
:102ec80090b92800251407007f003700e0408000f3
:102ed8000000e0007c003200704080000000e0004c
:102ee8007900320020c0b3001ae8b70050b62800b5
:102ef8001a14070000a0250021262000ba1907008f
:102f0800e0c4b30000ef990050c4b30010ef99007b
:102f180040c5b30020ef99006000b80036160700de
:102f280030ef99003ee89100f816070050408800fd
:102f3800d0c4b30000ef990010c4b30010ef99009b
:102f480030c5b30020ef99001000200001002000d8
:102f58002916070030ef99003ee89100eb160700ac
:102f6800e040880010ba2800fc13070000a02500e4
:102f7800212620009c19070000a0250021262000fa
:102f88009919070050b82800f413070090c4b3003b
:102f980000ef990040c4b30010ef99003000200002
:102fa800010020001416070020ef990030002000cf
:102fb800010020001016070080407800e0922000f1
:102fc8000148780040002000010020000a16070090
:102fd80030ef99004000200001002000061607008d
:102fe80080407800f092200001487800800e200090
:102ff8000e0040004200200080007800f0a220006f
:10300800b5f60700f0a22000adf6070080007800b2
:10301800f0a220000080400042002000d1b8280023
:1030280090f60700f0a22000cc1307002ee89100cc
:10303800b6160700c400dd00f00f20000080600015
:10304800300798003ee89100b01607006f00600056
:10305800be009000010070003007980000a0250015
:10306800212620006019070000a025002126200045
:103078005d19070020c4b30000ef990050c4b300e5
:1030880010ef9900c0c4b30020ef99007000200031
:1030980001002000d815070030ef99003ee89100a4
:1030a8009a160700500798005e0090000000e000a4
:1030b8000300320010b92800a813070002003700e7
:1030c80090b92800a513070000a02500212620009c
:1030d80045190700504080000000e00086013200da
:1030e8001ac8bf00e14f5000b00232001ac8bf0032
:1030f800e24f5000cf003200d0b32800eb12070097
:1031080000402b00414c2000371907001a68ef00d7
:103118004e0890000000e00030003a0080002000d7
:1031280001002000b415070080407800209220009c
:10313800014878009000200001002000ae1507002b
:10314800804078003092200001487800a0002000dc
:1031580001002000a8150700804078004092200058
:1031680001487800b000200001002000a2150700e7
:10317800804078005092200001487800209220007a
:10318800904078006e48900080cf50000f003a00c1
:1031980020922000c51207004e0090000000e000b9
:1031a800050032004100200020922000b7160700d9
:1031b80020079800090037003100200020922000e5
:1031c800b216070020079800040037000000eb0043
:1031d8002007980001003700000000000868ef0091
:1031e80013c8bf000004e000fbff32000000eb0042
:1031f800000f78000b003700209a20001e004000c6
:103208009040780000a220001e004000014878008d
:10321800209a20001e0040008040eb000148780002
:103228001e0fe8001e007800ed0f5000f2ff360078
:103238001368ef0000a22000000f98000000eb00c8
:10324800000f78000e0890000000e800000f9800ba
:103258000e0890000000e800000f980009003700f1
:103268000e08900090407800009320001e00400057
:10327800014878001e0fe8000e0890000000e800e2
:10328800000f98000e0890009040780000c2b3002c
:1032980080cf5000f2ff3a00309320008040eb00ce
:1032a800014878000000eb00000f78000e0890003d
:1032b8000000e800000f9800090037000e08900091
:1032c80090407800909320001e004000014878004c
:1032d8001e0fe8000e0890000000e800000f98009c
:1032e8000e0890009040780000c2b30080cf5000d4
:1032f800f2ff3a00c09320008040eb0001487800bc
:103308000000eb00000f78000e0890000000e800b5
:10331800000f9800090037000e08900090407800d0
:10332800409320001e004000014878001e0fe8006e
:103338000e0890000000e800000f98000e089000aa
:103348009040780000c2b30080cf5000f2ff3a00ee
:1033580040932000904078006e48900080cf500045
:1033680028003a000093200090407800e092200066
:103378001040780080cf500022003a0010932000bf
:1033880090407800f09220001040780080cf5000e4
:103398001c003a000000eb00000f7800070037001f
:1033a800409320001e0040009040780020922000aa
:1033b8001e004000014878001e0fe8001e0078003b
:1033c800e30f5000f6ff36005e0090000000e000ba
:1033d8000100320053180700e040800080007800a8
:1033e8002092200059140700209220002f12070075
:1033f80043002000229220008000200001002000cd
:103408005f1507000000eb00000f7800050037008b
:1034180000a220001e0040008040eb000148780018
:103428001e0fe8001e007800ec0f5000f8ff360071
:103438006aff37000000000010ba2800c712070012
:1034480000402b00414c2000671807004e089000f0
:103458000000e00020003a00800020000100200069
:10346800200f9800310f9800110037002e089000a7
:10347800be08900068045000e08458002e089000b0
:10348800be089000dc1407008040780000a52000ea
:1034980008004000014878002e089000be089000ff
:1034a80061004000e0804800200f9800310f98002c
:1034b8002e099000be099000e000200001002000c5
:1034c800800f5100818f5900e8ff360000a52000c9
:1034d800a21207000200370090ba28009f120700c6
:1034e80000a02500212620003f1807000100370012
:1034f800000000000868ef0013c8bf000004e000e7
:10350800fbff32000000eb00000f78000b003700d3
:10351800209a20001e0040009040780000a2200061
:103528001e00400001487800209a20001e0040003c
:103538008040eb00014878001e0fe8001e0078006c
:10354800ed0f5000f2ff36001368ef0000a22000d4
:10355800000f98000000eb00000f78000e089000a4
:103568000000e800000f98000e0890000000e80036
:10357800000f9800090037000e089000904078006e
:10358800009320001e004000014878001e0fe8004c
:103598000e0890000000e800000f98000e08900048
:1035a8009040780000c2b30080cf5000f2ff3a008c
:1035b8000000eb00000f78000e0890000000e80003
:1035c800000f9800090037000e089000904078001e
:1035d800909320001e004000014878001e0fe8006c
:1035e8000e0890000000e800000f98000e089000f8
:1035f8009040780000c2b30080cf5000f2ff3a003c
:103608000000eb00000f78000e0890000000e800b2
:10361800000f9800090037000e08900090407800cd
:10362800409320001e004000014878001e0fe8006b
:103638000e0890000000e800000f98000e089000a7
:103648009040780000c2b30080cf5000f2ff3a00eb
:1036580002a520000193200040932000fc100700e1
:103668007300200002a52000800020000100200037
:10367800c31407005e0090000000e0000100320063
:10368800a8170700e04080008000780000a520000f
:10369800ae13070000a52000301207000000eb0061
:1036a800000f780005003700409320001e004000fe
:1036b8008040eb00014878001e0fe8001e007800eb
:1036c800e40f5000f8ff36000000eb00000f780010
:1036d8000500370000a220001e0040008040eb00db
:1036e800014878001e0fe8001e007800ec0f50001b
:1036f800f8ff36007fff3700000000001a68ef006f
:1037080020b428006911070000a025002126200008
:10371800b51707004e0890000000e0002d003a00a1
:10372800900020000100200033140700804078003a
:103738003092200001487800a000200001002000fd
:103748002d1407008040780040922000014878003e
:10375800b0002000010020002714070080407800f6
:1037680050922000014878004e019000719220008c
:1037780020922000ca110700709220004b11070008
:1037880041002000209220004015070020079800e3
:103798004e0090000000e00007003200ae009000ec
:1037a800703e2000808f5000160036000000eb00ad
:1037b8002007980013003700ae0090003006200064
:1037c800808f50000f0036000000eb0020079800a3
:1037d8000c0037000000eb002007980042c0b3003f
:1037e800ae009000209220009f1407004e01900028
:1037f8007192200020922000a911070070922000e9
:103808002a11070010c0b30008e8b700010037000c
:103818000000000013c8bf000004e000fcff3200f5
:103828000000eb00000f78000b003700209a200002
:103838001e0040009040780000a220001e004000ba
:1038480001487800209a20001e0040008040eb00cc
:10385800014878001e0fe8001e007800ee0f5000a7
:10386800f2ff36001368ef000000eb00000f78004d
:1038780000a22000000f98000000eb00000f780065
:10388800090037000e08900090407800009320004f
:103898001e004000014878001e0fe8000e08900046
:1038a8000000e800000f98000e0890009040780093
:1038b80000c2b30080cf5000f2ff3a000000eb00d6
:1038c800000f78000e0890000000e800000f980034
:1038d800090037000e08900090407800909320006f
:1038e8001e004000014878001e0fe8000e089000f6
:1038f8000000e800000f98000e0890009040780043
:1039080000c2b30080cf5000f2ff3a00c0932000fd
:103918008040eb00014878000000eb00000f7800c1
:103928000e0890000000e800000f9800090037001a
:103938000e08900090407800409320001e00400040
:10394800014878001e0fe8000e0890000000e8000b
:10395800000f98000e0890009040780000c2b30055
:1039680080cf5000f2ff3a000e0890000000e800f7
:10397800000f9800060037000e08900010407800ed
:1039880019e8b7000e0890000000e800000f980042
:103998000e0890009040780000c2b30080cf50001d
:1039a800f5ff3a0010c0b30008e8b70019c8bf0017
:1039b8000000fb00e1042000810f500007003200e6
:1039c80001052000810f500023003200310420003f
:1039d800810f50003f0032004d0037004e0090002c
:1039e8000000e0000e0032002e0090000000e80009
:1039f80020079800ae009000703e2000808f500095
:103a0800020036000000eb002007980042c0b30017
:103a1800ae00900020922000131407003f003700ea
:103a28002e0090000000e80020079800ae009000eb
:103a380030062000808f5000020036000000eb00a6
:103a48002007980042c0b300ae00900020922000ea
:103a580005140700310037004e0090000000e00018
:103a68000e0032002e0090000000e00003003a0033
:103a7800703e200020079800030037002e009000b9
:103a88000000e9002007980042c0b300ae00900093
:103a980020922000f4130700200037002e00900029
:103aa8000000e00003003a003006200020079800dc
:103ab800030037002e0090000000e900200798005e
:103ac80042c0b300ae00900020922000e613070029
:103ad800120037000000eb00200798004e0090000d
:103ae8000000e0000500320042c0b300ae009000c4
:103af80020922000dc1307000800370042c0b30002
:103b0800ae00900020922000d71307000300370072
:103b180010bb280065100700000000004e0190004f
:103b28007192200020922000dd10070022922000d0
:103b380091932000009320000915070010a420008d
:103b48002d1607005e0090000000e0000100320022
:103b5800741607008000eb00709220007b120700ab
:103b6800709220005110070043002000229220008c
:103b78008000200001002000811307000000eb00f6
:103b8800000f78000500370000a220001e0040004a
:103b98008040eb00014878001e0fe8001e00780006
:103ba800ee0f5000f8ff36001aff37000000000043
:103bb80000a02500212620008b1607000000eb003e
:103bc800700f98000000eb00001798000000eb0051
:103bd8001017980010c0b3001ae8b70060bb28009f
:103be800de10070000a02500212620007e16070011
:103bf800604080000000e00002003a0000c3b3000b
:103c0800604f98004e0890000000e00094013a00d0
:103c1800604080000000e0009800320000012000b1
:103c280001002000f4120700206f99001001200005
:103c380001002000f0120700306f9900a00a200050
:103c48000e00400021002000e5130700201798000f
:103c5800a00a20000e00400022c0b300ae10900061
:103c6800811307000000eb00101798007000370060
:103c78000000eb00000f7800160037001e109000bf
:103c88004200dd001e0040000002b0008000eb0092
:103c9800d912070080407800209220001e004000c2
:103ca80001487800620420000e0141001e109000b7
:103cb8006500b900000078001e00400000004100c7
:103cc800219220009e8040009140780001487800b1
:103cd8001e0fe8001e007800e30f5000e7ff3600d3
:103ce8001e109000610060000000e00014003a001f
:103cf8001e1090000000d1009e109000008450001b
:103d08004100200020922000e013070088004400b2
:103d180081004700c10ab000800878001e1090009a
:103d28000000d1009e1090000080500021922000d9
:103d3800914078000000470011589a0011003700a0
:103d48001e10900061006000004078000004e00050
:103d58000c0032001e1090000000d1009e10900050
:103d6800008050000004e90041002000209220005b
:103d7800c61307008800440081004700410db000c9
:103d880080087800209220001e0040008040eb0050
:103d980001487800620420000e0141001e109000c6
:103da8006500b900000078001e00400000004100d6
:103db800219220009e8040009140780001487800c0
:103dc800620420000e0141001e1090006500b90039
:103dd800000078001e00400000014100630420003c
:103de8008e8141001e1090006500b9000000780027
:103df8001e00400000804100104078000040e900ab
:103e08000049780021922000709220002e120700ad
:103e1800709220005110070000a0250021262000e4
:103e2800f11507001e1090000000e8001017980018
:103e38002e10900000004000800078001e109000b6
:103e4800808f50008aff3e00901120000e00400035
:103e58002e11900080007800209220001ef30700a9
:103e6800901120000e004000800078002e10900075
:103e78009814070000407800105f9a0060408000a6
:103e88000000e00030003a0080002000010020001f
:103e9800200f9800310f9800110037002e0890006d
:103ea800be08900068045000e08458002e08900076
:103eb800be089000501207008040780000a520003e
:103ec80008004000014878002e089000be089000c5
:103ed80061004000e0804800200f9800310f9800f2
:103ee8002e099000be099000e0002000010020008b
:103ef800800f5100818f5900e8ff360041002000f3
:103f080000a52000361307002007980000a5200010
:103f18001210070000a0250021262000b215070076
:103f2800ee489000115f9a00901120000e004000aa
:103f38008000780010002000661407000040780018
:103f4800105f9a00540237000000eb00000f780061
:103f5800000c2000010020006017980071179800dd
:103f6800000d200001002000001f9800111f98007c
:103f78006e109000fe1090001f12070000ef9900cd
:103f88006e109000fe10900061004000e080480034
:103f980060179800711798006e109000fe1090003e
:103fa8001512070010ef9900800e20000e00400047
:103fb800110020000a130700201f98000e18900017
:103fc8009e1890000c12070000ef99000e18900040
:103fd8009e18900061004000e0804800001f980093
:103fe800111f98000e1890009e18900002120700ea
:103ff80010ef9900800e20000e00400011002000f4
:10400800f7120700301f98002e1890000000e000fb
:1040180074003a000000eb00101798006c0037009d
:104028000007200001002000200f9800310f9800a1
:10403800130037001e1090004300dd006101b80036
:104048002e089000be0890000200400083804800bf
:10405800e91107008040780000a520001e004000fc
:10406800014878001e0fe8002e089000be08900056
:1040780061004000e0804800200f9800310f980050
:104088002e099000be099000700720000100200052
:10409800800f5100818f5900e6ff36000000eb00c9
:1040a800000f780000a52000104078008000fb0079
:1040b800901120000e00400071f20700401f980088
:1040c8004e1890000000e0003e0032003e189000bc
:1040d8000000e0003b003a0023002000e2bb28007b
:1040e800000d2000010020002512070040112000cb
:1040f8000e0040004200200001a5200076f20700d3
:10410800401120000e0040007f0e0700e14f5000d4
:104118002c003a00401120000e00400084120700d5
:10412800800078001e10900000004000000047004a
:10413800000cb000010878001e109000000040003c
:104148000000470080a090001e1090000000400072
:104158000000470060909000808f50000a003900ee
:104168001e109000000040000000470080a0900052
:104178001e109000000040000000470020a890009a
:10418800808f50000a0036001e109000000040008a
:1041980000004700609090008000e9001e10900029
:1041a8000000400000004700000cb0000108780043
:1041b80000a52000690f070000a025002126200087
:1041c800091507001e1090000000e800101798005d
:1041d8009e1090002e109000808f500090ff3900a4
:1041e800ad01370090ba28005c0f070000a0250039
:1041f80021262000fc1407002300200012bc280000
:10420800000c200001002000dd1107000000eb0079
:10421800101798000d0037001e1090000000400095
:1042280000004700609090008000e9001e10900098
:104238000000400000004700000cb00001087800b2
:104248001e1090000000e800101798009e109000c3
:104258002e109000808f5000efff39008e0137003c
:1042680090ba28003d0f070000a025002126200055
:10427800dd1407000002200001002000501f9800f4
:10428800611f9800604080000000e0007601320065
:104298005e189000ee18900057110700607f980094
:1042a80018c8bf00ee78900080cf50008a003a000e
:1042b80050b82800290f070010c3b300206f9900d9
:1042c80000c3b300306f99002e6891000041780058
:1042d8000001200001002000201107003e68910025
:1042e8000041780010012000010020001b11070088
:1042f800a00a20000e00400021002000381207000c
:10430800201798000000eb00000f78005c003700d1
:104318000000eb00101798001d003700d293200012
:104328001e0078006500b900800078001e1090001b
:104338000080400000004100104078008040780074
:10434800229220001e1090000000410001487800d1
:10435800620420000e0141001e0078006500b900cb
:10436800800078001e10900000804000000041008e
:10437800229220009e109000810041009140780018
:10438800014878001e1090000000e80010179800ff
:104398001e109000e40f5000e0ff36009e007800e9
:1043a800618060000000e00012003a001e00780002
:1043b8000000d1001e0410004100200020922000bf
:1043c800321207008800440081004700c10ab0008b
:1043d800800878001e0078000000d1001e00100040
:1043e80021922000914078000000470011589a005f
:1043f800100037001e00780061006000004078005f
:104408000004e0000b0032001e0078000000d1001c
:104418001e0010000004e900410020002092200046
:104428001a1207008800440081004700410db000bf
:10443800800878009e007800688040004200dd0017
:104448008000eb0043002000229220004c1107005e
:10445800609220008040eb00014878002192200003
:10446800a0a3200098100700a0a32000bb0e0700ff
:1044780000a02500212620005b1407001e0fe8007d
:104488002e109000000040009e0f5000a0ff3e003c
:10449800901120000e004000800078002e1090003f
:1044a8000c13070000407800105f9a0040bc2800f9
:1044b800aa0e070000a02500212620004a140700a4
:1044c800c0bc2800a50e070000a02500212620005a
:1044d80045140700f000370050b828009f0e070069
:1044e8000001200001002000c3100700206f990080
:1044f8001001200001002000bf100700306f990054
:10450800a00a20000e00400021002000b41107007e
:1045180020179800a00a20000e00400022c0b30017
:10452800ae109000501107000000eb001017980023
:10453800540037000000eb00000f78001600370029
:104548001e1090004200dd001e0040000002b00076
:104558008000eb00a810070080407800209220001f
:104568001e00400001487800620420000e0141004e
:104578001e1090006500b900000078001e00400081
:1045880000004100219220009e8040009140780068
:10459800014878001e0fe8001e007800e30f500065
:1045a800e7ff36001e109000610060000000e00088
:1045b80014003a001e1090000000d1009e109000d8
:1045c800008450004100200020922000af11070015
:1045d8008800440081004700c10ab00080087800c4
:1045e8001e1090000000d1009e1090000080500026
:1045f80021922000914078000000470011589a004d
:10460800110037001e109000610060000040780023
:104618000004e0000c0032001e1090000000d100e1
:104628009e109000008050000004e9004100200026
:10463800209220009511070088004400810047005f
:10464800410db00080087800209220001e00400034
:104658008040eb000148780021922000a0a32000b0
:1046680019100700a0a320003c0e070000a0250099
:1046780021262000dc1307001e1090000000e8002f
:10468800101798002e10900000004000800078005d
:104698001e109000808f5000a6ff3e009011200051
:1046a8000e004000800078002e109000891207004c
:1046b80000407800105f9a0040bd2800270e0700d0
:1046c80000a0250021262000c7130700c0bd280030
:1046d800220e070000a0250021262000c213070093
:1046e8000000eb00000f78000000eb0010179800a6
:1046f800580037000007200001002000200f980014
:10470800310f9800130037001e1090004300dd00a1
:104718006101b8002e089000be0890000200400019
:1047280083804800341007008040780000a52000ee
:104738001e004000014878001e0fe8002e08900077
:10474800be08900061004000e0804800200f9800fb
:10475800310f98002e099000be09900070072000c4
:1047680001002000800f5100818f5900e6ff3600bc
:104778000000eb00000f780000a520001040780032
:104788008000fb00901120000e004000bcf00700e4
:104798000000e0002c003200401120000e00400014
:1047a8004200200001a52000cbf0070040112000a6
:1047b8000e004000de100700800078001e109000f8
:1047c8000000400000004700000cb000010878001d
:1047d8001e109000000040000000470080a09000dc
:1047e8001e109000000040000000470060909000fc
:1047f800808f50000a0039001e1090000000400011
:104808000000470080a090001e10900000004000ab
:104818000000470020a89000808f50000a00360052
:104828001e109000000040000000470060909000bb
:104838008000e9001e1090000000400000004700c2
:10484800000cb000010878001e1090000000e8007d
:10485800101798009e1090002e109000808f500026
:10486800a4ff39000c003700604080000000e00021
:1048780009003a00ee489000115f9a00901120005c
:104888000e00400080007800100020001112070080
:1048980000407800105f9a0010c0b30008e8b70025
:1048a800010037000000000014c8bf000004e00049
:1048b800ca0032000000eb00101798000000eb005f
:1048c800000f7800109b2000100f98001e08900021
:1048d8000000e800100f98001e0890000000e80093
:1048e800100f98000a0037001e08900090407800ca
:1048f800a00a20000e0040001e0040000148780079
:104908001e0fe8001e0890000000e800100f980035
:104918001e0890009040780000c2b30080cf50007d
:10492800f1ff3a000040eb00506f9900a00a200008
:104938000e00400021002000a91007002017980051
:10494800a00a20000e00400023002000000178008b
:104958000001200001002000091007000000eb0002
:10496800000f78000000eb00101798005700370080
:104978001e0890000000e800100f9800140037008f
:104988001e08900090407800209220001e004000f1
:10499800014878001e0890000000e800100f9800f9
:1049a800620420000e0141001e1090006500b9004d
:1049b800000078001e004000000041002192200005
:1049c8009e80400091407800014878001e0fe80062
:1049d8001e0890009040780000c2b30080cf5000bd
:1049e800e7ff3a001e109000610060000000e00040
:1049f80014003a001e1090000000d1009e10900094
:104a08000084500041002000209220009f100700e1
:104a18008800440081004700c10ab000800878007f
:104a28001e1090000000d1009e10900000805000e1
:104a380021922000914078000000470011589a0008
:104a4800110037001e1090006100600000407800df
:104a58000004e0000c0032001e1090000000d1009d
:104a68009e109000008050000004e90041002000e2
:104a7800209220008510070088004400810047002c
:104a8800410db000800878001e10900068004000ba
:104a98004200dd008000eb0043002000229220004d
:104aa800b70f070023002000e2bb2800000c2000fd
:104ab80001002000b20f07000000eb00000f780093
:104ac8001e1090000000e800101798002e109000ab
:104ad80000004000800078001e109000808f500079
:104ae800a3ff3e000000eb00000f78000a0037002b
:104af80018c8bf000080fb00000178009e00780005
:104b08006e8040004300dd008000eb007300200051
:104b18009b0f07001e0fe8001e007800e90f5000e9
:104b2800f3ff3600901120000e004000800078004e
:104b38002e1090006711070000407800105f9a005f
:104b48000000eb00000f78000b0037001e00780013
:104b58000000400000004700609090008000e900dd
:104b68001e0078000000400000004700000cb00064
:104b7800010878001e0fe8002e1090009e007800b3
:104b8800808f5000f1ff390040be2800f30c070069
:104b980000a0250021262000931207000000eb004a
:104ba800000f780005003700109b20001e00400011
:104bb8008040eb00014878001e0fe800d006200076
:104bc8009e007800808f5000f7ff36001468ef00d1
:104bd80010c0b30008e8b70033ff370013c8bf00a0
:104be8000004e0002fff32000000eb00000f780007
:104bf8000e003700209a20001e00400090407800e8
:104c080000a220001e0040000148780000fa2000a1
:104c18000100200074120700209a20001e004000a6
:104c28008040eb00014878001e0fe8001e00780065
:104c3800ee0f5000efff36001368ef0000a22000cf
:104c4800000f98000000eb00000f78000900370003
:104c58000e08900090407800009320001e0040004d
:104c6800014878001e0fe8000e0890000000e800d8
:104c7800000f98000e0890009040780000c2b30022
:104c880080cf5000f2ff3a00309320008040eb00c4
:104c98000148780000932000a50f0700002798001e
:104ca8000000eb00000f78000e0890000000e800fc
:104cb800000f9800090037000e0890009040780017
:104cc800909320001e004000014878001e0fe80065
:104cd8000e0890000000e800000f98000e089000f1
:104ce8009040780000c2b30080cf5000f2ff3a0035
:104cf800c09320008040eb00014878000000eb00e2
:104d0800000f780090932000890f07001027980063
:104d18000e0890000000e800000f98000900370016
:104d28000e08900090407800409320001e0040003c
:104d3800014878001e0fe8000e0890000000e80007
:104d4800000f98000e0890009040780000c2b30051
:104d580080cf5000f2ff3a00409320009040780046
:104d6800614f98000e0890000000e800000f9800be
:104d7800060037000e0890001040780019e8b700c8
:104d88000e0890000000e800000f98000e08900040
:104d98009040780000c2b30080cf5000f5ff3a0081
:104da80010c0b30008e8b700604080000000e000d1
:104db80005003a00409320009040780000c3b300fb
:104dc80080cf5000130b3a0010c0b30040c79800c2
:104dd800604080000000e0002a0032000000eb0084
:104de800000f78000000eb00101798000000eb009f
:104df800101798001d0037001e1090006100600019
:104e08000000e00016003a00620420000e01410094
:104e18001e1090006500b9000000780000004100f5
:104e280090407800409320001040780080cf5000d8
:104e38000b003a001e1090000000e0000300320052
:104e48001e1090000000d100301798001e1090002e
:104e58000000e00002003a009e1090003117980010
:104e68001e1090000000e800101798002e10900007
:104e780000004000800078001e109000808f5000d5
:104e8800ddff3e0040932000104078008000fb00ca
:104e9800901120000e004000f9ee070050c798005e
:104ea8001e2090000000e000d50a32009e209000ed
:104eb80000022000808f5000d10a3e000e20900092
:104ec8000000e000ce0a32008e2090000002200090
:104ed800808f5000ca0a3e005ec090000004e000c7
:104ee800c70a3200604080000000e0000300320082
:104ef800e10f500085003200230a370019c8bf00af
:104f08000000fb0051042000810f50006d003200aa
:104f180051042000810f500007003c00310420009c
:104f2800810f50007500320041042000810f5000ad
:104f380060003200140a370001052000810f50007c
:104f48003100320021052000810f50006500320039
:104f5800e1042000810f5000080a3a004e0090003a
:104f68000000e000140032002e0090000000e8006d
:104f780020079800ae009000703e2000808f5000ff
:104f8800020036000000eb0020079800ae009000f9
:104f98000e109000808f50001a003a002e009000ea
:104fa8000000e000170032002e0090000000e8002a
:104fb80020079800130037002e0090000000e8003a
:104fc80020079800ae00900030062000808f500027
:104fd800020036000000eb0020079800ae009000a9
:104fe8000e109000808f500006003a002e009000ae
:104ff8000000e000030032002e0090000000e800ee
:1050080020079800400037004e0090000000e000a4
:10501800140032002e0090000000e00003003a0067
:10502800703e200020079800030037002e009000f3
:105038000000e90020079800ae0090000e109000d4
:10504800808f50001a003a002e0090000000e00007
:10505800170032002e0090000000e9002007980099
:10506800130037002e0090000000e00003003a0013
:105078003006200020079800030037002e0090001b
:105088000000e90020079800ae0090000e10900084
:10509800808f500006003a002e0090000000e000cb
:1050a800030032002e0090000000e900200798005d
:1050b80015003700409320009d0e07002007980038
:1050c80011003700ae009000710f98004093200047
:1050d800970e070020079800ae009000011798006f
:1050e80009003700ae009000710f9800409320002f
:1050f8008f0e070020079800030037000000eb0020
:1051080020079800000000009f0937003e1090001b
:10511800cf80de009200200003002000820f5000a4
:10512800838f580097093e0000600100090037008e
:10513800fd003700f0013700e3023700d6033700df
:10514800c9043700bc053700af063700a20737008f
:105158009508370019c8bf000000fb005104200063
:10516800810f5000b700320051042000810f500019
:1051780007003c0031042000810f5000de0032009f
:1051880041042000810f5000a4003200e5003700e0
:1051980001052000810f5000630032002105200026
:1051a800810f5000c2003200e1042000810f50003e
:1051b80001003200db0037003e1090000000400084
:1051c8000000470080a090003e10900000004000c2
:1051d8000000470020a89000808f50001600310082
:1051e8003e109000000040000000470080a09000a2
:1051f8003e109000000040000000470060909000c2
:105208000000e900808f50000b0039003e1090002c
:10521800000040000000470000a090008000e80067
:105228003e1090000000400000004700000cb00055
:1052380001087800270037003e1090000000400069
:105248000000470080a090003e1090000000400041
:105258000000470020a89000808f50000a003a0004
:105268003e1090000000400000004700e0909000d1
:105278003e1090000000400000004700000cb00005
:1052880001087800130037003e109000000040002d
:105298000000470080a090003e10900000004000f1
:1052a8000000470060909000808f500009003e0089
:1052b8003e1090000000400000004700e090900081
:1052c8003e1090000000400000004700000cb000b5
:1052d800010878003e1090000000400000004700e0
:1052e80080a090003e1090000000400000004700a1
:1052f80000009100808f50000a003a003e10900094
:10530800000040000000470000a090008000e80076
:105318003e1090000000400000004700000cb00064
:10532800010878007f0037003e1090000000400020
:105338000000470080a090003e1090000000400050
:105348000000470060909000808f50000a003e00e7
:105358003e1090000000400000004700a0a8900008
:105368003e1090000000400000004700000cb00014
:1053780001087800140037003e109000000040003b
:105388000000470080a090003e1090000000400000
:105398000000470060909000808f50000a0036009f
:1053a8003e109000000040000000470000a0900060
:1053b8008000e9003e109000000040000000470017
:1053c800000cb000010878003e109000000040007a
:1053d8000000470080a090003e10900000004000b0
:1053e8000000470000009100808f50000a003a003a
:1053f8003e109000000040000000470000a0900010
:105408008000e9003e1090000000400000004700c6
:10541800000cb0000108780042003700410020006d
:1054280040932000ee0d0700800078003e109000a9
:105438000000400000004700000cb00001087800a0
:10544800380037003e109000000040000000470080
:1054580080a090003e10900000004000000047002f
:10546800c00eb0000108780040932000b00d07007e
:10547800800078003e1090000000400000004700c7
:10548800000cb000010878003e10900000004000b9
:105498000000470080a090003e10900000004000ef
:1054a800000047000010b000010878001d00370018
:1054b8003e109000000040000000470080a09000cf
:1054c8003e1090000000400000004700c00eb000f1
:1054d8000108780040932000950d070080007800af
:1054e8003e1090000000400000004700000cb00093
:1054f800010878000b0037003e10900000004000c3
:1055080000004700609090008000e9003e10900085
:105518000000400000004700000cb00001087800bf
:10552800000000009408370019c8bf000000fb0005
:1055380051042000810f5000b600320051042000b1
:10554800810f500007003c0031042000810f5000fb
:10555800dd00320041042000810f5000a400320019
:10556800e400370001052000810f5000630032007d
:1055780021052000810f5000c1003200e104200005
:10558800810f500001003200da0037003e10900011
:10559800000040000000470080a090003e109000ee
:1055a800000040000000470020a89000808f5000b5
